{
  "transactions": [
    {
      "hash": "0x413719fb5c2ff82273b732a250b8a984afb379294bbe425e647d239c5b0ddfe8",
      "transactionType": "CALL",
      "contractName": null,
      "contractAddress": "0xb1d4538b4571d411f07960ef2838ce337fe1e80e",
      "function": "approve(address,uint256)",
      "arguments": [
        "0x2a9C5afB0d0e4BAb2BCdaE109EC4b0c4Be15a165",
        "10515894048878955"
      ],
      "transaction": {
        "from": "0xeff3521fb13228c767ad6dc3b934f9efac9c56ad",
        "to": "0xb1d4538b4571d411f07960ef2838ce337fe1e80e",
        "gas": "0xecb7",
        "value": "0x0",
        "input": "0x095ea7b30000000000000000000000002a9c5afb0d0e4bab2bcdae109ec4b0c4be15a16500000000000000000000000000000000000000000000000000255c266147716b",
        "nonce": "0x28",
        "chainId": "0x66eee"
      },
      "additionalContracts": [],
      "isFixedGasLimit": false
    },
    {
      "hash": "0x9803803a9e1ecf0df2979de9263f1f215028c4bb7f23c914e6e33ea9faa9a68c",
      "transactionType": "CALL",
      "contractName": null,
      "contractAddress": "0x57c85c30ad2bc719cc34ccaeb8d2bfda1a8b1772",
      "function": "approve(address,uint256)",
      "arguments": [
        "0x2a9C5afB0d0e4BAb2BCdaE109EC4b0c4Be15a165",
        "40000000000000"
      ],
      "transaction": {
        "from": "0xeff3521fb13228c767ad6dc3b934f9efac9c56ad",
        "to": "0x57c85c30ad2bc719cc34ccaeb8d2bfda1a8b1772",
        "gas": "0xf06f",
        "value": "0x0",
        "input": "0x095ea7b30000000000000000000000002a9c5afb0d0e4bab2bcdae109ec4b0c4be15a1650000000000000000000000000000000000000000000000000000246139ca8000",
        "nonce": "0x29",
        "chainId": "0x66eee"
      },
      "additionalContracts": [],
      "isFixedGasLimit": false
    },
    {
      "hash": "0x410c495f5097129238c926420bc7d55234d51712d68e956a375a415b6a438972",
      "transactionType": "CALL",
      "contractName": null,
      "contractAddress": "0x2a9c5afb0d0e4bab2bcdae109ec4b0c4be15a165",
      "function": "ccipSend(uint64,(bytes,bytes,(address,uint256)[],address,bytes))",
      "arguments": [
        "686603546605904534",
        "(0x000000000000000000000000eff3521fb13228c767ad6dc3b934f9efac9c56ad, 0x, [(0x57C85c30ad2Bc719cc34cCAeb8D2bfda1A8B1772, 40000000000000)], 0xb1D4538B4571d411F07960EF2838Ce337FE1E80E, 0x97a657c90000000000000000000000000000000000000000000000000000000000000000)"
      ],
      "transaction": {
        "from": "0xeff3521fb13228c767ad6dc3b934f9efac9c56ad",
        "to": "0x2a9c5afb0d0e4bab2bcdae109ec4b0c4be15a165",
        "gas": "0x553c9",
        "value": "0x0",
        "input": "0x96f4e9f900000000000000000000000000000000000000000000000009874e49b0f7e296000000000000000000000000000000000000000000000000000000000000004000000000000000000000000000000000000000000000000000000000000000a000000000000000000000000000000000000000000000000000000000000000e00000000000000000000000000000000000000000000000000000000000000100000000000000000000000000b1d4538b4571d411f07960ef2838ce337fe1e80e00000000000000000000000000000000000000000000000000000000000001600000000000000000000000000000000000000000000000000000000000000020000000000000000000000000eff3521fb13228c767ad6dc3b934f9efac9c56ad0000000000000000000000000000000000000000000000000000000000000000000000000000000000000000000000000000000000000000000000000000000100000000000000000000000057c85c30ad2bc719cc34ccaeb8d2bfda1a8b17720000000000000000000000000000000000000000000000000000246139ca8000000000000000000000000000000000000000000000000000000000000000002497a657c9000000000000000000000000000000000000000000000000000000000000000000000000000000000000000000000000000000000000000000000000",
        "nonce": "0x2a",
        "chainId": "0x66eee"
      },
      "additionalContracts": [],
      "isFixedGasLimit": false
    }
  ],
  "receipts": [
    {
      "status": "0x1",
      "cumulativeGasUsed": "0x1c38b",
      "logs": [
        {
          "address": "0xb1d4538b4571d411f07960ef2838ce337fe1e80e",
          "topics": [
            "0x8c5be1e5ebec7d5bd14f71427d1e84f3dd0314c0f7b2291e5b200ac8c7c3b925",
            "0x000000000000000000000000eff3521fb13228c767ad6dc3b934f9efac9c56ad",
            "0x0000000000000000000000002a9c5afb0d0e4bab2bcdae109ec4b0c4be15a165"
          ],
          "data": "0x00000000000000000000000000000000000000000000000000255c266147716b",
          "blockHash": "0x9029821fa3329c79a165417270e193e89e6541075f612b9bbce4a6e701ff7649",
          "blockNumber": "0xc1b3644",
          "transactionHash": "0x413719fb5c2ff82273b732a250b8a984afb379294bbe425e647d239c5b0ddfe8",
          "transactionIndex": "0x2",
          "logIndex": "0x0",
          "removed": false
        }
      ],
      "logsBloom": "0x00000000000000000000000000000000000000000000000000000000000000020000000000000000000000000000000000000000000000000000000000200000000000000000000000000000000000000000000000000000002000000000000000000000000000000000000000000000000000000000000000000000000000000000080000000010000008000000000000000000000000000000000000000000020000000000000000000000000000000000100000000000000000001000000000000000000000000000000000400000000000000000000000000000000000000010000000000000000000000000000000000000000000000000000000000001",
      "type": "0x2",
      "transactionHash": "0x413719fb5c2ff82273b732a250b8a984afb379294bbe425e647d239c5b0ddfe8",
      "transactionIndex": "0x2",
      "blockHash": "0x9029821fa3329c79a165417270e193e89e6541075f612b9bbce4a6e701ff7649",
      "blockNumber": "0xc1b3644",
      "gasUsed": "0xb499",
      "effectiveGasPrice": "0x5f5e100",
      "from": "0xeff3521fb13228c767ad6dc3b934f9efac9c56ad",
      "to": "0xb1d4538b4571d411f07960ef2838ce337fe1e80e",
      "contractAddress": null,
      "gasUsedForL1": "0x0",
      "l1BlockNumber": "0x8f26f0",
      "timeboosted": false
    },
    {
      "status": "0x1",
      "cumulativeGasUsed": "0xedac2",
      "logs": [
        {
          "address": "0x57c85c30ad2bc719cc34ccaeb8d2bfda1a8b1772",
          "topics": [
            "0x8c5be1e5ebec7d5bd14f71427d1e84f3dd0314c0f7b2291e5b200ac8c7c3b925",
            "0x000000000000000000000000eff3521fb13228c767ad6dc3b934f9efac9c56ad",
            "0x0000000000000000000000002a9c5afb0d0e4bab2bcdae109ec4b0c4be15a165"
          ],
          "data": "0x0000000000000000000000000000000000000000000000000000246139ca8000",
          "blockHash": "0x477e9cbe34e8e9f36c4a02f24e1ab221f319ed01715c94665cd5a1be563e419d",
          "blockNumber": "0xc1b364b",
          "transactionHash": "0x9803803a9e1ecf0df2979de9263f1f215028c4bb7f23c914e6e33ea9faa9a68c",
          "transactionIndex": "0x7",
          "logIndex": "0x6",
          "removed": false
        }
      ],
      "logsBloom": "0x00000000000000000000000000000000000020000000000000000000000000020000000000000000000000000000000000000000000000000000000000200000000000000000000000000000000000000000000000000000002000000000000000000000000000000000000000000000000000000000000000000000000000000000000000000000000008000000000000000000000000000000000000000200020000000000000000000000000010000000100000000000000000001000000000000000000000000000000000400000000000000000000000000000000000000010000000000000000000000000000000000000000000000000000000000000",
      "type": "0x2",
      "transactionHash": "0x9803803a9e1ecf0df2979de9263f1f215028c4bb7f23c914e6e33ea9faa9a68c",
      "transactionIndex": "0x7",
      "blockHash": "0x477e9cbe34e8e9f36c4a02f24e1ab221f319ed01715c94665cd5a1be563e419d",
      "blockNumber": "0xc1b364b",
      "gasUsed": "0xb773",
      "effectiveGasPrice": "0x5f5e100",
      "from": "0xeff3521fb13228c767ad6dc3b934f9efac9c56ad",
      "to": "0x57c85c30ad2bc719cc34ccaeb8d2bfda1a8b1772",
      "contractAddress": null,
      "gasUsedForL1": "0x0",
      "l1BlockNumber": "0x8f26f0",
      "timeboosted": false
    },
    {
      "status": "0x1",
      "cumulativeGasUsed": "0xa84b3",
      "logs": [
        {
          "address": "0xb1d4538b4571d411f07960ef2838ce337fe1e80e",
          "topics": [
            "0xddf252ad1be2c89b69c2b068fc378daa952ba7f163c4a11628f55a4df523b3ef",
            "0x000000000000000000000000eff3521fb13228c767ad6dc3b934f9efac9c56ad",
            "0x00000000000000000000000003e5c12ecd7a824961f66fcbebe2fe04c0eb90ef"
          ],
          "data": "0x00000000000000000000000000000000000000000000000000255c266147716b",
          "blockHash": "0xce8f88d1d2a0523e2d38ddba167774b531281b1bb9315a8e76b6085e65521444",
          "blockNumber": "0xc1b3652",
          "transactionHash": "0x410c495f5097129238c926420bc7d55234d51712d68e956a375a415b6a438972",
          "transactionIndex": "0x8",
          "logIndex": "0x2",
          "removed": false
        },
        {
          "address": "0xb1d4538b4571d411f07960ef2838ce337fe1e80e",
          "topics": [
            "0x8c5be1e5ebec7d5bd14f71427d1e84f3dd0314c0f7b2291e5b200ac8c7c3b925",
            "0x000000000000000000000000eff3521fb13228c767ad6dc3b934f9efac9c56ad",
            "0x0000000000000000000000002a9c5afb0d0e4bab2bcdae109ec4b0c4be15a165"
          ],
          "data": "0x0000000000000000000000000000000000000000000000000000000000000000",
          "blockHash": "0xce8f88d1d2a0523e2d38ddba167774b531281b1bb9315a8e76b6085e65521444",
          "blockNumber": "0xc1b3652",
          "transactionHash": "0x410c495f5097129238c926420bc7d55234d51712d68e956a375a415b6a438972",
          "transactionIndex": "0x8",
          "logIndex": "0x3",
          "removed": false
        },
        {
          "address": "0x57c85c30ad2bc719cc34ccaeb8d2bfda1a8b1772",
          "topics": [
            "0xddf252ad1be2c89b69c2b068fc378daa952ba7f163c4a11628f55a4df523b3ef",
            "0x0000000000000000000000000000000000000000000000000000000000000000",
            "0x000000000000000000000000eff3521fb13228c767ad6dc3b934f9efac9c56ad"
          ],
          "data": "0x0000000000000000000000000000000000000000000000000000000d0bb22388",
          "blockHash": "0xce8f88d1d2a0523e2d38ddba167774b531281b1bb9315a8e76b6085e65521444",
          "blockNumber": "0xc1b3652",
          "transactionHash": "0x410c495f5097129238c926420bc7d55234d51712d68e956a375a415b6a438972",
          "transactionIndex": "0x8",
          "logIndex": "0x4",
          "removed": false
        },
        {
          "address": "0x57c85c30ad2bc719cc34ccaeb8d2bfda1a8b1772",
          "topics": [
            "0xddf252ad1be2c89b69c2b068fc378daa952ba7f163c4a11628f55a4df523b3ef",
            "0x0000000000000000000000000000000000000000000000000000000000000000",
            "0x0000000000000000000000001facfb24b61346b28905b4d64517130e43236dc8"
          ],
          "data": "0x0000000000000000000000000000000000000000000000000000000000000000",
          "blockHash": "0xce8f88d1d2a0523e2d38ddba167774b531281b1bb9315a8e76b6085e65521444",
          "blockNumber": "0xc1b3652",
          "transactionHash": "0x410c495f5097129238c926420bc7d55234d51712d68e956a375a415b6a438972",
          "transactionIndex": "0x8",
          "logIndex": "0x5",
          "removed": false
        },
        {
          "address": "0x57c85c30ad2bc719cc34ccaeb8d2bfda1a8b1772",
          "topics": [
            "0xddf252ad1be2c89b69c2b068fc378daa952ba7f163c4a11628f55a4df523b3ef",
            "0x000000000000000000000000eff3521fb13228c767ad6dc3b934f9efac9c56ad",
            "0x0000000000000000000000001facfb24b61346b28905b4d64517130e43236dc8"
          ],
          "data": "0x0000000000000000000000000000000000000000000000000000246139ca8000",
          "blockHash": "0xce8f88d1d2a0523e2d38ddba167774b531281b1bb9315a8e76b6085e65521444",
          "blockNumber": "0xc1b3652",
          "transactionHash": "0x410c495f5097129238c926420bc7d55234d51712d68e956a375a415b6a438972",
          "transactionIndex": "0x8",
          "logIndex": "0x6",
          "removed": false
        },
        {
          "address": "0x57c85c30ad2bc719cc34ccaeb8d2bfda1a8b1772",
          "topics": [
            "0xddf252ad1be2c89b69c2b068fc378daa952ba7f163c4a11628f55a4df523b3ef",
            "0x0000000000000000000000000000000000000000000000000000000000000000",
            "0x0000000000000000000000001facfb24b61346b28905b4d64517130e43236dc8"
          ],
          "data": "0x0000000000000000000000000000000000000000000000000000000000000000",
          "blockHash": "0xce8f88d1d2a0523e2d38ddba167774b531281b1bb9315a8e76b6085e65521444",
          "blockNumber": "0xc1b3652",
          "transactionHash": "0x410c495f5097129238c926420bc7d55234d51712d68e956a375a415b6a438972",
          "transactionIndex": "0x8",
          "logIndex": "0x7",
          "removed": false
        },
        {
          "address": "0x57c85c30ad2bc719cc34ccaeb8d2bfda1a8b1772",
          "topics": [
            "0xddf252ad1be2c89b69c2b068fc378daa952ba7f163c4a11628f55a4df523b3ef",
            "0x0000000000000000000000001facfb24b61346b28905b4d64517130e43236dc8",
            "0x0000000000000000000000000000000000000000000000000000000000000000"
          ],
          "data": "0x0000000000000000000000000000000000000000000000000000246139ca8000",
          "blockHash": "0xce8f88d1d2a0523e2d38ddba167774b531281b1bb9315a8e76b6085e65521444",
          "blockNumber": "0xc1b3652",
          "transactionHash": "0x410c495f5097129238c926420bc7d55234d51712d68e956a375a415b6a438972",
          "transactionIndex": "0x8",
          "logIndex": "0x8",
          "removed": false
        },
        {
          "address": "0x03e5c12ecd7a824961f66fcbebe2fe04c0eb90ef",
          "topics": [
            "0xd0c3c799bf9e2639de44391e7f524d229b2b55f5b1ea94b2bf7da42f7243dddd"
          ],
          "data": "0x0000000000000000000000000000000000000000000000000000000000000020000000000000000000000000000000000000000000000000304611b6affba76a000000000000000000000000eff3521fb13228c767ad6dc3b934f9efac9c56ad000000000000000000000000eff3521fb13228c767ad6dc3b934f9efac9c56ad0000000000000000000000000000000000000000000000000000000000000003000000000000000000000000000000000000000000000000000000000000000000000000000000000000000000000000000000000000000000000000000000000000000000000000000000000000000000000000000000000000000000000001000000000000000000000000b1d4538b4571d411f07960ef2838ce337fe1e80e00000000000000000000000000000000000000000000000000255c266147716b00000000000000000000000000000000000000000000000000000000000001a000000000000000000000000000000000000000000000000000000000000001c000000000000000000000000000000000000000000000000000000000000002201d7763ce89e041c5904f4d1929cd5f4b9c164e62c61c0fe0ce3abd8cd59948f20000000000000000000000000000000000000000000000000000000000000000000000000000000000000000000000000000000000000000000000000000000100000000000000000000000057c85c30ad2bc719cc34ccaeb8d2bfda1a8b17720000000000000000000000000000000000000000000000000000246139ca80000000000000000000000000000000000000000000000000000000000000000001000000000000000000000000000000000000000000000000000000000000002000000000000000000000000000000000000000000000000000000000000001600000000000000000000000000000000000000000000000000000000000000020000000000000000000000000000000000000000000000000000000000000008000000000000000000000000000000000000000000000000000000000000000c000000000000000000000000000000000000000000000000000000000000001000000000000000000000000000000000000000000000000000000000000015f9000000000000000000000000000000000000000000000000000000000000000200000000000000000000000001facfb24b61346b28905b4d64517130e43236dc800000000000000000000000000000000000000000000000000000000000000200000000000000000000000008e110ce664fdd508b71dfca39b8618482993d8ad00000000000000000000000000000000000000000000000000000000000000200000000000000000000000000000000000000000000000000000000ba43b7400",
          "blockHash": "0xce8f88d1d2a0523e2d38ddba167774b531281b1bb9315a8e76b6085e65521444",
          "blockNumber": "0xc1b3652",
          "transactionHash": "0x410c495f5097129238c926420bc7d55234d51712d68e956a375a415b6a438972",
          "transactionIndex": "0x8",
          "logIndex": "0x9",
          "removed": false
        }
      ],
      "logsBloom": "0x00000020000000000000000000000000000020000000000000000000000000020000000000000000000000000200000000000000000000800000000000200000000000000000000000000008000008000000000000000000002000000000000000000000020000000000000000000800000000000000000000000010000000000000080400000010000008000000000000000000000008000000000000000200020000000000000400000000000010000000100000000000000100101000000000000002000000000000000000400000100000000000000000000000000020000010000000000000000000000000000004000000000000800000000000000001",
      "type": "0x2",
      "transactionHash": "0x410c495f5097129238c926420bc7d55234d51712d68e956a375a415b6a438972",
      "transactionIndex": "0x8",
      "blockHash": "0xce8f88d1d2a0523e2d38ddba167774b531281b1bb9315a8e76b6085e65521444",
      "blockNumber": "0xc1b3652",
      "gasUsed": "0x3db5c",
      "effectiveGasPrice": "0x5f5e100",
      "from": "0xeff3521fb13228c767ad6dc3b934f9efac9c56ad",
      "to": "0x2a9c5afb0d0e4bab2bcdae109ec4b0c4be15a165",
      "contractAddress": null,
      "gasUsedForL1": "0x0",
      "l1BlockNumber": "0x8f26f0",
      "timeboosted": false
    }
  ],
  "libraries": [],
  "pending": [],
  "returns": {},
  "timestamp": 1760088338,
  "chain": 421614,
  "commit": "8557215"
}