{
  "transactions": [
    {
      "hash": "0x04dc48a0afe09a8a41934d3fc1d610ee9a8a4ae594125ffa1e6c511278da0890",
      "transactionType": "CALL",
      "contractName": null,
      "contractAddress": "0xb1d4538b4571d411f07960ef2838ce337fe1e80e",
      "function": "approve(address,uint256)",
      "arguments": [
        "0x2a9C5afB0d0e4BAb2BCdaE109EC4b0c4Be15a165",
        "10515862147172652"
      ],
      "transaction": {
        "from": "0xeff3521fb13228c767ad6dc3b934f9efac9c56ad",
        "to": "0xb1d4538b4571d411f07960ef2838ce337fe1e80e",
        "gas": "0xecb7",
        "value": "0x0",
        "input": "0x095ea7b30000000000000000000000002a9c5afb0d0e4bab2bcdae109ec4b0c4be15a16500000000000000000000000000000000000000000000000000255c1ef3ca092c",
        "nonce": "0x1f",
        "chainId": "0x66eee"
      },
      "additionalContracts": [],
      "isFixedGasLimit": false
    },
    {
      "hash": "0x5b5415e16983e8d747fb242df72694b77e588253eac28245b96e0357b58b9ed1",
      "transactionType": "CALL",
      "contractName": null,
      "contractAddress": "0x57c85c30ad2bc719cc34ccaeb8d2bfda1a8b1772",
      "function": "approve(address,uint256)",
      "arguments": [
        "0x2a9C5afB0d0e4BAb2BCdaE109EC4b0c4Be15a165",
        "10000000000000"
      ],
      "transaction": {
        "from": "0xeff3521fb13228c767ad6dc3b934f9efac9c56ad",
        "to": "0x57c85c30ad2bc719cc34ccaeb8d2bfda1a8b1772",
        "gas": "0xf06f",
        "value": "0x0",
        "input": "0x095ea7b30000000000000000000000002a9c5afb0d0e4bab2bcdae109ec4b0c4be15a165000000000000000000000000000000000000000000000000000009184e72a000",
        "nonce": "0x20",
        "chainId": "0x66eee"
      },
      "additionalContracts": [],
      "isFixedGasLimit": false
    },
    {
      "hash": "0xa51892ed9ff9231fa9d8a080e9e9a7dde020dc1c94bc5713189fde2daf6b27e4",
      "transactionType": "CALL",
      "contractName": null,
      "contractAddress": "0x2a9c5afb0d0e4bab2bcdae109ec4b0c4be15a165",
      "function": "ccipSend(uint64,(bytes,bytes,(address,uint256)[],address,bytes))",
      "arguments": [
        "10344971235874465080",
        "(0x000000000000000000000000eff3521fb13228c767ad6dc3b934f9efac9c56ad, 0x, [(0x57C85c30ad2Bc719cc34cCAeb8D2bfda1A8B1772, 10000000000000)], 0xb1D4538B4571d411F07960EF2838Ce337FE1E80E, 0x97a657c90000000000000000000000000000000000000000000000000000000000000000)"
      ],
      "transaction": {
        "from": "0xeff3521fb13228c767ad6dc3b934f9efac9c56ad",
        "to": "0x2a9c5afb0d0e4bab2bcdae109ec4b0c4be15a165",
        "gas": "0x5e945",
        "value": "0x0",
        "input": "0x96f4e9f90000000000000000000000000000000000000000000000008f90b8876dee6538000000000000000000000000000000000000000000000000000000000000004000000000000000000000000000000000000000000000000000000000000000a000000000000000000000000000000000000000000000000000000000000000e00000000000000000000000000000000000000000000000000000000000000100000000000000000000000000b1d4538b4571d411f07960ef2838ce337fe1e80e00000000000000000000000000000000000000000000000000000000000001600000000000000000000000000000000000000000000000000000000000000020000000000000000000000000eff3521fb13228c767ad6dc3b934f9efac9c56ad0000000000000000000000000000000000000000000000000000000000000000000000000000000000000000000000000000000000000000000000000000000100000000000000000000000057c85c30ad2bc719cc34ccaeb8d2bfda1a8b1772000000000000000000000000000000000000000000000000000009184e72a000000000000000000000000000000000000000000000000000000000000000002497a657c9000000000000000000000000000000000000000000000000000000000000000000000000000000000000000000000000000000000000000000000000",
        "nonce": "0x21",
        "chainId": "0x66eee"
      },
      "additionalContracts": [],
      "isFixedGasLimit": false
    }
  ],
  "receipts": [
    {
      "status": "0x1",
      "cumulativeGasUsed": "0x4299f",
      "logs": [
        {
          "address": "0xb1d4538b4571d411f07960ef2838ce337fe1e80e",
          "topics": [
            "0x8c5be1e5ebec7d5bd14f71427d1e84f3dd0314c0f7b2291e5b200ac8c7c3b925",
            "0x000000000000000000000000eff3521fb13228c767ad6dc3b934f9efac9c56ad",
            "0x0000000000000000000000002a9c5afb0d0e4bab2bcdae109ec4b0c4be15a165"
          ],
          "data": "0x00000000000000000000000000000000000000000000000000255c1ef3ca092c",
          "blockHash": "0xcba9799044dfc9b8ef71a7e04f807f2a6b96e8ba31c54126c8e1eb860c3a828c",
          "blockNumber": "0xc1b3213",
          "transactionHash": "0x04dc48a0afe09a8a41934d3fc1d610ee9a8a4ae594125ffa1e6c511278da0890",
          "transactionIndex": "0x2",
          "logIndex": "0x5",
          "removed": false
        }
      ],
      "logsBloom": "0x00000000000000000000000000000000000000000000000000000000000000020000000000000000000000000000000000000000000000000000000000200000000000000000000000000000000000000000000000000000002000000000000000000000000000000000000000000000000000000000000000000000000000000000080000000010000008000000000000000000000000000000000000000000020000000000000000000000000000000000100000000000000000001000000000000000000000000000000000400000000000000000000000000000000000000010000000000000000000000000000000000000000000000000000000000001",
      "type": "0x2",
      "transactionHash": "0x04dc48a0afe09a8a41934d3fc1d610ee9a8a4ae594125ffa1e6c511278da0890",
      "transactionIndex": "0x2",
      "blockHash": "0xcba9799044dfc9b8ef71a7e04f807f2a6b96e8ba31c54126c8e1eb860c3a828c",
      "blockNumber": "0xc1b3213",
      "gasUsed": "0xb499",
      "effectiveGasPrice": "0x5f5e100",
      "from": "0xeff3521fb13228c767ad6dc3b934f9efac9c56ad",
      "to": "0xb1d4538b4571d411f07960ef2838ce337fe1e80e",
      "contractAddress": null,
      "gasUsedForL1": "0x0",
      "l1BlockNumber": "0x8f26db",
      "timeboosted": false
    },
    {
      "status": "0x1",
      "cumulativeGasUsed": "0x218d4",
      "logs": [
        {
          "address": "0x57c85c30ad2bc719cc34ccaeb8d2bfda1a8b1772",
          "topics": [
            "0x8c5be1e5ebec7d5bd14f71427d1e84f3dd0314c0f7b2291e5b200ac8c7c3b925",
            "0x000000000000000000000000eff3521fb13228c767ad6dc3b934f9efac9c56ad",
            "0x0000000000000000000000002a9c5afb0d0e4bab2bcdae109ec4b0c4be15a165"
          ],
          "data": "0x000000000000000000000000000000000000000000000000000009184e72a000",
          "blockHash": "0xa0829114d65dc2ec878fb4cd84d34e8c498de74339a90b2ac0d16bf1a1e0c3c4",
          "blockNumber": "0xc1b3227",
          "transactionHash": "0x5b5415e16983e8d747fb242df72694b77e588253eac28245b96e0357b58b9ed1",
          "transactionIndex": "0x2",
          "logIndex": "0x1",
          "removed": false
        }
      ],
      "logsBloom": "0x00000000000000000000000000000000000020000000000000000000000000020000000000000000000000000000000000000000000000000000000000200000000000000000000000000000000000000000000000000000002000000000000000000000000000000000000000000000000000000000000000000000000000000000000000000000000008000000000000000000000000000000000000000200020000000000000000000000000010000000100000000000000000001000000000000000000000000000000000400000000000000000000000000000000000000010000000000000000000000000000000000000000000000000000000000000",
      "type": "0x2",
      "transactionHash": "0x5b5415e16983e8d747fb242df72694b77e588253eac28245b96e0357b58b9ed1",
      "transactionIndex": "0x2",
      "blockHash": "0xa0829114d65dc2ec878fb4cd84d34e8c498de74339a90b2ac0d16bf1a1e0c3c4",
      "blockNumber": "0xc1b3227",
      "gasUsed": "0xb773",
      "effectiveGasPrice": "0x5f5e100",
      "from": "0xeff3521fb13228c767ad6dc3b934f9efac9c56ad",
      "to": "0x57c85c30ad2bc719cc34ccaeb8d2bfda1a8b1772",
      "contractAddress": null,
      "gasUsedForL1": "0x0",
      "l1BlockNumber": "0x8f26db",
      "timeboosted": false
    },
    {
      "status": "0x1",
      "cumulativeGasUsed": "0x7806a",
      "logs": [
        {
          "address": "0xb1d4538b4571d411f07960ef2838ce337fe1e80e",
          "topics": [
            "0xddf252ad1be2c89b69c2b068fc378daa952ba7f163c4a11628f55a4df523b3ef",
            "0x000000000000000000000000eff3521fb13228c767ad6dc3b934f9efac9c56ad",
            "0x000000000000000000000000f1623862e4c9f9fba1ac0181c4ff53b4f958f065"
          ],
          "data": "0x00000000000000000000000000000000000000000000000000255c1ef3ca092c",
          "blockHash": "0x1c574aa23680289fb367bccfa85fd5f7c4afb9608fc44662e38839cbd40c2d8e",
          "blockNumber": "0xc1b3235",
          "transactionHash": "0xa51892ed9ff9231fa9d8a080e9e9a7dde020dc1c94bc5713189fde2daf6b27e4",
          "transactionIndex": "0x4",
          "logIndex": "0x2",
          "removed": false
        },
        {
          "address": "0xb1d4538b4571d411f07960ef2838ce337fe1e80e",
          "topics": [
            "0x8c5be1e5ebec7d5bd14f71427d1e84f3dd0314c0f7b2291e5b200ac8c7c3b925",
            "0x000000000000000000000000eff3521fb13228c767ad6dc3b934f9efac9c56ad",
            "0x0000000000000000000000002a9c5afb0d0e4bab2bcdae109ec4b0c4be15a165"
          ],
          "data": "0x0000000000000000000000000000000000000000000000000000000000000000",
          "blockHash": "0x1c574aa23680289fb367bccfa85fd5f7c4afb9608fc44662e38839cbd40c2d8e",
          "blockNumber": "0xc1b3235",
          "transactionHash": "0xa51892ed9ff9231fa9d8a080e9e9a7dde020dc1c94bc5713189fde2daf6b27e4",
          "transactionIndex": "0x4",
          "logIndex": "0x3",
          "removed": false
        },
        {
          "address": "0x57c85c30ad2bc719cc34ccaeb8d2bfda1a8b1772",
          "topics": [
            "0xddf252ad1be2c89b69c2b068fc378daa952ba7f163c4a11628f55a4df523b3ef",
            "0x0000000000000000000000000000000000000000000000000000000000000000",
            "0x000000000000000000000000eff3521fb13228c767ad6dc3b934f9efac9c56ad"
          ],
          "data": "0x000000000000000000000000000000000000000000000000000001473e540700",
          "blockHash": "0x1c574aa23680289fb367bccfa85fd5f7c4afb9608fc44662e38839cbd40c2d8e",
          "blockNumber": "0xc1b3235",
          "transactionHash": "0xa51892ed9ff9231fa9d8a080e9e9a7dde020dc1c94bc5713189fde2daf6b27e4",
          "transactionIndex": "0x4",
          "logIndex": "0x4",
          "removed": false
        },
        {
          "address": "0x57c85c30ad2bc719cc34ccaeb8d2bfda1a8b1772",
          "topics": [
            "0xddf252ad1be2c89b69c2b068fc378daa952ba7f163c4a11628f55a4df523b3ef",
            "0x0000000000000000000000000000000000000000000000000000000000000000",
            "0x0000000000000000000000001facfb24b61346b28905b4d64517130e43236dc8"
          ],
          "data": "0x0000000000000000000000000000000000000000000000000000000000000000",
          "blockHash": "0x1c574aa23680289fb367bccfa85fd5f7c4afb9608fc44662e38839cbd40c2d8e",
          "blockNumber": "0xc1b3235",
          "transactionHash": "0xa51892ed9ff9231fa9d8a080e9e9a7dde020dc1c94bc5713189fde2daf6b27e4",
          "transactionIndex": "0x4",
          "logIndex": "0x5",
          "removed": false
        },
        {
          "address": "0x57c85c30ad2bc719cc34ccaeb8d2bfda1a8b1772",
          "topics": [
            "0xddf252ad1be2c89b69c2b068fc378daa952ba7f163c4a11628f55a4df523b3ef",
            "0x000000000000000000000000eff3521fb13228c767ad6dc3b934f9efac9c56ad",
            "0x0000000000000000000000001facfb24b61346b28905b4d64517130e43236dc8"
          ],
          "data": "0x000000000000000000000000000000000000000000000000000009184e72a000",
          "blockHash": "0x1c574aa23680289fb367bccfa85fd5f7c4afb9608fc44662e38839cbd40c2d8e",
          "blockNumber": "0xc1b3235",
          "transactionHash": "0xa51892ed9ff9231fa9d8a080e9e9a7dde020dc1c94bc5713189fde2daf6b27e4",
          "transactionIndex": "0x4",
          "logIndex": "0x6",
          "removed": false
        },
        {
          "address": "0x57c85c30ad2bc719cc34ccaeb8d2bfda1a8b1772",
          "topics": [
            "0xddf252ad1be2c89b69c2b068fc378daa952ba7f163c4a11628f55a4df523b3ef",
            "0x0000000000000000000000000000000000000000000000000000000000000000",
            "0x0000000000000000000000001facfb24b61346b28905b4d64517130e43236dc8"
          ],
          "data": "0x0000000000000000000000000000000000000000000000000000000000000000",
          "blockHash": "0x1c574aa23680289fb367bccfa85fd5f7c4afb9608fc44662e38839cbd40c2d8e",
          "blockNumber": "0xc1b3235",
          "transactionHash": "0xa51892ed9ff9231fa9d8a080e9e9a7dde020dc1c94bc5713189fde2daf6b27e4",
          "transactionIndex": "0x4",
          "logIndex": "0x7",
          "removed": false
        },
        {
          "address": "0x57c85c30ad2bc719cc34ccaeb8d2bfda1a8b1772",
          "topics": [
            "0xddf252ad1be2c89b69c2b068fc378daa952ba7f163c4a11628f55a4df523b3ef",
            "0x0000000000000000000000001facfb24b61346b28905b4d64517130e43236dc8",
            "0x0000000000000000000000000000000000000000000000000000000000000000"
          ],
          "data": "0x000000000000000000000000000000000000000000000000000009184e72a000",
          "blockHash": "0x1c574aa23680289fb367bccfa85fd5f7c4afb9608fc44662e38839cbd40c2d8e",
          "blockNumber": "0xc1b3235",
          "transactionHash": "0xa51892ed9ff9231fa9d8a080e9e9a7dde020dc1c94bc5713189fde2daf6b27e4",
          "transactionIndex": "0x4",
          "logIndex": "0x8",
          "removed": false
        },
        {
          "address": "0xf1623862e4c9f9fba1ac0181c4ff53b4f958f065",
          "topics": [
            "0xd0c3c799bf9e2639de44391e7f524d229b2b55f5b1ea94b2bf7da42f7243dddd"
          ],
          "data": "0x0000000000000000000000000000000000000000000000000000000000000020000000000000000000000000000000000000000000000000304611b6affba76a000000000000000000000000eff3521fb13228c767ad6dc3b934f9efac9c56ad000000000000000000000000eff3521fb13228c767ad6dc3b934f9efac9c56ad000000000000000000000000000000000000000000000000000000000003abb7000000000000000000000000000000000000000000000000000000000000000000000000000000000000000000000000000000000000000000000000000000000000000000000000000000000000000000000000000000000000000000000001000000000000000000000000b1d4538b4571d411f07960ef2838ce337fe1e80e00000000000000000000000000000000000000000000000000255c1ef3ca092c00000000000000000000000000000000000000000000000000000000000001a000000000000000000000000000000000000000000000000000000000000001c00000000000000000000000000000000000000000000000000000000000000220af31c508f299cd89558c6acefad7e7b8a309ce5fd4ac938e5332c4039b71b8590000000000000000000000000000000000000000000000000000000000000000000000000000000000000000000000000000000000000000000000000000000100000000000000000000000057c85c30ad2bc719cc34ccaeb8d2bfda1a8b1772000000000000000000000000000000000000000000000000000009184e72a0000000000000000000000000000000000000000000000000000000000000000001000000000000000000000000000000000000000000000000000000000000002000000000000000000000000000000000000000000000000000000000000001600000000000000000000000000000000000000000000000000000000000000020000000000000000000000000000000000000000000000000000000000000008000000000000000000000000000000000000000000000000000000000000000c000000000000000000000000000000000000000000000000000000000000001000000000000000000000000000000000000000000000000000000000000015f9000000000000000000000000000000000000000000000000000000000000000200000000000000000000000001facfb24b61346b28905b4d64517130e43236dc800000000000000000000000000000000000000000000000000000000000000200000000000000000000000008e110ce664fdd508b71dfca39b8618482993d8ad00000000000000000000000000000000000000000000000000000000000000200000000000000000000000000000000000000000000000000000000ba43b7400",
          "blockHash": "0x1c574aa23680289fb367bccfa85fd5f7c4afb9608fc44662e38839cbd40c2d8e",
          "blockNumber": "0xc1b3235",
          "transactionHash": "0xa51892ed9ff9231fa9d8a080e9e9a7dde020dc1c94bc5713189fde2daf6b27e4",
          "transactionIndex": "0x4",
          "logIndex": "0x9",
          "removed": false
        }
      ],
      "logsBloom": "0x00000000000000000000000000000000000020000000000000000000000000020000000000000000000001000000000000000000000000000000000000201000000000082000000000000008000000000000000000000000002000000000000000000000020000000000000001000800000000000000000000000010000000000000080000000010000008000000000000000000000008000000000000001200020000000000000400000000000010000000100000000000000100101000000000000002000000000000000000400000000000000000000000000000000020000010000000000000000000000000000004000000000000800000000000000001",
      "type": "0x2",
      "transactionHash": "0xa51892ed9ff9231fa9d8a080e9e9a7dde020dc1c94bc5713189fde2daf6b27e4",
      "transactionIndex": "0x4",
      "blockHash": "0x1c574aa23680289fb367bccfa85fd5f7c4afb9608fc44662e38839cbd40c2d8e",
      "blockNumber": "0xc1b3235",
      "gasUsed": "0x44795",
      "effectiveGasPrice": "0x5f5e100",
      "from": "0xeff3521fb13228c767ad6dc3b934f9efac9c56ad",
      "to": "0x2a9c5afb0d0e4bab2bcdae109ec4b0c4be15a165",
      "contractAddress": null,
      "gasUsedForL1": "0x0",
      "l1BlockNumber": "0x8f26db",
      "timeboosted": false
    }
  ],
  "libraries": [],
  "pending": [],
  "returns": {},
  "timestamp": 1760088074,
  "chain": 421614,
  "commit": "8557215"
}