{
  "transactions": [
    {
      "hash": "0x06b9a1adfabad5908ad64f9e0c9b547feeffab76eb6065a03473b8701809663d",
      "transactionType": "CALL",
      "contractName": null,
      "contractAddress": "0xb1d4538b4571d411f07960ef2838ce337fe1e80e",
      "function": "approve(address,uint256)",
      "arguments": [
        "0x2a9C5afB0d0e4BAb2BCdaE109EC4b0c4Be15a165",
        "18288625771144482"
      ],
      "transaction": {
        "from": "0xeff3521fb13228c767ad6dc3b934f9efac9c56ad",
        "to": "0xb1d4538b4571d411f07960ef2838ce337fe1e80e",
        "gas": "0xecb7",
        "value": "0x0",
        "input": "0x095ea7b30000000000000000000000002a9c5afb0d0e4bab2bcdae109ec4b0c4be15a1650000000000000000000000000000000000000000000000000040f9688284e522",
        "nonce": "0x25",
        "chainId": "0x66eee"
      },
      "additionalContracts": [],
      "isFixedGasLimit": false
    },
    {
      "hash": "0xbd7ff795aa3e64a028ea6b05910a2e7f546006250c03e03154ddc9870ca8969c",
      "transactionType": "CALL",
      "contractName": null,
      "contractAddress": "0x57c85c30ad2bc719cc34ccaeb8d2bfda1a8b1772",
      "function": "approve(address,uint256)",
      "arguments": [
        "0x2a9C5afB0d0e4BAb2BCdaE109EC4b0c4Be15a165",
        "30000000000000"
      ],
      "transaction": {
        "from": "0xeff3521fb13228c767ad6dc3b934f9efac9c56ad",
        "to": "0x57c85c30ad2bc719cc34ccaeb8d2bfda1a8b1772",
        "gas": "0xf06f",
        "value": "0x0",
        "input": "0x095ea7b30000000000000000000000002a9c5afb0d0e4bab2bcdae109ec4b0c4be15a16500000000000000000000000000000000000000000000000000001b48eb57e000",
        "nonce": "0x26",
        "chainId": "0x66eee"
      },
      "additionalContracts": [],
      "isFixedGasLimit": false
    },
    {
      "hash": "0xfaf17d31881dc04c8c662e10cfbc6d93da4470f9e9734110bfe9127fd1dd6550",
      "transactionType": "CALL",
      "contractName": null,
      "contractAddress": "0x2a9c5afb0d0e4bab2bcdae109ec4b0c4be15a165",
      "function": "ccipSend(uint64,(bytes,bytes,(address,uint256)[],address,bytes))",
      "arguments": [
        "5224473277236331295",
        "(0x000000000000000000000000eff3521fb13228c767ad6dc3b934f9efac9c56ad, 0x, [(0x57C85c30ad2Bc719cc34cCAeb8D2bfda1A8B1772, 30000000000000)], 0xb1D4538B4571d411F07960EF2838Ce337FE1E80E, 0x97a657c90000000000000000000000000000000000000000000000000000000000000000)"
      ],
      "transaction": {
        "from": "0xeff3521fb13228c767ad6dc3b934f9efac9c56ad",
        "to": "0x2a9c5afb0d0e4bab2bcdae109ec4b0c4be15a165",
        "gas": "0x521a2",
        "value": "0x0",
        "input": "0x96f4e9f900000000000000000000000000000000000000000000000048810ec3e431431f000000000000000000000000000000000000000000000000000000000000004000000000000000000000000000000000000000000000000000000000000000a000000000000000000000000000000000000000000000000000000000000000e00000000000000000000000000000000000000000000000000000000000000100000000000000000000000000b1d4538b4571d411f07960ef2838ce337fe1e80e00000000000000000000000000000000000000000000000000000000000001600000000000000000000000000000000000000000000000000000000000000020000000000000000000000000eff3521fb13228c767ad6dc3b934f9efac9c56ad0000000000000000000000000000000000000000000000000000000000000000000000000000000000000000000000000000000000000000000000000000000100000000000000000000000057c85c30ad2bc719cc34ccaeb8d2bfda1a8b177200000000000000000000000000000000000000000000000000001b48eb57e000000000000000000000000000000000000000000000000000000000000000002497a657c9000000000000000000000000000000000000000000000000000000000000000000000000000000000000000000000000000000000000000000000000",
        "nonce": "0x27",
        "chainId": "0x66eee"
      },
      "additionalContracts": [],
      "isFixedGasLimit": false
    }
  ],
  "receipts": [
    {
      "status": "0x1",
      "cumulativeGasUsed": "0xa5e2c",
      "logs": [
        {
          "address": "0xb1d4538b4571d411f07960ef2838ce337fe1e80e",
          "topics": [
            "0x8c5be1e5ebec7d5bd14f71427d1e84f3dd0314c0f7b2291e5b200ac8c7c3b925",
            "0x000000000000000000000000eff3521fb13228c767ad6dc3b934f9efac9c56ad",
            "0x0000000000000000000000002a9c5afb0d0e4bab2bcdae109ec4b0c4be15a165"
          ],
          "data": "0x0000000000000000000000000000000000000000000000000040f9688284e522",
          "blockHash": "0xbe11daa4c8a6611a8757a6a40426b36e07af0be2d72965c0926329e9fbab9c96",
          "blockNumber": "0xc1b350e",
          "transactionHash": "0x06b9a1adfabad5908ad64f9e0c9b547feeffab76eb6065a03473b8701809663d",
          "transactionIndex": "0x5",
          "logIndex": "0x1",
          "removed": false
        }
      ],
      "logsBloom": "0x00000000000000000000000000000000000000000000000000000000000000020000000000000000000000000000000000000000000000000000000000200000000000000000000000000000000000000000000000000000002000000000000000000000000000000000000000000000000000000000000000000000000000000000080000000010000008000000000000000000000000000000000000000000020000000000000000000000000000000000100000000000000000001000000000000000000000000000000000400000000000000000000000000000000000000010000000000000000000000000000000000000000000000000000000000001",
      "type": "0x2",
      "transactionHash": "0x06b9a1adfabad5908ad64f9e0c9b547feeffab76eb6065a03473b8701809663d",
      "transactionIndex": "0x5",
      "blockHash": "0xbe11daa4c8a6611a8757a6a40426b36e07af0be2d72965c0926329e9fbab9c96",
      "blockNumber": "0xc1b350e",
      "gasUsed": "0xb499",
      "effectiveGasPrice": "0x5f5e100",
      "from": "0xeff3521fb13228c767ad6dc3b934f9efac9c56ad",
      "to": "0xb1d4538b4571d411f07960ef2838ce337fe1e80e",
      "contractAddress": null,
      "gasUsedForL1": "0x0",
      "l1BlockNumber": "0x8f26e8",
      "timeboosted": false
    },
    {
      "status": "0x1",
      "cumulativeGasUsed": "0x1b1b2",
      "logs": [
        {
          "address": "0x57c85c30ad2bc719cc34ccaeb8d2bfda1a8b1772",
          "topics": [
            "0x8c5be1e5ebec7d5bd14f71427d1e84f3dd0314c0f7b2291e5b200ac8c7c3b925",
            "0x000000000000000000000000eff3521fb13228c767ad6dc3b934f9efac9c56ad",
            "0x0000000000000000000000002a9c5afb0d0e4bab2bcdae109ec4b0c4be15a165"
          ],
          "data": "0x00000000000000000000000000000000000000000000000000001b48eb57e000",
          "blockHash": "0xa790f5e04665059d183e761a041a26c8b502648b0cca5e7c49382f458c0843d8",
          "blockNumber": "0xc1b3519",
          "transactionHash": "0xbd7ff795aa3e64a028ea6b05910a2e7f546006250c03e03154ddc9870ca8969c",
          "transactionIndex": "0x2",
          "logIndex": "0x0",
          "removed": false
        }
      ],
      "logsBloom": "0x00000000000000000000000000000000000020000000000000000000000000020000000000000000000000000000000000000000000000000000000000200000000000000000000000000000000000000000000000000000002000000000000000000000000000000000000000000000000000000000000000000000000000000000000000000000000008000000000000000000000000000000000000000200020000000000000000000000000010000000100000000000000000001000000000000000000000000000000000400000000000000000000000000000000000000010000000000000000000000000000000000000000000000000000000000000",
      "type": "0x2",
      "transactionHash": "0xbd7ff795aa3e64a028ea6b05910a2e7f546006250c03e03154ddc9870ca8969c",
      "transactionIndex": "0x2",
      "blockHash": "0xa790f5e04665059d183e761a041a26c8b502648b0cca5e7c49382f458c0843d8",
      "blockNumber": "0xc1b3519",
      "gasUsed": "0xb773",
      "effectiveGasPrice": "0x5f5e100",
      "from": "0xeff3521fb13228c767ad6dc3b934f9efac9c56ad",
      "to": "0x57c85c30ad2bc719cc34ccaeb8d2bfda1a8b1772",
      "contractAddress": null,
      "gasUsedForL1": "0x0",
      "l1BlockNumber": "0x8f26ea",
      "timeboosted": false
    },
    {
      "status": "0x1",
      "cumulativeGasUsed": "0xc126f",
      "logs": [
        {
          "address": "0xb1d4538b4571d411f07960ef2838ce337fe1e80e",
          "topics": [
            "0xddf252ad1be2c89b69c2b068fc378daa952ba7f163c4a11628f55a4df523b3ef",
            "0x000000000000000000000000eff3521fb13228c767ad6dc3b934f9efac9c56ad",
            "0x0000000000000000000000000b0c08bb2fa2ebde25817009ee39ea1ad9bcac58"
          ],
          "data": "0x0000000000000000000000000000000000000000000000000040f9688284e522",
          "blockHash": "0x4de47bd3a752194d619b50cd201ebb1db91625c3153f8eb708064725358298e1",
          "blockNumber": "0xc1b3521",
          "transactionHash": "0xfaf17d31881dc04c8c662e10cfbc6d93da4470f9e9734110bfe9127fd1dd6550",
          "transactionIndex": "0x6",
          "logIndex": "0x9",
          "removed": false
        },
        {
          "address": "0xb1d4538b4571d411f07960ef2838ce337fe1e80e",
          "topics": [
            "0x8c5be1e5ebec7d5bd14f71427d1e84f3dd0314c0f7b2291e5b200ac8c7c3b925",
            "0x000000000000000000000000eff3521fb13228c767ad6dc3b934f9efac9c56ad",
            "0x0000000000000000000000002a9c5afb0d0e4bab2bcdae109ec4b0c4be15a165"
          ],
          "data": "0x0000000000000000000000000000000000000000000000000000000000000000",
          "blockHash": "0x4de47bd3a752194d619b50cd201ebb1db91625c3153f8eb708064725358298e1",
          "blockNumber": "0xc1b3521",
          "transactionHash": "0xfaf17d31881dc04c8c662e10cfbc6d93da4470f9e9734110bfe9127fd1dd6550",
          "transactionIndex": "0x6",
          "logIndex": "0xa",
          "removed": false
        },
        {
          "address": "0x57c85c30ad2bc719cc34ccaeb8d2bfda1a8b1772",
          "topics": [
            "0xddf252ad1be2c89b69c2b068fc378daa952ba7f163c4a11628f55a4df523b3ef",
            "0x0000000000000000000000000000000000000000000000000000000000000000",
            "0x000000000000000000000000eff3521fb13228c767ad6dc3b934f9efac9c56ad"
          ],
          "data": "0x0000000000000000000000000000000000000000000000000000001008e66f96",
          "blockHash": "0x4de47bd3a752194d619b50cd201ebb1db91625c3153f8eb708064725358298e1",
          "blockNumber": "0xc1b3521",
          "transactionHash": "0xfaf17d31881dc04c8c662e10cfbc6d93da4470f9e9734110bfe9127fd1dd6550",
          "transactionIndex": "0x6",
          "logIndex": "0xb",
          "removed": false
        },
        {
          "address": "0x57c85c30ad2bc719cc34ccaeb8d2bfda1a8b1772",
          "topics": [
            "0xddf252ad1be2c89b69c2b068fc378daa952ba7f163c4a11628f55a4df523b3ef",
            "0x0000000000000000000000000000000000000000000000000000000000000000",
            "0x0000000000000000000000001facfb24b61346b28905b4d64517130e43236dc8"
          ],
          "data": "0x0000000000000000000000000000000000000000000000000000000000000000",
          "blockHash": "0x4de47bd3a752194d619b50cd201ebb1db91625c3153f8eb708064725358298e1",
          "blockNumber": "0xc1b3521",
          "transactionHash": "0xfaf17d31881dc04c8c662e10cfbc6d93da4470f9e9734110bfe9127fd1dd6550",
          "transactionIndex": "0x6",
          "logIndex": "0xc",
          "removed": false
        },
        {
          "address": "0x57c85c30ad2bc719cc34ccaeb8d2bfda1a8b1772",
          "topics": [
            "0xddf252ad1be2c89b69c2b068fc378daa952ba7f163c4a11628f55a4df523b3ef",
            "0x000000000000000000000000eff3521fb13228c767ad6dc3b934f9efac9c56ad",
            "0x0000000000000000000000001facfb24b61346b28905b4d64517130e43236dc8"
          ],
          "data": "0x00000000000000000000000000000000000000000000000000001b48eb57e000",
          "blockHash": "0x4de47bd3a752194d619b50cd201ebb1db91625c3153f8eb708064725358298e1",
          "blockNumber": "0xc1b3521",
          "transactionHash": "0xfaf17d31881dc04c8c662e10cfbc6d93da4470f9e9734110bfe9127fd1dd6550",
          "transactionIndex": "0x6",
          "logIndex": "0xd",
          "removed": false
        },
        {
          "address": "0x57c85c30ad2bc719cc34ccaeb8d2bfda1a8b1772",
          "topics": [
            "0xddf252ad1be2c89b69c2b068fc378daa952ba7f163c4a11628f55a4df523b3ef",
            "0x0000000000000000000000000000000000000000000000000000000000000000",
            "0x0000000000000000000000001facfb24b61346b28905b4d64517130e43236dc8"
          ],
          "data": "0x0000000000000000000000000000000000000000000000000000000000000000",
          "blockHash": "0x4de47bd3a752194d619b50cd201ebb1db91625c3153f8eb708064725358298e1",
          "blockNumber": "0xc1b3521",
          "transactionHash": "0xfaf17d31881dc04c8c662e10cfbc6d93da4470f9e9734110bfe9127fd1dd6550",
          "transactionIndex": "0x6",
          "logIndex": "0xe",
          "removed": false
        },
        {
          "address": "0x57c85c30ad2bc719cc34ccaeb8d2bfda1a8b1772",
          "topics": [
            "0xddf252ad1be2c89b69c2b068fc378daa952ba7f163c4a11628f55a4df523b3ef",
            "0x0000000000000000000000001facfb24b61346b28905b4d64517130e43236dc8",
            "0x0000000000000000000000000000000000000000000000000000000000000000"
          ],
          "data": "0x00000000000000000000000000000000000000000000000000001b48eb57e000",
          "blockHash": "0x4de47bd3a752194d619b50cd201ebb1db91625c3153f8eb708064725358298e1",
          "blockNumber": "0xc1b3521",
          "transactionHash": "0xfaf17d31881dc04c8c662e10cfbc6d93da4470f9e9734110bfe9127fd1dd6550",
          "transactionIndex": "0x6",
          "logIndex": "0xf",
          "removed": false
        },
        {
          "address": "0x0b0c08bb2fa2ebde25817009ee39ea1ad9bcac58",
          "topics": [
            "0xd0c3c799bf9e2639de44391e7f524d229b2b55f5b1ea94b2bf7da42f7243dddd"
          ],
          "data": "0x0000000000000000000000000000000000000000000000000000000000000020000000000000000000000000000000000000000000000000304611b6affba76a000000000000000000000000eff3521fb13228c767ad6dc3b934f9efac9c56ad000000000000000000000000eff3521fb13228c767ad6dc3b934f9efac9c56ad00000000000000000000000000000000000000000000000000000000000360a9000000000000000000000000000000000000000000000000000000000000000000000000000000000000000000000000000000000000000000000000000000000000000000000000000000000000000000000000000000000000000000000001000000000000000000000000b1d4538b4571d411f07960ef2838ce337fe1e80e0000000000000000000000000000000000000000000000000040f9688284e52200000000000000000000000000000000000000000000000000000000000001a000000000000000000000000000000000000000000000000000000000000001c00000000000000000000000000000000000000000000000000000000000000220394b9b7d641c32031663d8f4872a63b173a7ebc780dacedfd988550987d337cc0000000000000000000000000000000000000000000000000000000000000000000000000000000000000000000000000000000000000000000000000000000100000000000000000000000057c85c30ad2bc719cc34ccaeb8d2bfda1a8b177200000000000000000000000000000000000000000000000000001b48eb57e0000000000000000000000000000000000000000000000000000000000000000001000000000000000000000000000000000000000000000000000000000000002000000000000000000000000000000000000000000000000000000000000001600000000000000000000000000000000000000000000000000000000000000020000000000000000000000000000000000000000000000000000000000000008000000000000000000000000000000000000000000000000000000000000000c000000000000000000000000000000000000000000000000000000000000001000000000000000000000000000000000000000000000000000000000000015f9000000000000000000000000000000000000000000000000000000000000000200000000000000000000000001facfb24b61346b28905b4d64517130e43236dc800000000000000000000000000000000000000000000000000000000000000200000000000000000000000008e110ce664fdd508b71dfca39b8618482993d8ad00000000000000000000000000000000000000000000000000000000000000200000000000000000000000000000000000000000000000000000000ba43b7400",
          "blockHash": "0x4de47bd3a752194d619b50cd201ebb1db91625c3153f8eb708064725358298e1",
          "blockNumber": "0xc1b3521",
          "transactionHash": "0xfaf17d31881dc04c8c662e10cfbc6d93da4470f9e9734110bfe9127fd1dd6550",
          "transactionIndex": "0x6",
          "logIndex": "0x10",
          "removed": false
        }
      ],
      "logsBloom": "0x00000000000000000000000000000000000020000000000000000000000000020000000000000040000000000000000000000000000000000000000000200000200000000000000000000008000000000000000000000000002000000000000000000000020000000000000000000800000000000000000000008010000000000000080000000010000008000000000000000000000008000000000000000200020000000000000400000020000010000000100000000000000100101000000000000002000000000000000000402000000000000000000000000000000020000010010000000000000000000000000004000000000000800000000000000001",
      "type": "0x2",
      "transactionHash": "0xfaf17d31881dc04c8c662e10cfbc6d93da4470f9e9734110bfe9127fd1dd6550",
      "transactionIndex": "0x6",
      "blockHash": "0x4de47bd3a752194d619b50cd201ebb1db91625c3153f8eb708064725358298e1",
      "blockNumber": "0xc1b3521",
      "gasUsed": "0x3b70d",
      "effectiveGasPrice": "0x5f5e100",
      "from": "0xeff3521fb13228c767ad6dc3b934f9efac9c56ad",
      "to": "0x2a9c5afb0d0e4bab2bcdae109ec4b0c4be15a165",
      "contractAddress": null,
      "gasUsedForL1": "0x0",
      "l1BlockNumber": "0x8f26ea",
      "timeboosted": false
    }
  ],
  "libraries": [],
  "pending": [],
  "returns": {},
  "timestamp": 1760088261,
  "chain": 421614,
  "commit": "8557215"
}