{
  "transactions": [
    {
      "hash": "0xe8fa9fe9677822169dacb140ea7ad6e81950b4820d21005e0555cd1f11dfd738",
      "transactionType": "CALL",
      "contractName": null,
      "contractAddress": "0xb1d4538b4571d411f07960ef2838ce337fe1e80e",
      "function": "approve(address,uint256)",
      "arguments": [
        "0x2a9C5afB0d0e4BAb2BCdaE109EC4b0c4Be15a165",
        "10523594277305930"
      ],
      "transaction": {
        "from": "0xeff3521fb13228c767ad6dc3b934f9efac9c56ad",
        "to": "0xb1d4538b4571d411f07960ef2838ce337fe1e80e",
        "gas": "0xecb7",
        "value": "0x0",
        "input": "0x095ea7b30000000000000000000000002a9c5afb0d0e4bab2bcdae109ec4b0c4be15a165000000000000000000000000000000000000000000000000002563273aa8be4a",
        "nonce": "0x22",
        "chainId": "0x66eee"
      },
      "additionalContracts": [],
      "isFixedGasLimit": false
    },
    {
      "hash": "0xc39105d9041bff8fd4ca1ed672229d9662c92a6e5ac29862859382540ea71304",
      "transactionType": "CALL",
      "contractName": null,
      "contractAddress": "0x57c85c30ad2bc719cc34ccaeb8d2bfda1a8b1772",
      "function": "approve(address,uint256)",
      "arguments": [
        "0x2a9C5afB0d0e4BAb2BCdaE109EC4b0c4Be15a165",
        "20000000000000"
      ],
      "transaction": {
        "from": "0xeff3521fb13228c767ad6dc3b934f9efac9c56ad",
        "to": "0x57c85c30ad2bc719cc34ccaeb8d2bfda1a8b1772",
        "gas": "0xf06f",
        "value": "0x0",
        "input": "0x095ea7b30000000000000000000000002a9c5afb0d0e4bab2bcdae109ec4b0c4be15a165000000000000000000000000000000000000000000000000000012309ce54000",
        "nonce": "0x23",
        "chainId": "0x66eee"
      },
      "additionalContracts": [],
      "isFixedGasLimit": false
    },
    {
      "hash": "0x7559d6861bb117ea095ef2ab16735282130819dd1ee5122238e1a76439719ab4",
      "transactionType": "CALL",
      "contractName": null,
      "contractAddress": "0x2a9c5afb0d0e4bab2bcdae109ec4b0c4be15a165",
      "function": "ccipSend(uint64,(bytes,bytes,(address,uint256)[],address,bytes))",
      "arguments": [
        "16015286601757825753",
        "(0x000000000000000000000000eff3521fb13228c767ad6dc3b934f9efac9c56ad, 0x, [(0x57C85c30ad2Bc719cc34cCAeb8D2bfda1A8B1772, 20000000000000)], 0xb1D4538B4571d411F07960EF2838Ce337FE1E80E, 0x97a657c90000000000000000000000000000000000000000000000000000000000000000)"
      ],
      "transaction": {
        "from": "0xeff3521fb13228c767ad6dc3b934f9efac9c56ad",
        "to": "0x2a9c5afb0d0e4bab2bcdae109ec4b0c4be15a165",
        "gas": "0x4e1db",
        "value": "0x0",
        "input": "0x96f4e9f9000000000000000000000000000000000000000000000000de41ba4fc9d91ad9000000000000000000000000000000000000000000000000000000000000004000000000000000000000000000000000000000000000000000000000000000a000000000000000000000000000000000000000000000000000000000000000e00000000000000000000000000000000000000000000000000000000000000100000000000000000000000000b1d4538b4571d411f07960ef2838ce337fe1e80e00000000000000000000000000000000000000000000000000000000000001600000000000000000000000000000000000000000000000000000000000000020000000000000000000000000eff3521fb13228c767ad6dc3b934f9efac9c56ad0000000000000000000000000000000000000000000000000000000000000000000000000000000000000000000000000000000000000000000000000000000100000000000000000000000057c85c30ad2bc719cc34ccaeb8d2bfda1a8b1772000000000000000000000000000000000000000000000000000012309ce54000000000000000000000000000000000000000000000000000000000000000002497a657c9000000000000000000000000000000000000000000000000000000000000000000000000000000000000000000000000000000000000000000000000",
        "nonce": "0x24",
        "chainId": "0x66eee"
      },
      "additionalContracts": [],
      "isFixedGasLimit": false
    }
  ],
  "receipts": [
    {
      "status": "0x1",
      "cumulativeGasUsed": "0x79cb3",
      "logs": [
        {
          "address": "0xb1d4538b4571d411f07960ef2838ce337fe1e80e",
          "topics": [
            "0x8c5be1e5ebec7d5bd14f71427d1e84f3dd0314c0f7b2291e5b200ac8c7c3b925",
            "0x000000000000000000000000eff3521fb13228c767ad6dc3b934f9efac9c56ad",
            "0x0000000000000000000000002a9c5afb0d0e4bab2bcdae109ec4b0c4be15a165"
          ],
          "data": "0x000000000000000000000000000000000000000000000000002563273aa8be4a",
          "blockHash": "0x3660530d7398024caf90d43021837cf79b47680e1ef5f37a05834e2abc68b3cc",
          "blockNumber": "0xc1b338a",
          "transactionHash": "0xe8fa9fe9677822169dacb140ea7ad6e81950b4820d21005e0555cd1f11dfd738",
          "transactionIndex": "0x6",
          "logIndex": "0xa",
          "removed": false
        }
      ],
      "logsBloom": "0x00000000000000000000000000000000000000000000000000000000000000020000000000000000000000000000000000000000000000000000000000200000000000000000000000000000000000000000000000000000002000000000000000000000000000000000000000000000000000000000000000000000000000000000080000000010000008000000000000000000000000000000000000000000020000000000000000000000000000000000100000000000000000001000000000000000000000000000000000400000000000000000000000000000000000000010000000000000000000000000000000000000000000000000000000000001",
      "type": "0x2",
      "transactionHash": "0xe8fa9fe9677822169dacb140ea7ad6e81950b4820d21005e0555cd1f11dfd738",
      "transactionIndex": "0x6",
      "blockHash": "0x3660530d7398024caf90d43021837cf79b47680e1ef5f37a05834e2abc68b3cc",
      "blockNumber": "0xc1b338a",
      "gasUsed": "0xb499",
      "effectiveGasPrice": "0x5f5e100",
      "from": "0xeff3521fb13228c767ad6dc3b934f9efac9c56ad",
      "to": "0xb1d4538b4571d411f07960ef2838ce337fe1e80e",
      "contractAddress": null,
      "gasUsedForL1": "0x0",
      "l1BlockNumber": "0x8f26e1",
      "timeboosted": false
    },
    {
      "status": "0x1",
      "cumulativeGasUsed": "0x121377",
      "logs": [
        {
          "address": "0x57c85c30ad2bc719cc34ccaeb8d2bfda1a8b1772",
          "topics": [
            "0x8c5be1e5ebec7d5bd14f71427d1e84f3dd0314c0f7b2291e5b200ac8c7c3b925",
            "0x000000000000000000000000eff3521fb13228c767ad6dc3b934f9efac9c56ad",
            "0x0000000000000000000000002a9c5afb0d0e4bab2bcdae109ec4b0c4be15a165"
          ],
          "data": "0x000000000000000000000000000000000000000000000000000012309ce54000",
          "blockHash": "0x83225b3547daf236d8fef487bae34b60a704479950156b581009a87e9df3358a",
          "blockNumber": "0xc1b339d",
          "transactionHash": "0xc39105d9041bff8fd4ca1ed672229d9662c92a6e5ac29862859382540ea71304",
          "transactionIndex": "0x9",
          "logIndex": "0x8",
          "removed": false
        }
      ],
      "logsBloom": "0x00000000000000000000000000000000000020000000000000000000000000020000000000000000000000000000000000000000000000000000000000200000000000000000000000000000000000000000000000000000002000000000000000000000000000000000000000000000000000000000000000000000000000000000000000000000000008000000000000000000000000000000000000000200020000000000000000000000000010000000100000000000000000001000000000000000000000000000000000400000000000000000000000000000000000000010000000000000000000000000000000000000000000000000000000000000",
      "type": "0x2",
      "transactionHash": "0xc39105d9041bff8fd4ca1ed672229d9662c92a6e5ac29862859382540ea71304",
      "transactionIndex": "0x9",
      "blockHash": "0x83225b3547daf236d8fef487bae34b60a704479950156b581009a87e9df3358a",
      "blockNumber": "0xc1b339d",
      "gasUsed": "0xb773",
      "effectiveGasPrice": "0x5f5e100",
      "from": "0xeff3521fb13228c767ad6dc3b934f9efac9c56ad",
      "to": "0x57c85c30ad2bc719cc34ccaeb8d2bfda1a8b1772",
      "contractAddress": null,
      "gasUsedForL1": "0x0",
      "l1BlockNumber": "0x8f26e1",
      "timeboosted": false
    },
    {
      "status": "0x1",
      "cumulativeGasUsed": "0x3569b",
      "logs": [
        {
          "address": "0xb1d4538b4571d411f07960ef2838ce337fe1e80e",
          "topics": [
            "0xddf252ad1be2c89b69c2b068fc378daa952ba7f163c4a11628f55a4df523b3ef",
            "0x000000000000000000000000eff3521fb13228c767ad6dc3b934f9efac9c56ad",
            "0x00000000000000000000000064d78f20ad987c7d52fdcb8fb0777bd00de53210"
          ],
          "data": "0x000000000000000000000000000000000000000000000000002563273aa8be4a",
          "blockHash": "0x314ad4abf7ef5af3f7985d9fa4b9fe69c9f58ada466c5311cf78031308b04958",
          "blockNumber": "0xc1b33b4",
          "transactionHash": "0x7559d6861bb117ea095ef2ab16735282130819dd1ee5122238e1a76439719ab4",
          "transactionIndex": "0x1",
          "logIndex": "0x0",
          "removed": false
        },
        {
          "address": "0xb1d4538b4571d411f07960ef2838ce337fe1e80e",
          "topics": [
            "0x8c5be1e5ebec7d5bd14f71427d1e84f3dd0314c0f7b2291e5b200ac8c7c3b925",
            "0x000000000000000000000000eff3521fb13228c767ad6dc3b934f9efac9c56ad",
            "0x0000000000000000000000002a9c5afb0d0e4bab2bcdae109ec4b0c4be15a165"
          ],
          "data": "0x0000000000000000000000000000000000000000000000000000000000000000",
          "blockHash": "0x314ad4abf7ef5af3f7985d9fa4b9fe69c9f58ada466c5311cf78031308b04958",
          "blockNumber": "0xc1b33b4",
          "transactionHash": "0x7559d6861bb117ea095ef2ab16735282130819dd1ee5122238e1a76439719ab4",
          "transactionIndex": "0x1",
          "logIndex": "0x1",
          "removed": false
        },
        {
          "address": "0x57c85c30ad2bc719cc34ccaeb8d2bfda1a8b1772",
          "topics": [
            "0xddf252ad1be2c89b69c2b068fc378daa952ba7f163c4a11628f55a4df523b3ef",
            "0x0000000000000000000000000000000000000000000000000000000000000000",
            "0x000000000000000000000000eff3521fb13228c767ad6dc3b934f9efac9c56ad"
          ],
          "data": "0x00000000000000000000000000000000000000000000000000000010c1135520",
          "blockHash": "0x314ad4abf7ef5af3f7985d9fa4b9fe69c9f58ada466c5311cf78031308b04958",
          "blockNumber": "0xc1b33b4",
          "transactionHash": "0x7559d6861bb117ea095ef2ab16735282130819dd1ee5122238e1a76439719ab4",
          "transactionIndex": "0x1",
          "logIndex": "0x2",
          "removed": false
        },
        {
          "address": "0x57c85c30ad2bc719cc34ccaeb8d2bfda1a8b1772",
          "topics": [
            "0xddf252ad1be2c89b69c2b068fc378daa952ba7f163c4a11628f55a4df523b3ef",
            "0x0000000000000000000000000000000000000000000000000000000000000000",
            "0x0000000000000000000000001facfb24b61346b28905b4d64517130e43236dc8"
          ],
          "data": "0x0000000000000000000000000000000000000000000000000000000000000000",
          "blockHash": "0x314ad4abf7ef5af3f7985d9fa4b9fe69c9f58ada466c5311cf78031308b04958",
          "blockNumber": "0xc1b33b4",
          "transactionHash": "0x7559d6861bb117ea095ef2ab16735282130819dd1ee5122238e1a76439719ab4",
          "transactionIndex": "0x1",
          "logIndex": "0x3",
          "removed": false
        },
        {
          "address": "0x57c85c30ad2bc719cc34ccaeb8d2bfda1a8b1772",
          "topics": [
            "0xddf252ad1be2c89b69c2b068fc378daa952ba7f163c4a11628f55a4df523b3ef",
            "0x000000000000000000000000eff3521fb13228c767ad6dc3b934f9efac9c56ad",
            "0x0000000000000000000000001facfb24b61346b28905b4d64517130e43236dc8"
          ],
          "data": "0x000000000000000000000000000000000000000000000000000012309ce54000",
          "blockHash": "0x314ad4abf7ef5af3f7985d9fa4b9fe69c9f58ada466c5311cf78031308b04958",
          "blockNumber": "0xc1b33b4",
          "transactionHash": "0x7559d6861bb117ea095ef2ab16735282130819dd1ee5122238e1a76439719ab4",
          "transactionIndex": "0x1",
          "logIndex": "0x4",
          "removed": false
        },
        {
          "address": "0x57c85c30ad2bc719cc34ccaeb8d2bfda1a8b1772",
          "topics": [
            "0xddf252ad1be2c89b69c2b068fc378daa952ba7f163c4a11628f55a4df523b3ef",
            "0x0000000000000000000000000000000000000000000000000000000000000000",
            "0x0000000000000000000000001facfb24b61346b28905b4d64517130e43236dc8"
          ],
          "data": "0x0000000000000000000000000000000000000000000000000000000000000000",
          "blockHash": "0x314ad4abf7ef5af3f7985d9fa4b9fe69c9f58ada466c5311cf78031308b04958",
          "blockNumber": "0xc1b33b4",
          "transactionHash": "0x7559d6861bb117ea095ef2ab16735282130819dd1ee5122238e1a76439719ab4",
          "transactionIndex": "0x1",
          "logIndex": "0x5",
          "removed": false
        },
        {
          "address": "0x57c85c30ad2bc719cc34ccaeb8d2bfda1a8b1772",
          "topics": [
            "0xddf252ad1be2c89b69c2b068fc378daa952ba7f163c4a11628f55a4df523b3ef",
            "0x0000000000000000000000001facfb24b61346b28905b4d64517130e43236dc8",
            "0x0000000000000000000000000000000000000000000000000000000000000000"
          ],
          "data": "0x000000000000000000000000000000000000000000000000000012309ce54000",
          "blockHash": "0x314ad4abf7ef5af3f7985d9fa4b9fe69c9f58ada466c5311cf78031308b04958",
          "blockNumber": "0xc1b33b4",
          "transactionHash": "0x7559d6861bb117ea095ef2ab16735282130819dd1ee5122238e1a76439719ab4",
          "transactionIndex": "0x1",
          "logIndex": "0x6",
          "removed": false
        },
        {
          "address": "0x64d78f20ad987c7d52fdcb8fb0777bd00de53210",
          "topics": [
            "0xd0c3c799bf9e2639de44391e7f524d229b2b55f5b1ea94b2bf7da42f7243dddd"
          ],
          "data": "0x0000000000000000000000000000000000000000000000000000000000000020000000000000000000000000000000000000000000000000304611b6affba76a000000000000000000000000eff3521fb13228c767ad6dc3b934f9efac9c56ad000000000000000000000000eff3521fb13228c767ad6dc3b934f9efac9c56ad0000000000000000000000000000000000000000000000000000000000001210000000000000000000000000000000000000000000000000000000000000000000000000000000000000000000000000000000000000000000000000000000000000000000000000000000000000000000000000000000000000000000000003000000000000000000000000b1d4538b4571d411f07960ef2838ce337fe1e80e000000000000000000000000000000000000000000000000002563273aa8be4a00000000000000000000000000000000000000000000000000000000000001a000000000000000000000000000000000000000000000000000000000000001c0000000000000000000000000000000000000000000000000000000000000022062d38b5ca0e2504f349634b211673cc5246ed70a9e83e9a461f38331395805f70000000000000000000000000000000000000000000000000000000000000000000000000000000000000000000000000000000000000000000000000000000100000000000000000000000057c85c30ad2bc719cc34ccaeb8d2bfda1a8b1772000000000000000000000000000000000000000000000000000012309ce540000000000000000000000000000000000000000000000000000000000000000001000000000000000000000000000000000000000000000000000000000000002000000000000000000000000000000000000000000000000000000000000001600000000000000000000000000000000000000000000000000000000000000020000000000000000000000000000000000000000000000000000000000000008000000000000000000000000000000000000000000000000000000000000000c000000000000000000000000000000000000000000000000000000000000001000000000000000000000000000000000000000000000000000000000000015f9000000000000000000000000000000000000000000000000000000000000000200000000000000000000000001facfb24b61346b28905b4d64517130e43236dc800000000000000000000000000000000000000000000000000000000000000200000000000000000000000009ddcb877b4bf4e0674e56fe2b6cedd497fb87ffc00000000000000000000000000000000000000000000000000000000000000200000000000000000000000000000000000000000000000000000000ba43b7400",
          "blockHash": "0x314ad4abf7ef5af3f7985d9fa4b9fe69c9f58ada466c5311cf78031308b04958",
          "blockNumber": "0xc1b33b4",
          "transactionHash": "0x7559d6861bb117ea095ef2ab16735282130819dd1ee5122238e1a76439719ab4",
          "transactionIndex": "0x1",
          "logIndex": "0x7",
          "removed": false
        }
      ],
      "logsBloom": "0x00000000000000040000000000000000000020000000000000000000000000024000000000000000000000000000000000000000000000000000000000200000000000000000000000000008000000001000000000000000002000001000400000000000020000000000000000000800000000000000000000000010000000000000080000000010000008000000000000000000000008000000000000000200020000000000000400000000000010000000100000000000000100101000000000000002000000000000000000400000001000000000000000000000000020000010000000000000000000000000000004000000000000800000000000000001",
      "type": "0x2",
      "transactionHash": "0x7559d6861bb117ea095ef2ab16735282130819dd1ee5122238e1a76439719ab4",
      "transactionIndex": "0x1",
      "blockHash": "0x314ad4abf7ef5af3f7985d9fa4b9fe69c9f58ada466c5311cf78031308b04958",
      "blockNumber": "0xc1b33b4",
      "gasUsed": "0x3569b",
      "effectiveGasPrice": "0x5f5e100",
      "from": "0xeff3521fb13228c767ad6dc3b934f9efac9c56ad",
      "to": "0x2a9c5afb0d0e4bab2bcdae109ec4b0c4be15a165",
      "contractAddress": null,
      "gasUsedForL1": "0x0",
      "l1BlockNumber": "0x8f26e2",
      "timeboosted": false
    }
  ],
  "libraries": [],
  "pending": [],
  "returns": {},
  "timestamp": 1760088172,
  "chain": 421614,
  "commit": "8557215"
}