{
  "transactions": [
    {
      "hash": "0x2dd52105dbd17a4d54ee78698121bd10600c7382ad14895950e043f3dd2d975f",
      "transactionType": "CALL",
      "contractName": null,
      "contractAddress": "0xb1d4538b4571d411f07960ef2838ce337fe1e80e",
      "function": "approve(address,uint256)",
      "arguments": [
        "0x2a9C5afB0d0e4BAb2BCdaE109EC4b0c4Be15a165",
        "9979132045998661"
      ],
      "transaction": {
        "from": "0xeff3521fb13228c767ad6dc3b934f9efac9c56ad",
        "to": "0xb1d4538b4571d411f07960ef2838ce337fe1e80e",
        "gas": "0xecb7",
        "value": "0x0",
        "input": "0x095ea7b30000000000000000000000002a9c5afb0d0e4bab2bcdae109ec4b0c4be15a165000000000000000000000000000000000000000000000000002373f7bcc4ba45",
        "nonce": "0xb",
        "chainId": "0x66eee"
      },
      "additionalContracts": [],
      "isFixedGasLimit": false
    },
    {
      "hash": "0x22de2cc5208307ec1b8bee7e99161b50abb295790e194a0bac1f2eaff318631a",
      "transactionType": "CALL",
      "contractName": null,
      "contractAddress": "0x8e110ce664fdd508b71dfca39b8618482993d8ad",
      "function": "approve(address,uint256)",
      "arguments": [
        "0x2a9C5afB0d0e4BAb2BCdaE109EC4b0c4Be15a165",
        "100000000000000"
      ],
      "transaction": {
        "from": "0xeff3521fb13228c767ad6dc3b934f9efac9c56ad",
        "to": "0x8e110ce664fdd508b71dfca39b8618482993d8ad",
        "gas": "0xf06f",
        "value": "0x0",
        "input": "0x095ea7b30000000000000000000000002a9c5afb0d0e4bab2bcdae109ec4b0c4be15a16500000000000000000000000000000000000000000000000000005af3107a4000",
        "nonce": "0xc",
        "chainId": "0x66eee"
      },
      "additionalContracts": [],
      "isFixedGasLimit": false
    },
    {
      "hash": "0xea2526ead5d1b8a591de01dcf0471d22beadf8a639e9f5930bd5ffad2d3ad2ac",
      "transactionType": "CALL",
      "contractName": null,
      "contractAddress": "0x2a9c5afb0d0e4bab2bcdae109ec4b0c4be15a165",
      "function": "ccipSend(uint64,(bytes,bytes,(address,uint256)[],address,bytes))",
      "arguments": [
        "16015286601757825753",
        "(0x000000000000000000000000eff3521fb13228c767ad6dc3b934f9efac9c56ad, 0x, [(0x8e110CE664fdD508B71DFca39B8618482993d8AD, 100000000000000)], 0xb1D4538B4571d411F07960EF2838Ce337FE1E80E, 0x97a657c90000000000000000000000000000000000000000000000000000000000000000)"
      ],
      "transaction": {
        "from": "0xeff3521fb13228c767ad6dc3b934f9efac9c56ad",
        "to": "0x2a9c5afb0d0e4bab2bcdae109ec4b0c4be15a165",
        "gas": "0x5e09c",
        "value": "0x0",
        "input": "0x96f4e9f9000000000000000000000000000000000000000000000000de41ba4fc9d91ad9000000000000000000000000000000000000000000000000000000000000004000000000000000000000000000000000000000000000000000000000000000a000000000000000000000000000000000000000000000000000000000000000e00000000000000000000000000000000000000000000000000000000000000100000000000000000000000000b1d4538b4571d411f07960ef2838ce337fe1e80e00000000000000000000000000000000000000000000000000000000000001600000000000000000000000000000000000000000000000000000000000000020000000000000000000000000eff3521fb13228c767ad6dc3b934f9efac9c56ad000000000000000000000000000000000000000000000000000000000000000000000000000000000000000000000000000000000000000000000000000000010000000000000000000000008e110ce664fdd508b71dfca39b8618482993d8ad00000000000000000000000000000000000000000000000000005af3107a4000000000000000000000000000000000000000000000000000000000000000002497a657c9000000000000000000000000000000000000000000000000000000000000000000000000000000000000000000000000000000000000000000000000",
        "nonce": "0xd",
        "chainId": "0x66eee"
      },
      "additionalContracts": [],
      "isFixedGasLimit": false
    }
  ],
  "receipts": [
    {
      "status": "0x1",
      "cumulativeGasUsed": "0xb499",
      "logs": [
        {
          "address": "0xb1d4538b4571d411f07960ef2838ce337fe1e80e",
          "topics": [
            "0x8c5be1e5ebec7d5bd14f71427d1e84f3dd0314c0f7b2291e5b200ac8c7c3b925",
            "0x000000000000000000000000eff3521fb13228c767ad6dc3b934f9efac9c56ad",
            "0x0000000000000000000000002a9c5afb0d0e4bab2bcdae109ec4b0c4be15a165"
          ],
          "data": "0x000000000000000000000000000000000000000000000000002373f7bcc4ba45",
          "blockHash": "0xbc735a0b4515856ae946ffbe931af4937ae2bc2b5c709b8cc8e7bf127028a344",
          "blockNumber": "0xc0abbd0",
          "transactionHash": "0x2dd52105dbd17a4d54ee78698121bd10600c7382ad14895950e043f3dd2d975f",
          "transactionIndex": "0x1",
          "logIndex": "0x0",
          "removed": false
        }
      ],
      "logsBloom": "0x00000000000000000000000000000000000000000000000000000000000000020000000000000000000000000000000000000000000000000000000000200000000000000000000000000000000000000000000000000000002000000000000000000000000000000000000000000000000000000000000000000000000000000000080000000010000008000000000000000000000000000000000000000000020000000000000000000000000000000000100000000000000000001000000000000000000000000000000000400000000000000000000000000000000000000010000000000000000000000000000000000000000000000000000000000001",
      "type": "0x2",
      "transactionHash": "0x2dd52105dbd17a4d54ee78698121bd10600c7382ad14895950e043f3dd2d975f",
      "transactionIndex": "0x1",
      "blockHash": "0xbc735a0b4515856ae946ffbe931af4937ae2bc2b5c709b8cc8e7bf127028a344",
      "blockNumber": "0xc0abbd0",
      "gasUsed": "0xb499",
      "effectiveGasPrice": "0x5f5e100",
      "from": "0xeff3521fb13228c767ad6dc3b934f9efac9c56ad",
      "to": "0xb1d4538b4571d411f07960ef2838ce337fe1e80e",
      "contractAddress": null,
      "gasUsedForL1": "0x0",
      "l1BlockNumber": "0x8ed2e4",
      "timeboosted": false
    },
    {
      "status": "0x1",
      "cumulativeGasUsed": "0xdcfb8",
      "logs": [
        {
          "address": "0x8e110ce664fdd508b71dfca39b8618482993d8ad",
          "topics": [
            "0x8c5be1e5ebec7d5bd14f71427d1e84f3dd0314c0f7b2291e5b200ac8c7c3b925",
            "0x000000000000000000000000eff3521fb13228c767ad6dc3b934f9efac9c56ad",
            "0x0000000000000000000000002a9c5afb0d0e4bab2bcdae109ec4b0c4be15a165"
          ],
          "data": "0x00000000000000000000000000000000000000000000000000005af3107a4000",
          "blockHash": "0x0764b874b3dc9e5a9ecf2a4de9688c27164e9a543439ca2749f190f53af3e85d",
          "blockNumber": "0xc0abbda",
          "transactionHash": "0x22de2cc5208307ec1b8bee7e99161b50abb295790e194a0bac1f2eaff318631a",
          "transactionIndex": "0x5",
          "logIndex": "0xc",
          "removed": false
        }
      ],
      "logsBloom": "0x00000000000000000000000000000000000000000000000000000000000000020000000000000400000000000000000000000000000000000000000000200000000000000000000000000000000000000000000000000000002000000000000100000000000000000000000000000000000000000000000000000000000000000000000000000000000008000000000000000000000000000000000000000000020000000000000000000000000000000000100000000000000000001000000000000000000000000000000000400000000000000000000000000000000000000010000000000040000000000000000000000000000000000000000000000000",
      "type": "0x2",
      "transactionHash": "0x22de2cc5208307ec1b8bee7e99161b50abb295790e194a0bac1f2eaff318631a",
      "transactionIndex": "0x5",
      "blockHash": "0x0764b874b3dc9e5a9ecf2a4de9688c27164e9a543439ca2749f190f53af3e85d",
      "blockNumber": "0xc0abbda",
      "gasUsed": "0xb773",
      "effectiveGasPrice": "0x5f5e100",
      "from": "0xeff3521fb13228c767ad6dc3b934f9efac9c56ad",
      "to": "0x8e110ce664fdd508b71dfca39b8618482993d8ad",
      "contractAddress": null,
      "gasUsedForL1": "0x0",
      "l1BlockNumber": "0x8ed2e4",
      "timeboosted": false
    },
    {
      "status": "0x1",
      "cumulativeGasUsed": "0x5c1d6",
      "logs": [
        {
          "address": "0xb1d4538b4571d411f07960ef2838ce337fe1e80e",
          "topics": [
            "0xddf252ad1be2c89b69c2b068fc378daa952ba7f163c4a11628f55a4df523b3ef",
            "0x000000000000000000000000eff3521fb13228c767ad6dc3b934f9efac9c56ad",
            "0x00000000000000000000000064d78f20ad987c7d52fdcb8fb0777bd00de53210"
          ],
          "data": "0x000000000000000000000000000000000000000000000000002373f7bcc4ba45",
          "blockHash": "0x732196ebbdee35d04e02b68403f852cb9adfaf75c01a0362196344f77dc220f6",
          "blockNumber": "0xc0abbe3",
          "transactionHash": "0xea2526ead5d1b8a591de01dcf0471d22beadf8a639e9f5930bd5ffad2d3ad2ac",
          "transactionIndex": "0x3",
          "logIndex": "0x0",
          "removed": false
        },
        {
          "address": "0xb1d4538b4571d411f07960ef2838ce337fe1e80e",
          "topics": [
            "0x8c5be1e5ebec7d5bd14f71427d1e84f3dd0314c0f7b2291e5b200ac8c7c3b925",
            "0x000000000000000000000000eff3521fb13228c767ad6dc3b934f9efac9c56ad",
            "0x0000000000000000000000002a9c5afb0d0e4bab2bcdae109ec4b0c4be15a165"
          ],
          "data": "0x0000000000000000000000000000000000000000000000000000000000000000",
          "blockHash": "0x732196ebbdee35d04e02b68403f852cb9adfaf75c01a0362196344f77dc220f6",
          "blockNumber": "0xc0abbe3",
          "transactionHash": "0xea2526ead5d1b8a591de01dcf0471d22beadf8a639e9f5930bd5ffad2d3ad2ac",
          "transactionIndex": "0x3",
          "logIndex": "0x1",
          "removed": false
        },
        {
          "address": "0x8e110ce664fdd508b71dfca39b8618482993d8ad",
          "topics": [
            "0xddf252ad1be2c89b69c2b068fc378daa952ba7f163c4a11628f55a4df523b3ef",
            "0x0000000000000000000000000000000000000000000000000000000000000000",
            "0x000000000000000000000000eff3521fb13228c767ad6dc3b934f9efac9c56ad"
          ],
          "data": "0x000000000000000000000000000000000000000000000000000000003b042ad0",
          "blockHash": "0x732196ebbdee35d04e02b68403f852cb9adfaf75c01a0362196344f77dc220f6",
          "blockNumber": "0xc0abbe3",
          "transactionHash": "0xea2526ead5d1b8a591de01dcf0471d22beadf8a639e9f5930bd5ffad2d3ad2ac",
          "transactionIndex": "0x3",
          "logIndex": "0x2",
          "removed": false
        },
        {
          "address": "0x8e110ce664fdd508b71dfca39b8618482993d8ad",
          "topics": [
            "0xddf252ad1be2c89b69c2b068fc378daa952ba7f163c4a11628f55a4df523b3ef",
            "0x0000000000000000000000000000000000000000000000000000000000000000",
            "0x000000000000000000000000eda2fd6af7b3d3255115811572354eeeaecefdf1"
          ],
          "data": "0x0000000000000000000000000000000000000000000000000000000000000000",
          "blockHash": "0x732196ebbdee35d04e02b68403f852cb9adfaf75c01a0362196344f77dc220f6",
          "blockNumber": "0xc0abbe3",
          "transactionHash": "0xea2526ead5d1b8a591de01dcf0471d22beadf8a639e9f5930bd5ffad2d3ad2ac",
          "transactionIndex": "0x3",
          "logIndex": "0x3",
          "removed": false
        },
        {
          "address": "0x8e110ce664fdd508b71dfca39b8618482993d8ad",
          "topics": [
            "0xddf252ad1be2c89b69c2b068fc378daa952ba7f163c4a11628f55a4df523b3ef",
            "0x000000000000000000000000eff3521fb13228c767ad6dc3b934f9efac9c56ad",
            "0x000000000000000000000000eda2fd6af7b3d3255115811572354eeeaecefdf1"
          ],
          "data": "0x00000000000000000000000000000000000000000000000000005af3107a4000",
          "blockHash": "0x732196ebbdee35d04e02b68403f852cb9adfaf75c01a0362196344f77dc220f6",
          "blockNumber": "0xc0abbe3",
          "transactionHash": "0xea2526ead5d1b8a591de01dcf0471d22beadf8a639e9f5930bd5ffad2d3ad2ac",
          "transactionIndex": "0x3",
          "logIndex": "0x4",
          "removed": false
        },
        {
          "address": "0x8e110ce664fdd508b71dfca39b8618482993d8ad",
          "topics": [
            "0xddf252ad1be2c89b69c2b068fc378daa952ba7f163c4a11628f55a4df523b3ef",
            "0x0000000000000000000000000000000000000000000000000000000000000000",
            "0x000000000000000000000000eda2fd6af7b3d3255115811572354eeeaecefdf1"
          ],
          "data": "0x0000000000000000000000000000000000000000000000000000000000000000",
          "blockHash": "0x732196ebbdee35d04e02b68403f852cb9adfaf75c01a0362196344f77dc220f6",
          "blockNumber": "0xc0abbe3",
          "transactionHash": "0xea2526ead5d1b8a591de01dcf0471d22beadf8a639e9f5930bd5ffad2d3ad2ac",
          "transactionIndex": "0x3",
          "logIndex": "0x5",
          "removed": false
        },
        {
          "address": "0x8e110ce664fdd508b71dfca39b8618482993d8ad",
          "topics": [
            "0xddf252ad1be2c89b69c2b068fc378daa952ba7f163c4a11628f55a4df523b3ef",
            "0x000000000000000000000000eda2fd6af7b3d3255115811572354eeeaecefdf1",
            "0x0000000000000000000000000000000000000000000000000000000000000000"
          ],
          "data": "0x00000000000000000000000000000000000000000000000000005af3107a4000",
          "blockHash": "0x732196ebbdee35d04e02b68403f852cb9adfaf75c01a0362196344f77dc220f6",
          "blockNumber": "0xc0abbe3",
          "transactionHash": "0xea2526ead5d1b8a591de01dcf0471d22beadf8a639e9f5930bd5ffad2d3ad2ac",
          "transactionIndex": "0x3",
          "logIndex": "0x6",
          "removed": false
        },
        {
          "address": "0x64d78f20ad987c7d52fdcb8fb0777bd00de53210",
          "topics": [
            "0xd0c3c799bf9e2639de44391e7f524d229b2b55f5b1ea94b2bf7da42f7243dddd"
          ],
          "data": "0x0000000000000000000000000000000000000000000000000000000000000020000000000000000000000000000000000000000000000000304611b6affba76a000000000000000000000000eff3521fb13228c767ad6dc3b934f9efac9c56ad000000000000000000000000eff3521fb13228c767ad6dc3b934f9efac9c56ad0000000000000000000000000000000000000000000000000000000000001192000000000000000000000000000000000000000000000000000000000000000000000000000000000000000000000000000000000000000000000000000000000000000000000000000000000000000000000000000000000000000000000001000000000000000000000000b1d4538b4571d411f07960ef2838ce337fe1e80e000000000000000000000000000000000000000000000000002373f7bcc4ba4500000000000000000000000000000000000000000000000000000000000001a000000000000000000000000000000000000000000000000000000000000001c00000000000000000000000000000000000000000000000000000000000000220a05540b3c44e0c437e78da6e8bd28a8fae7bbf947048ac4a4d77996438a7e60d000000000000000000000000000000000000000000000000000000000000000000000000000000000000000000000000000000000000000000000000000000010000000000000000000000008e110ce664fdd508b71dfca39b8618482993d8ad00000000000000000000000000000000000000000000000000005af3107a40000000000000000000000000000000000000000000000000000000000000000001000000000000000000000000000000000000000000000000000000000000002000000000000000000000000000000000000000000000000000000000000001600000000000000000000000000000000000000000000000000000000000000020000000000000000000000000000000000000000000000000000000000000008000000000000000000000000000000000000000000000000000000000000000c000000000000000000000000000000000000000000000000000000000000001000000000000000000000000000000000000000000000000000000000000015f900000000000000000000000000000000000000000000000000000000000000020000000000000000000000000eda2fd6af7b3d3255115811572354eeeaecefdf100000000000000000000000000000000000000000000000000000000000000200000000000000000000000001f4412e384fd74b78aa912e567787f6b3649e5e000000000000000000000000000000000000000000000000000000000000000200000000000000000000000000000000000000000000000000000000ba43b7400",
          "blockHash": "0x732196ebbdee35d04e02b68403f852cb9adfaf75c01a0362196344f77dc220f6",
          "blockNumber": "0xc0abbe3",
          "transactionHash": "0xea2526ead5d1b8a591de01dcf0471d22beadf8a639e9f5930bd5ffad2d3ad2ac",
          "transactionIndex": "0x3",
          "logIndex": "0x7",
          "removed": false
        }
      ],
      "logsBloom": "0x00000000000000040000000000000000000000000000000000000000000000024000000000000400000000000000000000000000000000000000000000200000000000000000000000000008000000001000000000000000002000001000400100000000020000000004000000000800000000000000000000000010000000000000080000000010000008000000000000000000000000000000000000000000020000000000000400000000000000080000100000000000000100001000004000000002000000000000000000400000001000000000000000000000000020000010000000000040000000000000000004000000000000000000000000000001",
      "type": "0x2",
      "transactionHash": "0xea2526ead5d1b8a591de01dcf0471d22beadf8a639e9f5930bd5ffad2d3ad2ac",
      "transactionIndex": "0x3",
      "blockHash": "0x732196ebbdee35d04e02b68403f852cb9adfaf75c01a0362196344f77dc220f6",
      "blockNumber": "0xc0abbe3",
      "gasUsed": "0x44150",
      "effectiveGasPrice": "0x5f5e100",
      "from": "0xeff3521fb13228c767ad6dc3b934f9efac9c56ad",
      "to": "0x2a9c5afb0d0e4bab2bcdae109ec4b0c4be15a165",
      "contractAddress": null,
      "gasUsedForL1": "0x0",
      "l1BlockNumber": "0x8ed2e5",
      "timeboosted": false
    }
  ],
  "libraries": [],
  "pending": [],
  "returns": {},
  "timestamp": 1759818168,
  "chain": 421614,
  "commit": "2ad285e"
}