{
  "transactions": [
    {
      "hash": "0x2287afe1ea31c17d67c425fffd2da94b82af7263199fa08121b75f6262e5e64b",
      "transactionType": "CALL",
      "contractName": null,
      "contractAddress": "0xb1d4538b4571d411f07960ef2838ce337fe1e80e",
      "function": "approve(address,uint256)",
      "arguments": [
        "0x2a9C5afB0d0e4BAb2BCdaE109EC4b0c4Be15a165",
        "9978217083539859"
      ],
      "transaction": {
        "from": "0xeff3521fb13228c767ad6dc3b934f9efac9c56ad",
        "to": "0xb1d4538b4571d411f07960ef2838ce337fe1e80e",
        "gas": "0xecb7",
        "value": "0x0",
        "input": "0x095ea7b30000000000000000000000002a9c5afb0d0e4bab2bcdae109ec4b0c4be15a16500000000000000000000000000000000000000000000000000237322b4c19193",
        "nonce": "0xf",
        "chainId": "0x66eee"
      },
      "additionalContracts": [],
      "isFixedGasLimit": false
    },
    {
      "hash": "0x8df10ef56f4fb285705a765d1b8459482a1aa89dac32d8ad90388a6e571a2652",
      "transactionType": "CALL",
      "contractName": null,
      "contractAddress": "0x8e110ce664fdd508b71dfca39b8618482993d8ad",
      "function": "approve(address,uint256)",
      "arguments": [
        "0x2a9C5afB0d0e4BAb2BCdaE109EC4b0c4Be15a165",
        "200000000000000"
      ],
      "transaction": {
        "from": "0xeff3521fb13228c767ad6dc3b934f9efac9c56ad",
        "to": "0x8e110ce664fdd508b71dfca39b8618482993d8ad",
        "gas": "0xf06f",
        "value": "0x0",
        "input": "0x095ea7b30000000000000000000000002a9c5afb0d0e4bab2bcdae109ec4b0c4be15a1650000000000000000000000000000000000000000000000000000b5e620f48000",
        "nonce": "0x10",
        "chainId": "0x66eee"
      },
      "additionalContracts": [],
      "isFixedGasLimit": false
    },
    {
      "hash": "0xc8f8398d3bba080960bb673be69ae542fd37b951e39220d3a071d6b72c2eecb7",
      "transactionType": "CALL",
      "contractName": null,
      "contractAddress": "0x2a9c5afb0d0e4bab2bcdae109ec4b0c4be15a165",
      "function": "ccipSend(uint64,(bytes,bytes,(address,uint256)[],address,bytes))",
      "arguments": [
        "16015286601757825753",
        "(0x000000000000000000000000eff3521fb13228c767ad6dc3b934f9efac9c56ad, 0x, [(0x8e110CE664fdD508B71DFca39B8618482993d8AD, 200000000000000)], 0xb1D4538B4571d411F07960EF2838Ce337FE1E80E, 0x97a657c90000000000000000000000000000000000000000000000000000000000000000)"
      ],
      "transaction": {
        "from": "0xeff3521fb13228c767ad6dc3b934f9efac9c56ad",
        "to": "0x2a9c5afb0d0e4bab2bcdae109ec4b0c4be15a165",
        "gas": "0x4e1db",
        "value": "0x0",
        "input": "0x96f4e9f9000000000000000000000000000000000000000000000000de41ba4fc9d91ad9000000000000000000000000000000000000000000000000000000000000004000000000000000000000000000000000000000000000000000000000000000a000000000000000000000000000000000000000000000000000000000000000e00000000000000000000000000000000000000000000000000000000000000100000000000000000000000000b1d4538b4571d411f07960ef2838ce337fe1e80e00000000000000000000000000000000000000000000000000000000000001600000000000000000000000000000000000000000000000000000000000000020000000000000000000000000eff3521fb13228c767ad6dc3b934f9efac9c56ad000000000000000000000000000000000000000000000000000000000000000000000000000000000000000000000000000000000000000000000000000000010000000000000000000000008e110ce664fdd508b71dfca39b8618482993d8ad0000000000000000000000000000000000000000000000000000b5e620f48000000000000000000000000000000000000000000000000000000000000000002497a657c9000000000000000000000000000000000000000000000000000000000000000000000000000000000000000000000000000000000000000000000000",
        "nonce": "0x11",
        "chainId": "0x66eee"
      },
      "additionalContracts": [],
      "isFixedGasLimit": false
    }
  ],
  "receipts": [
    {
      "status": "0x1",
      "cumulativeGasUsed": "0xb499",
      "logs": [
        {
          "address": "0xb1d4538b4571d411f07960ef2838ce337fe1e80e",
          "topics": [
            "0x8c5be1e5ebec7d5bd14f71427d1e84f3dd0314c0f7b2291e5b200ac8c7c3b925",
            "0x000000000000000000000000eff3521fb13228c767ad6dc3b934f9efac9c56ad",
            "0x0000000000000000000000002a9c5afb0d0e4bab2bcdae109ec4b0c4be15a165"
          ],
          "data": "0x00000000000000000000000000000000000000000000000000237322b4c19193",
          "blockHash": "0x96b4aafb443540997b3e2764e675548694522b04341b2b03391bccd9eeb09b1e",
          "blockNumber": "0xc0b119b",
          "transactionHash": "0x2287afe1ea31c17d67c425fffd2da94b82af7263199fa08121b75f6262e5e64b",
          "transactionIndex": "0x1",
          "logIndex": "0x0",
          "removed": false
        }
      ],
      "logsBloom": "0x00000000000000000000000000000000000000000000000000000000000000020000000000000000000000000000000000000000000000000000000000200000000000000000000000000000000000000000000000000000002000000000000000000000000000000000000000000000000000000000000000000000000000000000080000000010000008000000000000000000000000000000000000000000020000000000000000000000000000000000100000000000000000001000000000000000000000000000000000400000000000000000000000000000000000000010000000000000000000000000000000000000000000000000000000000001",
      "type": "0x2",
      "transactionHash": "0x2287afe1ea31c17d67c425fffd2da94b82af7263199fa08121b75f6262e5e64b",
      "transactionIndex": "0x1",
      "blockHash": "0x96b4aafb443540997b3e2764e675548694522b04341b2b03391bccd9eeb09b1e",
      "blockNumber": "0xc0b119b",
      "gasUsed": "0xb499",
      "effectiveGasPrice": "0x5f5e100",
      "from": "0xeff3521fb13228c767ad6dc3b934f9efac9c56ad",
      "to": "0xb1d4538b4571d411f07960ef2838ce337fe1e80e",
      "contractAddress": null,
      "gasUsedForL1": "0x0",
      "l1BlockNumber": "0x8ed491",
      "timeboosted": false
    },
    {
      "status": "0x1",
      "cumulativeGasUsed": "0x33ca9",
      "logs": [
        {
          "address": "0x8e110ce664fdd508b71dfca39b8618482993d8ad",
          "topics": [
            "0x8c5be1e5ebec7d5bd14f71427d1e84f3dd0314c0f7b2291e5b200ac8c7c3b925",
            "0x000000000000000000000000eff3521fb13228c767ad6dc3b934f9efac9c56ad",
            "0x0000000000000000000000002a9c5afb0d0e4bab2bcdae109ec4b0c4be15a165"
          ],
          "data": "0x0000000000000000000000000000000000000000000000000000b5e620f48000",
          "blockHash": "0x837abe8085d57cf6cfdfe4cd62f9ff48ced99e5fb4fc6998de980124242216f8",
          "blockNumber": "0xc0b11ae",
          "transactionHash": "0x8df10ef56f4fb285705a765d1b8459482a1aa89dac32d8ad90388a6e571a2652",
          "transactionIndex": "0x4",
          "logIndex": "0x0",
          "removed": false
        }
      ],
      "logsBloom": "0x00000000000000000000000000000000000000000000000000000000000000020000000000000400000000000000000000000000000000000000000000200000000000000000000000000000000000000000000000000000002000000000000100000000000000000000000000000000000000000000000000000000000000000000000000000000000008000000000000000000000000000000000000000000020000000000000000000000000000000000100000000000000000001000000000000000000000000000000000400000000000000000000000000000000000000010000000000040000000000000000000000000000000000000000000000000",
      "type": "0x2",
      "transactionHash": "0x8df10ef56f4fb285705a765d1b8459482a1aa89dac32d8ad90388a6e571a2652",
      "transactionIndex": "0x4",
      "blockHash": "0x837abe8085d57cf6cfdfe4cd62f9ff48ced99e5fb4fc6998de980124242216f8",
      "blockNumber": "0xc0b11ae",
      "gasUsed": "0xb773",
      "effectiveGasPrice": "0x60f8380",
      "from": "0xeff3521fb13228c767ad6dc3b934f9efac9c56ad",
      "to": "0x8e110ce664fdd508b71dfca39b8618482993d8ad",
      "contractAddress": null,
      "gasUsedForL1": "0x0",
      "l1BlockNumber": "0x8ed491",
      "timeboosted": false
    },
    {
      "status": "0x1",
      "cumulativeGasUsed": "0x162b16",
      "logs": [
        {
          "address": "0xb1d4538b4571d411f07960ef2838ce337fe1e80e",
          "topics": [
            "0xddf252ad1be2c89b69c2b068fc378daa952ba7f163c4a11628f55a4df523b3ef",
            "0x000000000000000000000000eff3521fb13228c767ad6dc3b934f9efac9c56ad",
            "0x00000000000000000000000064d78f20ad987c7d52fdcb8fb0777bd00de53210"
          ],
          "data": "0x00000000000000000000000000000000000000000000000000237322b4c19193",
          "blockHash": "0x2f832ef4b774f2b2d05f88b851629d353306521b06bf13a06f07eb588b09aafe",
          "blockNumber": "0xc0b11c5",
          "transactionHash": "0xc8f8398d3bba080960bb673be69ae542fd37b951e39220d3a071d6b72c2eecb7",
          "transactionIndex": "0xa",
          "logIndex": "0x4",
          "removed": false
        },
        {
          "address": "0xb1d4538b4571d411f07960ef2838ce337fe1e80e",
          "topics": [
            "0x8c5be1e5ebec7d5bd14f71427d1e84f3dd0314c0f7b2291e5b200ac8c7c3b925",
            "0x000000000000000000000000eff3521fb13228c767ad6dc3b934f9efac9c56ad",
            "0x0000000000000000000000002a9c5afb0d0e4bab2bcdae109ec4b0c4be15a165"
          ],
          "data": "0x0000000000000000000000000000000000000000000000000000000000000000",
          "blockHash": "0x2f832ef4b774f2b2d05f88b851629d353306521b06bf13a06f07eb588b09aafe",
          "blockNumber": "0xc0b11c5",
          "transactionHash": "0xc8f8398d3bba080960bb673be69ae542fd37b951e39220d3a071d6b72c2eecb7",
          "transactionIndex": "0xa",
          "logIndex": "0x5",
          "removed": false
        },
        {
          "address": "0x8e110ce664fdd508b71dfca39b8618482993d8ad",
          "topics": [
            "0xddf252ad1be2c89b69c2b068fc378daa952ba7f163c4a11628f55a4df523b3ef",
            "0x0000000000000000000000000000000000000000000000000000000000000000",
            "0x000000000000000000000000eff3521fb13228c767ad6dc3b934f9efac9c56ad"
          ],
          "data": "0x00000000000000000000000000000000000000000000000000000000799d3bf5",
          "blockHash": "0x2f832ef4b774f2b2d05f88b851629d353306521b06bf13a06f07eb588b09aafe",
          "blockNumber": "0xc0b11c5",
          "transactionHash": "0xc8f8398d3bba080960bb673be69ae542fd37b951e39220d3a071d6b72c2eecb7",
          "transactionIndex": "0xa",
          "logIndex": "0x6",
          "removed": false
        },
        {
          "address": "0x8e110ce664fdd508b71dfca39b8618482993d8ad",
          "topics": [
            "0xddf252ad1be2c89b69c2b068fc378daa952ba7f163c4a11628f55a4df523b3ef",
            "0x0000000000000000000000000000000000000000000000000000000000000000",
            "0x000000000000000000000000eda2fd6af7b3d3255115811572354eeeaecefdf1"
          ],
          "data": "0x0000000000000000000000000000000000000000000000000000000000000000",
          "blockHash": "0x2f832ef4b774f2b2d05f88b851629d353306521b06bf13a06f07eb588b09aafe",
          "blockNumber": "0xc0b11c5",
          "transactionHash": "0xc8f8398d3bba080960bb673be69ae542fd37b951e39220d3a071d6b72c2eecb7",
          "transactionIndex": "0xa",
          "logIndex": "0x7",
          "removed": false
        },
        {
          "address": "0x8e110ce664fdd508b71dfca39b8618482993d8ad",
          "topics": [
            "0xddf252ad1be2c89b69c2b068fc378daa952ba7f163c4a11628f55a4df523b3ef",
            "0x000000000000000000000000eff3521fb13228c767ad6dc3b934f9efac9c56ad",
            "0x000000000000000000000000eda2fd6af7b3d3255115811572354eeeaecefdf1"
          ],
          "data": "0x0000000000000000000000000000000000000000000000000000b5e620f48000",
          "blockHash": "0x2f832ef4b774f2b2d05f88b851629d353306521b06bf13a06f07eb588b09aafe",
          "blockNumber": "0xc0b11c5",
          "transactionHash": "0xc8f8398d3bba080960bb673be69ae542fd37b951e39220d3a071d6b72c2eecb7",
          "transactionIndex": "0xa",
          "logIndex": "0x8",
          "removed": false
        },
        {
          "address": "0x8e110ce664fdd508b71dfca39b8618482993d8ad",
          "topics": [
            "0xddf252ad1be2c89b69c2b068fc378daa952ba7f163c4a11628f55a4df523b3ef",
            "0x0000000000000000000000000000000000000000000000000000000000000000",
            "0x000000000000000000000000eda2fd6af7b3d3255115811572354eeeaecefdf1"
          ],
          "data": "0x0000000000000000000000000000000000000000000000000000000000000000",
          "blockHash": "0x2f832ef4b774f2b2d05f88b851629d353306521b06bf13a06f07eb588b09aafe",
          "blockNumber": "0xc0b11c5",
          "transactionHash": "0xc8f8398d3bba080960bb673be69ae542fd37b951e39220d3a071d6b72c2eecb7",
          "transactionIndex": "0xa",
          "logIndex": "0x9",
          "removed": false
        },
        {
          "address": "0x8e110ce664fdd508b71dfca39b8618482993d8ad",
          "topics": [
            "0xddf252ad1be2c89b69c2b068fc378daa952ba7f163c4a11628f55a4df523b3ef",
            "0x000000000000000000000000eda2fd6af7b3d3255115811572354eeeaecefdf1",
            "0x0000000000000000000000000000000000000000000000000000000000000000"
          ],
          "data": "0x0000000000000000000000000000000000000000000000000000b5e620f48000",
          "blockHash": "0x2f832ef4b774f2b2d05f88b851629d353306521b06bf13a06f07eb588b09aafe",
          "blockNumber": "0xc0b11c5",
          "transactionHash": "0xc8f8398d3bba080960bb673be69ae542fd37b951e39220d3a071d6b72c2eecb7",
          "transactionIndex": "0xa",
          "logIndex": "0xa",
          "removed": false
        },
        {
          "address": "0x64d78f20ad987c7d52fdcb8fb0777bd00de53210",
          "topics": [
            "0xd0c3c799bf9e2639de44391e7f524d229b2b55f5b1ea94b2bf7da42f7243dddd"
          ],
          "data": "0x0000000000000000000000000000000000000000000000000000000000000020000000000000000000000000000000000000000000000000304611b6affba76a000000000000000000000000eff3521fb13228c767ad6dc3b934f9efac9c56ad000000000000000000000000eff3521fb13228c767ad6dc3b934f9efac9c56ad0000000000000000000000000000000000000000000000000000000000001193000000000000000000000000000000000000000000000000000000000000000000000000000000000000000000000000000000000000000000000000000000000000000000000000000000000000000000000000000000000000000000000002000000000000000000000000b1d4538b4571d411f07960ef2838ce337fe1e80e00000000000000000000000000000000000000000000000000237322b4c1919300000000000000000000000000000000000000000000000000000000000001a000000000000000000000000000000000000000000000000000000000000001c00000000000000000000000000000000000000000000000000000000000000220a5e035f67940e92ce5804008f970faa576f36050ddb237c59f7c0d11fc2f374b000000000000000000000000000000000000000000000000000000000000000000000000000000000000000000000000000000000000000000000000000000010000000000000000000000008e110ce664fdd508b71dfca39b8618482993d8ad0000000000000000000000000000000000000000000000000000b5e620f480000000000000000000000000000000000000000000000000000000000000000001000000000000000000000000000000000000000000000000000000000000002000000000000000000000000000000000000000000000000000000000000001600000000000000000000000000000000000000000000000000000000000000020000000000000000000000000000000000000000000000000000000000000008000000000000000000000000000000000000000000000000000000000000000c000000000000000000000000000000000000000000000000000000000000001000000000000000000000000000000000000000000000000000000000000015f900000000000000000000000000000000000000000000000000000000000000020000000000000000000000000eda2fd6af7b3d3255115811572354eeeaecefdf100000000000000000000000000000000000000000000000000000000000000200000000000000000000000001f4412e384fd74b78aa912e567787f6b3649e5e000000000000000000000000000000000000000000000000000000000000000200000000000000000000000000000000000000000000000000000000ba43b7400",
          "blockHash": "0x2f832ef4b774f2b2d05f88b851629d353306521b06bf13a06f07eb588b09aafe",
          "blockNumber": "0xc0b11c5",
          "transactionHash": "0xc8f8398d3bba080960bb673be69ae542fd37b951e39220d3a071d6b72c2eecb7",
          "transactionIndex": "0xa",
          "logIndex": "0xb",
          "removed": false
        }
      ],
      "logsBloom": "0x00000000000000040000000000000000000000000000000000000000000000024000000000000400000000000000000000000000000000000000000000200000000000000000000000000008000000001000000000000000002000001000400100000000020000000004000000000800000000000000000000000010000000000000080000000010000008000000000000000000000000000000000000000000020000000000000400000000000000080000100000000000000100001000004000000002000000000000000000400000001000000000000000000000000020000010000000000040000000000000000004000000000000000000000000000001",
      "type": "0x2",
      "transactionHash": "0xc8f8398d3bba080960bb673be69ae542fd37b951e39220d3a071d6b72c2eecb7",
      "transactionIndex": "0xa",
      "blockHash": "0x2f832ef4b774f2b2d05f88b851629d353306521b06bf13a06f07eb588b09aafe",
      "blockNumber": "0xc0b11c5",
      "gasUsed": "0x3569b",
      "effectiveGasPrice": "0x5f5e100",
      "from": "0xeff3521fb13228c767ad6dc3b934f9efac9c56ad",
      "to": "0x2a9c5afb0d0e4bab2bcdae109ec4b0c4be15a165",
      "contractAddress": null,
      "gasUsedForL1": "0x0",
      "l1BlockNumber": "0x8ed491",
      "timeboosted": false
    }
  ],
  "libraries": [],
  "pending": [],
  "returns": {},
  "timestamp": 1759823670,
  "chain": 421614,
  "commit": "2ad285e"
}