{
  "transactions": [
    {
      "hash": "0xd4ca5a72486d3f6d475d415027a9c8748e13c1794127f555678151133bbcd620",
      "transactionType": "CALL",
      "contractName": null,
      "contractAddress": "0xe4ab69c077896252fafbd49efd26b5d171a32410",
      "function": "approve(address,uint256)",
      "arguments": [
        "0x114A20A10b43D4115e5aeef7345a1A71d2a60C57",
        "21861150153431281"
      ],
      "transaction": {
        "from": "0xeff3521fb13228c767ad6dc3b934f9efac9c56ad",
        "to": "0xe4ab69c077896252fafbd49efd26b5d171a32410",
        "gas": "0xfa12",
        "value": "0x0",
        "input": "0x095ea7b3000000000000000000000000114a20a10b43d4115e5aeef7345a1a71d2a60c57000000000000000000000000000000000000000000000000004daa99a946d8f1",
        "nonce": "0x12",
        "chainId": "0xaa37dc"
      },
      "additionalContracts": [],
      "isFixedGasLimit": false
    },
    {
      "hash": "0x92cf02f85dfca8fd0a7903c63e9f65aa2f6bc0606e99ec9890c494db4ba1e9a6",
      "transactionType": "CALL",
      "contractName": null,
      "contractAddress": "0x8e110ce664fdd508b71dfca39b8618482993d8ad",
      "function": "approve(address,uint256)",
      "arguments": [
        "0x114A20A10b43D4115e5aeef7345a1A71d2a60C57",
        "30000000000000"
      ],
      "transaction": {
        "from": "0xeff3521fb13228c767ad6dc3b934f9efac9c56ad",
        "to": "0x8e110ce664fdd508b71dfca39b8618482993d8ad",
        "gas": "0x10c4a",
        "value": "0x0",
        "input": "0x095ea7b3000000000000000000000000114a20a10b43d4115e5aeef7345a1a71d2a60c5700000000000000000000000000000000000000000000000000001b48eb57e000",
        "nonce": "0x13",
        "chainId": "0xaa37dc"
      },
      "additionalContracts": [],
      "isFixedGasLimit": false
    },
    {
      "hash": "0x3f62f11eff9e129ff99bf110a09aa67c32ee5fa28907705b4fb231ccf098da5e",
      "transactionType": "CALL",
      "contractName": null,
      "contractAddress": "0x114a20a10b43d4115e5aeef7345a1a71d2a60c57",
      "function": "ccipSend(uint64,(bytes,bytes,(address,uint256)[],address,bytes))",
      "arguments": [
        "3478487238524512106",
        "(0x000000000000000000000000eff3521fb13228c767ad6dc3b934f9efac9c56ad, 0x, [(0x8e110CE664fdD508B71DFca39B8618482993d8AD, 30000000000000)], 0xE4aB69C077896252FAFBD49EFD26B5D171A32410, 0x97a657c90000000000000000000000000000000000000000000000000000000000000000)"
      ],
      "transaction": {
        "from": "0xeff3521fb13228c767ad6dc3b934f9efac9c56ad",
        "to": "0x114a20a10b43d4115e5aeef7345a1a71d2a60c57",
        "gas": "0x56d62",
        "value": "0x0",
        "input": "0x96f4e9f9000000000000000000000000000000000000000000000000304611b6affba76a000000000000000000000000000000000000000000000000000000000000004000000000000000000000000000000000000000000000000000000000000000a000000000000000000000000000000000000000000000000000000000000000e00000000000000000000000000000000000000000000000000000000000000100000000000000000000000000e4ab69c077896252fafbd49efd26b5d171a3241000000000000000000000000000000000000000000000000000000000000001600000000000000000000000000000000000000000000000000000000000000020000000000000000000000000eff3521fb13228c767ad6dc3b934f9efac9c56ad000000000000000000000000000000000000000000000000000000000000000000000000000000000000000000000000000000000000000000000000000000010000000000000000000000008e110ce664fdd508b71dfca39b8618482993d8ad00000000000000000000000000000000000000000000000000001b48eb57e000000000000000000000000000000000000000000000000000000000000000002497a657c9000000000000000000000000000000000000000000000000000000000000000000000000000000000000000000000000000000000000000000000000",
        "nonce": "0x14",
        "chainId": "0xaa37dc"
      },
      "additionalContracts": [],
      "isFixedGasLimit": false
    }
  ],
  "receipts": [
    {
      "status": "0x1",
      "cumulativeGasUsed": "0x1dbf5",
      "logs": [
        {
          "address": "0xe4ab69c077896252fafbd49efd26b5d171a32410",
          "topics": [
            "0x8c5be1e5ebec7d5bd14f71427d1e84f3dd0314c0f7b2291e5b200ac8c7c3b925",
            "0x000000000000000000000000eff3521fb13228c767ad6dc3b934f9efac9c56ad",
            "0x000000000000000000000000114a20a10b43d4115e5aeef7345a1a71d2a60c57"
          ],
          "data": "0x000000000000000000000000000000000000000000000000004daa99a946d8f1",
          "blockHash": "0x4dfebcda086dfb889e82d5bd073b555af62b4c5e116e471e85126e0053876c3c",
          "blockNumber": "0x208fb91",
          "blockTimestamp": "0x68e8d2ce",
          "transactionHash": "0xd4ca5a72486d3f6d475d415027a9c8748e13c1794127f555678151133bbcd620",
          "transactionIndex": "0x2",
          "logIndex": "0x0",
          "removed": false
        }
      ],
      "logsBloom": "0x00008000000000000000000000000000000000000000000000000000000000020000000000000000200000000000000000000000000000000000000000200000000000000000000000000000000000000000000000000000002000000000000000000000000000000000000000000000000000000000000000000000000000000000000000000000000000000000000000000000000000000000000000000000020000000400000000000000000000000000100000000000020000000000000000000000000000000000000000000000000000000000000000000000000000000010000000000000000000000000000200000000000000000000200000000000",
      "type": "0x2",
      "transactionHash": "0xd4ca5a72486d3f6d475d415027a9c8748e13c1794127f555678151133bbcd620",
      "transactionIndex": "0x2",
      "blockHash": "0x4dfebcda086dfb889e82d5bd073b555af62b4c5e116e471e85126e0053876c3c",
      "blockNumber": "0x208fb91",
      "gasUsed": "0xb50d",
      "effectiveGasPrice": "0xf433a",
      "from": "0xeff3521fb13228c767ad6dc3b934f9efac9c56ad",
      "to": "0xe4ab69c077896252fafbd49efd26b5d171a32410",
      "contractAddress": null,
      "l1BaseFeeScalar": "0x1db0",
      "l1BlobBaseFee": "0x1",
      "l1BlobBaseFeeScalar": "0xd2730",
      "l1Fee": "0x745",
      "l1GasPrice": "0x92",
      "l1GasUsed": "0x640"
    },
    {
      "status": "0x1",
      "cumulativeGasUsed": "0x29368",
      "logs": [
        {
          "address": "0x8e110ce664fdd508b71dfca39b8618482993d8ad",
          "topics": [
            "0x8c5be1e5ebec7d5bd14f71427d1e84f3dd0314c0f7b2291e5b200ac8c7c3b925",
            "0x000000000000000000000000eff3521fb13228c767ad6dc3b934f9efac9c56ad",
            "0x000000000000000000000000114a20a10b43d4115e5aeef7345a1a71d2a60c57"
          ],
          "data": "0x00000000000000000000000000000000000000000000000000001b48eb57e000",
          "blockHash": "0x4dfebcda086dfb889e82d5bd073b555af62b4c5e116e471e85126e0053876c3c",
          "blockNumber": "0x208fb91",
          "blockTimestamp": "0x68e8d2ce",
          "transactionHash": "0x92cf02f85dfca8fd0a7903c63e9f65aa2f6bc0606e99ec9890c494db4ba1e9a6",
          "transactionIndex": "0x3",
          "logIndex": "0x1",
          "removed": false
        }
      ],
      "logsBloom": "0x00000000000000000000000000000000000000000000000000000000000000020000000000000400200000000000000000000000000000000000000000200000000000000000000000000000000000000000000000000000002000000000000100000000000000000000000000000000000000000000000000000000000000000000000000000000000000000000000000000000000000000000000000000000020000000400000000000000000000000000100000000000000000000000000000000000000000000000000000000000000000000000000000000000000000000010000000000040000000000000000200000000000000000000000000000000",
      "type": "0x2",
      "transactionHash": "0x92cf02f85dfca8fd0a7903c63e9f65aa2f6bc0606e99ec9890c494db4ba1e9a6",
      "transactionIndex": "0x3",
      "blockHash": "0x4dfebcda086dfb889e82d5bd073b555af62b4c5e116e471e85126e0053876c3c",
      "blockNumber": "0x208fb91",
      "gasUsed": "0xb773",
      "effectiveGasPrice": "0xf433a",
      "from": "0xeff3521fb13228c767ad6dc3b934f9efac9c56ad",
      "to": "0x8e110ce664fdd508b71dfca39b8618482993d8ad",
      "contractAddress": null,
      "l1BaseFeeScalar": "0x1db0",
      "l1BlobBaseFee": "0x1",
      "l1BlobBaseFeeScalar": "0xd2730",
      "l1Fee": "0x745",
      "l1GasPrice": "0x92",
      "l1GasUsed": "0x640"
    },
    {
      "status": "0x1",
      "cumulativeGasUsed": "0x6496a",
      "logs": [
        {
          "address": "0xe4ab69c077896252fafbd49efd26b5d171a32410",
          "topics": [
            "0x8c5be1e5ebec7d5bd14f71427d1e84f3dd0314c0f7b2291e5b200ac8c7c3b925",
            "0x000000000000000000000000eff3521fb13228c767ad6dc3b934f9efac9c56ad",
            "0x000000000000000000000000114a20a10b43d4115e5aeef7345a1a71d2a60c57"
          ],
          "data": "0x0000000000000000000000000000000000000000000000000000000000000000",
          "blockHash": "0x4dfebcda086dfb889e82d5bd073b555af62b4c5e116e471e85126e0053876c3c",
          "blockNumber": "0x208fb91",
          "blockTimestamp": "0x68e8d2ce",
          "transactionHash": "0x3f62f11eff9e129ff99bf110a09aa67c32ee5fa28907705b4fb231ccf098da5e",
          "transactionIndex": "0x4",
          "logIndex": "0x2",
          "removed": false
        },
        {
          "address": "0xe4ab69c077896252fafbd49efd26b5d171a32410",
          "topics": [
            "0xddf252ad1be2c89b69c2b068fc378daa952ba7f163c4a11628f55a4df523b3ef",
            "0x000000000000000000000000eff3521fb13228c767ad6dc3b934f9efac9c56ad",
            "0x0000000000000000000000006b36c9cd74e760088817a047c3460dedffe9a11a"
          ],
          "data": "0x000000000000000000000000000000000000000000000000004daa99a946d8f1",
          "blockHash": "0x4dfebcda086dfb889e82d5bd073b555af62b4c5e116e471e85126e0053876c3c",
          "blockNumber": "0x208fb91",
          "blockTimestamp": "0x68e8d2ce",
          "transactionHash": "0x3f62f11eff9e129ff99bf110a09aa67c32ee5fa28907705b4fb231ccf098da5e",
          "transactionIndex": "0x4",
          "logIndex": "0x3",
          "removed": false
        },
        {
          "address": "0x8e110ce664fdd508b71dfca39b8618482993d8ad",
          "topics": [
            "0xddf252ad1be2c89b69c2b068fc378daa952ba7f163c4a11628f55a4df523b3ef",
            "0x0000000000000000000000000000000000000000000000000000000000000000",
            "0x000000000000000000000000eff3521fb13228c767ad6dc3b934f9efac9c56ad"
          ],
          "data": "0x0000000000000000000000000000000000000000000000000000000d985283a3",
          "blockHash": "0x4dfebcda086dfb889e82d5bd073b555af62b4c5e116e471e85126e0053876c3c",
          "blockNumber": "0x208fb91",
          "blockTimestamp": "0x68e8d2ce",
          "transactionHash": "0x3f62f11eff9e129ff99bf110a09aa67c32ee5fa28907705b4fb231ccf098da5e",
          "transactionIndex": "0x4",
          "logIndex": "0x4",
          "removed": false
        },
        {
          "address": "0x8e110ce664fdd508b71dfca39b8618482993d8ad",
          "topics": [
            "0xddf252ad1be2c89b69c2b068fc378daa952ba7f163c4a11628f55a4df523b3ef",
            "0x0000000000000000000000000000000000000000000000000000000000000000",
            "0x000000000000000000000000eda2fd6af7b3d3255115811572354eeeaecefdf1"
          ],
          "data": "0x0000000000000000000000000000000000000000000000000000000000000000",
          "blockHash": "0x4dfebcda086dfb889e82d5bd073b555af62b4c5e116e471e85126e0053876c3c",
          "blockNumber": "0x208fb91",
          "blockTimestamp": "0x68e8d2ce",
          "transactionHash": "0x3f62f11eff9e129ff99bf110a09aa67c32ee5fa28907705b4fb231ccf098da5e",
          "transactionIndex": "0x4",
          "logIndex": "0x5",
          "removed": false
        },
        {
          "address": "0x8e110ce664fdd508b71dfca39b8618482993d8ad",
          "topics": [
            "0xddf252ad1be2c89b69c2b068fc378daa952ba7f163c4a11628f55a4df523b3ef",
            "0x000000000000000000000000eff3521fb13228c767ad6dc3b934f9efac9c56ad",
            "0x000000000000000000000000eda2fd6af7b3d3255115811572354eeeaecefdf1"
          ],
          "data": "0x00000000000000000000000000000000000000000000000000001b48eb57e000",
          "blockHash": "0x4dfebcda086dfb889e82d5bd073b555af62b4c5e116e471e85126e0053876c3c",
          "blockNumber": "0x208fb91",
          "blockTimestamp": "0x68e8d2ce",
          "transactionHash": "0x3f62f11eff9e129ff99bf110a09aa67c32ee5fa28907705b4fb231ccf098da5e",
          "transactionIndex": "0x4",
          "logIndex": "0x6",
          "removed": false
        },
        {
          "address": "0x8e110ce664fdd508b71dfca39b8618482993d8ad",
          "topics": [
            "0xddf252ad1be2c89b69c2b068fc378daa952ba7f163c4a11628f55a4df523b3ef",
            "0x0000000000000000000000000000000000000000000000000000000000000000",
            "0x000000000000000000000000eda2fd6af7b3d3255115811572354eeeaecefdf1"
          ],
          "data": "0x0000000000000000000000000000000000000000000000000000000000000000",
          "blockHash": "0x4dfebcda086dfb889e82d5bd073b555af62b4c5e116e471e85126e0053876c3c",
          "blockNumber": "0x208fb91",
          "blockTimestamp": "0x68e8d2ce",
          "transactionHash": "0x3f62f11eff9e129ff99bf110a09aa67c32ee5fa28907705b4fb231ccf098da5e",
          "transactionIndex": "0x4",
          "logIndex": "0x7",
          "removed": false
        },
        {
          "address": "0x8e110ce664fdd508b71dfca39b8618482993d8ad",
          "topics": [
            "0xddf252ad1be2c89b69c2b068fc378daa952ba7f163c4a11628f55a4df523b3ef",
            "0x000000000000000000000000eda2fd6af7b3d3255115811572354eeeaecefdf1",
            "0x0000000000000000000000000000000000000000000000000000000000000000"
          ],
          "data": "0x00000000000000000000000000000000000000000000000000001b48eb57e000",
          "blockHash": "0x4dfebcda086dfb889e82d5bd073b555af62b4c5e116e471e85126e0053876c3c",
          "blockNumber": "0x208fb91",
          "blockTimestamp": "0x68e8d2ce",
          "transactionHash": "0x3f62f11eff9e129ff99bf110a09aa67c32ee5fa28907705b4fb231ccf098da5e",
          "transactionIndex": "0x4",
          "logIndex": "0x8",
          "removed": false
        },
        {
          "address": "0x6b36c9cd74e760088817a047c3460dedffe9a11a",
          "topics": [
            "0xd0c3c799bf9e2639de44391e7f524d229b2b55f5b1ea94b2bf7da42f7243dddd"
          ],
          "data": "0x000000000000000000000000000000000000000000000000000000000000002000000000000000000000000000000000000000000000000048810ec3e431431f000000000000000000000000eff3521fb13228c767ad6dc3b934f9efac9c56ad000000000000000000000000eff3521fb13228c767ad6dc3b934f9efac9c56ad0000000000000000000000000000000000000000000000000000000000008010000000000000000000000000000000000000000000000000000000000000000000000000000000000000000000000000000000000000000000000000000000000000000000000000000000000000000000000000000000000000000000000001000000000000000000000000e4ab69c077896252fafbd49efd26b5d171a32410000000000000000000000000000000000000000000000000004daa99a946d8f100000000000000000000000000000000000000000000000000000000000001a000000000000000000000000000000000000000000000000000000000000001c000000000000000000000000000000000000000000000000000000000000002203284a565bf26fcf4382edcf9aea6fc2c8bb37e37f34f5160f68eca4b92c62c25000000000000000000000000000000000000000000000000000000000000000000000000000000000000000000000000000000000000000000000000000000010000000000000000000000008e110ce664fdd508b71dfca39b8618482993d8ad00000000000000000000000000000000000000000000000000001b48eb57e0000000000000000000000000000000000000000000000000000000000000000001000000000000000000000000000000000000000000000000000000000000002000000000000000000000000000000000000000000000000000000000000001600000000000000000000000000000000000000000000000000000000000000020000000000000000000000000000000000000000000000000000000000000008000000000000000000000000000000000000000000000000000000000000000c000000000000000000000000000000000000000000000000000000000000001000000000000000000000000000000000000000000000000000000000000015f900000000000000000000000000000000000000000000000000000000000000020000000000000000000000000eda2fd6af7b3d3255115811572354eeeaecefdf1000000000000000000000000000000000000000000000000000000000000002000000000000000000000000057c85c30ad2bc719cc34ccaeb8d2bfda1a8b177200000000000000000000000000000000000000000000000000000000000000200000000000000000000000000000000000000000000000000000000ba43b7400",
          "blockHash": "0x4dfebcda086dfb889e82d5bd073b555af62b4c5e116e471e85126e0053876c3c",
          "blockNumber": "0x208fb91",
          "blockTimestamp": "0x68e8d2ce",
          "transactionHash": "0x3f62f11eff9e129ff99bf110a09aa67c32ee5fa28907705b4fb231ccf098da5e",
          "transactionIndex": "0x4",
          "logIndex": "0x9",
          "removed": false
        }
      ],
      "logsBloom": "0x00008000000000000000000000000000000000000000000000000000000000020000000000100400200000000000000000000000100000000400000000200000000000000000000000000008020000000000000000000000002000000000000100000000020000000004000000000800000000000000000000000010000000000000000000000000000000000000000000000000000000000000000000000000020000000400000400000000000000080000100000000000020900000000004000000002000000080000000000000000000000000000000000000000000020000010000000000040000000000000000204000000000000000000200000000000",
      "type": "0x2",
      "transactionHash": "0x3f62f11eff9e129ff99bf110a09aa67c32ee5fa28907705b4fb231ccf098da5e",
      "transactionIndex": "0x4",
      "blockHash": "0x4dfebcda086dfb889e82d5bd073b555af62b4c5e116e471e85126e0053876c3c",
      "blockNumber": "0x208fb91",
      "gasUsed": "0x3b602",
      "effectiveGasPrice": "0xf433a",
      "from": "0xeff3521fb13228c767ad6dc3b934f9efac9c56ad",
      "to": "0x114a20a10b43d4115e5aeef7345a1a71d2a60c57",
      "contractAddress": null,
      "l1BaseFeeScalar": "0x1db0",
      "l1BlobBaseFee": "0x1",
      "l1BlobBaseFeeScalar": "0xd2730",
      "l1Fee": "0xe0e",
      "l1GasPrice": "0x92",
      "l1GasUsed": "0xc14"
    }
  ],
  "libraries": [],
  "pending": [],
  "returns": {},
  "timestamp": 1760088783,
  "chain": 11155420,
  "commit": "8557215"
}