{
  "transactions": [
    {
      "hash": "0xd6dd1f6f1a56c5a78d92d3472923f79c4b1bbeb7931fcc502b4369cb6dbd0941",
      "transactionType": "CALL",
      "contractName": null,
      "contractAddress": "0xe4ab69c077896252fafbd49efd26b5d171a32410",
      "function": "approve(address,uint256)",
      "arguments": [
        "0x114A20A10b43D4115e5aeef7345a1A71d2a60C57",
        "10333140291347132"
      ],
      "transaction": {
        "from": "0xeff3521fb13228c767ad6dc3b934f9efac9c56ad",
        "to": "0xe4ab69c077896252fafbd49efd26b5d171a32410",
        "gas": "0xfa12",
        "value": "0x0",
        "input": "0x095ea7b3000000000000000000000000114a20a10b43d4115e5aeef7345a1a71d2a60c570000000000000000000000000000000000000000000000000024b5efb47ae2bc",
        "nonce": "0xc",
        "chainId": "0xaa37dc"
      },
      "additionalContracts": [],
      "isFixedGasLimit": false
    },
    {
      "hash": "0x64491cfae1235595b5ed434f525fe37e30c0dd97b29caea8e3d016097847616d",
      "transactionType": "CALL",
      "contractName": null,
      "contractAddress": "0x8e110ce664fdd508b71dfca39b8618482993d8ad",
      "function": "approve(address,uint256)",
      "arguments": [
        "0x114A20A10b43D4115e5aeef7345a1A71d2a60C57",
        "10000000000000"
      ],
      "transaction": {
        "from": "0xeff3521fb13228c767ad6dc3b934f9efac9c56ad",
        "to": "0x8e110ce664fdd508b71dfca39b8618482993d8ad",
        "gas": "0x10c4a",
        "value": "0x0",
        "input": "0x095ea7b3000000000000000000000000114a20a10b43d4115e5aeef7345a1a71d2a60c57000000000000000000000000000000000000000000000000000009184e72a000",
        "nonce": "0xd",
        "chainId": "0xaa37dc"
      },
      "additionalContracts": [],
      "isFixedGasLimit": false
    },
    {
      "hash": "0x0da3eb438b2514e6e47e2fe22afbe38c0c2fe2de8ade067ca9e1538663b68906",
      "transactionType": "CALL",
      "contractName": null,
      "contractAddress": "0x114a20a10b43d4115e5aeef7345a1a71d2a60c57",
      "function": "ccipSend(uint64,(bytes,bytes,(address,uint256)[],address,bytes))",
      "arguments": [
        "16015286601757825753",
        "(0x000000000000000000000000eff3521fb13228c767ad6dc3b934f9efac9c56ad, 0x, [(0x8e110CE664fdD508B71DFca39B8618482993d8AD, 10000000000000)], 0xE4aB69C077896252FAFBD49EFD26B5D171A32410, 0x97a657c90000000000000000000000000000000000000000000000000000000000000000)"
      ],
      "transaction": {
        "from": "0xeff3521fb13228c767ad6dc3b934f9efac9c56ad",
        "to": "0x114a20a10b43d4115e5aeef7345a1a71d2a60c57",
        "gas": "0x5df2b",
        "value": "0x0",
        "input": "0x96f4e9f9000000000000000000000000000000000000000000000000de41ba4fc9d91ad9000000000000000000000000000000000000000000000000000000000000004000000000000000000000000000000000000000000000000000000000000000a000000000000000000000000000000000000000000000000000000000000000e00000000000000000000000000000000000000000000000000000000000000100000000000000000000000000e4ab69c077896252fafbd49efd26b5d171a3241000000000000000000000000000000000000000000000000000000000000001600000000000000000000000000000000000000000000000000000000000000020000000000000000000000000eff3521fb13228c767ad6dc3b934f9efac9c56ad000000000000000000000000000000000000000000000000000000000000000000000000000000000000000000000000000000000000000000000000000000010000000000000000000000008e110ce664fdd508b71dfca39b8618482993d8ad000000000000000000000000000000000000000000000000000009184e72a000000000000000000000000000000000000000000000000000000000000000002497a657c9000000000000000000000000000000000000000000000000000000000000000000000000000000000000000000000000000000000000000000000000",
        "nonce": "0xe",
        "chainId": "0xaa37dc"
      },
      "additionalContracts": [],
      "isFixedGasLimit": false
    }
  ],
  "receipts": [
    {
      "status": "0x1",
      "cumulativeGasUsed": "0x43431",
      "logs": [
        {
          "address": "0xe4ab69c077896252fafbd49efd26b5d171a32410",
          "topics": [
            "0x8c5be1e5ebec7d5bd14f71427d1e84f3dd0314c0f7b2291e5b200ac8c7c3b925",
            "0x000000000000000000000000eff3521fb13228c767ad6dc3b934f9efac9c56ad",
            "0x000000000000000000000000114a20a10b43d4115e5aeef7345a1a71d2a60c57"
          ],
          "data": "0x0000000000000000000000000000000000000000000000000024b5efb47ae2bc",
          "blockHash": "0x21d10e1b9fa9e552d616656e95b1d67ae714bfd604ad9f06d83fcf46ec18a512",
          "blockNumber": "0x208fb45",
          "blockTimestamp": "0x68e8d236",
          "transactionHash": "0xd6dd1f6f1a56c5a78d92d3472923f79c4b1bbeb7931fcc502b4369cb6dbd0941",
          "transactionIndex": "0x4",
          "logIndex": "0x1",
          "removed": false
        }
      ],
      "logsBloom": "0x00008000000000000000000000000000000000000000000000000000000000020000000000000000200000000000000000000000000000000000000000200000000000000000000000000000000000000000000000000000002000000000000000000000000000000000000000000000000000000000000000000000000000000000000000000000000000000000000000000000000000000000000000000000020000000400000000000000000000000000100000000000020000000000000000000000000000000000000000000000000000000000000000000000000000000010000000000000000000000000000200000000000000000000200000000000",
      "type": "0x2",
      "transactionHash": "0xd6dd1f6f1a56c5a78d92d3472923f79c4b1bbeb7931fcc502b4369cb6dbd0941",
      "transactionIndex": "0x4",
      "blockHash": "0x21d10e1b9fa9e552d616656e95b1d67ae714bfd604ad9f06d83fcf46ec18a512",
      "blockNumber": "0x208fb45",
      "gasUsed": "0xb50d",
      "effectiveGasPrice": "0xf433a",
      "from": "0xeff3521fb13228c767ad6dc3b934f9efac9c56ad",
      "to": "0xe4ab69c077896252fafbd49efd26b5d171a32410",
      "contractAddress": null,
      "l1BaseFeeScalar": "0x1db0",
      "l1BlobBaseFee": "0x1",
      "l1BlobBaseFeeScalar": "0xd2730",
      "l1Fee": "0x609",
      "l1GasPrice": "0x78",
      "l1GasUsed": "0x640"
    },
    {
      "status": "0x1",
      "cumulativeGasUsed": "0x4eba4",
      "logs": [
        {
          "address": "0x8e110ce664fdd508b71dfca39b8618482993d8ad",
          "topics": [
            "0x8c5be1e5ebec7d5bd14f71427d1e84f3dd0314c0f7b2291e5b200ac8c7c3b925",
            "0x000000000000000000000000eff3521fb13228c767ad6dc3b934f9efac9c56ad",
            "0x000000000000000000000000114a20a10b43d4115e5aeef7345a1a71d2a60c57"
          ],
          "data": "0x000000000000000000000000000000000000000000000000000009184e72a000",
          "blockHash": "0x21d10e1b9fa9e552d616656e95b1d67ae714bfd604ad9f06d83fcf46ec18a512",
          "blockNumber": "0x208fb45",
          "blockTimestamp": "0x68e8d236",
          "transactionHash": "0x64491cfae1235595b5ed434f525fe37e30c0dd97b29caea8e3d016097847616d",
          "transactionIndex": "0x5",
          "logIndex": "0x2",
          "removed": false
        }
      ],
      "logsBloom": "0x00000000000000000000000000000000000000000000000000000000000000020000000000000400200000000000000000000000000000000000000000200000000000000000000000000000000000000000000000000000002000000000000100000000000000000000000000000000000000000000000000000000000000000000000000000000000000000000000000000000000000000000000000000000020000000400000000000000000000000000100000000000000000000000000000000000000000000000000000000000000000000000000000000000000000000010000000000040000000000000000200000000000000000000000000000000",
      "type": "0x2",
      "transactionHash": "0x64491cfae1235595b5ed434f525fe37e30c0dd97b29caea8e3d016097847616d",
      "transactionIndex": "0x5",
      "blockHash": "0x21d10e1b9fa9e552d616656e95b1d67ae714bfd604ad9f06d83fcf46ec18a512",
      "blockNumber": "0x208fb45",
      "gasUsed": "0xb773",
      "effectiveGasPrice": "0xf433a",
      "from": "0xeff3521fb13228c767ad6dc3b934f9efac9c56ad",
      "to": "0x8e110ce664fdd508b71dfca39b8618482993d8ad",
      "contractAddress": null,
      "l1BaseFeeScalar": "0x1db0",
      "l1BlobBaseFee": "0x1",
      "l1BlobBaseFeeScalar": "0xd2730",
      "l1Fee": "0x609",
      "l1GasPrice": "0x78",
      "l1GasUsed": "0x640"
    },
    {
      "status": "0x1",
      "cumulativeGasUsed": "0x92be9",
      "logs": [
        {
          "address": "0xe4ab69c077896252fafbd49efd26b5d171a32410",
          "topics": [
            "0x8c5be1e5ebec7d5bd14f71427d1e84f3dd0314c0f7b2291e5b200ac8c7c3b925",
            "0x000000000000000000000000eff3521fb13228c767ad6dc3b934f9efac9c56ad",
            "0x000000000000000000000000114a20a10b43d4115e5aeef7345a1a71d2a60c57"
          ],
          "data": "0x0000000000000000000000000000000000000000000000000000000000000000",
          "blockHash": "0x21d10e1b9fa9e552d616656e95b1d67ae714bfd604ad9f06d83fcf46ec18a512",
          "blockNumber": "0x208fb45",
          "blockTimestamp": "0x68e8d236",
          "transactionHash": "0x0da3eb438b2514e6e47e2fe22afbe38c0c2fe2de8ade067ca9e1538663b68906",
          "transactionIndex": "0x6",
          "logIndex": "0x3",
          "removed": false
        },
        {
          "address": "0xe4ab69c077896252fafbd49efd26b5d171a32410",
          "topics": [
            "0xddf252ad1be2c89b69c2b068fc378daa952ba7f163c4a11628f55a4df523b3ef",
            "0x000000000000000000000000eff3521fb13228c767ad6dc3b934f9efac9c56ad",
            "0x00000000000000000000000054b32c2acb4451c6cf66bcbd856d8a7cc2263531"
          ],
          "data": "0x0000000000000000000000000000000000000000000000000024b5efb47ae2bc",
          "blockHash": "0x21d10e1b9fa9e552d616656e95b1d67ae714bfd604ad9f06d83fcf46ec18a512",
          "blockNumber": "0x208fb45",
          "blockTimestamp": "0x68e8d236",
          "transactionHash": "0x0da3eb438b2514e6e47e2fe22afbe38c0c2fe2de8ade067ca9e1538663b68906",
          "transactionIndex": "0x6",
          "logIndex": "0x4",
          "removed": false
        },
        {
          "address": "0x8e110ce664fdd508b71dfca39b8618482993d8ad",
          "topics": [
            "0xddf252ad1be2c89b69c2b068fc378daa952ba7f163c4a11628f55a4df523b3ef",
            "0x0000000000000000000000000000000000000000000000000000000000000000",
            "0x000000000000000000000000eff3521fb13228c767ad6dc3b934f9efac9c56ad"
          ],
          "data": "0x0000000000000000000000000000000000000000000000000000019c1c38a400",
          "blockHash": "0x21d10e1b9fa9e552d616656e95b1d67ae714bfd604ad9f06d83fcf46ec18a512",
          "blockNumber": "0x208fb45",
          "blockTimestamp": "0x68e8d236",
          "transactionHash": "0x0da3eb438b2514e6e47e2fe22afbe38c0c2fe2de8ade067ca9e1538663b68906",
          "transactionIndex": "0x6",
          "logIndex": "0x5",
          "removed": false
        },
        {
          "address": "0x8e110ce664fdd508b71dfca39b8618482993d8ad",
          "topics": [
            "0xddf252ad1be2c89b69c2b068fc378daa952ba7f163c4a11628f55a4df523b3ef",
            "0x0000000000000000000000000000000000000000000000000000000000000000",
            "0x000000000000000000000000eda2fd6af7b3d3255115811572354eeeaecefdf1"
          ],
          "data": "0x0000000000000000000000000000000000000000000000000000000000000000",
          "blockHash": "0x21d10e1b9fa9e552d616656e95b1d67ae714bfd604ad9f06d83fcf46ec18a512",
          "blockNumber": "0x208fb45",
          "blockTimestamp": "0x68e8d236",
          "transactionHash": "0x0da3eb438b2514e6e47e2fe22afbe38c0c2fe2de8ade067ca9e1538663b68906",
          "transactionIndex": "0x6",
          "logIndex": "0x6",
          "removed": false
        },
        {
          "address": "0x8e110ce664fdd508b71dfca39b8618482993d8ad",
          "topics": [
            "0xddf252ad1be2c89b69c2b068fc378daa952ba7f163c4a11628f55a4df523b3ef",
            "0x000000000000000000000000eff3521fb13228c767ad6dc3b934f9efac9c56ad",
            "0x000000000000000000000000eda2fd6af7b3d3255115811572354eeeaecefdf1"
          ],
          "data": "0x000000000000000000000000000000000000000000000000000009184e72a000",
          "blockHash": "0x21d10e1b9fa9e552d616656e95b1d67ae714bfd604ad9f06d83fcf46ec18a512",
          "blockNumber": "0x208fb45",
          "blockTimestamp": "0x68e8d236",
          "transactionHash": "0x0da3eb438b2514e6e47e2fe22afbe38c0c2fe2de8ade067ca9e1538663b68906",
          "transactionIndex": "0x6",
          "logIndex": "0x7",
          "removed": false
        },
        {
          "address": "0x8e110ce664fdd508b71dfca39b8618482993d8ad",
          "topics": [
            "0xddf252ad1be2c89b69c2b068fc378daa952ba7f163c4a11628f55a4df523b3ef",
            "0x0000000000000000000000000000000000000000000000000000000000000000",
            "0x000000000000000000000000eda2fd6af7b3d3255115811572354eeeaecefdf1"
          ],
          "data": "0x0000000000000000000000000000000000000000000000000000000000000000",
          "blockHash": "0x21d10e1b9fa9e552d616656e95b1d67ae714bfd604ad9f06d83fcf46ec18a512",
          "blockNumber": "0x208fb45",
          "blockTimestamp": "0x68e8d236",
          "transactionHash": "0x0da3eb438b2514e6e47e2fe22afbe38c0c2fe2de8ade067ca9e1538663b68906",
          "transactionIndex": "0x6",
          "logIndex": "0x8",
          "removed": false
        },
        {
          "address": "0x8e110ce664fdd508b71dfca39b8618482993d8ad",
          "topics": [
            "0xddf252ad1be2c89b69c2b068fc378daa952ba7f163c4a11628f55a4df523b3ef",
            "0x000000000000000000000000eda2fd6af7b3d3255115811572354eeeaecefdf1",
            "0x0000000000000000000000000000000000000000000000000000000000000000"
          ],
          "data": "0x000000000000000000000000000000000000000000000000000009184e72a000",
          "blockHash": "0x21d10e1b9fa9e552d616656e95b1d67ae714bfd604ad9f06d83fcf46ec18a512",
          "blockNumber": "0x208fb45",
          "blockTimestamp": "0x68e8d236",
          "transactionHash": "0x0da3eb438b2514e6e47e2fe22afbe38c0c2fe2de8ade067ca9e1538663b68906",
          "transactionIndex": "0x6",
          "logIndex": "0x9",
          "removed": false
        },
        {
          "address": "0x54b32c2acb4451c6cf66bcbd856d8a7cc2263531",
          "topics": [
            "0xd0c3c799bf9e2639de44391e7f524d229b2b55f5b1ea94b2bf7da42f7243dddd"
          ],
          "data": "0x000000000000000000000000000000000000000000000000000000000000002000000000000000000000000000000000000000000000000048810ec3e431431f000000000000000000000000eff3521fb13228c767ad6dc3b934f9efac9c56ad000000000000000000000000eff3521fb13228c767ad6dc3b934f9efac9c56ad000000000000000000000000000000000000000000000000000000000000044e000000000000000000000000000000000000000000000000000000000000000000000000000000000000000000000000000000000000000000000000000000000000000000000000000000000000000000000000000000000000000000000001000000000000000000000000e4ab69c077896252fafbd49efd26b5d171a324100000000000000000000000000000000000000000000000000024b5efb47ae2bc00000000000000000000000000000000000000000000000000000000000001a000000000000000000000000000000000000000000000000000000000000001c00000000000000000000000000000000000000000000000000000000000000220a02f06bca336fe33e1f28c416ec90feaa597170944e7fd137664f206f3782033000000000000000000000000000000000000000000000000000000000000000000000000000000000000000000000000000000000000000000000000000000010000000000000000000000008e110ce664fdd508b71dfca39b8618482993d8ad000000000000000000000000000000000000000000000000000009184e72a0000000000000000000000000000000000000000000000000000000000000000001000000000000000000000000000000000000000000000000000000000000002000000000000000000000000000000000000000000000000000000000000001600000000000000000000000000000000000000000000000000000000000000020000000000000000000000000000000000000000000000000000000000000008000000000000000000000000000000000000000000000000000000000000000c000000000000000000000000000000000000000000000000000000000000001000000000000000000000000000000000000000000000000000000000000015f900000000000000000000000000000000000000000000000000000000000000020000000000000000000000000eda2fd6af7b3d3255115811572354eeeaecefdf100000000000000000000000000000000000000000000000000000000000000200000000000000000000000009ddcb877b4bf4e0674e56fe2b6cedd497fb87ffc00000000000000000000000000000000000000000000000000000000000000200000000000000000000000000000000000000000000000000000000ba43b7400",
          "blockHash": "0x21d10e1b9fa9e552d616656e95b1d67ae714bfd604ad9f06d83fcf46ec18a512",
          "blockNumber": "0x208fb45",
          "blockTimestamp": "0x68e8d236",
          "transactionHash": "0x0da3eb438b2514e6e47e2fe22afbe38c0c2fe2de8ade067ca9e1538663b68906",
          "transactionIndex": "0x6",
          "logIndex": "0xa",
          "removed": false
        }
      ],
      "logsBloom": "0x00008000000000000000000000000000000000000000000000000000000000020000000000000400200000000000000000000800000000000000004000200000000000000000000000000008000000000000000020000000002000000100000100000000020000000004000000000800000000000000000000000010000010000000000000000000000000000000000000000000000000000000000000000000020000000400000400000000000000080000100000000000020100000000004000000002000000000000000000000000001000000000000000000000000020000010000000000040000000000000000204000000000000000000200000000000",
      "type": "0x2",
      "transactionHash": "0x0da3eb438b2514e6e47e2fe22afbe38c0c2fe2de8ade067ca9e1538663b68906",
      "transactionIndex": "0x6",
      "blockHash": "0x21d10e1b9fa9e552d616656e95b1d67ae714bfd604ad9f06d83fcf46ec18a512",
      "blockNumber": "0x208fb45",
      "gasUsed": "0x44045",
      "effectiveGasPrice": "0xf433a",
      "from": "0xeff3521fb13228c767ad6dc3b934f9efac9c56ad",
      "to": "0x114a20a10b43d4115e5aeef7345a1a71d2a60c57",
      "contractAddress": null,
      "l1BaseFeeScalar": "0x1db0",
      "l1BlobBaseFee": "0x1",
      "l1BlobBaseFeeScalar": "0xd2730",
      "l1Fee": "0xb9e",
      "l1GasPrice": "0x78",
      "l1GasUsed": "0xc07"
    }
  ],
  "libraries": [],
  "pending": [],
  "returns": {},
  "timestamp": 1760088633,
  "chain": 11155420,
  "commit": "8557215"
}