{
  "transactions": [
    {
      "hash": "0x0bcaf37e4a036c2c9f8c1f2be84ea4a010adf064ac367b258d9821a9a19fbc70",
      "transactionType": "CALL",
      "contractName": null,
      "contractAddress": "0xe4ab69c077896252fafbd49efd26b5d171a32410",
      "function": "approve(address,uint256)",
      "arguments": [
        "0x114A20A10b43D4115e5aeef7345a1A71d2a60C57",
        "10333414968381122"
      ],
      "transaction": {
        "from": "0xeff3521fb13228c767ad6dc3b934f9efac9c56ad",
        "to": "0xe4ab69c077896252fafbd49efd26b5d171a32410",
        "gas": "0xfa12",
        "value": "0x0",
        "input": "0x095ea7b3000000000000000000000000114a20a10b43d4115e5aeef7345a1a71d2a60c570000000000000000000000000000000000000000000000000024b62fa881cec2",
        "nonce": "0xf",
        "chainId": "0xaa37dc"
      },
      "additionalContracts": [],
      "isFixedGasLimit": false
    },
    {
      "hash": "0x037227693d244df98d4c51336deb6b8402175adfecc8be628cc095656c05e1f6",
      "transactionType": "CALL",
      "contractName": null,
      "contractAddress": "0x8e110ce664fdd508b71dfca39b8618482993d8ad",
      "function": "approve(address,uint256)",
      "arguments": [
        "0x114A20A10b43D4115e5aeef7345a1A71d2a60C57",
        "20000000000000"
      ],
      "transaction": {
        "from": "0xeff3521fb13228c767ad6dc3b934f9efac9c56ad",
        "to": "0x8e110ce664fdd508b71dfca39b8618482993d8ad",
        "gas": "0x10c4a",
        "value": "0x0",
        "input": "0x095ea7b3000000000000000000000000114a20a10b43d4115e5aeef7345a1a71d2a60c57000000000000000000000000000000000000000000000000000012309ce54000",
        "nonce": "0x10",
        "chainId": "0xaa37dc"
      },
      "additionalContracts": [],
      "isFixedGasLimit": false
    },
    {
      "hash": "0x04b60c90ab6b224d77d876f638bbda7753cd5b1d5e1666beb6aeb5490b7c2bb8",
      "transactionType": "CALL",
      "contractName": null,
      "contractAddress": "0x114a20a10b43d4115e5aeef7345a1a71d2a60c57",
      "function": "ccipSend(uint64,(bytes,bytes,(address,uint256)[],address,bytes))",
      "arguments": [
        "10344971235874465080",
        "(0x000000000000000000000000eff3521fb13228c767ad6dc3b934f9efac9c56ad, 0x, [(0x8e110CE664fdD508B71DFca39B8618482993d8AD, 20000000000000)], 0xE4aB69C077896252FAFBD49EFD26B5D171A32410, 0x97a657c90000000000000000000000000000000000000000000000000000000000000000)"
      ],
      "transaction": {
        "from": "0xeff3521fb13228c767ad6dc3b934f9efac9c56ad",
        "to": "0x114a20a10b43d4115e5aeef7345a1a71d2a60c57",
        "gas": "0x56d62",
        "value": "0x0",
        "input": "0x96f4e9f90000000000000000000000000000000000000000000000008f90b8876dee6538000000000000000000000000000000000000000000000000000000000000004000000000000000000000000000000000000000000000000000000000000000a000000000000000000000000000000000000000000000000000000000000000e00000000000000000000000000000000000000000000000000000000000000100000000000000000000000000e4ab69c077896252fafbd49efd26b5d171a3241000000000000000000000000000000000000000000000000000000000000001600000000000000000000000000000000000000000000000000000000000000020000000000000000000000000eff3521fb13228c767ad6dc3b934f9efac9c56ad000000000000000000000000000000000000000000000000000000000000000000000000000000000000000000000000000000000000000000000000000000010000000000000000000000008e110ce664fdd508b71dfca39b8618482993d8ad000000000000000000000000000000000000000000000000000012309ce54000000000000000000000000000000000000000000000000000000000000000002497a657c9000000000000000000000000000000000000000000000000000000000000000000000000000000000000000000000000000000000000000000000000",
        "nonce": "0x11",
        "chainId": "0xaa37dc"
      },
      "additionalContracts": [],
      "isFixedGasLimit": false
    }
  ],
  "receipts": [
    {
      "status": "0x1",
      "cumulativeGasUsed": "0x16929",
      "logs": [
        {
          "address": "0xe4ab69c077896252fafbd49efd26b5d171a32410",
          "topics": [
            "0x8c5be1e5ebec7d5bd14f71427d1e84f3dd0314c0f7b2291e5b200ac8c7c3b925",
            "0x000000000000000000000000eff3521fb13228c767ad6dc3b934f9efac9c56ad",
            "0x000000000000000000000000114a20a10b43d4115e5aeef7345a1a71d2a60c57"
          ],
          "data": "0x0000000000000000000000000000000000000000000000000024b62fa881cec2",
          "blockHash": "0xd48e6e52c46f6a865225ee7bf2634e7eb1d47cc7defb7162c3e4635ca78b1e38",
          "blockNumber": "0x208fb6a",
          "blockTimestamp": "0x68e8d280",
          "transactionHash": "0x0bcaf37e4a036c2c9f8c1f2be84ea4a010adf064ac367b258d9821a9a19fbc70",
          "transactionIndex": "0x1",
          "logIndex": "0x0",
          "removed": false
        }
      ],
      "logsBloom": "0x00008000000000000000000000000000000000000000000000000000000000020000000000000000200000000000000000000000000000000000000000200000000000000000000000000000000000000000000000000000002000000000000000000000000000000000000000000000000000000000000000000000000000000000000000000000000000000000000000000000000000000000000000000000020000000400000000000000000000000000100000000000020000000000000000000000000000000000000000000000000000000000000000000000000000000010000000000000000000000000000200000000000000000000200000000000",
      "type": "0x2",
      "transactionHash": "0x0bcaf37e4a036c2c9f8c1f2be84ea4a010adf064ac367b258d9821a9a19fbc70",
      "transactionIndex": "0x1",
      "blockHash": "0xd48e6e52c46f6a865225ee7bf2634e7eb1d47cc7defb7162c3e4635ca78b1e38",
      "blockNumber": "0x208fb6a",
      "gasUsed": "0xb50d",
      "effectiveGasPrice": "0xf433a",
      "from": "0xeff3521fb13228c767ad6dc3b934f9efac9c56ad",
      "to": "0xe4ab69c077896252fafbd49efd26b5d171a32410",
      "contractAddress": null,
      "l1BaseFeeScalar": "0x1db0",
      "l1BlobBaseFee": "0x1",
      "l1BlobBaseFeeScalar": "0xd2730",
      "l1Fee": "0x58f",
      "l1GasPrice": "0x6e",
      "l1GasUsed": "0x640"
    },
    {
      "status": "0x1",
      "cumulativeGasUsed": "0x2209c",
      "logs": [
        {
          "address": "0x8e110ce664fdd508b71dfca39b8618482993d8ad",
          "topics": [
            "0x8c5be1e5ebec7d5bd14f71427d1e84f3dd0314c0f7b2291e5b200ac8c7c3b925",
            "0x000000000000000000000000eff3521fb13228c767ad6dc3b934f9efac9c56ad",
            "0x000000000000000000000000114a20a10b43d4115e5aeef7345a1a71d2a60c57"
          ],
          "data": "0x000000000000000000000000000000000000000000000000000012309ce54000",
          "blockHash": "0xd48e6e52c46f6a865225ee7bf2634e7eb1d47cc7defb7162c3e4635ca78b1e38",
          "blockNumber": "0x208fb6a",
          "blockTimestamp": "0x68e8d280",
          "transactionHash": "0x037227693d244df98d4c51336deb6b8402175adfecc8be628cc095656c05e1f6",
          "transactionIndex": "0x2",
          "logIndex": "0x1",
          "removed": false
        }
      ],
      "logsBloom": "0x00000000000000000000000000000000000000000000000000000000000000020000000000000400200000000000000000000000000000000000000000200000000000000000000000000000000000000000000000000000002000000000000100000000000000000000000000000000000000000000000000000000000000000000000000000000000000000000000000000000000000000000000000000000020000000400000000000000000000000000100000000000000000000000000000000000000000000000000000000000000000000000000000000000000000000010000000000040000000000000000200000000000000000000000000000000",
      "type": "0x2",
      "transactionHash": "0x037227693d244df98d4c51336deb6b8402175adfecc8be628cc095656c05e1f6",
      "transactionIndex": "0x2",
      "blockHash": "0xd48e6e52c46f6a865225ee7bf2634e7eb1d47cc7defb7162c3e4635ca78b1e38",
      "blockNumber": "0x208fb6a",
      "gasUsed": "0xb773",
      "effectiveGasPrice": "0xf433a",
      "from": "0xeff3521fb13228c767ad6dc3b934f9efac9c56ad",
      "to": "0x8e110ce664fdd508b71dfca39b8618482993d8ad",
      "contractAddress": null,
      "l1BaseFeeScalar": "0x1db0",
      "l1BlobBaseFee": "0x1",
      "l1BlobBaseFeeScalar": "0xd2730",
      "l1Fee": "0x58f",
      "l1GasPrice": "0x6e",
      "l1GasUsed": "0x640"
    },
    {
      "status": "0x1",
      "cumulativeGasUsed": "0x5d69e",
      "logs": [
        {
          "address": "0xe4ab69c077896252fafbd49efd26b5d171a32410",
          "topics": [
            "0x8c5be1e5ebec7d5bd14f71427d1e84f3dd0314c0f7b2291e5b200ac8c7c3b925",
            "0x000000000000000000000000eff3521fb13228c767ad6dc3b934f9efac9c56ad",
            "0x000000000000000000000000114a20a10b43d4115e5aeef7345a1a71d2a60c57"
          ],
          "data": "0x0000000000000000000000000000000000000000000000000000000000000000",
          "blockHash": "0xd48e6e52c46f6a865225ee7bf2634e7eb1d47cc7defb7162c3e4635ca78b1e38",
          "blockNumber": "0x208fb6a",
          "blockTimestamp": "0x68e8d280",
          "transactionHash": "0x04b60c90ab6b224d77d876f638bbda7753cd5b1d5e1666beb6aeb5490b7c2bb8",
          "transactionIndex": "0x3",
          "logIndex": "0x2",
          "removed": false
        },
        {
          "address": "0xe4ab69c077896252fafbd49efd26b5d171a32410",
          "topics": [
            "0xddf252ad1be2c89b69c2b068fc378daa952ba7f163c4a11628f55a4df523b3ef",
            "0x000000000000000000000000eff3521fb13228c767ad6dc3b934f9efac9c56ad",
            "0x0000000000000000000000006d22953cdef8b0c9f0976cfa52c33b198fec5881"
          ],
          "data": "0x0000000000000000000000000000000000000000000000000024b62fa881cec2",
          "blockHash": "0xd48e6e52c46f6a865225ee7bf2634e7eb1d47cc7defb7162c3e4635ca78b1e38",
          "blockNumber": "0x208fb6a",
          "blockTimestamp": "0x68e8d280",
          "transactionHash": "0x04b60c90ab6b224d77d876f638bbda7753cd5b1d5e1666beb6aeb5490b7c2bb8",
          "transactionIndex": "0x3",
          "logIndex": "0x3",
          "removed": false
        },
        {
          "address": "0x8e110ce664fdd508b71dfca39b8618482993d8ad",
          "topics": [
            "0xddf252ad1be2c89b69c2b068fc378daa952ba7f163c4a11628f55a4df523b3ef",
            "0x0000000000000000000000000000000000000000000000000000000000000000",
            "0x000000000000000000000000eff3521fb13228c767ad6dc3b934f9efac9c56ad"
          ],
          "data": "0x0000000000000000000000000000000000000000000000000000000cea3e25c8",
          "blockHash": "0xd48e6e52c46f6a865225ee7bf2634e7eb1d47cc7defb7162c3e4635ca78b1e38",
          "blockNumber": "0x208fb6a",
          "blockTimestamp": "0x68e8d280",
          "transactionHash": "0x04b60c90ab6b224d77d876f638bbda7753cd5b1d5e1666beb6aeb5490b7c2bb8",
          "transactionIndex": "0x3",
          "logIndex": "0x4",
          "removed": false
        },
        {
          "address": "0x8e110ce664fdd508b71dfca39b8618482993d8ad",
          "topics": [
            "0xddf252ad1be2c89b69c2b068fc378daa952ba7f163c4a11628f55a4df523b3ef",
            "0x0000000000000000000000000000000000000000000000000000000000000000",
            "0x000000000000000000000000eda2fd6af7b3d3255115811572354eeeaecefdf1"
          ],
          "data": "0x0000000000000000000000000000000000000000000000000000000000000000",
          "blockHash": "0xd48e6e52c46f6a865225ee7bf2634e7eb1d47cc7defb7162c3e4635ca78b1e38",
          "blockNumber": "0x208fb6a",
          "blockTimestamp": "0x68e8d280",
          "transactionHash": "0x04b60c90ab6b224d77d876f638bbda7753cd5b1d5e1666beb6aeb5490b7c2bb8",
          "transactionIndex": "0x3",
          "logIndex": "0x5",
          "removed": false
        },
        {
          "address": "0x8e110ce664fdd508b71dfca39b8618482993d8ad",
          "topics": [
            "0xddf252ad1be2c89b69c2b068fc378daa952ba7f163c4a11628f55a4df523b3ef",
            "0x000000000000000000000000eff3521fb13228c767ad6dc3b934f9efac9c56ad",
            "0x000000000000000000000000eda2fd6af7b3d3255115811572354eeeaecefdf1"
          ],
          "data": "0x000000000000000000000000000000000000000000000000000012309ce54000",
          "blockHash": "0xd48e6e52c46f6a865225ee7bf2634e7eb1d47cc7defb7162c3e4635ca78b1e38",
          "blockNumber": "0x208fb6a",
          "blockTimestamp": "0x68e8d280",
          "transactionHash": "0x04b60c90ab6b224d77d876f638bbda7753cd5b1d5e1666beb6aeb5490b7c2bb8",
          "transactionIndex": "0x3",
          "logIndex": "0x6",
          "removed": false
        },
        {
          "address": "0x8e110ce664fdd508b71dfca39b8618482993d8ad",
          "topics": [
            "0xddf252ad1be2c89b69c2b068fc378daa952ba7f163c4a11628f55a4df523b3ef",
            "0x0000000000000000000000000000000000000000000000000000000000000000",
            "0x000000000000000000000000eda2fd6af7b3d3255115811572354eeeaecefdf1"
          ],
          "data": "0x0000000000000000000000000000000000000000000000000000000000000000",
          "blockHash": "0xd48e6e52c46f6a865225ee7bf2634e7eb1d47cc7defb7162c3e4635ca78b1e38",
          "blockNumber": "0x208fb6a",
          "blockTimestamp": "0x68e8d280",
          "transactionHash": "0x04b60c90ab6b224d77d876f638bbda7753cd5b1d5e1666beb6aeb5490b7c2bb8",
          "transactionIndex": "0x3",
          "logIndex": "0x7",
          "removed": false
        },
        {
          "address": "0x8e110ce664fdd508b71dfca39b8618482993d8ad",
          "topics": [
            "0xddf252ad1be2c89b69c2b068fc378daa952ba7f163c4a11628f55a4df523b3ef",
            "0x000000000000000000000000eda2fd6af7b3d3255115811572354eeeaecefdf1",
            "0x0000000000000000000000000000000000000000000000000000000000000000"
          ],
          "data": "0x000000000000000000000000000000000000000000000000000012309ce54000",
          "blockHash": "0xd48e6e52c46f6a865225ee7bf2634e7eb1d47cc7defb7162c3e4635ca78b1e38",
          "blockNumber": "0x208fb6a",
          "blockTimestamp": "0x68e8d280",
          "transactionHash": "0x04b60c90ab6b224d77d876f638bbda7753cd5b1d5e1666beb6aeb5490b7c2bb8",
          "transactionIndex": "0x3",
          "logIndex": "0x8",
          "removed": false
        },
        {
          "address": "0x6d22953cdef8b0c9f0976cfa52c33b198fec5881",
          "topics": [
            "0xd0c3c799bf9e2639de44391e7f524d229b2b55f5b1ea94b2bf7da42f7243dddd"
          ],
          "data": "0x000000000000000000000000000000000000000000000000000000000000002000000000000000000000000000000000000000000000000048810ec3e431431f000000000000000000000000eff3521fb13228c767ad6dc3b934f9efac9c56ad000000000000000000000000eff3521fb13228c767ad6dc3b934f9efac9c56ad000000000000000000000000000000000000000000000000000000000000af22000000000000000000000000000000000000000000000000000000000000000000000000000000000000000000000000000000000000000000000000000000000000000000000000000000000000000000000000000000000000000000000001000000000000000000000000e4ab69c077896252fafbd49efd26b5d171a324100000000000000000000000000000000000000000000000000024b62fa881cec200000000000000000000000000000000000000000000000000000000000001a000000000000000000000000000000000000000000000000000000000000001c00000000000000000000000000000000000000000000000000000000000000220ba76e14ca523351f36e00719a77de033e284644529b8d108dc423e2ce07ac788000000000000000000000000000000000000000000000000000000000000000000000000000000000000000000000000000000000000000000000000000000010000000000000000000000008e110ce664fdd508b71dfca39b8618482993d8ad000000000000000000000000000000000000000000000000000012309ce540000000000000000000000000000000000000000000000000000000000000000001000000000000000000000000000000000000000000000000000000000000002000000000000000000000000000000000000000000000000000000000000001600000000000000000000000000000000000000000000000000000000000000020000000000000000000000000000000000000000000000000000000000000008000000000000000000000000000000000000000000000000000000000000000c000000000000000000000000000000000000000000000000000000000000001000000000000000000000000000000000000000000000000000000000000015f900000000000000000000000000000000000000000000000000000000000000020000000000000000000000000eda2fd6af7b3d3255115811572354eeeaecefdf100000000000000000000000000000000000000000000000000000000000000200000000000000000000000008e110ce664fdd508b71dfca39b8618482993d8ad00000000000000000000000000000000000000000000000000000000000000200000000000000000000000000000000000000000000000000000000ba43b7400",
          "blockHash": "0xd48e6e52c46f6a865225ee7bf2634e7eb1d47cc7defb7162c3e4635ca78b1e38",
          "blockNumber": "0x208fb6a",
          "blockTimestamp": "0x68e8d280",
          "transactionHash": "0x04b60c90ab6b224d77d876f638bbda7753cd5b1d5e1666beb6aeb5490b7c2bb8",
          "transactionIndex": "0x3",
          "logIndex": "0x9",
          "removed": false
        }
      ],
      "logsBloom": "0x00008000000000000000000000000000000000000000000000000000000000020000000000000400200000000000000000000000008000000000000000200000000000000000000800000008000000000000000000000000802000000000000100000000020000000004000000000800000000000000000000000010000000000000100000000000000000000000000000000000010000000000000000000000020000000400000400000000000000080000100000000000020100000000004000000002000000000000040000000000000000000000000000000000000020000010000000000040000000000000000204000000000000000000200000000000",
      "type": "0x2",
      "transactionHash": "0x04b60c90ab6b224d77d876f638bbda7753cd5b1d5e1666beb6aeb5490b7c2bb8",
      "transactionIndex": "0x3",
      "blockHash": "0xd48e6e52c46f6a865225ee7bf2634e7eb1d47cc7defb7162c3e4635ca78b1e38",
      "blockNumber": "0x208fb6a",
      "gasUsed": "0x3b602",
      "effectiveGasPrice": "0xf433a",
      "from": "0xeff3521fb13228c767ad6dc3b934f9efac9c56ad",
      "to": "0x114a20a10b43d4115e5aeef7345a1a71d2a60c57",
      "contractAddress": null,
      "l1BaseFeeScalar": "0x1db0",
      "l1BlobBaseFee": "0x1",
      "l1BlobBaseFeeScalar": "0xd2730",
      "l1Fee": "0xab4",
      "l1GasPrice": "0x6e",
      "l1GasUsed": "0xc07"
    }
  ],
  "libraries": [],
  "pending": [],
  "returns": {},
  "timestamp": 1760088705,
  "chain": 11155420,
  "commit": "8557215"
}