{
  "transactions": [
    {
      "hash": "0x47031d51648d3debc2f596f83a7e47b3a9293d7298e441b3ba381c78874557c5",
      "transactionType": "CALL",
      "contractName": null,
      "contractAddress": "0x7ea13478ea3961a0e8b538cb05a9df0477c79cd2",
      "function": "approve(address,uint256)",
      "arguments": [
        "0x443a1bce545d56E2c3f20ED32eA588395FFce0f4",
        "22367688705411675"
      ],
      "transaction": {
        "from": "0xeff3521fb13228c767ad6dc3b934f9efac9c56ad",
        "to": "0x7ea13478ea3961a0e8b538cb05a9df0477c79cd2",
        "gas": "0xfa12",
        "value": "0x0",
        "input": "0x095ea7b3000000000000000000000000443a1bce545d56e2c3f20ed32ea588395ffce0f4000000000000000000000000000000000000000000000000004f774b5bbb8a5b",
        "nonce": "0xf",
        "chainId": "0x79a"
      },
      "additionalContracts": [],
      "isFixedGasLimit": false
    },
    {
      "hash": "0x3f45f9e67b662487328f7558a7fb6d7a8e4b3c3a19979573014c2919eed5824b",
      "transactionType": "CALL",
      "contractName": null,
      "contractAddress": "0x8e110ce664fdd508b71dfca39b8618482993d8ad",
      "function": "approve(address,uint256)",
      "arguments": [
        "0x443a1bce545d56E2c3f20ED32eA588395FFce0f4",
        "20000000000000"
      ],
      "transaction": {
        "from": "0xeff3521fb13228c767ad6dc3b934f9efac9c56ad",
        "to": "0x8e110ce664fdd508b71dfca39b8618482993d8ad",
        "gas": "0x10c4a",
        "value": "0x0",
        "input": "0x095ea7b3000000000000000000000000443a1bce545d56e2c3f20ed32ea588395ffce0f4000000000000000000000000000000000000000000000000000012309ce54000",
        "nonce": "0x10",
        "chainId": "0x79a"
      },
      "additionalContracts": [],
      "isFixedGasLimit": false
    },
    {
      "hash": "0x896e22dafd6211e566e199536a1e86152f0f29adb10b36a8dc51835a9a125a8d",
      "transactionType": "CALL",
      "contractName": null,
      "contractAddress": "0x443a1bce545d56e2c3f20ed32ea588395ffce0f4",
      "function": "ccipSend(uint64,(bytes,bytes,(address,uint256)[],address,bytes))",
      "arguments": [
        "3478487238524512106",
        "(0x000000000000000000000000eff3521fb13228c767ad6dc3b934f9efac9c56ad, 0x, [(0x8e110CE664fdD508B71DFca39B8618482993d8AD, 20000000000000)], 0x7ea13478Ea3961A0e8b538cb05a9DF0477c79Cd2, 0x97a657c90000000000000000000000000000000000000000000000000000000000000000)"
      ],
      "transaction": {
        "from": "0xeff3521fb13228c767ad6dc3b934f9efac9c56ad",
        "to": "0x443a1bce545d56e2c3f20ed32ea588395ffce0f4",
        "gas": "0x5ad48",
        "value": "0x0",
        "input": "0x96f4e9f9000000000000000000000000000000000000000000000000304611b6affba76a000000000000000000000000000000000000000000000000000000000000004000000000000000000000000000000000000000000000000000000000000000a000000000000000000000000000000000000000000000000000000000000000e000000000000000000000000000000000000000000000000000000000000001000000000000000000000000007ea13478ea3961a0e8b538cb05a9df0477c79cd200000000000000000000000000000000000000000000000000000000000001600000000000000000000000000000000000000000000000000000000000000020000000000000000000000000eff3521fb13228c767ad6dc3b934f9efac9c56ad000000000000000000000000000000000000000000000000000000000000000000000000000000000000000000000000000000000000000000000000000000010000000000000000000000008e110ce664fdd508b71dfca39b8618482993d8ad000000000000000000000000000000000000000000000000000012309ce54000000000000000000000000000000000000000000000000000000000000000002497a657c9000000000000000000000000000000000000000000000000000000000000000000000000000000000000000000000000000000000000000000000000",
        "nonce": "0x11",
        "chainId": "0x79a"
      },
      "additionalContracts": [],
      "isFixedGasLimit": false
    }
  ],
  "receipts": [
    {
      "status": "0x1",
      "cumulativeGasUsed": "0x16929",
      "logs": [
        {
          "address": "0x7ea13478ea3961a0e8b538cb05a9df0477c79cd2",
          "topics": [
            "0x8c5be1e5ebec7d5bd14f71427d1e84f3dd0314c0f7b2291e5b200ac8c7c3b925",
            "0x000000000000000000000000eff3521fb13228c767ad6dc3b934f9efac9c56ad",
            "0x000000000000000000000000443a1bce545d56e2c3f20ed32ea588395ffce0f4"
          ],
          "data": "0x000000000000000000000000000000000000000000000000004f774b5bbb8a5b",
          "blockHash": "0x000a5855032f9cb678356a26f05d47dca43400942d8999dafeb05becbeae027a",
          "blockNumber": "0x1197bf9",
          "transactionHash": "0x47031d51648d3debc2f596f83a7e47b3a9293d7298e441b3ba381c78874557c5",
          "transactionIndex": "0x1",
          "logIndex": "0x0",
          "removed": false
        }
      ],
      "logsBloom": "0x00000000000000000000000000000000000000000000000000000000000000020000000000000000000000000000000040000000000000000000000000200000000000000000000000000000000000000010000000000000002000000000000000000000000000000000000000000000000000000000000000000000000000000000000000000000000000000000000000000000000000000002000000000000020000000000000000000000000000000000100000000002000000000000000000000000000000000000000000010000000000000000000800000000000000000010000000000000000000000000000000000000000000000000000000000000",
      "type": "0x2",
      "transactionHash": "0x47031d51648d3debc2f596f83a7e47b3a9293d7298e441b3ba381c78874557c5",
      "transactionIndex": "0x1",
      "blockHash": "0x000a5855032f9cb678356a26f05d47dca43400942d8999dafeb05becbeae027a",
      "blockNumber": "0x1197bf9",
      "gasUsed": "0xb50d",
      "effectiveGasPrice": "0xf433c",
      "from": "0xeff3521fb13228c767ad6dc3b934f9efac9c56ad",
      "to": "0x7ea13478ea3961a0e8b538cb05a9df0477c79cd2",
      "contractAddress": null,
      "l1BaseFeeScalar": "0x2608",
      "l1BlobBaseFee": "0x1",
      "l1BlobBaseFeeScalar": "0x177fef",
      "l1Fee": "0xc77",
      "l1GasPrice": "0xc3",
      "l1GasUsed": "0x640"
    },
    {
      "status": "0x1",
      "cumulativeGasUsed": "0x2209c",
      "logs": [
        {
          "address": "0x8e110ce664fdd508b71dfca39b8618482993d8ad",
          "topics": [
            "0x8c5be1e5ebec7d5bd14f71427d1e84f3dd0314c0f7b2291e5b200ac8c7c3b925",
            "0x000000000000000000000000eff3521fb13228c767ad6dc3b934f9efac9c56ad",
            "0x000000000000000000000000443a1bce545d56e2c3f20ed32ea588395ffce0f4"
          ],
          "data": "0x000000000000000000000000000000000000000000000000000012309ce54000",
          "blockHash": "0x000a5855032f9cb678356a26f05d47dca43400942d8999dafeb05becbeae027a",
          "blockNumber": "0x1197bf9",
          "transactionHash": "0x3f45f9e67b662487328f7558a7fb6d7a8e4b3c3a19979573014c2919eed5824b",
          "transactionIndex": "0x2",
          "logIndex": "0x1",
          "removed": false
        }
      ],
      "logsBloom": "0x00000000000000000000000000000000000000000000000000000000000000020000000000000400000000000000000040000000000000000000000000200000000000000000000000000000000000000010000000000000002000000000000100000000000000000000000000000000000000000000000000000000000000000000000000000000000000000000000000000000000000000000000000000000020000000000000000000000000000000000100000000000000000000000000000000000000000000000000000010000000000000000000000000000000000000010000000000040000000000000000000000000000000000000000000000000",
      "type": "0x2",
      "transactionHash": "0x3f45f9e67b662487328f7558a7fb6d7a8e4b3c3a19979573014c2919eed5824b",
      "transactionIndex": "0x2",
      "blockHash": "0x000a5855032f9cb678356a26f05d47dca43400942d8999dafeb05becbeae027a",
      "blockNumber": "0x1197bf9",
      "gasUsed": "0xb773",
      "effectiveGasPrice": "0xf433c",
      "from": "0xeff3521fb13228c767ad6dc3b934f9efac9c56ad",
      "to": "0x8e110ce664fdd508b71dfca39b8618482993d8ad",
      "contractAddress": null,
      "l1BaseFeeScalar": "0x2608",
      "l1BlobBaseFee": "0x1",
      "l1BlobBaseFeeScalar": "0x177fef",
      "l1Fee": "0xc77",
      "l1GasPrice": "0xc3",
      "l1GasUsed": "0x640"
    },
    {
      "status": "0x1",
      "cumulativeGasUsed": "0x6024f",
      "logs": [
        {
          "address": "0x7ea13478ea3961a0e8b538cb05a9df0477c79cd2",
          "topics": [
            "0x8c5be1e5ebec7d5bd14f71427d1e84f3dd0314c0f7b2291e5b200ac8c7c3b925",
            "0x000000000000000000000000eff3521fb13228c767ad6dc3b934f9efac9c56ad",
            "0x000000000000000000000000443a1bce545d56e2c3f20ed32ea588395ffce0f4"
          ],
          "data": "0x0000000000000000000000000000000000000000000000000000000000000000",
          "blockHash": "0x000a5855032f9cb678356a26f05d47dca43400942d8999dafeb05becbeae027a",
          "blockNumber": "0x1197bf9",
          "transactionHash": "0x896e22dafd6211e566e199536a1e86152f0f29adb10b36a8dc51835a9a125a8d",
          "transactionIndex": "0x3",
          "logIndex": "0x2",
          "removed": false
        },
        {
          "address": "0x7ea13478ea3961a0e8b538cb05a9df0477c79cd2",
          "topics": [
            "0xddf252ad1be2c89b69c2b068fc378daa952ba7f163c4a11628f55a4df523b3ef",
            "0x000000000000000000000000eff3521fb13228c767ad6dc3b934f9efac9c56ad",
            "0x000000000000000000000000969d925738117c305a61d3673c84a387650ea02e"
          ],
          "data": "0x000000000000000000000000000000000000000000000000004f774b5bbb8a5b",
          "blockHash": "0x000a5855032f9cb678356a26f05d47dca43400942d8999dafeb05becbeae027a",
          "blockNumber": "0x1197bf9",
          "transactionHash": "0x896e22dafd6211e566e199536a1e86152f0f29adb10b36a8dc51835a9a125a8d",
          "transactionIndex": "0x3",
          "logIndex": "0x3",
          "removed": false
        },
        {
          "address": "0x8e110ce664fdd508b71dfca39b8618482993d8ad",
          "topics": [
            "0xddf252ad1be2c89b69c2b068fc378daa952ba7f163c4a11628f55a4df523b3ef",
            "0x0000000000000000000000000000000000000000000000000000000000000000",
            "0x000000000000000000000000eff3521fb13228c767ad6dc3b934f9efac9c56ad"
          ],
          "data": "0x0000000000000000000000000000000000000000000000000000000a81af30b7",
          "blockHash": "0x000a5855032f9cb678356a26f05d47dca43400942d8999dafeb05becbeae027a",
          "blockNumber": "0x1197bf9",
          "transactionHash": "0x896e22dafd6211e566e199536a1e86152f0f29adb10b36a8dc51835a9a125a8d",
          "transactionIndex": "0x3",
          "logIndex": "0x4",
          "removed": false
        },
        {
          "address": "0x8e110ce664fdd508b71dfca39b8618482993d8ad",
          "topics": [
            "0xddf252ad1be2c89b69c2b068fc378daa952ba7f163c4a11628f55a4df523b3ef",
            "0x0000000000000000000000000000000000000000000000000000000000000000",
            "0x000000000000000000000000eda2fd6af7b3d3255115811572354eeeaecefdf1"
          ],
          "data": "0x0000000000000000000000000000000000000000000000000000000000000000",
          "blockHash": "0x000a5855032f9cb678356a26f05d47dca43400942d8999dafeb05becbeae027a",
          "blockNumber": "0x1197bf9",
          "transactionHash": "0x896e22dafd6211e566e199536a1e86152f0f29adb10b36a8dc51835a9a125a8d",
          "transactionIndex": "0x3",
          "logIndex": "0x5",
          "removed": false
        },
        {
          "address": "0x8e110ce664fdd508b71dfca39b8618482993d8ad",
          "topics": [
            "0xddf252ad1be2c89b69c2b068fc378daa952ba7f163c4a11628f55a4df523b3ef",
            "0x000000000000000000000000eff3521fb13228c767ad6dc3b934f9efac9c56ad",
            "0x000000000000000000000000eda2fd6af7b3d3255115811572354eeeaecefdf1"
          ],
          "data": "0x000000000000000000000000000000000000000000000000000012309ce54000",
          "blockHash": "0x000a5855032f9cb678356a26f05d47dca43400942d8999dafeb05becbeae027a",
          "blockNumber": "0x1197bf9",
          "transactionHash": "0x896e22dafd6211e566e199536a1e86152f0f29adb10b36a8dc51835a9a125a8d",
          "transactionIndex": "0x3",
          "logIndex": "0x6",
          "removed": false
        },
        {
          "address": "0x8e110ce664fdd508b71dfca39b8618482993d8ad",
          "topics": [
            "0xddf252ad1be2c89b69c2b068fc378daa952ba7f163c4a11628f55a4df523b3ef",
            "0x0000000000000000000000000000000000000000000000000000000000000000",
            "0x000000000000000000000000eda2fd6af7b3d3255115811572354eeeaecefdf1"
          ],
          "data": "0x0000000000000000000000000000000000000000000000000000000000000000",
          "blockHash": "0x000a5855032f9cb678356a26f05d47dca43400942d8999dafeb05becbeae027a",
          "blockNumber": "0x1197bf9",
          "transactionHash": "0x896e22dafd6211e566e199536a1e86152f0f29adb10b36a8dc51835a9a125a8d",
          "transactionIndex": "0x3",
          "logIndex": "0x7",
          "removed": false
        },
        {
          "address": "0x8e110ce664fdd508b71dfca39b8618482993d8ad",
          "topics": [
            "0xddf252ad1be2c89b69c2b068fc378daa952ba7f163c4a11628f55a4df523b3ef",
            "0x000000000000000000000000eda2fd6af7b3d3255115811572354eeeaecefdf1",
            "0x0000000000000000000000000000000000000000000000000000000000000000"
          ],
          "data": "0x000000000000000000000000000000000000000000000000000012309ce54000",
          "blockHash": "0x000a5855032f9cb678356a26f05d47dca43400942d8999dafeb05becbeae027a",
          "blockNumber": "0x1197bf9",
          "transactionHash": "0x896e22dafd6211e566e199536a1e86152f0f29adb10b36a8dc51835a9a125a8d",
          "transactionIndex": "0x3",
          "logIndex": "0x8",
          "removed": false
        },
        {
          "address": "0x969d925738117c305a61d3673c84a387650ea02e",
          "topics": [
            "0xd0c3c799bf9e2639de44391e7f524d229b2b55f5b1ea94b2bf7da42f7243dddd"
          ],
          "data": "0x000000000000000000000000000000000000000000000000000000000000002000000000000000000000000000000000000000000000000009874e49b0f7e296000000000000000000000000eff3521fb13228c767ad6dc3b934f9efac9c56ad000000000000000000000000eff3521fb13228c767ad6dc3b934f9efac9c56ad00000000000000000000000000000000000000000000000000000000000000030000000000000000000000000000000000000000000000000000000000000000000000000000000000000000000000000000000000000000000000000000000000000000000000000000000000000000000000000000000000000000000000010000000000000000000000007ea13478ea3961a0e8b538cb05a9df0477c79cd2000000000000000000000000000000000000000000000000004f774b5bbb8a5b00000000000000000000000000000000000000000000000000000000000001a000000000000000000000000000000000000000000000000000000000000001c0000000000000000000000000000000000000000000000000000000000000022071fe14de233e8609ffc3e0773a1dfe82b82ab23be428558aa20a7f77616c1711000000000000000000000000000000000000000000000000000000000000000000000000000000000000000000000000000000000000000000000000000000010000000000000000000000008e110ce664fdd508b71dfca39b8618482993d8ad000000000000000000000000000000000000000000000000000012309ce540000000000000000000000000000000000000000000000000000000000000000001000000000000000000000000000000000000000000000000000000000000002000000000000000000000000000000000000000000000000000000000000001600000000000000000000000000000000000000000000000000000000000000020000000000000000000000000000000000000000000000000000000000000008000000000000000000000000000000000000000000000000000000000000000c000000000000000000000000000000000000000000000000000000000000001000000000000000000000000000000000000000000000000000000000000015f900000000000000000000000000000000000000000000000000000000000000020000000000000000000000000eda2fd6af7b3d3255115811572354eeeaecefdf1000000000000000000000000000000000000000000000000000000000000002000000000000000000000000057c85c30ad2bc719cc34ccaeb8d2bfda1a8b177200000000000000000000000000000000000000000000000000000000000000200000000000000000000000000000000000000000000000000000000ba43b7400",
          "blockHash": "0x000a5855032f9cb678356a26f05d47dca43400942d8999dafeb05becbeae027a",
          "blockNumber": "0x1197bf9",
          "transactionHash": "0x896e22dafd6211e566e199536a1e86152f0f29adb10b36a8dc51835a9a125a8d",
          "transactionIndex": "0x3",
          "logIndex": "0x9",
          "removed": false
        }
      ],
      "logsBloom": "0x00000000000000080000000000000000000000000000000000000000800000020000000000000400000000000000000040000000000000000000000000200000000000000000000000000008000000000010000000000000002000000000000100000000020000000004000000000800000000000000000000000010000000000000000000000000000000000000000000000000000000000002000001000000020000000000000400000000000000080000100000000002000100200000004000000002000000000000000000010000000000000000000800000000000020000010000000000040000000000000000104000000000000000000000000200000",
      "type": "0x2",
      "transactionHash": "0x896e22dafd6211e566e199536a1e86152f0f29adb10b36a8dc51835a9a125a8d",
      "transactionIndex": "0x3",
      "blockHash": "0x000a5855032f9cb678356a26f05d47dca43400942d8999dafeb05becbeae027a",
      "blockNumber": "0x1197bf9",
      "gasUsed": "0x3e1b3",
      "effectiveGasPrice": "0xf433c",
      "from": "0xeff3521fb13228c767ad6dc3b934f9efac9c56ad",
      "to": "0x443a1bce545d56e2c3f20ed32ea588395ffce0f4",
      "contractAddress": null,
      "l1BaseFeeScalar": "0x2608",
      "l1BlobBaseFee": "0x1",
      "l1BlobBaseFeeScalar": "0x177fef",
      "l1Fee": "0x17e4",
      "l1GasPrice": "0xc3",
      "l1GasUsed": "0xbfa"
    }
  ],
  "libraries": [],
  "pending": [],
  "returns": {},
  "timestamp": 1760089050,
  "chain": 1946,
  "commit": "8557215"
}