{
  "transactions": [
    {
      "hash": "0x292983be75195938ea2156b4c4caa6a7a7183499a1f17e7bdac6562f849da565",
      "transactionType": "CALL",
      "contractName": null,
      "contractAddress": "0x7ea13478ea3961a0e8b538cb05a9df0477c79cd2",
      "function": "approve(address,uint256)",
      "arguments": [
        "0x443a1bce545d56E2c3f20ED32eA588395FFce0f4",
        "10585121430292044"
      ],
      "transaction": {
        "from": "0xeff3521fb13228c767ad6dc3b934f9efac9c56ad",
        "to": "0x7ea13478ea3961a0e8b538cb05a9df0477c79cd2",
        "gas": "0xfa12",
        "value": "0x0",
        "input": "0x095ea7b3000000000000000000000000443a1bce545d56e2c3f20ed32ea588395ffce0f400000000000000000000000000000000000000000000000000259b1ca2c1c64c",
        "nonce": "0xc",
        "chainId": "0x79a"
      },
      "additionalContracts": [],
      "isFixedGasLimit": false
    },
    {
      "hash": "0xf76e50d726d27b6df59d4f71b12c30d796b7e1e14c926bce40a4eebc3093159b",
      "transactionType": "CALL",
      "contractName": null,
      "contractAddress": "0x8e110ce664fdd508b71dfca39b8618482993d8ad",
      "function": "approve(address,uint256)",
      "arguments": [
        "0x443a1bce545d56E2c3f20ED32eA588395FFce0f4",
        "10000000000000"
      ],
      "transaction": {
        "from": "0xeff3521fb13228c767ad6dc3b934f9efac9c56ad",
        "to": "0x8e110ce664fdd508b71dfca39b8618482993d8ad",
        "gas": "0x10c4a",
        "value": "0x0",
        "input": "0x095ea7b3000000000000000000000000443a1bce545d56e2c3f20ed32ea588395ffce0f4000000000000000000000000000000000000000000000000000009184e72a000",
        "nonce": "0xd",
        "chainId": "0x79a"
      },
      "additionalContracts": [],
      "isFixedGasLimit": false
    },
    {
      "hash": "0xaacb1316e165388caf95fe7cd07d0e77a20341fa7e83adae472bc2dcb49905cd",
      "transactionType": "CALL",
      "contractName": null,
      "contractAddress": "0x443a1bce545d56e2c3f20ed32ea588395ffce0f4",
      "function": "ccipSend(uint64,(bytes,bytes,(address,uint256)[],address,bytes))",
      "arguments": [
        "16015286601757825753",
        "(0x000000000000000000000000eff3521fb13228c767ad6dc3b934f9efac9c56ad, 0x, [(0x8e110CE664fdD508B71DFca39B8618482993d8AD, 10000000000000)], 0x7ea13478Ea3961A0e8b538cb05a9DF0477c79Cd2, 0x97a657c90000000000000000000000000000000000000000000000000000000000000000)"
      ],
      "transaction": {
        "from": "0xeff3521fb13228c767ad6dc3b934f9efac9c56ad",
        "to": "0x443a1bce545d56e2c3f20ed32ea588395ffce0f4",
        "gas": "0x615cd",
        "value": "0x0",
        "input": "0x96f4e9f9000000000000000000000000000000000000000000000000de41ba4fc9d91ad9000000000000000000000000000000000000000000000000000000000000004000000000000000000000000000000000000000000000000000000000000000a000000000000000000000000000000000000000000000000000000000000000e000000000000000000000000000000000000000000000000000000000000001000000000000000000000000007ea13478ea3961a0e8b538cb05a9df0477c79cd200000000000000000000000000000000000000000000000000000000000001600000000000000000000000000000000000000000000000000000000000000020000000000000000000000000eff3521fb13228c767ad6dc3b934f9efac9c56ad000000000000000000000000000000000000000000000000000000000000000000000000000000000000000000000000000000000000000000000000000000010000000000000000000000008e110ce664fdd508b71dfca39b8618482993d8ad000000000000000000000000000000000000000000000000000009184e72a000000000000000000000000000000000000000000000000000000000000000002497a657c9000000000000000000000000000000000000000000000000000000000000000000000000000000000000000000000000000000000000000000000000",
        "nonce": "0xe",
        "chainId": "0x79a"
      },
      "additionalContracts": [],
      "isFixedGasLimit": false
    }
  ],
  "receipts": [
    {
      "status": "0x1",
      "cumulativeGasUsed": "0x16929",
      "logs": [
        {
          "address": "0x7ea13478ea3961a0e8b538cb05a9df0477c79cd2",
          "topics": [
            "0x8c5be1e5ebec7d5bd14f71427d1e84f3dd0314c0f7b2291e5b200ac8c7c3b925",
            "0x000000000000000000000000eff3521fb13228c767ad6dc3b934f9efac9c56ad",
            "0x000000000000000000000000443a1bce545d56e2c3f20ed32ea588395ffce0f4"
          ],
          "data": "0x00000000000000000000000000000000000000000000000000259b1ca2c1c64c",
          "blockHash": "0xa52d73cd6a95e7ed80b87ac5fe29f3760c587e96fa54d0677e0729b0daf1c002",
          "blockNumber": "0x1197bdb",
          "transactionHash": "0x292983be75195938ea2156b4c4caa6a7a7183499a1f17e7bdac6562f849da565",
          "transactionIndex": "0x1",
          "logIndex": "0x0",
          "removed": false
        }
      ],
      "logsBloom": "0x00000000000000000000000000000000000000000000000000000000000000020000000000000000000000000000000040000000000000000000000000200000000000000000000000000000000000000010000000000000002000000000000000000000000000000000000000000000000000000000000000000000000000000000000000000000000000000000000000000000000000000002000000000000020000000000000000000000000000000000100000000002000000000000000000000000000000000000000000010000000000000000000800000000000000000010000000000000000000000000000000000000000000000000000000000000",
      "type": "0x2",
      "transactionHash": "0x292983be75195938ea2156b4c4caa6a7a7183499a1f17e7bdac6562f849da565",
      "transactionIndex": "0x1",
      "blockHash": "0xa52d73cd6a95e7ed80b87ac5fe29f3760c587e96fa54d0677e0729b0daf1c002",
      "blockNumber": "0x1197bdb",
      "gasUsed": "0xb50d",
      "effectiveGasPrice": "0xf433c",
      "from": "0xeff3521fb13228c767ad6dc3b934f9efac9c56ad",
      "to": "0x7ea13478ea3961a0e8b538cb05a9df0477c79cd2",
      "contractAddress": null,
      "l1BaseFeeScalar": "0x2608",
      "l1BlobBaseFee": "0x1",
      "l1BlobBaseFeeScalar": "0x177fef",
      "l1Fee": "0xc39",
      "l1GasPrice": "0xbf",
      "l1GasUsed": "0x640"
    },
    {
      "status": "0x1",
      "cumulativeGasUsed": "0x2209c",
      "logs": [
        {
          "address": "0x8e110ce664fdd508b71dfca39b8618482993d8ad",
          "topics": [
            "0x8c5be1e5ebec7d5bd14f71427d1e84f3dd0314c0f7b2291e5b200ac8c7c3b925",
            "0x000000000000000000000000eff3521fb13228c767ad6dc3b934f9efac9c56ad",
            "0x000000000000000000000000443a1bce545d56e2c3f20ed32ea588395ffce0f4"
          ],
          "data": "0x000000000000000000000000000000000000000000000000000009184e72a000",
          "blockHash": "0xa52d73cd6a95e7ed80b87ac5fe29f3760c587e96fa54d0677e0729b0daf1c002",
          "blockNumber": "0x1197bdb",
          "transactionHash": "0xf76e50d726d27b6df59d4f71b12c30d796b7e1e14c926bce40a4eebc3093159b",
          "transactionIndex": "0x2",
          "logIndex": "0x1",
          "removed": false
        }
      ],
      "logsBloom": "0x00000000000000000000000000000000000000000000000000000000000000020000000000000400000000000000000040000000000000000000000000200000000000000000000000000000000000000010000000000000002000000000000100000000000000000000000000000000000000000000000000000000000000000000000000000000000000000000000000000000000000000000000000000000020000000000000000000000000000000000100000000000000000000000000000000000000000000000000000010000000000000000000000000000000000000010000000000040000000000000000000000000000000000000000000000000",
      "type": "0x2",
      "transactionHash": "0xf76e50d726d27b6df59d4f71b12c30d796b7e1e14c926bce40a4eebc3093159b",
      "transactionIndex": "0x2",
      "blockHash": "0xa52d73cd6a95e7ed80b87ac5fe29f3760c587e96fa54d0677e0729b0daf1c002",
      "blockNumber": "0x1197bdb",
      "gasUsed": "0xb773",
      "effectiveGasPrice": "0xf433c",
      "from": "0xeff3521fb13228c767ad6dc3b934f9efac9c56ad",
      "to": "0x8e110ce664fdd508b71dfca39b8618482993d8ad",
      "contractAddress": null,
      "l1BaseFeeScalar": "0x2608",
      "l1BlobBaseFee": "0x1",
      "l1BlobBaseFeeScalar": "0x177fef",
      "l1Fee": "0xc39",
      "l1GasPrice": "0xbf",
      "l1GasUsed": "0x640"
    },
    {
      "status": "0x1",
      "cumulativeGasUsed": "0x649c6",
      "logs": [
        {
          "address": "0x7ea13478ea3961a0e8b538cb05a9df0477c79cd2",
          "topics": [
            "0x8c5be1e5ebec7d5bd14f71427d1e84f3dd0314c0f7b2291e5b200ac8c7c3b925",
            "0x000000000000000000000000eff3521fb13228c767ad6dc3b934f9efac9c56ad",
            "0x000000000000000000000000443a1bce545d56e2c3f20ed32ea588395ffce0f4"
          ],
          "data": "0x0000000000000000000000000000000000000000000000000000000000000000",
          "blockHash": "0xa52d73cd6a95e7ed80b87ac5fe29f3760c587e96fa54d0677e0729b0daf1c002",
          "blockNumber": "0x1197bdb",
          "transactionHash": "0xaacb1316e165388caf95fe7cd07d0e77a20341fa7e83adae472bc2dcb49905cd",
          "transactionIndex": "0x3",
          "logIndex": "0x2",
          "removed": false
        },
        {
          "address": "0x7ea13478ea3961a0e8b538cb05a9df0477c79cd2",
          "topics": [
            "0xddf252ad1be2c89b69c2b068fc378daa952ba7f163c4a11628f55a4df523b3ef",
            "0x000000000000000000000000eff3521fb13228c767ad6dc3b934f9efac9c56ad",
            "0x000000000000000000000000ad4d2015c1ad8bfe8b81ca9ff1ba701141e3e2cc"
          ],
          "data": "0x00000000000000000000000000000000000000000000000000259b1ca2c1c64c",
          "blockHash": "0xa52d73cd6a95e7ed80b87ac5fe29f3760c587e96fa54d0677e0729b0daf1c002",
          "blockNumber": "0x1197bdb",
          "transactionHash": "0xaacb1316e165388caf95fe7cd07d0e77a20341fa7e83adae472bc2dcb49905cd",
          "transactionIndex": "0x3",
          "logIndex": "0x3",
          "removed": false
        },
        {
          "address": "0x8e110ce664fdd508b71dfca39b8618482993d8ad",
          "topics": [
            "0xddf252ad1be2c89b69c2b068fc378daa952ba7f163c4a11628f55a4df523b3ef",
            "0x0000000000000000000000000000000000000000000000000000000000000000",
            "0x000000000000000000000000eff3521fb13228c767ad6dc3b934f9efac9c56ad"
          ],
          "data": "0x0000000000000000000000000000000000000000000000000000002418a08278",
          "blockHash": "0xa52d73cd6a95e7ed80b87ac5fe29f3760c587e96fa54d0677e0729b0daf1c002",
          "blockNumber": "0x1197bdb",
          "transactionHash": "0xaacb1316e165388caf95fe7cd07d0e77a20341fa7e83adae472bc2dcb49905cd",
          "transactionIndex": "0x3",
          "logIndex": "0x4",
          "removed": false
        },
        {
          "address": "0x8e110ce664fdd508b71dfca39b8618482993d8ad",
          "topics": [
            "0xddf252ad1be2c89b69c2b068fc378daa952ba7f163c4a11628f55a4df523b3ef",
            "0x0000000000000000000000000000000000000000000000000000000000000000",
            "0x000000000000000000000000eda2fd6af7b3d3255115811572354eeeaecefdf1"
          ],
          "data": "0x0000000000000000000000000000000000000000000000000000000000000000",
          "blockHash": "0xa52d73cd6a95e7ed80b87ac5fe29f3760c587e96fa54d0677e0729b0daf1c002",
          "blockNumber": "0x1197bdb",
          "transactionHash": "0xaacb1316e165388caf95fe7cd07d0e77a20341fa7e83adae472bc2dcb49905cd",
          "transactionIndex": "0x3",
          "logIndex": "0x5",
          "removed": false
        },
        {
          "address": "0x8e110ce664fdd508b71dfca39b8618482993d8ad",
          "topics": [
            "0xddf252ad1be2c89b69c2b068fc378daa952ba7f163c4a11628f55a4df523b3ef",
            "0x000000000000000000000000eff3521fb13228c767ad6dc3b934f9efac9c56ad",
            "0x000000000000000000000000eda2fd6af7b3d3255115811572354eeeaecefdf1"
          ],
          "data": "0x000000000000000000000000000000000000000000000000000009184e72a000",
          "blockHash": "0xa52d73cd6a95e7ed80b87ac5fe29f3760c587e96fa54d0677e0729b0daf1c002",
          "blockNumber": "0x1197bdb",
          "transactionHash": "0xaacb1316e165388caf95fe7cd07d0e77a20341fa7e83adae472bc2dcb49905cd",
          "transactionIndex": "0x3",
          "logIndex": "0x6",
          "removed": false
        },
        {
          "address": "0x8e110ce664fdd508b71dfca39b8618482993d8ad",
          "topics": [
            "0xddf252ad1be2c89b69c2b068fc378daa952ba7f163c4a11628f55a4df523b3ef",
            "0x0000000000000000000000000000000000000000000000000000000000000000",
            "0x000000000000000000000000eda2fd6af7b3d3255115811572354eeeaecefdf1"
          ],
          "data": "0x0000000000000000000000000000000000000000000000000000000000000000",
          "blockHash": "0xa52d73cd6a95e7ed80b87ac5fe29f3760c587e96fa54d0677e0729b0daf1c002",
          "blockNumber": "0x1197bdb",
          "transactionHash": "0xaacb1316e165388caf95fe7cd07d0e77a20341fa7e83adae472bc2dcb49905cd",
          "transactionIndex": "0x3",
          "logIndex": "0x7",
          "removed": false
        },
        {
          "address": "0x8e110ce664fdd508b71dfca39b8618482993d8ad",
          "topics": [
            "0xddf252ad1be2c89b69c2b068fc378daa952ba7f163c4a11628f55a4df523b3ef",
            "0x000000000000000000000000eda2fd6af7b3d3255115811572354eeeaecefdf1",
            "0x0000000000000000000000000000000000000000000000000000000000000000"
          ],
          "data": "0x000000000000000000000000000000000000000000000000000009184e72a000",
          "blockHash": "0xa52d73cd6a95e7ed80b87ac5fe29f3760c587e96fa54d0677e0729b0daf1c002",
          "blockNumber": "0x1197bdb",
          "transactionHash": "0xaacb1316e165388caf95fe7cd07d0e77a20341fa7e83adae472bc2dcb49905cd",
          "transactionIndex": "0x3",
          "logIndex": "0x8",
          "removed": false
        },
        {
          "address": "0xad4d2015c1ad8bfe8b81ca9ff1ba701141e3e2cc",
          "topics": [
            "0xd0c3c799bf9e2639de44391e7f524d229b2b55f5b1ea94b2bf7da42f7243dddd"
          ],
          "data": "0x000000000000000000000000000000000000000000000000000000000000002000000000000000000000000000000000000000000000000009874e49b0f7e296000000000000000000000000eff3521fb13228c767ad6dc3b934f9efac9c56ad000000000000000000000000eff3521fb13228c767ad6dc3b934f9efac9c56ad000000000000000000000000000000000000000000000000000000000000065f0000000000000000000000000000000000000000000000000000000000000000000000000000000000000000000000000000000000000000000000000000000000000000000000000000000000000000000000000000000000000000000000010000000000000000000000007ea13478ea3961a0e8b538cb05a9df0477c79cd200000000000000000000000000000000000000000000000000259b1ca2c1c64c00000000000000000000000000000000000000000000000000000000000001a000000000000000000000000000000000000000000000000000000000000001c00000000000000000000000000000000000000000000000000000000000000220496c1768e45ea6b4a7bbe38c04dd81dc16d7ef0967491c7753cf065fba7027bc000000000000000000000000000000000000000000000000000000000000000000000000000000000000000000000000000000000000000000000000000000010000000000000000000000008e110ce664fdd508b71dfca39b8618482993d8ad000000000000000000000000000000000000000000000000000009184e72a0000000000000000000000000000000000000000000000000000000000000000001000000000000000000000000000000000000000000000000000000000000002000000000000000000000000000000000000000000000000000000000000001600000000000000000000000000000000000000000000000000000000000000020000000000000000000000000000000000000000000000000000000000000008000000000000000000000000000000000000000000000000000000000000000c000000000000000000000000000000000000000000000000000000000000001000000000000000000000000000000000000000000000000000000000000015f900000000000000000000000000000000000000000000000000000000000000020000000000000000000000000eda2fd6af7b3d3255115811572354eeeaecefdf100000000000000000000000000000000000000000000000000000000000000200000000000000000000000009ddcb877b4bf4e0674e56fe2b6cedd497fb87ffc00000000000000000000000000000000000000000000000000000000000000200000000000000000000000000000000000000000000000000000000ba43b7400",
          "blockHash": "0xa52d73cd6a95e7ed80b87ac5fe29f3760c587e96fa54d0677e0729b0daf1c002",
          "blockNumber": "0x1197bdb",
          "transactionHash": "0xaacb1316e165388caf95fe7cd07d0e77a20341fa7e83adae472bc2dcb49905cd",
          "transactionIndex": "0x3",
          "logIndex": "0x9",
          "removed": false
        }
      ],
      "logsBloom": "0x00000000000000000000000000000000000000000000000000000000000100020000000000000400000000000000000040000000000000000000000000200000000000000000000000000008000000080010000000000000002000000000000100000000020000000004000000000800080000000000000400000010000000000000000000000000000000000000000000000000000000000002000000000000020000000000000400000000000000080000100000000002000100000000004000000002000000000000000000010000000000000000000808000000000020000010000000000040000000020000000004000000000000000000000000000000",
      "type": "0x2",
      "transactionHash": "0xaacb1316e165388caf95fe7cd07d0e77a20341fa7e83adae472bc2dcb49905cd",
      "transactionIndex": "0x3",
      "blockHash": "0xa52d73cd6a95e7ed80b87ac5fe29f3760c587e96fa54d0677e0729b0daf1c002",
      "blockNumber": "0x1197bdb",
      "gasUsed": "0x4292a",
      "effectiveGasPrice": "0xf433c",
      "from": "0xeff3521fb13228c767ad6dc3b934f9efac9c56ad",
      "to": "0x443a1bce545d56e2c3f20ed32ea588395ffce0f4",
      "contractAddress": null,
      "l1BaseFeeScalar": "0x2608",
      "l1BlobBaseFee": "0x1",
      "l1BlobBaseFeeScalar": "0x177fef",
      "l1Fee": "0x176c",
      "l1GasPrice": "0xbf",
      "l1GasUsed": "0xbfa"
    }
  ],
  "libraries": [],
  "pending": [],
  "returns": {},
  "timestamp": 1760088990,
  "chain": 1946,
  "commit": "8557215"
}