{
  "transactions": [
    {
      "hash": "0x178f511db7362639cbdd598d127fb5f3492bf52e523a9188a8ce14d8a8aeeea8",
      "transactionType": "CALL",
      "contractName": null,
      "contractAddress": "0xda40816f278cd049c137f6612822d181065ebfb4",
      "function": "approve(address,uint256)",
      "arguments": [
        "0x5b7D7CDf03871dc9Eb00830B027e70A75bd3DC95",
        "10135576425161245"
      ],
      "transaction": {
        "from": "0xeff3521fb13228c767ad6dc3b934f9efac9c56ad",
        "to": "0xda40816f278cd049c137f6612822d181065ebfb4",
        "gas": "0x108b7",
        "value": "0x0",
        "input": "0x095ea7b30000000000000000000000005b7d7cdf03871dc9eb00830b027e70a75bd3dc9500000000000000000000000000000000000000000000000000240240c86a621d",
        "nonce": "0xa",
        "chainId": "0x515"
      },
      "additionalContracts": [],
      "isFixedGasLimit": false
    },
    {
      "hash": "0x4db1312ef3725d02441c10f4010694c24b42197ae311380c05a5511dc8336409",
      "transactionType": "CALL",
      "contractName": null,
      "contractAddress": "0x8e110ce664fdd508b71dfca39b8618482993d8ad",
      "function": "approve(address,uint256)",
      "arguments": [
        "0x5b7D7CDf03871dc9Eb00830B027e70A75bd3DC95",
        "10000000000000"
      ],
      "transaction": {
        "from": "0xeff3521fb13228c767ad6dc3b934f9efac9c56ad",
        "to": "0x8e110ce664fdd508b71dfca39b8618482993d8ad",
        "gas": "0xfd52",
        "value": "0x0",
        "input": "0x095ea7b30000000000000000000000005b7d7cdf03871dc9eb00830b027e70a75bd3dc95000000000000000000000000000000000000000000000000000009184e72a000",
        "nonce": "0xb",
        "chainId": "0x515"
      },
      "additionalContracts": [],
      "isFixedGasLimit": false
    },
    {
      "hash": "0xa2b64e54eac24c092f3a2ce8224d5374c36a690597f64243290434fb33818859",
      "transactionType": "CALL",
      "contractName": null,
      "contractAddress": "0x5b7d7cdf03871dc9eb00830b027e70a75bd3dc95",
      "function": "ccipSend(uint64,(bytes,bytes,(address,uint256)[],address,bytes))",
      "arguments": [
        "16015286601757825753",
        "(0x000000000000000000000000eff3521fb13228c767ad6dc3b934f9efac9c56ad, 0x, [(0x8e110CE664fdD508B71DFca39B8618482993d8AD, 10000000000000)], 0xda40816f278Cd049c137F6612822D181065EBfB4, 0x97a657c90000000000000000000000000000000000000000000000000000000000000000)"
      ],
      "transaction": {
        "from": "0xeff3521fb13228c767ad6dc3b934f9efac9c56ad",
        "to": "0x5b7d7cdf03871dc9eb00830b027e70a75bd3dc95",
        "gas": "0x5bdb7",
        "value": "0x0",
        "input": "0x96f4e9f9000000000000000000000000000000000000000000000000de41ba4fc9d91ad9000000000000000000000000000000000000000000000000000000000000004000000000000000000000000000000000000000000000000000000000000000a000000000000000000000000000000000000000000000000000000000000000e00000000000000000000000000000000000000000000000000000000000000100000000000000000000000000da40816f278cd049c137f6612822d181065ebfb400000000000000000000000000000000000000000000000000000000000001600000000000000000000000000000000000000000000000000000000000000020000000000000000000000000eff3521fb13228c767ad6dc3b934f9efac9c56ad000000000000000000000000000000000000000000000000000000000000000000000000000000000000000000000000000000000000000000000000000000010000000000000000000000008e110ce664fdd508b71dfca39b8618482993d8ad000000000000000000000000000000000000000000000000000009184e72a000000000000000000000000000000000000000000000000000000000000000002497a657c9000000000000000000000000000000000000000000000000000000000000000000000000000000000000000000000000000000000000000000000000",
        "nonce": "0xc",
        "chainId": "0x515"
      },
      "additionalContracts": [],
      "isFixedGasLimit": false
    }
  ],
  "receipts": [
    {
      "status": "0x1",
      "cumulativeGasUsed": "0x1be95",
      "logs": [
        {
          "address": "0xda40816f278cd049c137f6612822d181065ebfb4",
          "topics": [
            "0x8c5be1e5ebec7d5bd14f71427d1e84f3dd0314c0f7b2291e5b200ac8c7c3b925",
            "0x000000000000000000000000eff3521fb13228c767ad6dc3b934f9efac9c56ad",
            "0x0000000000000000000000005b7d7cdf03871dc9eb00830b027e70a75bd3dc95"
          ],
          "data": "0x00000000000000000000000000000000000000000000000000240240c86a621d",
          "blockHash": "0xfa4e51acfd3c3089db3275edc10407904c7d6fb3ff1d21d5defe0bae405cbd12",
          "blockNumber": "0x1fb260d",
          "transactionHash": "0x178f511db7362639cbdd598d127fb5f3492bf52e523a9188a8ce14d8a8aeeea8",
          "transactionIndex": "0x2",
          "logIndex": "0x0",
          "removed": false
        }
      ],
      "logsBloom": "0x00000000000000000000000000000000000000000000000000000000020000020000000000000000000000000000000000000000000000000000000000200000000000000000000000000000000000000000000000000000082000000000000000000000000000000000000000000000000000000000000000000000000000000000000000002000000000000000000000000000000000000000000000000000020000000000000000000000000000000000100000000000000000000000000000002000000000000000800000000000000000000000001000000000000000000010000000000000000000000000000000000000000000000000000000000000",
      "type": "0x2",
      "transactionHash": "0x178f511db7362639cbdd598d127fb5f3492bf52e523a9188a8ce14d8a8aeeea8",
      "transactionIndex": "0x2",
      "blockHash": "0xfa4e51acfd3c3089db3275edc10407904c7d6fb3ff1d21d5defe0bae405cbd12",
      "blockNumber": "0x1fb260d",
      "gasUsed": "0xb501",
      "effectiveGasPrice": "0xf433e",
      "from": "0xeff3521fb13228c767ad6dc3b934f9efac9c56ad",
      "to": "0xda40816f278cd049c137f6612822d181065ebfb4",
      "contractAddress": null,
      "l1BaseFeeScalar": "0x7d0",
      "l1BlobBaseFee": "0x1",
      "l1BlobBaseFeeScalar": "0xdbba0",
      "l1Fee": "0x25a",
      "l1GasPrice": "0xa0",
      "l1GasUsed": "0x640"
    },
    {
      "status": "0x1",
      "cumulativeGasUsed": "0x275fc",
      "logs": [
        {
          "address": "0x8e110ce664fdd508b71dfca39b8618482993d8ad",
          "topics": [
            "0x8c5be1e5ebec7d5bd14f71427d1e84f3dd0314c0f7b2291e5b200ac8c7c3b925",
            "0x000000000000000000000000eff3521fb13228c767ad6dc3b934f9efac9c56ad",
            "0x0000000000000000000000005b7d7cdf03871dc9eb00830b027e70a75bd3dc95"
          ],
          "data": "0x000000000000000000000000000000000000000000000000000009184e72a000",
          "blockHash": "0xfa4e51acfd3c3089db3275edc10407904c7d6fb3ff1d21d5defe0bae405cbd12",
          "blockNumber": "0x1fb260d",
          "blockTimestamp": "0x68e8d359",
          "transactionHash": "0x4db1312ef3725d02441c10f4010694c24b42197ae311380c05a5511dc8336409",
          "transactionIndex": "0x3",
          "logIndex": "0x1",
          "removed": false
        }
      ],
      "logsBloom": "0x00000000000000000000000000000000000000000000000000000000000000020000000000000400000000000000000000000000000000000000000000200000000000000000000000000000000000000000000000000000082000000000000100000000000000000000000000000000000000000000000000000000000000000000000000002000000000000000000000000000000000000000000000000000020000000000000000000000000000000000100000000000000000000000000000000000000000000000000000000000000000000000001000000000000000000010000000000040000000000000000000000000000000000000000000000000",
      "type": "0x2",
      "transactionHash": "0x4db1312ef3725d02441c10f4010694c24b42197ae311380c05a5511dc8336409",
      "transactionIndex": "0x3",
      "blockHash": "0xfa4e51acfd3c3089db3275edc10407904c7d6fb3ff1d21d5defe0bae405cbd12",
      "blockNumber": "0x1fb260d",
      "gasUsed": "0xb767",
      "effectiveGasPrice": "0xf433e",
      "from": "0xeff3521fb13228c767ad6dc3b934f9efac9c56ad",
      "to": "0x8e110ce664fdd508b71dfca39b8618482993d8ad",
      "contractAddress": null,
      "l1BaseFeeScalar": "0x7d0",
      "l1BlobBaseFee": "0x1",
      "l1BlobBaseFeeScalar": "0xdbba0",
      "l1Fee": "0x25a",
      "l1GasPrice": "0xa0",
      "l1GasUsed": "0x640"
    },
    {
      "status": "0x1",
      "cumulativeGasUsed": "0x69e09",
      "logs": [
        {
          "address": "0xda40816f278cd049c137f6612822d181065ebfb4",
          "topics": [
            "0x8c5be1e5ebec7d5bd14f71427d1e84f3dd0314c0f7b2291e5b200ac8c7c3b925",
            "0x000000000000000000000000eff3521fb13228c767ad6dc3b934f9efac9c56ad",
            "0x0000000000000000000000005b7d7cdf03871dc9eb00830b027e70a75bd3dc95"
          ],
          "data": "0x0000000000000000000000000000000000000000000000000000000000000000",
          "blockHash": "0xfa4e51acfd3c3089db3275edc10407904c7d6fb3ff1d21d5defe0bae405cbd12",
          "blockNumber": "0x1fb260d",
          "transactionHash": "0xa2b64e54eac24c092f3a2ce8224d5374c36a690597f64243290434fb33818859",
          "transactionIndex": "0x4",
          "logIndex": "0x2",
          "removed": false
        },
        {
          "address": "0xda40816f278cd049c137f6612822d181065ebfb4",
          "topics": [
            "0xddf252ad1be2c89b69c2b068fc378daa952ba7f163c4a11628f55a4df523b3ef",
            "0x000000000000000000000000eff3521fb13228c767ad6dc3b934f9efac9c56ad",
            "0x000000000000000000000000800fed5216cf8882668c9051b96e89a23f5cf4f9"
          ],
          "data": "0x00000000000000000000000000000000000000000000000000240240c86a621d",
          "blockHash": "0xfa4e51acfd3c3089db3275edc10407904c7d6fb3ff1d21d5defe0bae405cbd12",
          "blockNumber": "0x1fb260d",
          "transactionHash": "0xa2b64e54eac24c092f3a2ce8224d5374c36a690597f64243290434fb33818859",
          "transactionIndex": "0x4",
          "logIndex": "0x3",
          "removed": false
        },
        {
          "address": "0x8e110ce664fdd508b71dfca39b8618482993d8ad",
          "topics": [
            "0xddf252ad1be2c89b69c2b068fc378daa952ba7f163c4a11628f55a4df523b3ef",
            "0x0000000000000000000000000000000000000000000000000000000000000000",
            "0x000000000000000000000000eff3521fb13228c767ad6dc3b934f9efac9c56ad"
          ],
          "data": "0x0000000000000000000000000000000000000000000000000000001ecc823440",
          "blockHash": "0xfa4e51acfd3c3089db3275edc10407904c7d6fb3ff1d21d5defe0bae405cbd12",
          "blockNumber": "0x1fb260d",
          "transactionHash": "0xa2b64e54eac24c092f3a2ce8224d5374c36a690597f64243290434fb33818859",
          "transactionIndex": "0x4",
          "logIndex": "0x4",
          "removed": false
        },
        {
          "address": "0x8e110ce664fdd508b71dfca39b8618482993d8ad",
          "topics": [
            "0xddf252ad1be2c89b69c2b068fc378daa952ba7f163c4a11628f55a4df523b3ef",
            "0x0000000000000000000000000000000000000000000000000000000000000000",
            "0x000000000000000000000000eda2fd6af7b3d3255115811572354eeeaecefdf1"
          ],
          "data": "0x0000000000000000000000000000000000000000000000000000000000000000",
          "blockHash": "0xfa4e51acfd3c3089db3275edc10407904c7d6fb3ff1d21d5defe0bae405cbd12",
          "blockNumber": "0x1fb260d",
          "transactionHash": "0xa2b64e54eac24c092f3a2ce8224d5374c36a690597f64243290434fb33818859",
          "transactionIndex": "0x4",
          "logIndex": "0x5",
          "removed": false
        },
        {
          "address": "0x8e110ce664fdd508b71dfca39b8618482993d8ad",
          "topics": [
            "0xddf252ad1be2c89b69c2b068fc378daa952ba7f163c4a11628f55a4df523b3ef",
            "0x000000000000000000000000eff3521fb13228c767ad6dc3b934f9efac9c56ad",
            "0x000000000000000000000000eda2fd6af7b3d3255115811572354eeeaecefdf1"
          ],
          "data": "0x000000000000000000000000000000000000000000000000000009184e72a000",
          "blockHash": "0xfa4e51acfd3c3089db3275edc10407904c7d6fb3ff1d21d5defe0bae405cbd12",
          "blockNumber": "0x1fb260d",
          "transactionHash": "0xa2b64e54eac24c092f3a2ce8224d5374c36a690597f64243290434fb33818859",
          "transactionIndex": "0x4",
          "logIndex": "0x6",
          "removed": false
        },
        {
          "address": "0x8e110ce664fdd508b71dfca39b8618482993d8ad",
          "topics": [
            "0xddf252ad1be2c89b69c2b068fc378daa952ba7f163c4a11628f55a4df523b3ef",
            "0x0000000000000000000000000000000000000000000000000000000000000000",
            "0x000000000000000000000000eda2fd6af7b3d3255115811572354eeeaecefdf1"
          ],
          "data": "0x0000000000000000000000000000000000000000000000000000000000000000",
          "blockHash": "0xfa4e51acfd3c3089db3275edc10407904c7d6fb3ff1d21d5defe0bae405cbd12",
          "blockNumber": "0x1fb260d",
          "transactionHash": "0xa2b64e54eac24c092f3a2ce8224d5374c36a690597f64243290434fb33818859",
          "transactionIndex": "0x4",
          "logIndex": "0x7",
          "removed": false
        },
        {
          "address": "0x8e110ce664fdd508b71dfca39b8618482993d8ad",
          "topics": [
            "0xddf252ad1be2c89b69c2b068fc378daa952ba7f163c4a11628f55a4df523b3ef",
            "0x000000000000000000000000eda2fd6af7b3d3255115811572354eeeaecefdf1",
            "0x0000000000000000000000000000000000000000000000000000000000000000"
          ],
          "data": "0x000000000000000000000000000000000000000000000000000009184e72a000",
          "blockHash": "0xfa4e51acfd3c3089db3275edc10407904c7d6fb3ff1d21d5defe0bae405cbd12",
          "blockNumber": "0x1fb260d",
          "transactionHash": "0xa2b64e54eac24c092f3a2ce8224d5374c36a690597f64243290434fb33818859",
          "transactionIndex": "0x4",
          "logIndex": "0x8",
          "removed": false
        },
        {
          "address": "0x800fed5216cf8882668c9051b96e89a23f5cf4f9",
          "topics": [
            "0xd0c3c799bf9e2639de44391e7f524d229b2b55f5b1ea94b2bf7da42f7243dddd"
          ],
          "data": "0x0000000000000000000000000000000000000000000000000000000000000020000000000000000000000000000000000000000000000000c42ca4becc1faf34000000000000000000000000eff3521fb13228c767ad6dc3b934f9efac9c56ad000000000000000000000000eff3521fb13228c767ad6dc3b934f9efac9c56ad000000000000000000000000000000000000000000000000000000000000029b000000000000000000000000000000000000000000000000000000000000000000000000000000000000000000000000000000000000000000000000000000000000000000000000000000000000000000000000000000000000000000000001000000000000000000000000da40816f278cd049c137f6612822d181065ebfb400000000000000000000000000000000000000000000000000240240c86a621d00000000000000000000000000000000000000000000000000000000000001a000000000000000000000000000000000000000000000000000000000000001c0000000000000000000000000000000000000000000000000000000000000022059351da5c755920dc7483cfba96e847d458cd761c4288ab906906b82f0eeed36000000000000000000000000000000000000000000000000000000000000000000000000000000000000000000000000000000000000000000000000000000010000000000000000000000008e110ce664fdd508b71dfca39b8618482993d8ad000000000000000000000000000000000000000000000000000009184e72a0000000000000000000000000000000000000000000000000000000000000000001000000000000000000000000000000000000000000000000000000000000002000000000000000000000000000000000000000000000000000000000000001600000000000000000000000000000000000000000000000000000000000000020000000000000000000000000000000000000000000000000000000000000008000000000000000000000000000000000000000000000000000000000000000c000000000000000000000000000000000000000000000000000000000000001000000000000000000000000000000000000000000000000000000000000015f900000000000000000000000000000000000000000000000000000000000000020000000000000000000000000eda2fd6af7b3d3255115811572354eeeaecefdf100000000000000000000000000000000000000000000000000000000000000200000000000000000000000009ddcb877b4bf4e0674e56fe2b6cedd497fb87ffc00000000000000000000000000000000000000000000000000000000000000200000000000000000000000000000000000000000000000000000000ba43b7400",
          "blockHash": "0xfa4e51acfd3c3089db3275edc10407904c7d6fb3ff1d21d5defe0bae405cbd12",
          "blockNumber": "0x1fb260d",
          "transactionHash": "0xa2b64e54eac24c092f3a2ce8224d5374c36a690597f64243290434fb33818859",
          "transactionIndex": "0x4",
          "logIndex": "0x9",
          "removed": false
        }
      ],
      "logsBloom": "0x00000000000000000000000000000000000000000000000000000000020000020000000000000400000080000000000000000000000000000000000000200000000000000000000000000008000000000000000000000000082000000000000900000000020000000004000000000800000000000000000000000010000000000000000000002000800000000000000000000000000000000000000000000000020000000000000400000000000000080004100000000000000100000000004000002002000000000000800000000000000000000000001000000000000020000410000000000040000000000000000005000000000000000000000000000000",
      "type": "0x2",
      "transactionHash": "0xa2b64e54eac24c092f3a2ce8224d5374c36a690597f64243290434fb33818859",
      "transactionIndex": "0x4",
      "blockHash": "0xfa4e51acfd3c3089db3275edc10407904c7d6fb3ff1d21d5defe0bae405cbd12",
      "blockNumber": "0x1fb260d",
      "gasUsed": "0x4280d",
      "effectiveGasPrice": "0xf433e",
      "from": "0xeff3521fb13228c767ad6dc3b934f9efac9c56ad",
      "to": "0x5b7d7cdf03871dc9eb00830b027e70a75bd3dc95",
      "contractAddress": null,
      "l1BaseFeeScalar": "0x7d0",
      "l1BlobBaseFee": "0x1",
      "l1BlobBaseFeeScalar": "0xdbba0",
      "l1Fee": "0x481",
      "l1GasPrice": "0xa0",
      "l1GasUsed": "0xbfa"
    }
  ],
  "libraries": [],
  "pending": [],
  "returns": {},
  "timestamp": 1760088922,
  "chain": 1301,
  "commit": "8557215"
}