{
  "transactions": [
    {
      "hash": "0xc9fb7c7bdfb1fce44fc829670c1e345f80afa8b02ba430ebda8b86d4fb9ea276",
      "transactionType": "CALL",
      "contractName": null,
      "contractAddress": "0xeda2fd6af7b3d3255115811572354eeeaecefdf1",
      "function": "applyChainUpdates(uint64[],(uint64,bytes[],bytes,(bool,uint128,uint128),(bool,uint128,uint128))[])",
      "arguments": [
        "[]",
        "[(3478487238524512106, [0x0000000000000000000000001facfb24b61346b28905b4d64517130e43236dc8], 0x00000000000000000000000057c85c30ad2bc719cc34ccaeb8d2bfda1a8b1772, (false, 0, 0), (false, 0, 0))]"
      ],
      "transaction": {
        "from": "0xeff3521fb13228c767ad6dc3b934f9efac9c56ad",
        "to": "0xeda2fd6af7b3d3255115811572354eeeaecefdf1",
        "gas": "0x647a4",
        "value": "0x0",
        "input": "0xe8a1da1700000000000000000000000000000000000000000000000000000000000000400000000000000000000000000000000000000000000000000000000000000060000000000000000000000000000000000000000000000000000000000000000000000000000000000000000000000000000000000000000000000000000000010000000000000000000000000000000000000000000000000000000000000020000000000000000000000000000000000000000000000000304611b6affba76a000000000000000000000000000000000000000000000000000000000000012000000000000000000000000000000000000000000000000000000000000001a00000000000000000000000000000000000000000000000000000000000000000000000000000000000000000000000000000000000000000000000000000000000000000000000000000000000000000000000000000000000000000000000000000000000000000000000000000000000000000000000000000000000000000000000000000000000000000000000000000000000000000000000000000000000000000000000000000000000000000000000000000000000000000000000000000000000000000000000000000000000000000000000000000000000000001000000000000000000000000000000000000000000000000000000000000002000000000000000000000000000000000000000000000000000000000000000200000000000000000000000001facfb24b61346b28905b4d64517130e43236dc8000000000000000000000000000000000000000000000000000000000000002000000000000000000000000057c85c30ad2bc719cc34ccaeb8d2bfda1a8b1772",
        "nonce": "0x9",
        "chainId": "0xaa37dc"
      },
      "additionalContracts": [],
      "isFixedGasLimit": false
    }
  ],
  "receipts": [
    {
      "status": "0x1",
      "cumulativeGasUsed": "0xf42ad5",
      "logs": [
        {
          "address": "0xeda2fd6af7b3d3255115811572354eeeaecefdf1",
          "topics": [
            "0x7d628c9a1796743d365ab521a8b2a4686e419b3269919dc9145ea2ce853b54ea",
            "0x000000000000000000000000000000000000000000000000304611b6affba76a"
          ],
          "data": "0x000000000000000000000000000000000000000000000000000000000000002000000000000000000000000000000000000000000000000000000000000000200000000000000000000000001facfb24b61346b28905b4d64517130e43236dc8",
          "blockHash": "0xea4d0071a669a47280b0a7c8f34baaa1c1b716859ceb3451e08c2c1527d69d3e",
          "blockNumber": "0x208f53a",
          "blockTimestamp": "0x68e8c620",
          "transactionHash": "0xc9fb7c7bdfb1fce44fc829670c1e345f80afa8b02ba430ebda8b86d4fb9ea276",
          "transactionIndex": "0x7",
          "logIndex": "0x156",
          "removed": false
        },
        {
          "address": "0xeda2fd6af7b3d3255115811572354eeeaecefdf1",
          "topics": [
            "0x8d340f17e19058004c20453540862a9c62778504476f6756755cb33bcd6c38c2"
          ],
          "data": "0x000000000000000000000000000000000000000000000000304611b6affba76a0000000000000000000000000000000000000000000000000000000000000100000000000000000000000000000000000000000000000000000000000000000000000000000000000000000000000000000000000000000000000000000000000000000000000000000000000000000000000000000000000000000000000000000000000000000000000000000000000000000000000000000000000000000000000000000000000000000000000000000000000000000000000000000000000000000000000000000000000000000000000000000000000000000000000000000000000000000000000000000000000000000000000000000000000000002000000000000000000000000057c85c30ad2bc719cc34ccaeb8d2bfda1a8b1772",
          "blockHash": "0xea4d0071a669a47280b0a7c8f34baaa1c1b716859ceb3451e08c2c1527d69d3e",
          "blockNumber": "0x208f53a",
          "blockTimestamp": "0x68e8c620",
          "transactionHash": "0xc9fb7c7bdfb1fce44fc829670c1e345f80afa8b02ba430ebda8b86d4fb9ea276",
          "transactionIndex": "0x7",
          "logIndex": "0x157",
          "removed": false
        }
      ],
      "logsBloom": "0x00000000000000400000000000000000000000000000000000800000000000000000000000000000000000000000000000000000080000000004000000000204000000000000000000000000000000000000000000000000000000000000000000000000000000000000000000000000000000000000000000000000000000400000000000000000000000000000000000000000000000000000000000000000000000000000000000000000000100000000000000000000000000000000000000000000000000000000000000000000000000000000000000000000080000000000000000000000000000000000000000000000008000000100000000200000",
      "type": "0x2",
      "transactionHash": "0xc9fb7c7bdfb1fce44fc829670c1e345f80afa8b02ba430ebda8b86d4fb9ea276",
      "transactionIndex": "0x7",
      "blockHash": "0xea4d0071a669a47280b0a7c8f34baaa1c1b716859ceb3451e08c2c1527d69d3e",
      "blockNumber": "0x208f53a",
      "gasUsed": "0x48be8",
      "effectiveGasPrice": "0x8656a",
      "from": "0xeff3521fb13228c767ad6dc3b934f9efac9c56ad",
      "to": "0xeda2fd6af7b3d3255115811572354eeeaecefdf1",
      "contractAddress": null,
      "l1BaseFeeScalar": "0x1db0",
      "l1BlobBaseFee": "0x1",
      "l1BlobBaseFeeScalar": "0xd2730",
      "l1Fee": "0x75c",
      "l1GasPrice": "0x5d",
      "l1GasUsed": "0x9ad"
    }
  ],
  "libraries": [],
  "pending": [],
  "returns": {},
  "timestamp": 1760085537,
  "chain": 11155420,
  "commit": "8557215"
}