{
  "transactions": [
    {
      "hash": "0x8b69b650968be9ddb048b74f58180265aa1adc5b1774328c505092f1c06f01c9",
      "transactionType": "CALL",
      "contractName": null,
      "contractAddress": "0xeda2fd6af7b3d3255115811572354eeeaecefdf1",
      "function": "applyChainUpdates(uint64[],(uint64,bytes[],bytes,(bool,uint128,uint128),(bool,uint128,uint128))[])",
      "arguments": [
        "[]",
        "[(10344971235874465080, [0x000000000000000000000000eda2fd6af7b3d3255115811572354eeeaecefdf1], 0x0000000000000000000000008e110ce664fdd508b71dfca39b8618482993d8ad, (false, 0, 0), (false, 0, 0))]"
      ],
      "transaction": {
        "from": "0xeff3521fb13228c767ad6dc3b934f9efac9c56ad",
        "to": "0xeda2fd6af7b3d3255115811572354eeeaecefdf1",
        "gas": "0x647a4",
        "value": "0x0",
        "input": "0xe8a1da17000000000000000000000000000000000000000000000000000000000000004000000000000000000000000000000000000000000000000000000000000000600000000000000000000000000000000000000000000000000000000000000000000000000000000000000000000000000000000000000000000000000000000100000000000000000000000000000000000000000000000000000000000000200000000000000000000000000000000000000000000000008f90b8876dee6538000000000000000000000000000000000000000000000000000000000000012000000000000000000000000000000000000000000000000000000000000001a0000000000000000000000000000000000000000000000000000000000000000000000000000000000000000000000000000000000000000000000000000000000000000000000000000000000000000000000000000000000000000000000000000000000000000000000000000000000000000000000000000000000000000000000000000000000000000000000000000000000000000000000000000000000000000000000000000000000000000000000000000000000000000000000000000000000000000000000000000000000000000000000000000000000000000100000000000000000000000000000000000000000000000000000000000000200000000000000000000000000000000000000000000000000000000000000020000000000000000000000000eda2fd6af7b3d3255115811572354eeeaecefdf100000000000000000000000000000000000000000000000000000000000000200000000000000000000000008e110ce664fdd508b71dfca39b8618482993d8ad",
        "nonce": "0xa",
        "chainId": "0xaa37dc"
      },
      "additionalContracts": [],
      "isFixedGasLimit": false
    }
  ],
  "receipts": [
    {
      "status": "0x1",
      "cumulativeGasUsed": "0x5920c",
      "logs": [
        {
          "address": "0xeda2fd6af7b3d3255115811572354eeeaecefdf1",
          "topics": [
            "0x7d628c9a1796743d365ab521a8b2a4686e419b3269919dc9145ea2ce853b54ea",
            "0x0000000000000000000000000000000000000000000000008f90b8876dee6538"
          ],
          "data": "0x00000000000000000000000000000000000000000000000000000000000000200000000000000000000000000000000000000000000000000000000000000020000000000000000000000000eda2fd6af7b3d3255115811572354eeeaecefdf1",
          "blockHash": "0xb6601a8a5483883708c880bfd1b97f4887c18fab02adbd5dc7545d6d8ae295fa",
          "blockNumber": "0x208f55c",
          "blockTimestamp": "0x68e8c664",
          "transactionHash": "0x8b69b650968be9ddb048b74f58180265aa1adc5b1774328c505092f1c06f01c9",
          "transactionIndex": "0x2",
          "logIndex": "0x0",
          "removed": false
        },
        {
          "address": "0xeda2fd6af7b3d3255115811572354eeeaecefdf1",
          "topics": [
            "0x8d340f17e19058004c20453540862a9c62778504476f6756755cb33bcd6c38c2"
          ],
          "data": "0x0000000000000000000000000000000000000000000000008f90b8876dee6538000000000000000000000000000000000000000000000000000000000000010000000000000000000000000000000000000000000000000000000000000000000000000000000000000000000000000000000000000000000000000000000000000000000000000000000000000000000000000000000000000000000000000000000000000000000000000000000000000000000000000000000000000000000000000000000000000000000000000000000000000000000000000000000000000000000000000000000000000000000000000000000000000000000000000000000000000000000000000000000000000000000000000000000000000000200000000000000000000000008e110ce664fdd508b71dfca39b8618482993d8ad",
          "blockHash": "0xb6601a8a5483883708c880bfd1b97f4887c18fab02adbd5dc7545d6d8ae295fa",
          "blockNumber": "0x208f55c",
          "blockTimestamp": "0x68e8c664",
          "transactionHash": "0x8b69b650968be9ddb048b74f58180265aa1adc5b1774328c505092f1c06f01c9",
          "transactionIndex": "0x2",
          "logIndex": "0x1",
          "removed": false
        }
      ],
      "logsBloom": "0x00000000000000400000000000000000000000000000000000800000000000000000000000000000000000000000000000000000000000000004000000000204000000000000000000000000000000000000000400000000000000000000200000000000000000000000000000000000000000000000000000000000000000404000000000000000000000000000000000000000000000000000000000000000000000000000000000000000000100000000000000000000000000000000000000000000000000000000000000000000000000000000000000000000000000000000000000000000000000000000000000000000008000000100000000000000",
      "type": "0x2",
      "transactionHash": "0x8b69b650968be9ddb048b74f58180265aa1adc5b1774328c505092f1c06f01c9",
      "transactionIndex": "0x2",
      "blockHash": "0xb6601a8a5483883708c880bfd1b97f4887c18fab02adbd5dc7545d6d8ae295fa",
      "blockNumber": "0x208f55c",
      "gasUsed": "0x48be8",
      "effectiveGasPrice": "0xf433a",
      "from": "0xeff3521fb13228c767ad6dc3b934f9efac9c56ad",
      "to": "0xeda2fd6af7b3d3255115811572354eeeaecefdf1",
      "contractAddress": null,
      "l1BaseFeeScalar": "0x1db0",
      "l1BlobBaseFee": "0x1",
      "l1BlobBaseFeeScalar": "0xd2730",
      "l1Fee": "0x6b6",
      "l1GasPrice": "0x5e",
      "l1GasUsed": "0x8bc"
    }
  ],
  "libraries": [],
  "pending": [],
  "returns": {},
  "timestamp": 1760085605,
  "chain": 11155420,
  "commit": "8557215"
}