{
  "transactions": [
    {
      "hash": "0x5ba376d226a9b66ff1837a68beb465a8dec4fbb849279c92f08c1705d68ae9f4",
      "transactionType": "CALL",
      "contractName": null,
      "contractAddress": "0xe3f048618be93445341635f7d6371703414797a8",
      "function": "applyChainUpdates(uint64[],(uint64,bytes[],bytes,(bool,uint128,uint128),(bool,uint128,uint128))[])",
      "arguments": [
        "[]",
        "[(10344971235874465080, [0x000000000000000000000000eda2fd6af7b3d3255115811572354eeeaecefdf1], 0x0000000000000000000000008e110ce664fdd508b71dfca39b8618482993d8ad, (false, 0, 0), (false, 0, 0))]"
      ],
      "transaction": {
        "from": "0xeff3521fb13228c767ad6dc3b934f9efac9c56ad",
        "to": "0xe3f048618be93445341635f7d6371703414797a8",
        "gas": "0x647a4",
        "value": "0x0",
        "input": "0xe8a1da17000000000000000000000000000000000000000000000000000000000000004000000000000000000000000000000000000000000000000000000000000000600000000000000000000000000000000000000000000000000000000000000000000000000000000000000000000000000000000000000000000000000000000100000000000000000000000000000000000000000000000000000000000000200000000000000000000000000000000000000000000000008f90b8876dee6538000000000000000000000000000000000000000000000000000000000000012000000000000000000000000000000000000000000000000000000000000001a0000000000000000000000000000000000000000000000000000000000000000000000000000000000000000000000000000000000000000000000000000000000000000000000000000000000000000000000000000000000000000000000000000000000000000000000000000000000000000000000000000000000000000000000000000000000000000000000000000000000000000000000000000000000000000000000000000000000000000000000000000000000000000000000000000000000000000000000000000000000000000000000000000000000000000100000000000000000000000000000000000000000000000000000000000000200000000000000000000000000000000000000000000000000000000000000020000000000000000000000000eda2fd6af7b3d3255115811572354eeeaecefdf100000000000000000000000000000000000000000000000000000000000000200000000000000000000000008e110ce664fdd508b71dfca39b8618482993d8ad",
        "nonce": "0x7e",
        "chainId": "0xaa36a7"
      },
      "additionalContracts": [],
      "isFixedGasLimit": false
    }
  ],
  "receipts": [
    {
      "status": "0x1",
      "cumulativeGasUsed": "0x2a1fe42",
      "logs": [
        {
          "address": "0xe3f048618be93445341635f7d6371703414797a8",
          "topics": [
            "0x7d628c9a1796743d365ab521a8b2a4686e419b3269919dc9145ea2ce853b54ea",
            "0x0000000000000000000000000000000000000000000000008f90b8876dee6538"
          ],
          "data": "0x00000000000000000000000000000000000000000000000000000000000000200000000000000000000000000000000000000000000000000000000000000020000000000000000000000000eda2fd6af7b3d3255115811572354eeeaecefdf1",
          "blockHash": "0xbf6fdd5270365e729ae760697dd8f8ea7ac8a513c00cb3ac23c6d2cd1bf14b0f",
          "blockNumber": "0x8f25e1",
          "blockTimestamp": "0x68e8c3cc",
          "transactionHash": "0x5ba376d226a9b66ff1837a68beb465a8dec4fbb849279c92f08c1705d68ae9f4",
          "transactionIndex": "0xac",
          "logIndex": "0xf9",
          "removed": false
        },
        {
          "address": "0xe3f048618be93445341635f7d6371703414797a8",
          "topics": [
            "0x8d340f17e19058004c20453540862a9c62778504476f6756755cb33bcd6c38c2"
          ],
          "data": "0x0000000000000000000000000000000000000000000000008f90b8876dee6538000000000000000000000000000000000000000000000000000000000000010000000000000000000000000000000000000000000000000000000000000000000000000000000000000000000000000000000000000000000000000000000000000000000000000000000000000000000000000000000000000000000000000000000000000000000000000000000000000000000000000000000000000000000000000000000000000000000000000000000000000000000000000000000000000000000000000000000000000000000000000000000000000000000000000000000000000000000000000000000000000000000000000000000000000000200000000000000000000000008e110ce664fdd508b71dfca39b8618482993d8ad",
          "blockHash": "0xbf6fdd5270365e729ae760697dd8f8ea7ac8a513c00cb3ac23c6d2cd1bf14b0f",
          "blockNumber": "0x8f25e1",
          "blockTimestamp": "0x68e8c3cc",
          "transactionHash": "0x5ba376d226a9b66ff1837a68beb465a8dec4fbb849279c92f08c1705d68ae9f4",
          "transactionIndex": "0xac",
          "logIndex": "0xfa",
          "removed": false
        }
      ],
      "logsBloom": "0x00000000000000400000000000000000000000000000000000000000000000000000000000000000000000000000000000000000000000000004000000000004000000000000000000000000000000000000000400000000000000010000200000000000000000000000000000000000000000000000000000000000000000404000000000000000000000000000000000000000000000000000000000000000000000000000000000000000000000000000000000000000000080000000000000000000000000000000000000000000000000000000000000000000000000000000000000000000000000000000000000000000008200000100000000000000",
      "type": "0x2",
      "transactionHash": "0x5ba376d226a9b66ff1837a68beb465a8dec4fbb849279c92f08c1705d68ae9f4",
      "transactionIndex": "0xac",
      "blockHash": "0xbf6fdd5270365e729ae760697dd8f8ea7ac8a513c00cb3ac23c6d2cd1bf14b0f",
      "blockNumber": "0x8f25e1",
      "gasUsed": "0x48be8",
      "effectiveGasPrice": "0xf4297",
      "from": "0xeff3521fb13228c767ad6dc3b934f9efac9c56ad",
      "to": "0xe3f048618be93445341635f7d6371703414797a8",
      "contractAddress": null
    }
  ],
  "libraries": [],
  "pending": [],
  "returns": {},
  "timestamp": 1760084941,
  "chain": 11155111,
  "commit": "8557215"
}