{
  "transactions": [
    {
      "hash": "0x6033208700ce2bd402046660f7001b23029b857749c3fc968badbf266bde1d99",
      "transactionType": "CALL",
      "contractName": null,
      "contractAddress": "0xd1d65329242e9552392e2cde15558abdc3edba29",
      "function": "applyChainUpdates(uint64[],(uint64,bytes[],bytes,(bool,uint128,uint128),(bool,uint128,uint128))[])",
      "arguments": [
        "[]",
        "[(3478487238524512106, [0x000000000000000000000000eda2fd6af7b3d3255115811572354eeeaecefdf1], 0x0000000000000000000000008e110ce664fdd508b71dfca39b8618482993d8ad, (false, 0, 0), (false, 0, 0))]"
      ],
      "transaction": {
        "from": "0xeff3521fb13228c767ad6dc3b934f9efac9c56ad",
        "to": "0xd1d65329242e9552392e2cde15558abdc3edba29",
        "gas": "0x6a3e8",
        "value": "0x0",
        "input": "0xe8a1da1700000000000000000000000000000000000000000000000000000000000000400000000000000000000000000000000000000000000000000000000000000060000000000000000000000000000000000000000000000000000000000000000000000000000000000000000000000000000000000000000000000000000000010000000000000000000000000000000000000000000000000000000000000020000000000000000000000000000000000000000000000000304611b6affba76a000000000000000000000000000000000000000000000000000000000000012000000000000000000000000000000000000000000000000000000000000001a0000000000000000000000000000000000000000000000000000000000000000000000000000000000000000000000000000000000000000000000000000000000000000000000000000000000000000000000000000000000000000000000000000000000000000000000000000000000000000000000000000000000000000000000000000000000000000000000000000000000000000000000000000000000000000000000000000000000000000000000000000000000000000000000000000000000000000000000000000000000000000000000000000000000000000100000000000000000000000000000000000000000000000000000000000000200000000000000000000000000000000000000000000000000000000000000020000000000000000000000000eda2fd6af7b3d3255115811572354eeeaecefdf100000000000000000000000000000000000000000000000000000000000000200000000000000000000000008e110ce664fdd508b71dfca39b8618482993d8ad",
        "nonce": "0x58",
        "chainId": "0xaa36a7"
      },
      "additionalContracts": [],
      "isFixedGasLimit": false
    }
  ],
  "receipts": [
    {
      "status": "0x1",
      "cumulativeGasUsed": "0x22b2099",
      "logs": [
        {
          "address": "0xd1d65329242e9552392e2cde15558abdc3edba29",
          "topics": [
            "0x7d628c9a1796743d365ab521a8b2a4686e419b3269919dc9145ea2ce853b54ea",
            "0x000000000000000000000000000000000000000000000000304611b6affba76a"
          ],
          "data": "0x00000000000000000000000000000000000000000000000000000000000000200000000000000000000000000000000000000000000000000000000000000020000000000000000000000000eda2fd6af7b3d3255115811572354eeeaecefdf1",
          "blockHash": "0xef74a575f57775b312d0702d29162d78f997ce4284be8b3aa7fdb57617b92eef",
          "blockNumber": "0x8ed2de",
          "blockTimestamp": "0x68e4b140",
          "transactionHash": "0x6033208700ce2bd402046660f7001b23029b857749c3fc968badbf266bde1d99",
          "transactionIndex": "0x61",
          "logIndex": "0x83",
          "removed": false
        },
        {
          "address": "0xd1d65329242e9552392e2cde15558abdc3edba29",
          "topics": [
            "0x8d340f17e19058004c20453540862a9c62778504476f6756755cb33bcd6c38c2"
          ],
          "data": "0x000000000000000000000000000000000000000000000000304611b6affba76a000000000000000000000000000000000000000000000000000000000000010000000000000000000000000000000000000000000000000000000000000000000000000000000000000000000000000000000000000000000000000000000000000000000000000000000000000000000000000000000000000000000000000000000000000000000000000000000000000000000000000000000000000000000000000000000000000000000000000000000000000000000000000000000000000000000000000000000000000000000000000000000000000000000000000000000000000000000000000000000000000000000000000000000000000000200000000000000000000000008e110ce664fdd508b71dfca39b8618482993d8ad",
          "blockHash": "0xef74a575f57775b312d0702d29162d78f997ce4284be8b3aa7fdb57617b92eef",
          "blockNumber": "0x8ed2de",
          "blockTimestamp": "0x68e4b140",
          "transactionHash": "0x6033208700ce2bd402046660f7001b23029b857749c3fc968badbf266bde1d99",
          "transactionIndex": "0x61",
          "logIndex": "0x84",
          "removed": false
        }
      ],
      "logsBloom": "0x00000100000000400000000000000000000000000000000000000000000000000000000000000000000000000000000000000000080000000004000000000004000000000000000000000000000000000000000000000000000000000000000000000000000000000000000000000000000000000000000000000000000000400000000000000000000000000000000000000000000000000000000000000000000000000000000100000000000000000000000000000000000000000000000000000000000000000000000000000000000000000000000000000000080000000000000000000000000001000000000000000000008000000100000000200000",
      "type": "0x2",
      "transactionHash": "0x6033208700ce2bd402046660f7001b23029b857749c3fc968badbf266bde1d99",
      "transactionIndex": "0x61",
      "blockHash": "0xef74a575f57775b312d0702d29162d78f997ce4284be8b3aa7fdb57617b92eef",
      "blockNumber": "0x8ed2de",
      "gasUsed": "0x4ceb4",
      "effectiveGasPrice": "0xf429c",
      "from": "0xeff3521fb13228c767ad6dc3b934f9efac9c56ad",
      "to": "0xd1d65329242e9552392e2cde15558abdc3edba29",
      "contractAddress": null
    }
  ],
  "libraries": [],
  "pending": [],
  "returns": {},
  "timestamp": 1759818050,
  "chain": 11155111,
  "commit": "2ad285e"
}