{
  "transactions": [
    {
      "hash": "0x3eab8d538dacb307ace8e38e53d3f786a1e1d7c41e7e05c28a0a849a7fbdf469",
      "transactionType": "CALL",
      "contractName": null,
      "contractAddress": "0xe3f048618be93445341635f7d6371703414797a8",
      "function": "applyChainUpdates(uint64[],(uint64,bytes[],bytes,(bool,uint128,uint128),(bool,uint128,uint128))[])",
      "arguments": [
        "[]",
        "[(3478487238524512106, [0x0000000000000000000000001facfb24b61346b28905b4d64517130e43236dc8], 0x00000000000000000000000057c85c30ad2bc719cc34ccaeb8d2bfda1a8b1772, (false, 0, 0), (false, 0, 0))]"
      ],
      "transaction": {
        "from": "0xeff3521fb13228c767ad6dc3b934f9efac9c56ad",
        "to": "0xe3f048618be93445341635f7d6371703414797a8",
        "gas": "0x6a3e8",
        "value": "0x0",
        "input": "0xe8a1da1700000000000000000000000000000000000000000000000000000000000000400000000000000000000000000000000000000000000000000000000000000060000000000000000000000000000000000000000000000000000000000000000000000000000000000000000000000000000000000000000000000000000000010000000000000000000000000000000000000000000000000000000000000020000000000000000000000000000000000000000000000000304611b6affba76a000000000000000000000000000000000000000000000000000000000000012000000000000000000000000000000000000000000000000000000000000001a00000000000000000000000000000000000000000000000000000000000000000000000000000000000000000000000000000000000000000000000000000000000000000000000000000000000000000000000000000000000000000000000000000000000000000000000000000000000000000000000000000000000000000000000000000000000000000000000000000000000000000000000000000000000000000000000000000000000000000000000000000000000000000000000000000000000000000000000000000000000000000000000000000000000000001000000000000000000000000000000000000000000000000000000000000002000000000000000000000000000000000000000000000000000000000000000200000000000000000000000001facfb24b61346b28905b4d64517130e43236dc8000000000000000000000000000000000000000000000000000000000000002000000000000000000000000057c85c30ad2bc719cc34ccaeb8d2bfda1a8b1772",
        "nonce": "0x7d",
        "chainId": "0xaa36a7"
      },
      "additionalContracts": [],
      "isFixedGasLimit": false
    }
  ],
  "receipts": [
    {
      "status": "0x1",
      "cumulativeGasUsed": "0x1143ccc",
      "logs": [
        {
          "address": "0xe3f048618be93445341635f7d6371703414797a8",
          "topics": [
            "0x7d628c9a1796743d365ab521a8b2a4686e419b3269919dc9145ea2ce853b54ea",
            "0x000000000000000000000000000000000000000000000000304611b6affba76a"
          ],
          "data": "0x000000000000000000000000000000000000000000000000000000000000002000000000000000000000000000000000000000000000000000000000000000200000000000000000000000001facfb24b61346b28905b4d64517130e43236dc8",
          "blockHash": "0x82068d4d9c8f1525f1366346b2dffabe4ed864df84de7faa65698d46abf1ae1e",
          "blockNumber": "0x8f25da",
          "blockTimestamp": "0x68e8c378",
          "transactionHash": "0x3eab8d538dacb307ace8e38e53d3f786a1e1d7c41e7e05c28a0a849a7fbdf469",
          "transactionIndex": "0x9d",
          "logIndex": "0xfb",
          "removed": false
        },
        {
          "address": "0xe3f048618be93445341635f7d6371703414797a8",
          "topics": [
            "0x8d340f17e19058004c20453540862a9c62778504476f6756755cb33bcd6c38c2"
          ],
          "data": "0x000000000000000000000000000000000000000000000000304611b6affba76a0000000000000000000000000000000000000000000000000000000000000100000000000000000000000000000000000000000000000000000000000000000000000000000000000000000000000000000000000000000000000000000000000000000000000000000000000000000000000000000000000000000000000000000000000000000000000000000000000000000000000000000000000000000000000000000000000000000000000000000000000000000000000000000000000000000000000000000000000000000000000000000000000000000000000000000000000000000000000000000000000000000000000000000000000000002000000000000000000000000057c85c30ad2bc719cc34ccaeb8d2bfda1a8b1772",
          "blockHash": "0x82068d4d9c8f1525f1366346b2dffabe4ed864df84de7faa65698d46abf1ae1e",
          "blockNumber": "0x8f25da",
          "blockTimestamp": "0x68e8c378",
          "transactionHash": "0x3eab8d538dacb307ace8e38e53d3f786a1e1d7c41e7e05c28a0a849a7fbdf469",
          "transactionIndex": "0x9d",
          "logIndex": "0xfc",
          "removed": false
        }
      ],
      "logsBloom": "0x00000000000000400000000000000000000000000000000000000000000000000000000000000000000000000000000000000000080000000004000000000004000000000000000000000000000000000000000000000000000000010000000000000000000000000000000000000000000000000000000000000000000000400000000000000000000000000000000000000000000000000000000000000000000000000000000000000000000000000000000000000000000080000000000000000000000000000000000000000000000000000000000000000000080000000000000000000000000000000000000000000000008200000100000000200000",
      "type": "0x2",
      "transactionHash": "0x3eab8d538dacb307ace8e38e53d3f786a1e1d7c41e7e05c28a0a849a7fbdf469",
      "transactionIndex": "0x9d",
      "blockHash": "0x82068d4d9c8f1525f1366346b2dffabe4ed864df84de7faa65698d46abf1ae1e",
      "blockNumber": "0x8f25da",
      "gasUsed": "0x4ceb4",
      "effectiveGasPrice": "0xf429f",
      "from": "0xeff3521fb13228c767ad6dc3b934f9efac9c56ad",
      "to": "0xe3f048618be93445341635f7d6371703414797a8",
      "contractAddress": null
    }
  ],
  "libraries": [],
  "pending": [],
  "returns": {},
  "timestamp": 1760084857,
  "chain": 11155111,
  "commit": "8557215"
}