{
  "transactions": [
    {
      "hash": "0x0d154c605c2bbd0505d9b944f6b6ecfe5e283a5a1f555a61ba1b6b1270980250",
      "transactionType": "CALL",
      "contractName": null,
      "contractAddress": "0xe3f048618be93445341635f7d6371703414797a8",
      "function": "applyChainUpdates(uint64[],(uint64,bytes[],bytes,(bool,uint128,uint128),(bool,uint128,uint128))[])",
      "arguments": [
        "[]",
        "[(5224473277236331295, [0x000000000000000000000000eda2fd6af7b3d3255115811572354eeeaecefdf1], 0x0000000000000000000000008e110ce664fdd508b71dfca39b8618482993d8ad, (false, 0, 0), (false, 0, 0))]"
      ],
      "transaction": {
        "from": "0xeff3521fb13228c767ad6dc3b934f9efac9c56ad",
        "to": "0xe3f048618be93445341635f7d6371703414797a8",
        "gas": "0x57288",
        "value": "0x0",
        "input": "0xe8a1da170000000000000000000000000000000000000000000000000000000000000040000000000000000000000000000000000000000000000000000000000000006000000000000000000000000000000000000000000000000000000000000000000000000000000000000000000000000000000000000000000000000000000001000000000000000000000000000000000000000000000000000000000000002000000000000000000000000000000000000000000000000048810ec3e431431f000000000000000000000000000000000000000000000000000000000000012000000000000000000000000000000000000000000000000000000000000001a0000000000000000000000000000000000000000000000000000000000000000000000000000000000000000000000000000000000000000000000000000000000000000000000000000000000000000000000000000000000000000000000000000000000000000000000000000000000000000000000000000000000000000000000000000000000000000000000000000000000000000000000000000000000000000000000000000000000000000000000000000000000000000000000000000000000000000000000000000000000000000000000000000000000000000100000000000000000000000000000000000000000000000000000000000000200000000000000000000000000000000000000000000000000000000000000020000000000000000000000000eda2fd6af7b3d3255115811572354eeeaecefdf100000000000000000000000000000000000000000000000000000000000000200000000000000000000000008e110ce664fdd508b71dfca39b8618482993d8ad",
        "nonce": "0x7f",
        "chainId": "0xaa36a7"
      },
      "additionalContracts": [],
      "isFixedGasLimit": false
    }
  ],
  "receipts": [
    {
      "status": "0x1",
      "cumulativeGasUsed": "0x1332d9c",
      "logs": [
        {
          "address": "0xe3f048618be93445341635f7d6371703414797a8",
          "topics": [
            "0x7d628c9a1796743d365ab521a8b2a4686e419b3269919dc9145ea2ce853b54ea",
            "0x00000000000000000000000000000000000000000000000048810ec3e431431f"
          ],
          "data": "0x00000000000000000000000000000000000000000000000000000000000000200000000000000000000000000000000000000000000000000000000000000020000000000000000000000000eda2fd6af7b3d3255115811572354eeeaecefdf1",
          "blockHash": "0x4f8518029d12452cb5b8c767511364c68b64600915a007f918c577f7b020fbf9",
          "blockNumber": "0x8f25e8",
          "blockTimestamp": "0x68e8c420",
          "transactionHash": "0x0d154c605c2bbd0505d9b944f6b6ecfe5e283a5a1f555a61ba1b6b1270980250",
          "transactionIndex": "0xab",
          "logIndex": "0x10e",
          "removed": false
        },
        {
          "address": "0xe3f048618be93445341635f7d6371703414797a8",
          "topics": [
            "0x8d340f17e19058004c20453540862a9c62778504476f6756755cb33bcd6c38c2"
          ],
          "data": "0x00000000000000000000000000000000000000000000000048810ec3e431431f000000000000000000000000000000000000000000000000000000000000010000000000000000000000000000000000000000000000000000000000000000000000000000000000000000000000000000000000000000000000000000000000000000000000000000000000000000000000000000000000000000000000000000000000000000000000000000000000000000000000000000000000000000000000000000000000000000000000000000000000000000000000000000000000000000000000000000000000000000000000000000000000000000000000000000000000000000000000000000000000000000000000000000000000000000200000000000000000000000008e110ce664fdd508b71dfca39b8618482993d8ad",
          "blockHash": "0x4f8518029d12452cb5b8c767511364c68b64600915a007f918c577f7b020fbf9",
          "blockNumber": "0x8f25e8",
          "blockTimestamp": "0x68e8c420",
          "transactionHash": "0x0d154c605c2bbd0505d9b944f6b6ecfe5e283a5a1f555a61ba1b6b1270980250",
          "transactionIndex": "0xab",
          "logIndex": "0x10f",
          "removed": false
        }
      ],
      "logsBloom": "0x00000000000000400000000000100000000000000000000000000000000000000000000000000000000000000000000000000000000000000004000000000004000000000000000000000000000000000000000000000000000000010000000000000000000000000000000000000000000000000000000000000000000000400000000000000000000000000000000000000000000000000000000000000000000000000000000000000000000000000000000000000000000080000000000000000000080000000000000000000000000000000000000000000000000000000000000000000000000000000000000000000000008200020100000000000000",
      "type": "0x2",
      "transactionHash": "0x0d154c605c2bbd0505d9b944f6b6ecfe5e283a5a1f555a61ba1b6b1270980250",
      "transactionIndex": "0xab",
      "blockHash": "0x4f8518029d12452cb5b8c767511364c68b64600915a007f918c577f7b020fbf9",
      "blockNumber": "0x8f25e8",
      "gasUsed": "0x3f19f",
      "effectiveGasPrice": "0xf429a",
      "from": "0xeff3521fb13228c767ad6dc3b934f9efac9c56ad",
      "to": "0xe3f048618be93445341635f7d6371703414797a8",
      "contractAddress": null
    }
  ],
  "libraries": [],
  "pending": [],
  "returns": {},
  "timestamp": 1760085027,
  "chain": 11155111,
  "commit": "8557215"
}