{
  "transactions": [
    {
      "hash": "0x3fb6c1df7a4b4e97cb55e8eaea33b15912419d5955529f8280bb5bd372962fdd",
      "transactionType": "CALL",
      "contractName": null,
      "contractAddress": "0xe3f048618be93445341635f7d6371703414797a8",
      "function": "applyChainUpdates(uint64[],(uint64,bytes[],bytes,(bool,uint128,uint128),(bool,uint128,uint128))[])",
      "arguments": [
        "[]",
        "[(686603546605904534, [0x000000000000000000000000eda2fd6af7b3d3255115811572354eeeaecefdf1], 0x0000000000000000000000008e110ce664fdd508b71dfca39b8618482993d8ad, (false, 0, 0), (false, 0, 0))]"
      ],
      "transaction": {
        "from": "0xeff3521fb13228c767ad6dc3b934f9efac9c56ad",
        "to": "0xe3f048618be93445341635f7d6371703414797a8",
        "gas": "0x57288",
        "value": "0x0",
        "input": "0xe8a1da170000000000000000000000000000000000000000000000000000000000000040000000000000000000000000000000000000000000000000000000000000006000000000000000000000000000000000000000000000000000000000000000000000000000000000000000000000000000000000000000000000000000000001000000000000000000000000000000000000000000000000000000000000002000000000000000000000000000000000000000000000000009874e49b0f7e296000000000000000000000000000000000000000000000000000000000000012000000000000000000000000000000000000000000000000000000000000001a0000000000000000000000000000000000000000000000000000000000000000000000000000000000000000000000000000000000000000000000000000000000000000000000000000000000000000000000000000000000000000000000000000000000000000000000000000000000000000000000000000000000000000000000000000000000000000000000000000000000000000000000000000000000000000000000000000000000000000000000000000000000000000000000000000000000000000000000000000000000000000000000000000000000000000100000000000000000000000000000000000000000000000000000000000000200000000000000000000000000000000000000000000000000000000000000020000000000000000000000000eda2fd6af7b3d3255115811572354eeeaecefdf100000000000000000000000000000000000000000000000000000000000000200000000000000000000000008e110ce664fdd508b71dfca39b8618482993d8ad",
        "nonce": "0x81",
        "chainId": "0xaa36a7"
      },
      "additionalContracts": [],
      "isFixedGasLimit": false
    }
  ],
  "receipts": [
    {
      "status": "0x1",
      "cumulativeGasUsed": "0x2e98c4f",
      "logs": [
        {
          "address": "0xe3f048618be93445341635f7d6371703414797a8",
          "topics": [
            "0x7d628c9a1796743d365ab521a8b2a4686e419b3269919dc9145ea2ce853b54ea",
            "0x00000000000000000000000000000000000000000000000009874e49b0f7e296"
          ],
          "data": "0x00000000000000000000000000000000000000000000000000000000000000200000000000000000000000000000000000000000000000000000000000000020000000000000000000000000eda2fd6af7b3d3255115811572354eeeaecefdf1",
          "blockHash": "0x1737ec4325c83bf270e38f9dfe71652af08f16ce404556039b4ce30833e7617f",
          "blockNumber": "0x8f25f4",
          "blockTimestamp": "0x68e8c4b0",
          "transactionHash": "0x3fb6c1df7a4b4e97cb55e8eaea33b15912419d5955529f8280bb5bd372962fdd",
          "transactionIndex": "0x91",
          "logIndex": "0xb9",
          "removed": false
        },
        {
          "address": "0xe3f048618be93445341635f7d6371703414797a8",
          "topics": [
            "0x8d340f17e19058004c20453540862a9c62778504476f6756755cb33bcd6c38c2"
          ],
          "data": "0x00000000000000000000000000000000000000000000000009874e49b0f7e296000000000000000000000000000000000000000000000000000000000000010000000000000000000000000000000000000000000000000000000000000000000000000000000000000000000000000000000000000000000000000000000000000000000000000000000000000000000000000000000000000000000000000000000000000000000000000000000000000000000000000000000000000000000000000000000000000000000000000000000000000000000000000000000000000000000000000000000000000000000000000000000000000000000000000000000000000000000000000000000000000000000000000000000000000000200000000000000000000000008e110ce664fdd508b71dfca39b8618482993d8ad",
          "blockHash": "0x1737ec4325c83bf270e38f9dfe71652af08f16ce404556039b4ce30833e7617f",
          "blockNumber": "0x8f25f4",
          "blockTimestamp": "0x68e8c4b0",
          "transactionHash": "0x3fb6c1df7a4b4e97cb55e8eaea33b15912419d5955529f8280bb5bd372962fdd",
          "transactionIndex": "0x91",
          "logIndex": "0xba",
          "removed": false
        }
      ],
      "logsBloom": "0x00000000000000400000000000000000000000000000000020000000000000000000000000000000000000000000000000000000000000000004000000000004000000000000000000000000000000000000000000000000000000010000000000000000000000000000000000000000000000000000000000000000000000400000000000000000000000000000000000080000000000000000000000000000000000000000000000000000000000000100000000000000000080000000000000000000000000000000000000000000000000000000000000000000000000000000000000000000000000000000000000000000008200000100000000000000",
      "type": "0x2",
      "transactionHash": "0x3fb6c1df7a4b4e97cb55e8eaea33b15912419d5955529f8280bb5bd372962fdd",
      "transactionIndex": "0x91",
      "blockHash": "0x1737ec4325c83bf270e38f9dfe71652af08f16ce404556039b4ce30833e7617f",
      "blockNumber": "0x8f25f4",
      "gasUsed": "0x3f19f",
      "effectiveGasPrice": "0xf429f",
      "from": "0xeff3521fb13228c767ad6dc3b934f9efac9c56ad",
      "to": "0xe3f048618be93445341635f7d6371703414797a8",
      "contractAddress": null
    }
  ],
  "libraries": [],
  "pending": [],
  "returns": {},
  "timestamp": 1760085170,
  "chain": 11155111,
  "commit": "8557215"
}