{
  "transactions": [
    {
      "hash": "0x02cc8a39ebed69fba68206935b1afef6a6d6637ccdd5fca5f3ea8beec8d9dbde",
      "transactionType": "CALL",
      "contractName": null,
      "contractAddress": "0xeda2fd6af7b3d3255115811572354eeeaecefdf1",
      "function": "applyChainUpdates(uint64[],(uint64,bytes[],bytes,(bool,uint128,uint128),(bool,uint128,uint128))[])",
      "arguments": [
        "[]",
        "[(3478487238524512106, [0x0000000000000000000000001facfb24b61346b28905b4d64517130e43236dc8], 0x00000000000000000000000057c85c30ad2bc719cc34ccaeb8d2bfda1a8b1772, (false, 0, 0), (false, 0, 0))]"
      ],
      "transaction": {
        "from": "0xeff3521fb13228c767ad6dc3b934f9efac9c56ad",
        "to": "0xeda2fd6af7b3d3255115811572354eeeaecefdf1",
        "gas": "0x647a4",
        "value": "0x0",
        "input": "0xe8a1da1700000000000000000000000000000000000000000000000000000000000000400000000000000000000000000000000000000000000000000000000000000060000000000000000000000000000000000000000000000000000000000000000000000000000000000000000000000000000000000000000000000000000000010000000000000000000000000000000000000000000000000000000000000020000000000000000000000000000000000000000000000000304611b6affba76a000000000000000000000000000000000000000000000000000000000000012000000000000000000000000000000000000000000000000000000000000001a00000000000000000000000000000000000000000000000000000000000000000000000000000000000000000000000000000000000000000000000000000000000000000000000000000000000000000000000000000000000000000000000000000000000000000000000000000000000000000000000000000000000000000000000000000000000000000000000000000000000000000000000000000000000000000000000000000000000000000000000000000000000000000000000000000000000000000000000000000000000000000000000000000000000000001000000000000000000000000000000000000000000000000000000000000002000000000000000000000000000000000000000000000000000000000000000200000000000000000000000001facfb24b61346b28905b4d64517130e43236dc8000000000000000000000000000000000000000000000000000000000000002000000000000000000000000057c85c30ad2bc719cc34ccaeb8d2bfda1a8b1772",
        "nonce": "0x9",
        "chainId": "0x14a34"
      },
      "additionalContracts": [],
      "isFixedGasLimit": false
    }
  ],
  "receipts": [
    {
      "status": "0x1",
      "cumulativeGasUsed": "0x362b80",
      "logs": [
        {
          "address": "0xeda2fd6af7b3d3255115811572354eeeaecefdf1",
          "topics": [
            "0x7d628c9a1796743d365ab521a8b2a4686e419b3269919dc9145ea2ce853b54ea",
            "0x000000000000000000000000000000000000000000000000304611b6affba76a"
          ],
          "data": "0x000000000000000000000000000000000000000000000000000000000000002000000000000000000000000000000000000000000000000000000000000000200000000000000000000000001facfb24b61346b28905b4d64517130e43236dc8",
          "blockHash": "0x7237982351ed923ea8203a13621b3cf6ebeaba24d13174fb1baa0d8f7ac7f538",
          "blockNumber": "0x1eab333",
          "blockTimestamp": "0x68e8c546",
          "transactionHash": "0x02cc8a39ebed69fba68206935b1afef6a6d6637ccdd5fca5f3ea8beec8d9dbde",
          "transactionIndex": "0xd",
          "logIndex": "0x5e",
          "removed": false
        },
        {
          "address": "0xeda2fd6af7b3d3255115811572354eeeaecefdf1",
          "topics": [
            "0x8d340f17e19058004c20453540862a9c62778504476f6756755cb33bcd6c38c2"
          ],
          "data": "0x000000000000000000000000000000000000000000000000304611b6affba76a0000000000000000000000000000000000000000000000000000000000000100000000000000000000000000000000000000000000000000000000000000000000000000000000000000000000000000000000000000000000000000000000000000000000000000000000000000000000000000000000000000000000000000000000000000000000000000000000000000000000000000000000000000000000000000000000000000000000000000000000000000000000000000000000000000000000000000000000000000000000000000000000000000000000000000000000000000000000000000000000000000000000000000000000000000002000000000000000000000000057c85c30ad2bc719cc34ccaeb8d2bfda1a8b1772",
          "blockHash": "0x7237982351ed923ea8203a13621b3cf6ebeaba24d13174fb1baa0d8f7ac7f538",
          "blockNumber": "0x1eab333",
          "blockTimestamp": "0x68e8c546",
          "transactionHash": "0x02cc8a39ebed69fba68206935b1afef6a6d6637ccdd5fca5f3ea8beec8d9dbde",
          "transactionIndex": "0xd",
          "logIndex": "0x5f",
          "removed": false
        }
      ],
      "logsBloom": "0x00000000000000400000000000000000000000000000000000800000000000000000000000000000000000000000000000000000080000000004000000000204000000000000000000000000000000000000000000000000000000000000000000000000000000000000000000000000000000000000000000000000000000400000000000000000000000000000000000000000000000000000000000000000000000000000000000000000000100000000000000000000000000000000000000000000000000000000000000000000000000000000000000000000080000000000000000000000000000000000000000000000008000000100000000200000",
      "type": "0x2",
      "transactionHash": "0x02cc8a39ebed69fba68206935b1afef6a6d6637ccdd5fca5f3ea8beec8d9dbde",
      "transactionIndex": "0xd",
      "blockHash": "0x7237982351ed923ea8203a13621b3cf6ebeaba24d13174fb1baa0d8f7ac7f538",
      "blockNumber": "0x1eab333",
      "gasUsed": "0x48be8",
      "effectiveGasPrice": "0xecd55",
      "from": "0xeff3521fb13228c767ad6dc3b934f9efac9c56ad",
      "to": "0xeda2fd6af7b3d3255115811572354eeeaecefdf1",
      "contractAddress": null,
      "l1BaseFeeScalar": "0x44d",
      "l1BlobBaseFee": "0x1",
      "l1BlobBaseFeeScalar": "0xa118b",
      "l1Fee": "0x169",
      "l1GasPrice": "0x5f",
      "l1GasUsed": "0x9ad"
    }
  ],
  "libraries": [],
  "pending": [],
  "returns": {},
  "timestamp": 1760085321,
  "chain": 84532,
  "commit": "8557215"
}