{
  "transactions": [
    {
      "hash": "0x300f39738eeecbd70f5e1319b7f9ccf244d51241bd69ce9ac80176a1981e1c72",
      "transactionType": "CALL",
      "contractName": null,
      "contractAddress": "0xeda2fd6af7b3d3255115811572354eeeaecefdf1",
      "function": "applyChainUpdates(uint64[],(uint64,bytes[],bytes,(bool,uint128,uint128),(bool,uint128,uint128))[])",
      "arguments": [
        "[]",
        "[(5224473277236331295, [0x000000000000000000000000eda2fd6af7b3d3255115811572354eeeaecefdf1], 0x0000000000000000000000008e110ce664fdd508b71dfca39b8618482993d8ad, (false, 0, 0), (false, 0, 0))]"
      ],
      "transaction": {
        "from": "0xeff3521fb13228c767ad6dc3b934f9efac9c56ad",
        "to": "0xeda2fd6af7b3d3255115811572354eeeaecefdf1",
        "gas": "0x647a4",
        "value": "0x0",
        "input": "0xe8a1da170000000000000000000000000000000000000000000000000000000000000040000000000000000000000000000000000000000000000000000000000000006000000000000000000000000000000000000000000000000000000000000000000000000000000000000000000000000000000000000000000000000000000001000000000000000000000000000000000000000000000000000000000000002000000000000000000000000000000000000000000000000048810ec3e431431f000000000000000000000000000000000000000000000000000000000000012000000000000000000000000000000000000000000000000000000000000001a0000000000000000000000000000000000000000000000000000000000000000000000000000000000000000000000000000000000000000000000000000000000000000000000000000000000000000000000000000000000000000000000000000000000000000000000000000000000000000000000000000000000000000000000000000000000000000000000000000000000000000000000000000000000000000000000000000000000000000000000000000000000000000000000000000000000000000000000000000000000000000000000000000000000000000100000000000000000000000000000000000000000000000000000000000000200000000000000000000000000000000000000000000000000000000000000020000000000000000000000000eda2fd6af7b3d3255115811572354eeeaecefdf100000000000000000000000000000000000000000000000000000000000000200000000000000000000000008e110ce664fdd508b71dfca39b8618482993d8ad",
        "nonce": "0xa",
        "chainId": "0x14a34"
      },
      "additionalContracts": [],
      "isFixedGasLimit": false
    }
  ],
  "receipts": [
    {
      "status": "0x1",
      "cumulativeGasUsed": "0xb402a4",
      "logs": [
        {
          "address": "0xeda2fd6af7b3d3255115811572354eeeaecefdf1",
          "topics": [
            "0x7d628c9a1796743d365ab521a8b2a4686e419b3269919dc9145ea2ce853b54ea",
            "0x00000000000000000000000000000000000000000000000048810ec3e431431f"
          ],
          "data": "0x00000000000000000000000000000000000000000000000000000000000000200000000000000000000000000000000000000000000000000000000000000020000000000000000000000000eda2fd6af7b3d3255115811572354eeeaecefdf1",
          "blockHash": "0xdfcc9bcdf83ed23747b48e1d17c13e996806c41d96b48a4ce45bb96be82bc71b",
          "blockNumber": "0x1eab355",
          "blockTimestamp": "0x68e8c58a",
          "transactionHash": "0x300f39738eeecbd70f5e1319b7f9ccf244d51241bd69ce9ac80176a1981e1c72",
          "transactionIndex": "0x1b",
          "logIndex": "0xb2",
          "removed": false
        },
        {
          "address": "0xeda2fd6af7b3d3255115811572354eeeaecefdf1",
          "topics": [
            "0x8d340f17e19058004c20453540862a9c62778504476f6756755cb33bcd6c38c2"
          ],
          "data": "0x00000000000000000000000000000000000000000000000048810ec3e431431f000000000000000000000000000000000000000000000000000000000000010000000000000000000000000000000000000000000000000000000000000000000000000000000000000000000000000000000000000000000000000000000000000000000000000000000000000000000000000000000000000000000000000000000000000000000000000000000000000000000000000000000000000000000000000000000000000000000000000000000000000000000000000000000000000000000000000000000000000000000000000000000000000000000000000000000000000000000000000000000000000000000000000000000000000000200000000000000000000000008e110ce664fdd508b71dfca39b8618482993d8ad",
          "blockHash": "0xdfcc9bcdf83ed23747b48e1d17c13e996806c41d96b48a4ce45bb96be82bc71b",
          "blockNumber": "0x1eab355",
          "blockTimestamp": "0x68e8c58a",
          "transactionHash": "0x300f39738eeecbd70f5e1319b7f9ccf244d51241bd69ce9ac80176a1981e1c72",
          "transactionIndex": "0x1b",
          "logIndex": "0xb3",
          "removed": false
        }
      ],
      "logsBloom": "0x00000000000000400000000000100000000000000000000000800000000000000000000000000000000000000000000000000000000000000004000000000204000000000000000000000000000000000000000000000000000000000000000000000000000000000000000000000000000000000000000000000000000000400000000000000000000000000000000000000000000000000000000000000000000000000000000000000000000100000000000000000000000000000000000000000000080000000000000000000000000000000000000000000000000000000000000000000000000000000000000000000000008000020100000000000000",
      "type": "0x2",
      "transactionHash": "0x300f39738eeecbd70f5e1319b7f9ccf244d51241bd69ce9ac80176a1981e1c72",
      "transactionIndex": "0x1b",
      "blockHash": "0xdfcc9bcdf83ed23747b48e1d17c13e996806c41d96b48a4ce45bb96be82bc71b",
      "blockNumber": "0x1eab355",
      "gasUsed": "0x48be8",
      "effectiveGasPrice": "0xecd55",
      "from": "0xeff3521fb13228c767ad6dc3b934f9efac9c56ad",
      "to": "0xeda2fd6af7b3d3255115811572354eeeaecefdf1",
      "contractAddress": null,
      "l1BaseFeeScalar": "0x44d",
      "l1BlobBaseFee": "0x1",
      "l1BlobBaseFeeScalar": "0xa118b",
      "l1Fee": "0x12b",
      "l1GasPrice": "0x54",
      "l1GasUsed": "0x8bc"
    }
  ],
  "libraries": [],
  "pending": [],
  "returns": {},
  "timestamp": 1760085386,
  "chain": 84532,
  "commit": "8557215"
}