{
  "transactions": [
    {
      "hash": "0x27dc3eb6c6e71e47ae0c003f1cbee65c10609462d603c62dc3743617c296573f",
      "transactionType": "CALL",
      "contractName": null,
      "contractAddress": "0xe4ab69c077896252fafbd49efd26b5d171a32410",
      "function": "approve(address,uint256)",
      "arguments": [
        "0xD3b06cEbF099CE7DA4AcCf578aaebFDBd6e88a93",
        "10515701796759058"
      ],
      "transaction": {
        "from": "0xeff3521fb13228c767ad6dc3b934f9efac9c56ad",
        "to": "0xe4ab69c077896252fafbd49efd26b5d171a32410",
        "gas": "0xfa12",
        "value": "0x0",
        "input": "0x095ea7b3000000000000000000000000d3b06cebf099ce7da4accf578aaebfdbd6e88a9300000000000000000000000000000000000000000000000000255bf99e28e612",
        "nonce": "0xc",
        "chainId": "0x14a34"
      },
      "additionalContracts": [],
      "isFixedGasLimit": false
    },
    {
      "hash": "0x70b0acc73c8be334e164dd1a11eaca9b81563aa35ae8e5d449473cefd0dd6d6e",
      "transactionType": "CALL",
      "contractName": null,
      "contractAddress": "0x8e110ce664fdd508b71dfca39b8618482993d8ad",
      "function": "approve(address,uint256)",
      "arguments": [
        "0xD3b06cEbF099CE7DA4AcCf578aaebFDBd6e88a93",
        "10000000000000"
      ],
      "transaction": {
        "from": "0xeff3521fb13228c767ad6dc3b934f9efac9c56ad",
        "to": "0x8e110ce664fdd508b71dfca39b8618482993d8ad",
        "gas": "0x10c4a",
        "value": "0x0",
        "input": "0x095ea7b3000000000000000000000000d3b06cebf099ce7da4accf578aaebfdbd6e88a93000000000000000000000000000000000000000000000000000009184e72a000",
        "nonce": "0xd",
        "chainId": "0x14a34"
      },
      "additionalContracts": [],
      "isFixedGasLimit": false
    },
    {
      "hash": "0x1b1bc38956ef662939324ae637ad3f10826028a8c09bcf600d631ed347c246f3",
      "transactionType": "CALL",
      "contractName": null,
      "contractAddress": "0xd3b06cebf099ce7da4accf578aaebfdbd6e88a93",
      "function": "ccipSend(uint64,(bytes,bytes,(address,uint256)[],address,bytes))",
      "arguments": [
        "16015286601757825753",
        "(0x000000000000000000000000eff3521fb13228c767ad6dc3b934f9efac9c56ad, 0x, [(0x8e110CE664fdD508B71DFca39B8618482993d8AD, 10000000000000)], 0xE4aB69C077896252FAFBD49EFD26B5D171A32410, 0x97a657c90000000000000000000000000000000000000000000000000000000000000000)"
      ],
      "transaction": {
        "from": "0xeff3521fb13228c767ad6dc3b934f9efac9c56ad",
        "to": "0xd3b06cebf099ce7da4accf578aaebfdbd6e88a93",
        "gas": "0x5df2b",
        "value": "0x0",
        "input": "0x96f4e9f9000000000000000000000000000000000000000000000000de41ba4fc9d91ad9000000000000000000000000000000000000000000000000000000000000004000000000000000000000000000000000000000000000000000000000000000a000000000000000000000000000000000000000000000000000000000000000e00000000000000000000000000000000000000000000000000000000000000100000000000000000000000000e4ab69c077896252fafbd49efd26b5d171a3241000000000000000000000000000000000000000000000000000000000000001600000000000000000000000000000000000000000000000000000000000000020000000000000000000000000eff3521fb13228c767ad6dc3b934f9efac9c56ad000000000000000000000000000000000000000000000000000000000000000000000000000000000000000000000000000000000000000000000000000000010000000000000000000000008e110ce664fdd508b71dfca39b8618482993d8ad000000000000000000000000000000000000000000000000000009184e72a000000000000000000000000000000000000000000000000000000000000000002497a657c9000000000000000000000000000000000000000000000000000000000000000000000000000000000000000000000000000000000000000000000000",
        "nonce": "0xe",
        "chainId": "0x14a34"
      },
      "additionalContracts": [],
      "isFixedGasLimit": false
    }
  ],
  "receipts": [
    {
      "status": "0x1",
      "cumulativeGasUsed": "0x776eec",
      "logs": [
        {
          "address": "0xe4ab69c077896252fafbd49efd26b5d171a32410",
          "topics": [
            "0x8c5be1e5ebec7d5bd14f71427d1e84f3dd0314c0f7b2291e5b200ac8c7c3b925",
            "0x000000000000000000000000eff3521fb13228c767ad6dc3b934f9efac9c56ad",
            "0x000000000000000000000000d3b06cebf099ce7da4accf578aaebfdbd6e88a93"
          ],
          "data": "0x00000000000000000000000000000000000000000000000000255bf99e28e612",
          "blockHash": "0xeed472cb3fd2d699eb014cdf8b48f7c41382a80a10cce032eff75b52ea6c3d96",
          "blockNumber": "0x1eab942",
          "blockTimestamp": "0x68e8d164",
          "transactionHash": "0x27dc3eb6c6e71e47ae0c003f1cbee65c10609462d603c62dc3743617c296573f",
          "transactionIndex": "0x13",
          "logIndex": "0x1f",
          "removed": false
        }
      ],
      "logsBloom": "0x00008000000000000000000000000000000000000000000000000000000000020000000000000000000000000000000000000000000000000000000000200000000000000000000000000000000000002000000000000000002000000000000000000000000000000000000000000000000000000000000000000000000000000000000100000000000000000000000000000000000000000000000000000000020000000000000000000000000000000000100000000000020000000000100000000000000000000000000000000000000000000000000000000000000000000010000000000000000000000000000000000000000000000000200000000000",
      "type": "0x2",
      "transactionHash": "0x27dc3eb6c6e71e47ae0c003f1cbee65c10609462d603c62dc3743617c296573f",
      "transactionIndex": "0x13",
      "blockHash": "0xeed472cb3fd2d699eb014cdf8b48f7c41382a80a10cce032eff75b52ea6c3d96",
      "blockNumber": "0x1eab942",
      "gasUsed": "0xb50d",
      "effectiveGasPrice": "0xf08c7",
      "from": "0xeff3521fb13228c767ad6dc3b934f9efac9c56ad",
      "to": "0xe4ab69c077896252fafbd49efd26b5d171a32410",
      "contractAddress": null,
      "l1BaseFeeScalar": "0x44d",
      "l1BlobBaseFee": "0x1",
      "l1BlobBaseFeeScalar": "0xa118b",
      "l1Fee": "0x128",
      "l1GasPrice": "0x83",
      "l1GasUsed": "0x640"
    },
    {
      "status": "0x1",
      "cumulativeGasUsed": "0x78265f",
      "logs": [
        {
          "address": "0x8e110ce664fdd508b71dfca39b8618482993d8ad",
          "topics": [
            "0x8c5be1e5ebec7d5bd14f71427d1e84f3dd0314c0f7b2291e5b200ac8c7c3b925",
            "0x000000000000000000000000eff3521fb13228c767ad6dc3b934f9efac9c56ad",
            "0x000000000000000000000000d3b06cebf099ce7da4accf578aaebfdbd6e88a93"
          ],
          "data": "0x000000000000000000000000000000000000000000000000000009184e72a000",
          "blockHash": "0xeed472cb3fd2d699eb014cdf8b48f7c41382a80a10cce032eff75b52ea6c3d96",
          "blockNumber": "0x1eab942",
          "blockTimestamp": "0x68e8d164",
          "transactionHash": "0x70b0acc73c8be334e164dd1a11eaca9b81563aa35ae8e5d449473cefd0dd6d6e",
          "transactionIndex": "0x14",
          "logIndex": "0x20",
          "removed": false
        }
      ],
      "logsBloom": "0x00000000000000000000000000000000000000000000000000000000000000020000000000000400000000000000000000000000000000000000000000200000000000000000000000000000000000002000000000000000002000000000000100000000000000000000000000000000000000000000000000000000000000000000000100000000000000000000000000000000000000000000000000000000020000000000000000000000000000000000100000000000000000000000100000000000000000000000000000000000000000000000000000000000000000000010000000000040000000000000000000000000000000000000000000000000",
      "type": "0x2",
      "transactionHash": "0x70b0acc73c8be334e164dd1a11eaca9b81563aa35ae8e5d449473cefd0dd6d6e",
      "transactionIndex": "0x14",
      "blockHash": "0xeed472cb3fd2d699eb014cdf8b48f7c41382a80a10cce032eff75b52ea6c3d96",
      "blockNumber": "0x1eab942",
      "gasUsed": "0xb773",
      "effectiveGasPrice": "0xf08c7",
      "from": "0xeff3521fb13228c767ad6dc3b934f9efac9c56ad",
      "to": "0x8e110ce664fdd508b71dfca39b8618482993d8ad",
      "contractAddress": null,
      "l1BaseFeeScalar": "0x44d",
      "l1BlobBaseFee": "0x1",
      "l1BlobBaseFeeScalar": "0xa118b",
      "l1Fee": "0x128",
      "l1GasPrice": "0x83",
      "l1GasUsed": "0x640"
    },
    {
      "status": "0x1",
      "cumulativeGasUsed": "0x7c66a4",
      "logs": [
        {
          "address": "0xe4ab69c077896252fafbd49efd26b5d171a32410",
          "topics": [
            "0x8c5be1e5ebec7d5bd14f71427d1e84f3dd0314c0f7b2291e5b200ac8c7c3b925",
            "0x000000000000000000000000eff3521fb13228c767ad6dc3b934f9efac9c56ad",
            "0x000000000000000000000000d3b06cebf099ce7da4accf578aaebfdbd6e88a93"
          ],
          "data": "0x0000000000000000000000000000000000000000000000000000000000000000",
          "blockHash": "0xeed472cb3fd2d699eb014cdf8b48f7c41382a80a10cce032eff75b52ea6c3d96",
          "blockNumber": "0x1eab942",
          "blockTimestamp": "0x68e8d164",
          "transactionHash": "0x1b1bc38956ef662939324ae637ad3f10826028a8c09bcf600d631ed347c246f3",
          "transactionIndex": "0x15",
          "logIndex": "0x21",
          "removed": false
        },
        {
          "address": "0xe4ab69c077896252fafbd49efd26b5d171a32410",
          "topics": [
            "0xddf252ad1be2c89b69c2b068fc378daa952ba7f163c4a11628f55a4df523b3ef",
            "0x000000000000000000000000eff3521fb13228c767ad6dc3b934f9efac9c56ad",
            "0x00000000000000000000000029a1f4ece9246f0042a9062fb89803fa8b1830cb"
          ],
          "data": "0x00000000000000000000000000000000000000000000000000255bf99e28e612",
          "blockHash": "0xeed472cb3fd2d699eb014cdf8b48f7c41382a80a10cce032eff75b52ea6c3d96",
          "blockNumber": "0x1eab942",
          "blockTimestamp": "0x68e8d164",
          "transactionHash": "0x1b1bc38956ef662939324ae637ad3f10826028a8c09bcf600d631ed347c246f3",
          "transactionIndex": "0x15",
          "logIndex": "0x22",
          "removed": false
        },
        {
          "address": "0x8e110ce664fdd508b71dfca39b8618482993d8ad",
          "topics": [
            "0xddf252ad1be2c89b69c2b068fc378daa952ba7f163c4a11628f55a4df523b3ef",
            "0x0000000000000000000000000000000000000000000000000000000000000000",
            "0x000000000000000000000000eff3521fb13228c767ad6dc3b934f9efac9c56ad"
          ],
          "data": "0x0000000000000000000000000000000000000000000000000000017d60687c00",
          "blockHash": "0xeed472cb3fd2d699eb014cdf8b48f7c41382a80a10cce032eff75b52ea6c3d96",
          "blockNumber": "0x1eab942",
          "blockTimestamp": "0x68e8d164",
          "transactionHash": "0x1b1bc38956ef662939324ae637ad3f10826028a8c09bcf600d631ed347c246f3",
          "transactionIndex": "0x15",
          "logIndex": "0x23",
          "removed": false
        },
        {
          "address": "0x8e110ce664fdd508b71dfca39b8618482993d8ad",
          "topics": [
            "0xddf252ad1be2c89b69c2b068fc378daa952ba7f163c4a11628f55a4df523b3ef",
            "0x0000000000000000000000000000000000000000000000000000000000000000",
            "0x000000000000000000000000eda2fd6af7b3d3255115811572354eeeaecefdf1"
          ],
          "data": "0x0000000000000000000000000000000000000000000000000000000000000000",
          "blockHash": "0xeed472cb3fd2d699eb014cdf8b48f7c41382a80a10cce032eff75b52ea6c3d96",
          "blockNumber": "0x1eab942",
          "blockTimestamp": "0x68e8d164",
          "transactionHash": "0x1b1bc38956ef662939324ae637ad3f10826028a8c09bcf600d631ed347c246f3",
          "transactionIndex": "0x15",
          "logIndex": "0x24",
          "removed": false
        },
        {
          "address": "0x8e110ce664fdd508b71dfca39b8618482993d8ad",
          "topics": [
            "0xddf252ad1be2c89b69c2b068fc378daa952ba7f163c4a11628f55a4df523b3ef",
            "0x000000000000000000000000eff3521fb13228c767ad6dc3b934f9efac9c56ad",
            "0x000000000000000000000000eda2fd6af7b3d3255115811572354eeeaecefdf1"
          ],
          "data": "0x000000000000000000000000000000000000000000000000000009184e72a000",
          "blockHash": "0xeed472cb3fd2d699eb014cdf8b48f7c41382a80a10cce032eff75b52ea6c3d96",
          "blockNumber": "0x1eab942",
          "blockTimestamp": "0x68e8d164",
          "transactionHash": "0x1b1bc38956ef662939324ae637ad3f10826028a8c09bcf600d631ed347c246f3",
          "transactionIndex": "0x15",
          "logIndex": "0x25",
          "removed": false
        },
        {
          "address": "0x8e110ce664fdd508b71dfca39b8618482993d8ad",
          "topics": [
            "0xddf252ad1be2c89b69c2b068fc378daa952ba7f163c4a11628f55a4df523b3ef",
            "0x0000000000000000000000000000000000000000000000000000000000000000",
            "0x000000000000000000000000eda2fd6af7b3d3255115811572354eeeaecefdf1"
          ],
          "data": "0x0000000000000000000000000000000000000000000000000000000000000000",
          "blockHash": "0xeed472cb3fd2d699eb014cdf8b48f7c41382a80a10cce032eff75b52ea6c3d96",
          "blockNumber": "0x1eab942",
          "blockTimestamp": "0x68e8d164",
          "transactionHash": "0x1b1bc38956ef662939324ae637ad3f10826028a8c09bcf600d631ed347c246f3",
          "transactionIndex": "0x15",
          "logIndex": "0x26",
          "removed": false
        },
        {
          "address": "0x8e110ce664fdd508b71dfca39b8618482993d8ad",
          "topics": [
            "0xddf252ad1be2c89b69c2b068fc378daa952ba7f163c4a11628f55a4df523b3ef",
            "0x000000000000000000000000eda2fd6af7b3d3255115811572354eeeaecefdf1",
            "0x0000000000000000000000000000000000000000000000000000000000000000"
          ],
          "data": "0x000000000000000000000000000000000000000000000000000009184e72a000",
          "blockHash": "0xeed472cb3fd2d699eb014cdf8b48f7c41382a80a10cce032eff75b52ea6c3d96",
          "blockNumber": "0x1eab942",
          "blockTimestamp": "0x68e8d164",
          "transactionHash": "0x1b1bc38956ef662939324ae637ad3f10826028a8c09bcf600d631ed347c246f3",
          "transactionIndex": "0x15",
          "logIndex": "0x27",
          "removed": false
        },
        {
          "address": "0x29a1f4ece9246f0042a9062fb89803fa8b1830cb",
          "topics": [
            "0xd0c3c799bf9e2639de44391e7f524d229b2b55f5b1ea94b2bf7da42f7243dddd"
          ],
          "data": "0x00000000000000000000000000000000000000000000000000000000000000200000000000000000000000000000000000000000000000008f90b8876dee6538000000000000000000000000eff3521fb13228c767ad6dc3b934f9efac9c56ad000000000000000000000000eff3521fb13228c767ad6dc3b934f9efac9c56ad0000000000000000000000000000000000000000000000000000000000004c54000000000000000000000000000000000000000000000000000000000000000000000000000000000000000000000000000000000000000000000000000000000000000000000000000000000000000000000000000000000000000000000001000000000000000000000000e4ab69c077896252fafbd49efd26b5d171a3241000000000000000000000000000000000000000000000000000255bf99e28e61200000000000000000000000000000000000000000000000000000000000001a000000000000000000000000000000000000000000000000000000000000001c00000000000000000000000000000000000000000000000000000000000000220105eca21c6a0febdb33da1f64bb8435036f561b1d0a5493d4e8682e2f403e36a000000000000000000000000000000000000000000000000000000000000000000000000000000000000000000000000000000000000000000000000000000010000000000000000000000008e110ce664fdd508b71dfca39b8618482993d8ad000000000000000000000000000000000000000000000000000009184e72a0000000000000000000000000000000000000000000000000000000000000000001000000000000000000000000000000000000000000000000000000000000002000000000000000000000000000000000000000000000000000000000000001600000000000000000000000000000000000000000000000000000000000000020000000000000000000000000000000000000000000000000000000000000008000000000000000000000000000000000000000000000000000000000000000c000000000000000000000000000000000000000000000000000000000000001000000000000000000000000000000000000000000000000000000000000015f900000000000000000000000000000000000000000000000000000000000000020000000000000000000000000eda2fd6af7b3d3255115811572354eeeaecefdf100000000000000000000000000000000000000000000000000000000000000200000000000000000000000009ddcb877b4bf4e0674e56fe2b6cedd497fb87ffc00000000000000000000000000000000000000000000000000000000000000200000000000000000000000000000000000000000000000000000000ba43b7400",
          "blockHash": "0xeed472cb3fd2d699eb014cdf8b48f7c41382a80a10cce032eff75b52ea6c3d96",
          "blockNumber": "0x1eab942",
          "blockTimestamp": "0x68e8d164",
          "transactionHash": "0x1b1bc38956ef662939324ae637ad3f10826028a8c09bcf600d631ed347c246f3",
          "transactionIndex": "0x15",
          "logIndex": "0x28",
          "removed": false
        }
      ],
      "logsBloom": "0x00208000000000000000000000000000000000000000000000000000000000020000000000000400000000000000000000000000000000000000000000200000000000000000000000000008020000002000000000000000002000000000000100000000020000000004000000000800000000000000000000000010080000000000000100000000000000000000000000000000000000000000000000000000020000000000000400000000000000080000100000000000020100000000104000000002000000000000000000000000000080000000000000000000000020000010000000000060000000000000004004000000000000000000200000000000",
      "type": "0x2",
      "transactionHash": "0x1b1bc38956ef662939324ae637ad3f10826028a8c09bcf600d631ed347c246f3",
      "transactionIndex": "0x15",
      "blockHash": "0xeed472cb3fd2d699eb014cdf8b48f7c41382a80a10cce032eff75b52ea6c3d96",
      "blockNumber": "0x1eab942",
      "gasUsed": "0x44045",
      "effectiveGasPrice": "0xf08c7",
      "from": "0xeff3521fb13228c767ad6dc3b934f9efac9c56ad",
      "to": "0xd3b06cebf099ce7da4accf578aaebfdbd6e88a93",
      "contractAddress": null,
      "l1BaseFeeScalar": "0x44d",
      "l1BlobBaseFee": "0x1",
      "l1BlobBaseFeeScalar": "0xa118b",
      "l1Fee": "0x23b",
      "l1GasPrice": "0x83",
      "l1GasUsed": "0xc07"
    }
  ],
  "libraries": [],
  "pending": [],
  "returns": {},
  "timestamp": 1760088421,
  "chain": 84532,
  "commit": "8557215"
}