{
  "transactions": [
    {
      "hash": "0xc23390f635bf0ead890f90e768a0d8fdf935e5f39f3dcba911a66f5ab8ef391e",
      "transactionType": "CALL",
      "contractName": null,
      "contractAddress": "0xe4ab69c077896252fafbd49efd26b5d171a32410",
      "function": "approve(address,uint256)",
      "arguments": [
        "0xD3b06cEbF099CE7DA4AcCf578aaebFDBd6e88a93",
        "22224534738677702"
      ],
      "transaction": {
        "from": "0xeff3521fb13228c767ad6dc3b934f9efac9c56ad",
        "to": "0xe4ab69c077896252fafbd49efd26b5d171a32410",
        "gas": "0xfa12",
        "value": "0x0",
        "input": "0x095ea7b3000000000000000000000000d3b06cebf099ce7da4accf578aaebfdbd6e88a93000000000000000000000000000000000000000000000000004ef518ba65afc6",
        "nonce": "0x12",
        "chainId": "0x14a34"
      },
      "additionalContracts": [],
      "isFixedGasLimit": false
    },
    {
      "hash": "0x51d019504d2e2622bd3232d9a9da0e3caed3ef9bf1cd34d360c1ea8be1b4020a",
      "transactionType": "CALL",
      "contractName": null,
      "contractAddress": "0x8e110ce664fdd508b71dfca39b8618482993d8ad",
      "function": "approve(address,uint256)",
      "arguments": [
        "0xD3b06cEbF099CE7DA4AcCf578aaebFDBd6e88a93",
        "30000000000000"
      ],
      "transaction": {
        "from": "0xeff3521fb13228c767ad6dc3b934f9efac9c56ad",
        "to": "0x8e110ce664fdd508b71dfca39b8618482993d8ad",
        "gas": "0x10c4a",
        "value": "0x0",
        "input": "0x095ea7b3000000000000000000000000d3b06cebf099ce7da4accf578aaebfdbd6e88a9300000000000000000000000000000000000000000000000000001b48eb57e000",
        "nonce": "0x13",
        "chainId": "0x14a34"
      },
      "additionalContracts": [],
      "isFixedGasLimit": false
    },
    {
      "hash": "0xbf87f38bf7121d9d367d882fbd78341a5133a29d0a18c5f52123207e3c6ac754",
      "transactionType": "CALL",
      "contractName": null,
      "contractAddress": "0xd3b06cebf099ce7da4accf578aaebfdbd6e88a93",
      "function": "ccipSend(uint64,(bytes,bytes,(address,uint256)[],address,bytes))",
      "arguments": [
        "3478487238524512106",
        "(0x000000000000000000000000eff3521fb13228c767ad6dc3b934f9efac9c56ad, 0x, [(0x8e110CE664fdD508B71DFca39B8618482993d8AD, 30000000000000)], 0xE4aB69C077896252FAFBD49EFD26B5D171A32410, 0x97a657c90000000000000000000000000000000000000000000000000000000000000000)"
      ],
      "transaction": {
        "from": "0xeff3521fb13228c767ad6dc3b934f9efac9c56ad",
        "to": "0xd3b06cebf099ce7da4accf578aaebfdbd6e88a93",
        "gas": "0x56d62",
        "value": "0x0",
        "input": "0x96f4e9f9000000000000000000000000000000000000000000000000304611b6affba76a000000000000000000000000000000000000000000000000000000000000004000000000000000000000000000000000000000000000000000000000000000a000000000000000000000000000000000000000000000000000000000000000e00000000000000000000000000000000000000000000000000000000000000100000000000000000000000000e4ab69c077896252fafbd49efd26b5d171a3241000000000000000000000000000000000000000000000000000000000000001600000000000000000000000000000000000000000000000000000000000000020000000000000000000000000eff3521fb13228c767ad6dc3b934f9efac9c56ad000000000000000000000000000000000000000000000000000000000000000000000000000000000000000000000000000000000000000000000000000000010000000000000000000000008e110ce664fdd508b71dfca39b8618482993d8ad00000000000000000000000000000000000000000000000000001b48eb57e000000000000000000000000000000000000000000000000000000000000000002497a657c9000000000000000000000000000000000000000000000000000000000000000000000000000000000000000000000000000000000000000000000000",
        "nonce": "0x14",
        "chainId": "0x14a34"
      },
      "additionalContracts": [],
      "isFixedGasLimit": false
    }
  ],
  "receipts": [
    {
      "status": "0x1",
      "cumulativeGasUsed": "0x291872",
      "logs": [
        {
          "address": "0xe4ab69c077896252fafbd49efd26b5d171a32410",
          "topics": [
            "0x8c5be1e5ebec7d5bd14f71427d1e84f3dd0314c0f7b2291e5b200ac8c7c3b925",
            "0x000000000000000000000000eff3521fb13228c767ad6dc3b934f9efac9c56ad",
            "0x000000000000000000000000d3b06cebf099ce7da4accf578aaebfdbd6e88a93"
          ],
          "data": "0x000000000000000000000000000000000000000000000000004ef518ba65afc6",
          "blockHash": "0xd730a3715869360ed121bc4dc73be33bf6e80be03dd1e0d4a5bd05af5136526f",
          "blockNumber": "0x1eab984",
          "blockTimestamp": "0x68e8d1e8",
          "transactionHash": "0xc23390f635bf0ead890f90e768a0d8fdf935e5f39f3dcba911a66f5ab8ef391e",
          "transactionIndex": "0xc",
          "logIndex": "0x6a",
          "removed": false
        }
      ],
      "logsBloom": "0x00008000000000000000000000000000000000000000000000000000000000020000000000000000000000000000000000000000000000000000000000200000000000000000000000000000000000002000000000000000002000000000000000000000000000000000000000000000000000000000000000000000000000000000000100000000000000000000000000000000000000000000000000000000020000000000000000000000000000000000100000000000020000000000100000000000000000000000000000000000000000000000000000000000000000000010000000000000000000000000000000000000000000000000200000000000",
      "type": "0x2",
      "transactionHash": "0xc23390f635bf0ead890f90e768a0d8fdf935e5f39f3dcba911a66f5ab8ef391e",
      "transactionIndex": "0xc",
      "blockHash": "0xd730a3715869360ed121bc4dc73be33bf6e80be03dd1e0d4a5bd05af5136526f",
      "blockNumber": "0x1eab984",
      "gasUsed": "0xb50d",
      "effectiveGasPrice": "0xf4280",
      "from": "0xeff3521fb13228c767ad6dc3b934f9efac9c56ad",
      "to": "0xe4ab69c077896252fafbd49efd26b5d171a32410",
      "contractAddress": null,
      "l1BaseFeeScalar": "0x44d",
      "l1BlobBaseFee": "0x1",
      "l1BlobBaseFeeScalar": "0xa118b",
      "l1Fee": "0x14b",
      "l1GasPrice": "0x97",
      "l1GasUsed": "0x640"
    },
    {
      "status": "0x1",
      "cumulativeGasUsed": "0x29cfe5",
      "logs": [
        {
          "address": "0x8e110ce664fdd508b71dfca39b8618482993d8ad",
          "topics": [
            "0x8c5be1e5ebec7d5bd14f71427d1e84f3dd0314c0f7b2291e5b200ac8c7c3b925",
            "0x000000000000000000000000eff3521fb13228c767ad6dc3b934f9efac9c56ad",
            "0x000000000000000000000000d3b06cebf099ce7da4accf578aaebfdbd6e88a93"
          ],
          "data": "0x00000000000000000000000000000000000000000000000000001b48eb57e000",
          "blockHash": "0xd730a3715869360ed121bc4dc73be33bf6e80be03dd1e0d4a5bd05af5136526f",
          "blockNumber": "0x1eab984",
          "blockTimestamp": "0x68e8d1e8",
          "transactionHash": "0x51d019504d2e2622bd3232d9a9da0e3caed3ef9bf1cd34d360c1ea8be1b4020a",
          "transactionIndex": "0xd",
          "logIndex": "0x6b",
          "removed": false
        }
      ],
      "logsBloom": "0x00000000000000000000000000000000000000000000000000000000000000020000000000000400000000000000000000000000000000000000000000200000000000000000000000000000000000002000000000000000002000000000000100000000000000000000000000000000000000000000000000000000000000000000000100000000000000000000000000000000000000000000000000000000020000000000000000000000000000000000100000000000000000000000100000000000000000000000000000000000000000000000000000000000000000000010000000000040000000000000000000000000000000000000000000000000",
      "type": "0x2",
      "transactionHash": "0x51d019504d2e2622bd3232d9a9da0e3caed3ef9bf1cd34d360c1ea8be1b4020a",
      "transactionIndex": "0xd",
      "blockHash": "0xd730a3715869360ed121bc4dc73be33bf6e80be03dd1e0d4a5bd05af5136526f",
      "blockNumber": "0x1eab984",
      "gasUsed": "0xb773",
      "effectiveGasPrice": "0xf4280",
      "from": "0xeff3521fb13228c767ad6dc3b934f9efac9c56ad",
      "to": "0x8e110ce664fdd508b71dfca39b8618482993d8ad",
      "contractAddress": null,
      "l1BaseFeeScalar": "0x44d",
      "l1BlobBaseFee": "0x1",
      "l1BlobBaseFeeScalar": "0xa118b",
      "l1Fee": "0x14b",
      "l1GasPrice": "0x97",
      "l1GasUsed": "0x640"
    },
    {
      "status": "0x1",
      "cumulativeGasUsed": "0x2d85e7",
      "logs": [
        {
          "address": "0xe4ab69c077896252fafbd49efd26b5d171a32410",
          "topics": [
            "0x8c5be1e5ebec7d5bd14f71427d1e84f3dd0314c0f7b2291e5b200ac8c7c3b925",
            "0x000000000000000000000000eff3521fb13228c767ad6dc3b934f9efac9c56ad",
            "0x000000000000000000000000d3b06cebf099ce7da4accf578aaebfdbd6e88a93"
          ],
          "data": "0x0000000000000000000000000000000000000000000000000000000000000000",
          "blockHash": "0xd730a3715869360ed121bc4dc73be33bf6e80be03dd1e0d4a5bd05af5136526f",
          "blockNumber": "0x1eab984",
          "blockTimestamp": "0x68e8d1e8",
          "transactionHash": "0xbf87f38bf7121d9d367d882fbd78341a5133a29d0a18c5f52123207e3c6ac754",
          "transactionIndex": "0xe",
          "logIndex": "0x6c",
          "removed": false
        },
        {
          "address": "0xe4ab69c077896252fafbd49efd26b5d171a32410",
          "topics": [
            "0xddf252ad1be2c89b69c2b068fc378daa952ba7f163c4a11628f55a4df523b3ef",
            "0x000000000000000000000000eff3521fb13228c767ad6dc3b934f9efac9c56ad",
            "0x000000000000000000000000b52ef669d3fcebee1f31418facc02a16a6f6b0e5"
          ],
          "data": "0x000000000000000000000000000000000000000000000000004ef518ba65afc6",
          "blockHash": "0xd730a3715869360ed121bc4dc73be33bf6e80be03dd1e0d4a5bd05af5136526f",
          "blockNumber": "0x1eab984",
          "blockTimestamp": "0x68e8d1e8",
          "transactionHash": "0xbf87f38bf7121d9d367d882fbd78341a5133a29d0a18c5f52123207e3c6ac754",
          "transactionIndex": "0xe",
          "logIndex": "0x6d",
          "removed": false
        },
        {
          "address": "0x8e110ce664fdd508b71dfca39b8618482993d8ad",
          "topics": [
            "0xddf252ad1be2c89b69c2b068fc378daa952ba7f163c4a11628f55a4df523b3ef",
            "0x0000000000000000000000000000000000000000000000000000000000000000",
            "0x000000000000000000000000eff3521fb13228c767ad6dc3b934f9efac9c56ad"
          ],
          "data": "0x0000000000000000000000000000000000000000000000000000000b80dc68d2",
          "blockHash": "0xd730a3715869360ed121bc4dc73be33bf6e80be03dd1e0d4a5bd05af5136526f",
          "blockNumber": "0x1eab984",
          "blockTimestamp": "0x68e8d1e8",
          "transactionHash": "0xbf87f38bf7121d9d367d882fbd78341a5133a29d0a18c5f52123207e3c6ac754",
          "transactionIndex": "0xe",
          "logIndex": "0x6e",
          "removed": false
        },
        {
          "address": "0x8e110ce664fdd508b71dfca39b8618482993d8ad",
          "topics": [
            "0xddf252ad1be2c89b69c2b068fc378daa952ba7f163c4a11628f55a4df523b3ef",
            "0x0000000000000000000000000000000000000000000000000000000000000000",
            "0x000000000000000000000000eda2fd6af7b3d3255115811572354eeeaecefdf1"
          ],
          "data": "0x0000000000000000000000000000000000000000000000000000000000000000",
          "blockHash": "0xd730a3715869360ed121bc4dc73be33bf6e80be03dd1e0d4a5bd05af5136526f",
          "blockNumber": "0x1eab984",
          "blockTimestamp": "0x68e8d1e8",
          "transactionHash": "0xbf87f38bf7121d9d367d882fbd78341a5133a29d0a18c5f52123207e3c6ac754",
          "transactionIndex": "0xe",
          "logIndex": "0x6f",
          "removed": false
        },
        {
          "address": "0x8e110ce664fdd508b71dfca39b8618482993d8ad",
          "topics": [
            "0xddf252ad1be2c89b69c2b068fc378daa952ba7f163c4a11628f55a4df523b3ef",
            "0x000000000000000000000000eff3521fb13228c767ad6dc3b934f9efac9c56ad",
            "0x000000000000000000000000eda2fd6af7b3d3255115811572354eeeaecefdf1"
          ],
          "data": "0x00000000000000000000000000000000000000000000000000001b48eb57e000",
          "blockHash": "0xd730a3715869360ed121bc4dc73be33bf6e80be03dd1e0d4a5bd05af5136526f",
          "blockNumber": "0x1eab984",
          "blockTimestamp": "0x68e8d1e8",
          "transactionHash": "0xbf87f38bf7121d9d367d882fbd78341a5133a29d0a18c5f52123207e3c6ac754",
          "transactionIndex": "0xe",
          "logIndex": "0x70",
          "removed": false
        },
        {
          "address": "0x8e110ce664fdd508b71dfca39b8618482993d8ad",
          "topics": [
            "0xddf252ad1be2c89b69c2b068fc378daa952ba7f163c4a11628f55a4df523b3ef",
            "0x0000000000000000000000000000000000000000000000000000000000000000",
            "0x000000000000000000000000eda2fd6af7b3d3255115811572354eeeaecefdf1"
          ],
          "data": "0x0000000000000000000000000000000000000000000000000000000000000000",
          "blockHash": "0xd730a3715869360ed121bc4dc73be33bf6e80be03dd1e0d4a5bd05af5136526f",
          "blockNumber": "0x1eab984",
          "blockTimestamp": "0x68e8d1e8",
          "transactionHash": "0xbf87f38bf7121d9d367d882fbd78341a5133a29d0a18c5f52123207e3c6ac754",
          "transactionIndex": "0xe",
          "logIndex": "0x71",
          "removed": false
        },
        {
          "address": "0x8e110ce664fdd508b71dfca39b8618482993d8ad",
          "topics": [
            "0xddf252ad1be2c89b69c2b068fc378daa952ba7f163c4a11628f55a4df523b3ef",
            "0x000000000000000000000000eda2fd6af7b3d3255115811572354eeeaecefdf1",
            "0x0000000000000000000000000000000000000000000000000000000000000000"
          ],
          "data": "0x00000000000000000000000000000000000000000000000000001b48eb57e000",
          "blockHash": "0xd730a3715869360ed121bc4dc73be33bf6e80be03dd1e0d4a5bd05af5136526f",
          "blockNumber": "0x1eab984",
          "blockTimestamp": "0x68e8d1e8",
          "transactionHash": "0xbf87f38bf7121d9d367d882fbd78341a5133a29d0a18c5f52123207e3c6ac754",
          "transactionIndex": "0xe",
          "logIndex": "0x72",
          "removed": false
        },
        {
          "address": "0xb52ef669d3fcebee1f31418facc02a16a6f6b0e5",
          "topics": [
            "0xd0c3c799bf9e2639de44391e7f524d229b2b55f5b1ea94b2bf7da42f7243dddd"
          ],
          "data": "0x00000000000000000000000000000000000000000000000000000000000000200000000000000000000000000000000000000000000000008f90b8876dee6538000000000000000000000000eff3521fb13228c767ad6dc3b934f9efac9c56ad000000000000000000000000eff3521fb13228c767ad6dc3b934f9efac9c56ad0000000000000000000000000000000000000000000000000000000000020cfe000000000000000000000000000000000000000000000000000000000000000000000000000000000000000000000000000000000000000000000000000000000000000000000000000000000000000000000000000000000000000000000001000000000000000000000000e4ab69c077896252fafbd49efd26b5d171a32410000000000000000000000000000000000000000000000000004ef518ba65afc600000000000000000000000000000000000000000000000000000000000001a000000000000000000000000000000000000000000000000000000000000001c00000000000000000000000000000000000000000000000000000000000000220b790b97d57ec4ef1638591a9959de631ac5c734544cd4e3dd3e6099987764a99000000000000000000000000000000000000000000000000000000000000000000000000000000000000000000000000000000000000000000000000000000010000000000000000000000008e110ce664fdd508b71dfca39b8618482993d8ad00000000000000000000000000000000000000000000000000001b48eb57e0000000000000000000000000000000000000000000000000000000000000000001000000000000000000000000000000000000000000000000000000000000002000000000000000000000000000000000000000000000000000000000000001600000000000000000000000000000000000000000000000000000000000000020000000000000000000000000000000000000000000000000000000000000008000000000000000000000000000000000000000000000000000000000000000c000000000000000000000000000000000000000000000000000000000000001000000000000000000000000000000000000000000000000000000000000015f900000000000000000000000000000000000000000000000000000000000000020000000000000000000000000eda2fd6af7b3d3255115811572354eeeaecefdf1000000000000000000000000000000000000000000000000000000000000002000000000000000000000000057c85c30ad2bc719cc34ccaeb8d2bfda1a8b177200000000000000000000000000000000000000000000000000000000000000200000000000000000000000000000000000000000000000000000000ba43b7400",
          "blockHash": "0xd730a3715869360ed121bc4dc73be33bf6e80be03dd1e0d4a5bd05af5136526f",
          "blockNumber": "0x1eab984",
          "blockTimestamp": "0x68e8d1e8",
          "transactionHash": "0xbf87f38bf7121d9d367d882fbd78341a5133a29d0a18c5f52123207e3c6ac754",
          "transactionIndex": "0xe",
          "logIndex": "0x73",
          "removed": false
        }
      ],
      "logsBloom": "0x02008000000000000000000000000000000000000000000000000000000000020000000000000400084000000000000000000000000000000000000000200000000000000000000000000008000000002000000000000000002000000000000100000000020000000004000000000800000000000000000000000010000000000000000100000000000000000000000000200000000000000000000000000000020000000000000400000000000000080000100000000000020100000000104000000002000000000000000000000000000000000000080000000000000020000010000000200040000000000000000004000000000000000000200000000000",
      "type": "0x2",
      "transactionHash": "0xbf87f38bf7121d9d367d882fbd78341a5133a29d0a18c5f52123207e3c6ac754",
      "transactionIndex": "0xe",
      "blockHash": "0xd730a3715869360ed121bc4dc73be33bf6e80be03dd1e0d4a5bd05af5136526f",
      "blockNumber": "0x1eab984",
      "gasUsed": "0x3b602",
      "effectiveGasPrice": "0xf4280",
      "from": "0xeff3521fb13228c767ad6dc3b934f9efac9c56ad",
      "to": "0xd3b06cebf099ce7da4accf578aaebfdbd6e88a93",
      "contractAddress": null,
      "l1BaseFeeScalar": "0x44d",
      "l1BlobBaseFee": "0x1",
      "l1BlobBaseFeeScalar": "0xa118b",
      "l1Fee": "0x281",
      "l1GasPrice": "0x97",
      "l1GasUsed": "0xc14"
    }
  ],
  "libraries": [],
  "pending": [],
  "returns": {},
  "timestamp": 1760088553,
  "chain": 84532,
  "commit": "8557215"
}