{
  "transactions": [
    {
      "hash": "0x020b6caf9269424aa17627d9f349523380afdb5368b5d58f2041a7fbea7cd47d",
      "transactionType": "CALL",
      "contractName": null,
      "contractAddress": "0xe4ab69c077896252fafbd49efd26b5d171a32410",
      "function": "approve(address,uint256)",
      "arguments": [
        "0xD3b06cEbF099CE7DA4AcCf578aaebFDBd6e88a93",
        "18274866931713249"
      ],
      "transaction": {
        "from": "0xeff3521fb13228c767ad6dc3b934f9efac9c56ad",
        "to": "0xe4ab69c077896252fafbd49efd26b5d171a32410",
        "gas": "0xfa12",
        "value": "0x0",
        "input": "0x095ea7b3000000000000000000000000d3b06cebf099ce7da4accf578aaebfdbd6e88a930000000000000000000000000000000000000000000000000040ece507c844e1",
        "nonce": "0xf",
        "chainId": "0x14a34"
      },
      "additionalContracts": [],
      "isFixedGasLimit": false
    },
    {
      "hash": "0x0b5534a743588ad4c4bd544b400a94aaabfe5c15817f299ffa8490131397cc0b",
      "transactionType": "CALL",
      "contractName": null,
      "contractAddress": "0x8e110ce664fdd508b71dfca39b8618482993d8ad",
      "function": "approve(address,uint256)",
      "arguments": [
        "0xD3b06cEbF099CE7DA4AcCf578aaebFDBd6e88a93",
        "20000000000000"
      ],
      "transaction": {
        "from": "0xeff3521fb13228c767ad6dc3b934f9efac9c56ad",
        "to": "0x8e110ce664fdd508b71dfca39b8618482993d8ad",
        "gas": "0x10c4a",
        "value": "0x0",
        "input": "0x095ea7b3000000000000000000000000d3b06cebf099ce7da4accf578aaebfdbd6e88a93000000000000000000000000000000000000000000000000000012309ce54000",
        "nonce": "0x10",
        "chainId": "0x14a34"
      },
      "additionalContracts": [],
      "isFixedGasLimit": false
    },
    {
      "hash": "0x5fc581caf688545efec65623e582cf8eea2e29de04f11da0eaa9c1d0e80e3d90",
      "transactionType": "CALL",
      "contractName": null,
      "contractAddress": "0xd3b06cebf099ce7da4accf578aaebfdbd6e88a93",
      "function": "ccipSend(uint64,(bytes,bytes,(address,uint256)[],address,bytes))",
      "arguments": [
        "5224473277236331295",
        "(0x000000000000000000000000eff3521fb13228c767ad6dc3b934f9efac9c56ad, 0x, [(0x8e110CE664fdD508B71DFca39B8618482993d8AD, 20000000000000)], 0xE4aB69C077896252FAFBD49EFD26B5D171A32410, 0x97a657c90000000000000000000000000000000000000000000000000000000000000000)"
      ],
      "transaction": {
        "from": "0xeff3521fb13228c767ad6dc3b934f9efac9c56ad",
        "to": "0xd3b06cebf099ce7da4accf578aaebfdbd6e88a93",
        "gas": "0x56d62",
        "value": "0x0",
        "input": "0x96f4e9f900000000000000000000000000000000000000000000000048810ec3e431431f000000000000000000000000000000000000000000000000000000000000004000000000000000000000000000000000000000000000000000000000000000a000000000000000000000000000000000000000000000000000000000000000e00000000000000000000000000000000000000000000000000000000000000100000000000000000000000000e4ab69c077896252fafbd49efd26b5d171a3241000000000000000000000000000000000000000000000000000000000000001600000000000000000000000000000000000000000000000000000000000000020000000000000000000000000eff3521fb13228c767ad6dc3b934f9efac9c56ad000000000000000000000000000000000000000000000000000000000000000000000000000000000000000000000000000000000000000000000000000000010000000000000000000000008e110ce664fdd508b71dfca39b8618482993d8ad000000000000000000000000000000000000000000000000000012309ce54000000000000000000000000000000000000000000000000000000000000000002497a657c9000000000000000000000000000000000000000000000000000000000000000000000000000000000000000000000000000000000000000000000000",
        "nonce": "0x11",
        "chainId": "0x14a34"
      },
      "additionalContracts": [],
      "isFixedGasLimit": false
    }
  ],
  "receipts": [
    {
      "status": "0x1",
      "cumulativeGasUsed": "0x557fd9",
      "logs": [
        {
          "address": "0xe4ab69c077896252fafbd49efd26b5d171a32410",
          "topics": [
            "0x8c5be1e5ebec7d5bd14f71427d1e84f3dd0314c0f7b2291e5b200ac8c7c3b925",
            "0x000000000000000000000000eff3521fb13228c767ad6dc3b934f9efac9c56ad",
            "0x000000000000000000000000d3b06cebf099ce7da4accf578aaebfdbd6e88a93"
          ],
          "data": "0x0000000000000000000000000000000000000000000000000040ece507c844e1",
          "blockHash": "0x0e98580b26663c2c6c88de79764503423e1079ff9e71e437d58b823a40a2588d",
          "blockNumber": "0x1eab963",
          "blockTimestamp": "0x68e8d1a6",
          "transactionHash": "0x020b6caf9269424aa17627d9f349523380afdb5368b5d58f2041a7fbea7cd47d",
          "transactionIndex": "0x17",
          "logIndex": "0x9a",
          "removed": false
        }
      ],
      "logsBloom": "0x00008000000000000000000000000000000000000000000000000000000000020000000000000000000000000000000000000000000000000000000000200000000000000000000000000000000000002000000000000000002000000000000000000000000000000000000000000000000000000000000000000000000000000000000100000000000000000000000000000000000000000000000000000000020000000000000000000000000000000000100000000000020000000000100000000000000000000000000000000000000000000000000000000000000000000010000000000000000000000000000000000000000000000000200000000000",
      "type": "0x2",
      "transactionHash": "0x020b6caf9269424aa17627d9f349523380afdb5368b5d58f2041a7fbea7cd47d",
      "transactionIndex": "0x17",
      "blockHash": "0x0e98580b26663c2c6c88de79764503423e1079ff9e71e437d58b823a40a2588d",
      "blockNumber": "0x1eab963",
      "gasUsed": "0xb50d",
      "effectiveGasPrice": "0xf4281",
      "from": "0xeff3521fb13228c767ad6dc3b934f9efac9c56ad",
      "to": "0xe4ab69c077896252fafbd49efd26b5d171a32410",
      "contractAddress": null,
      "l1BaseFeeScalar": "0x44d",
      "l1BlobBaseFee": "0x1",
      "l1BlobBaseFeeScalar": "0xa118b",
      "l1Fee": "0x166",
      "l1GasPrice": "0xa6",
      "l1GasUsed": "0x640"
    },
    {
      "status": "0x1",
      "cumulativeGasUsed": "0x56374c",
      "logs": [
        {
          "address": "0x8e110ce664fdd508b71dfca39b8618482993d8ad",
          "topics": [
            "0x8c5be1e5ebec7d5bd14f71427d1e84f3dd0314c0f7b2291e5b200ac8c7c3b925",
            "0x000000000000000000000000eff3521fb13228c767ad6dc3b934f9efac9c56ad",
            "0x000000000000000000000000d3b06cebf099ce7da4accf578aaebfdbd6e88a93"
          ],
          "data": "0x000000000000000000000000000000000000000000000000000012309ce54000",
          "blockHash": "0x0e98580b26663c2c6c88de79764503423e1079ff9e71e437d58b823a40a2588d",
          "blockNumber": "0x1eab963",
          "blockTimestamp": "0x68e8d1a6",
          "transactionHash": "0x0b5534a743588ad4c4bd544b400a94aaabfe5c15817f299ffa8490131397cc0b",
          "transactionIndex": "0x18",
          "logIndex": "0x9b",
          "removed": false
        }
      ],
      "logsBloom": "0x00000000000000000000000000000000000000000000000000000000000000020000000000000400000000000000000000000000000000000000000000200000000000000000000000000000000000002000000000000000002000000000000100000000000000000000000000000000000000000000000000000000000000000000000100000000000000000000000000000000000000000000000000000000020000000000000000000000000000000000100000000000000000000000100000000000000000000000000000000000000000000000000000000000000000000010000000000040000000000000000000000000000000000000000000000000",
      "type": "0x2",
      "transactionHash": "0x0b5534a743588ad4c4bd544b400a94aaabfe5c15817f299ffa8490131397cc0b",
      "transactionIndex": "0x18",
      "blockHash": "0x0e98580b26663c2c6c88de79764503423e1079ff9e71e437d58b823a40a2588d",
      "blockNumber": "0x1eab963",
      "gasUsed": "0xb773",
      "effectiveGasPrice": "0xf4281",
      "from": "0xeff3521fb13228c767ad6dc3b934f9efac9c56ad",
      "to": "0x8e110ce664fdd508b71dfca39b8618482993d8ad",
      "contractAddress": null,
      "l1BaseFeeScalar": "0x44d",
      "l1BlobBaseFee": "0x1",
      "l1BlobBaseFeeScalar": "0xa118b",
      "l1Fee": "0x166",
      "l1GasPrice": "0xa6",
      "l1GasUsed": "0x640"
    },
    {
      "status": "0x1",
      "cumulativeGasUsed": "0x59ed4e",
      "logs": [
        {
          "address": "0xe4ab69c077896252fafbd49efd26b5d171a32410",
          "topics": [
            "0x8c5be1e5ebec7d5bd14f71427d1e84f3dd0314c0f7b2291e5b200ac8c7c3b925",
            "0x000000000000000000000000eff3521fb13228c767ad6dc3b934f9efac9c56ad",
            "0x000000000000000000000000d3b06cebf099ce7da4accf578aaebfdbd6e88a93"
          ],
          "data": "0x0000000000000000000000000000000000000000000000000000000000000000",
          "blockHash": "0x0e98580b26663c2c6c88de79764503423e1079ff9e71e437d58b823a40a2588d",
          "blockNumber": "0x1eab963",
          "blockTimestamp": "0x68e8d1a6",
          "transactionHash": "0x5fc581caf688545efec65623e582cf8eea2e29de04f11da0eaa9c1d0e80e3d90",
          "transactionIndex": "0x19",
          "logIndex": "0x9c",
          "removed": false
        },
        {
          "address": "0xe4ab69c077896252fafbd49efd26b5d171a32410",
          "topics": [
            "0xddf252ad1be2c89b69c2b068fc378daa952ba7f163c4a11628f55a4df523b3ef",
            "0x000000000000000000000000eff3521fb13228c767ad6dc3b934f9efac9c56ad",
            "0x0000000000000000000000002945d35f428ce564f5455ad0af28bdfca67e76ab"
          ],
          "data": "0x0000000000000000000000000000000000000000000000000040ece507c844e1",
          "blockHash": "0x0e98580b26663c2c6c88de79764503423e1079ff9e71e437d58b823a40a2588d",
          "blockNumber": "0x1eab963",
          "blockTimestamp": "0x68e8d1a6",
          "transactionHash": "0x5fc581caf688545efec65623e582cf8eea2e29de04f11da0eaa9c1d0e80e3d90",
          "transactionIndex": "0x19",
          "logIndex": "0x9d",
          "removed": false
        },
        {
          "address": "0x8e110ce664fdd508b71dfca39b8618482993d8ad",
          "topics": [
            "0xddf252ad1be2c89b69c2b068fc378daa952ba7f163c4a11628f55a4df523b3ef",
            "0x0000000000000000000000000000000000000000000000000000000000000000",
            "0x000000000000000000000000eff3521fb13228c767ad6dc3b934f9efac9c56ad"
          ],
          "data": "0x0000000000000000000000000000000000000000000000000000000b84c8ff98",
          "blockHash": "0x0e98580b26663c2c6c88de79764503423e1079ff9e71e437d58b823a40a2588d",
          "blockNumber": "0x1eab963",
          "blockTimestamp": "0x68e8d1a6",
          "transactionHash": "0x5fc581caf688545efec65623e582cf8eea2e29de04f11da0eaa9c1d0e80e3d90",
          "transactionIndex": "0x19",
          "logIndex": "0x9e",
          "removed": false
        },
        {
          "address": "0x8e110ce664fdd508b71dfca39b8618482993d8ad",
          "topics": [
            "0xddf252ad1be2c89b69c2b068fc378daa952ba7f163c4a11628f55a4df523b3ef",
            "0x0000000000000000000000000000000000000000000000000000000000000000",
            "0x000000000000000000000000eda2fd6af7b3d3255115811572354eeeaecefdf1"
          ],
          "data": "0x0000000000000000000000000000000000000000000000000000000000000000",
          "blockHash": "0x0e98580b26663c2c6c88de79764503423e1079ff9e71e437d58b823a40a2588d",
          "blockNumber": "0x1eab963",
          "blockTimestamp": "0x68e8d1a6",
          "transactionHash": "0x5fc581caf688545efec65623e582cf8eea2e29de04f11da0eaa9c1d0e80e3d90",
          "transactionIndex": "0x19",
          "logIndex": "0x9f",
          "removed": false
        },
        {
          "address": "0x8e110ce664fdd508b71dfca39b8618482993d8ad",
          "topics": [
            "0xddf252ad1be2c89b69c2b068fc378daa952ba7f163c4a11628f55a4df523b3ef",
            "0x000000000000000000000000eff3521fb13228c767ad6dc3b934f9efac9c56ad",
            "0x000000000000000000000000eda2fd6af7b3d3255115811572354eeeaecefdf1"
          ],
          "data": "0x000000000000000000000000000000000000000000000000000012309ce54000",
          "blockHash": "0x0e98580b26663c2c6c88de79764503423e1079ff9e71e437d58b823a40a2588d",
          "blockNumber": "0x1eab963",
          "blockTimestamp": "0x68e8d1a6",
          "transactionHash": "0x5fc581caf688545efec65623e582cf8eea2e29de04f11da0eaa9c1d0e80e3d90",
          "transactionIndex": "0x19",
          "logIndex": "0xa0",
          "removed": false
        },
        {
          "address": "0x8e110ce664fdd508b71dfca39b8618482993d8ad",
          "topics": [
            "0xddf252ad1be2c89b69c2b068fc378daa952ba7f163c4a11628f55a4df523b3ef",
            "0x0000000000000000000000000000000000000000000000000000000000000000",
            "0x000000000000000000000000eda2fd6af7b3d3255115811572354eeeaecefdf1"
          ],
          "data": "0x0000000000000000000000000000000000000000000000000000000000000000",
          "blockHash": "0x0e98580b26663c2c6c88de79764503423e1079ff9e71e437d58b823a40a2588d",
          "blockNumber": "0x1eab963",
          "blockTimestamp": "0x68e8d1a6",
          "transactionHash": "0x5fc581caf688545efec65623e582cf8eea2e29de04f11da0eaa9c1d0e80e3d90",
          "transactionIndex": "0x19",
          "logIndex": "0xa1",
          "removed": false
        },
        {
          "address": "0x8e110ce664fdd508b71dfca39b8618482993d8ad",
          "topics": [
            "0xddf252ad1be2c89b69c2b068fc378daa952ba7f163c4a11628f55a4df523b3ef",
            "0x000000000000000000000000eda2fd6af7b3d3255115811572354eeeaecefdf1",
            "0x0000000000000000000000000000000000000000000000000000000000000000"
          ],
          "data": "0x000000000000000000000000000000000000000000000000000012309ce54000",
          "blockHash": "0x0e98580b26663c2c6c88de79764503423e1079ff9e71e437d58b823a40a2588d",
          "blockNumber": "0x1eab963",
          "blockTimestamp": "0x68e8d1a6",
          "transactionHash": "0x5fc581caf688545efec65623e582cf8eea2e29de04f11da0eaa9c1d0e80e3d90",
          "transactionIndex": "0x19",
          "logIndex": "0xa2",
          "removed": false
        },
        {
          "address": "0x2945d35f428ce564f5455ad0af28bdfca67e76ab",
          "topics": [
            "0xd0c3c799bf9e2639de44391e7f524d229b2b55f5b1ea94b2bf7da42f7243dddd"
          ],
          "data": "0x00000000000000000000000000000000000000000000000000000000000000200000000000000000000000000000000000000000000000008f90b8876dee6538000000000000000000000000eff3521fb13228c767ad6dc3b934f9efac9c56ad000000000000000000000000eff3521fb13228c767ad6dc3b934f9efac9c56ad000000000000000000000000000000000000000000000000000000000001015e000000000000000000000000000000000000000000000000000000000000000000000000000000000000000000000000000000000000000000000000000000000000000000000000000000000000000000000000000000000000000000000001000000000000000000000000e4ab69c077896252fafbd49efd26b5d171a324100000000000000000000000000000000000000000000000000040ece507c844e100000000000000000000000000000000000000000000000000000000000001a000000000000000000000000000000000000000000000000000000000000001c000000000000000000000000000000000000000000000000000000000000002206193daa6188ddb00501085d810177de7f5a59ebd0644d865a7820521869c33e7000000000000000000000000000000000000000000000000000000000000000000000000000000000000000000000000000000000000000000000000000000010000000000000000000000008e110ce664fdd508b71dfca39b8618482993d8ad000000000000000000000000000000000000000000000000000012309ce540000000000000000000000000000000000000000000000000000000000000000001000000000000000000000000000000000000000000000000000000000000002000000000000000000000000000000000000000000000000000000000000001600000000000000000000000000000000000000000000000000000000000000020000000000000000000000000000000000000000000000000000000000000008000000000000000000000000000000000000000000000000000000000000000c000000000000000000000000000000000000000000000000000000000000001000000000000000000000000000000000000000000000000000000000000015f900000000000000000000000000000000000000000000000000000000000000020000000000000000000000000eda2fd6af7b3d3255115811572354eeeaecefdf100000000000000000000000000000000000000000000000000000000000000200000000000000000000000008e110ce664fdd508b71dfca39b8618482993d8ad00000000000000000000000000000000000000000000000000000000000000200000000000000000000000000000000000000000000000000000000ba43b7400",
          "blockHash": "0x0e98580b26663c2c6c88de79764503423e1079ff9e71e437d58b823a40a2588d",
          "blockNumber": "0x1eab963",
          "blockTimestamp": "0x68e8d1a6",
          "transactionHash": "0x5fc581caf688545efec65623e582cf8eea2e29de04f11da0eaa9c1d0e80e3d90",
          "transactionIndex": "0x19",
          "logIndex": "0xa3",
          "removed": false
        }
      ],
      "logsBloom": "0x00008000000200000000000000800000000000000000000000000000000000020000000000400400000000000000000000000000000000000000000000200000000000000000000000000008000000002000000000000000002000000010000100000000020000000004000000000800000000000000000000000010000000000000000100000000000000000000000000000000000004000000000000000000020000000000000400000000000000080000100000000000020100000000104000000002000000000000000000000000000000000000000000000000000020000010000000000440000000000000000004000000000000000000200000000000",
      "type": "0x2",
      "transactionHash": "0x5fc581caf688545efec65623e582cf8eea2e29de04f11da0eaa9c1d0e80e3d90",
      "transactionIndex": "0x19",
      "blockHash": "0x0e98580b26663c2c6c88de79764503423e1079ff9e71e437d58b823a40a2588d",
      "blockNumber": "0x1eab963",
      "gasUsed": "0x3b602",
      "effectiveGasPrice": "0xf4281",
      "from": "0xeff3521fb13228c767ad6dc3b934f9efac9c56ad",
      "to": "0xd3b06cebf099ce7da4accf578aaebfdbd6e88a93",
      "contractAddress": null,
      "l1BaseFeeScalar": "0x44d",
      "l1BlobBaseFee": "0x1",
      "l1BlobBaseFeeScalar": "0xa118b",
      "l1Fee": "0x2b1",
      "l1GasPrice": "0xa6",
      "l1GasUsed": "0xc07"
    }
  ],
  "libraries": [],
  "pending": [],
  "returns": {},
  "timestamp": 1760088487,
  "chain": 84532,
  "commit": "8557215"
}