{
  "transactions": [
    {
      "hash": "0xc468b849749eb32cd72bb231d76268fa982e8312c8a06ecef232e96a22f01421",
      "transactionType": "CALL",
      "contractName": null,
      "contractAddress": "0xeda2fd6af7b3d3255115811572354eeeaecefdf1",
      "function": "applyChainUpdates(uint64[],(uint64,bytes[],bytes,(bool,uint128,uint128),(bool,uint128,uint128))[])",
      "arguments": [
        "[]",
        "[(16015286601757825753, [0x000000000000000000000000e3f048618be93445341635f7d6371703414797a8], 0x0000000000000000000000009ddcb877b4bf4e0674e56fe2b6cedd497fb87ffc, (false, 0, 0), (false, 0, 0))]"
      ],
      "transaction": {
        "from": "0xeff3521fb13228c767ad6dc3b934f9efac9c56ad",
        "to": "0xeda2fd6af7b3d3255115811572354eeeaecefdf1",
        "gas": "0x6a3e8",
        "value": "0x0",
        "input": "0xe8a1da1700000000000000000000000000000000000000000000000000000000000000400000000000000000000000000000000000000000000000000000000000000060000000000000000000000000000000000000000000000000000000000000000000000000000000000000000000000000000000000000000000000000000000010000000000000000000000000000000000000000000000000000000000000020000000000000000000000000000000000000000000000000de41ba4fc9d91ad9000000000000000000000000000000000000000000000000000000000000012000000000000000000000000000000000000000000000000000000000000001a0000000000000000000000000000000000000000000000000000000000000000000000000000000000000000000000000000000000000000000000000000000000000000000000000000000000000000000000000000000000000000000000000000000000000000000000000000000000000000000000000000000000000000000000000000000000000000000000000000000000000000000000000000000000000000000000000000000000000000000000000000000000000000000000000000000000000000000000000000000000000000000000000000000000000000100000000000000000000000000000000000000000000000000000000000000200000000000000000000000000000000000000000000000000000000000000020000000000000000000000000e3f048618be93445341635f7d6371703414797a800000000000000000000000000000000000000000000000000000000000000200000000000000000000000009ddcb877b4bf4e0674e56fe2b6cedd497fb87ffc",
        "nonce": "0x6",
        "chainId": "0x79a"
      },
      "additionalContracts": [],
      "isFixedGasLimit": false
    }
  ],
  "receipts": [
    {
      "status": "0x1",
      "cumulativeGasUsed": "0x646c0",
      "logs": [
        {
          "address": "0xeda2fd6af7b3d3255115811572354eeeaecefdf1",
          "topics": [
            "0x7d628c9a1796743d365ab521a8b2a4686e419b3269919dc9145ea2ce853b54ea",
            "0x000000000000000000000000000000000000000000000000de41ba4fc9d91ad9"
          ],
          "data": "0x00000000000000000000000000000000000000000000000000000000000000200000000000000000000000000000000000000000000000000000000000000020000000000000000000000000e3f048618be93445341635f7d6371703414797a8",
          "blockHash": "0x6b50bec156f12fcf95172cd7775e871e8fd5facecf005c5a90263a69ea726106",
          "blockNumber": "0x11975bb",
          "transactionHash": "0xc468b849749eb32cd72bb231d76268fa982e8312c8a06ecef232e96a22f01421",
          "transactionIndex": "0x2",
          "logIndex": "0x1",
          "removed": false
        },
        {
          "address": "0xeda2fd6af7b3d3255115811572354eeeaecefdf1",
          "topics": [
            "0x8d340f17e19058004c20453540862a9c62778504476f6756755cb33bcd6c38c2"
          ],
          "data": "0x000000000000000000000000000000000000000000000000de41ba4fc9d91ad9000000000000000000000000000000000000000000000000000000000000010000000000000000000000000000000000000000000000000000000000000000000000000000000000000000000000000000000000000000000000000000000000000000000000000000000000000000000000000000000000000000000000000000000000000000000000000000000000000000000000000000000000000000000000000000000000000000000000000000000000000000000000000000000000000000000000000000000000000000000000000000000000000000000000000000000000000000000000000000000000000000000000000000000000000000200000000000000000000000009ddcb877b4bf4e0674e56fe2b6cedd497fb87ffc",
          "blockHash": "0x6b50bec156f12fcf95172cd7775e871e8fd5facecf005c5a90263a69ea726106",
          "blockNumber": "0x11975bb",
          "transactionHash": "0xc468b849749eb32cd72bb231d76268fa982e8312c8a06ecef232e96a22f01421",
          "transactionIndex": "0x2",
          "logIndex": "0x2",
          "removed": false
        }
      ],
      "logsBloom": "0x00000000000000400000000000000000000000000000000000800000000000000000000000004000000000000000000000000000000000000004000000000204000000000000000000000000000000000000000000000000000000000000000000000000000000000000000000010000000000000000000000000000000000400000000000000000000000000000000000000020000000000000000000000000000000000000000000000000000100000000000000000000000000000000000000000000000000000000000000000000000000000000000000000000000000000000000000000000000000000000000000000000008000000100000000000000",
      "type": "0x2",
      "transactionHash": "0xc468b849749eb32cd72bb231d76268fa982e8312c8a06ecef232e96a22f01421",
      "transactionIndex": "0x2",
      "blockHash": "0x6b50bec156f12fcf95172cd7775e871e8fd5facecf005c5a90263a69ea726106",
      "blockNumber": "0x11975bb",
      "gasUsed": "0x4ceb4",
      "effectiveGasPrice": "0xf433c",
      "from": "0xeff3521fb13228c767ad6dc3b934f9efac9c56ad",
      "to": "0xeda2fd6af7b3d3255115811572354eeeaecefdf1",
      "contractAddress": null,
      "l1BaseFeeScalar": "0x2608",
      "l1BlobBaseFee": "0x1",
      "l1BlobBaseFeeScalar": "0x177fef",
      "l1Fee": "0xe9b",
      "l1GasPrice": "0x92",
      "l1GasUsed": "0x99f"
    }
  ],
  "libraries": [],
  "pending": [],
  "returns": {},
  "timestamp": 1760085847,
  "chain": 1946,
  "commit": "8557215"
}