{
  "transactions": [
    {
      "hash": "0xc30f18cc5d727d50a6c6553173de678153925b605633a2dc0e68ffb8fc63b6f9",
      "transactionType": "CALL",
      "contractName": null,
      "contractAddress": "0x1facfb24b61346b28905b4d64517130e43236dc8",
      "function": "applyChainUpdates(uint64[],(uint64,bytes[],bytes,(bool,uint128,uint128),(bool,uint128,uint128))[])",
      "arguments": [
        "[]",
        "[(10344971235874465080, [0x000000000000000000000000eda2fd6af7b3d3255115811572354eeeaecefdf1], 0x0000000000000000000000008e110ce664fdd508b71dfca39b8618482993d8ad, (false, 0, 0), (false, 0, 0))]"
      ],
      "transaction": {
        "from": "0xeff3521fb13228c767ad6dc3b934f9efac9c56ad",
        "to": "0x1facfb24b61346b28905b4d64517130e43236dc8",
        "gas": "0x5fb03",
        "value": "0x0",
        "input": "0xe8a1da17000000000000000000000000000000000000000000000000000000000000004000000000000000000000000000000000000000000000000000000000000000600000000000000000000000000000000000000000000000000000000000000000000000000000000000000000000000000000000000000000000000000000000100000000000000000000000000000000000000000000000000000000000000200000000000000000000000000000000000000000000000008f90b8876dee6538000000000000000000000000000000000000000000000000000000000000012000000000000000000000000000000000000000000000000000000000000001a0000000000000000000000000000000000000000000000000000000000000000000000000000000000000000000000000000000000000000000000000000000000000000000000000000000000000000000000000000000000000000000000000000000000000000000000000000000000000000000000000000000000000000000000000000000000000000000000000000000000000000000000000000000000000000000000000000000000000000000000000000000000000000000000000000000000000000000000000000000000000000000000000000000000000000100000000000000000000000000000000000000000000000000000000000000200000000000000000000000000000000000000000000000000000000000000020000000000000000000000000eda2fd6af7b3d3255115811572354eeeaecefdf100000000000000000000000000000000000000000000000000000000000000200000000000000000000000008e110ce664fdd508b71dfca39b8618482993d8ad",
        "nonce": "0x1b",
        "chainId": "0x66eee"
      },
      "additionalContracts": [],
      "isFixedGasLimit": false
    }
  ],
  "receipts": [
    {
      "status": "0x1",
      "cumulativeGasUsed": "0x13e573",
      "logs": [
        {
          "address": "0x1facfb24b61346b28905b4d64517130e43236dc8",
          "topics": [
            "0x7d628c9a1796743d365ab521a8b2a4686e419b3269919dc9145ea2ce853b54ea",
            "0x0000000000000000000000000000000000000000000000008f90b8876dee6538"
          ],
          "data": "0x00000000000000000000000000000000000000000000000000000000000000200000000000000000000000000000000000000000000000000000000000000020000000000000000000000000eda2fd6af7b3d3255115811572354eeeaecefdf1",
          "blockHash": "0x4eb7fa08b1e61a72f1723a3dacce8e2d92386e6a163fd7853c7d867746852612",
          "blockNumber": "0xc1afca1",
          "transactionHash": "0xc30f18cc5d727d50a6c6553173de678153925b605633a2dc0e68ffb8fc63b6f9",
          "transactionIndex": "0xe",
          "logIndex": "0xa",
          "removed": false
        },
        {
          "address": "0x1facfb24b61346b28905b4d64517130e43236dc8",
          "topics": [
            "0x8d340f17e19058004c20453540862a9c62778504476f6756755cb33bcd6c38c2"
          ],
          "data": "0x0000000000000000000000000000000000000000000000008f90b8876dee6538000000000000000000000000000000000000000000000000000000000000010000000000000000000000000000000000000000000000000000000000000000000000000000000000000000000000000000000000000000000000000000000000000000000000000000000000000000000000000000000000000000000000000000000000000000000000000000000000000000000000000000000000000000000000000000000000000000000000000000000000000000000000000000000000000000000000000000000000000000000000000000000000000000000000000000000000000000000000000000000000000000000000000000000000000000200000000000000000000000008e110ce664fdd508b71dfca39b8618482993d8ad",
          "blockHash": "0x4eb7fa08b1e61a72f1723a3dacce8e2d92386e6a163fd7853c7d867746852612",
          "blockNumber": "0xc1afca1",
          "transactionHash": "0xc30f18cc5d727d50a6c6553173de678153925b605633a2dc0e68ffb8fc63b6f9",
          "transactionIndex": "0xe",
          "logIndex": "0xb",
          "removed": false
        }
      ],
      "logsBloom": "0x00000000000000400000000000000000000000000000000000000000000000000000000000000000000000000000000000000000000000000004000000000004000000000000000000000000000000000000000400000000000000000000200000000000000000000000000000000000000000000000000000000000000000404000000000000001000000000000000000010000000000000000000000000000000000000000000000000000000000000000000000000000000000000000000000000000000000000000000000000000000000000000000000000000000000000000080000000000000000000000000000000000008000000100000000000000",
      "type": "0x2",
      "transactionHash": "0xc30f18cc5d727d50a6c6553173de678153925b605633a2dc0e68ffb8fc63b6f9",
      "transactionIndex": "0xe",
      "blockHash": "0x4eb7fa08b1e61a72f1723a3dacce8e2d92386e6a163fd7853c7d867746852612",
      "blockNumber": "0xc1afca1",
      "gasUsed": "0x48be8",
      "effectiveGasPrice": "0x5f5e100",
      "from": "0xeff3521fb13228c767ad6dc3b934f9efac9c56ad",
      "to": "0x1facfb24b61346b28905b4d64517130e43236dc8",
      "contractAddress": null,
      "gasUsedForL1": "0x0",
      "l1BlockNumber": "0x8f25c8",
      "timeboosted": false
    }
  ],
  "libraries": [],
  "pending": [],
  "returns": {},
  "timestamp": 1760084640,
  "chain": 421614,
  "commit": "8557215"
}