{
  "transactions": [
    {
      "hash": "0xf27c616b6c716c6996744d9df7e35dd1f2cd701875fdf83c033cb38d07976d33",
      "transactionType": "CALL",
      "contractName": null,
      "contractAddress": "0x1facfb24b61346b28905b4d64517130e43236dc8",
      "function": "applyChainUpdates(uint64[],(uint64,bytes[],bytes,(bool,uint128,uint128),(bool,uint128,uint128))[])",
      "arguments": [
        "[]",
        "[(16015286601757825753, [0x000000000000000000000000e3f048618be93445341635f7d6371703414797a8], 0x0000000000000000000000009ddcb877b4bf4e0674e56fe2b6cedd497fb87ffc, (false, 0, 0), (false, 0, 0))]"
      ],
      "transaction": {
        "from": "0xeff3521fb13228c767ad6dc3b934f9efac9c56ad",
        "to": "0x1facfb24b61346b28905b4d64517130e43236dc8",
        "gas": "0x6528a",
        "value": "0x0",
        "input": "0xe8a1da1700000000000000000000000000000000000000000000000000000000000000400000000000000000000000000000000000000000000000000000000000000060000000000000000000000000000000000000000000000000000000000000000000000000000000000000000000000000000000000000000000000000000000010000000000000000000000000000000000000000000000000000000000000020000000000000000000000000000000000000000000000000de41ba4fc9d91ad9000000000000000000000000000000000000000000000000000000000000012000000000000000000000000000000000000000000000000000000000000001a0000000000000000000000000000000000000000000000000000000000000000000000000000000000000000000000000000000000000000000000000000000000000000000000000000000000000000000000000000000000000000000000000000000000000000000000000000000000000000000000000000000000000000000000000000000000000000000000000000000000000000000000000000000000000000000000000000000000000000000000000000000000000000000000000000000000000000000000000000000000000000000000000000000000000000100000000000000000000000000000000000000000000000000000000000000200000000000000000000000000000000000000000000000000000000000000020000000000000000000000000e3f048618be93445341635f7d6371703414797a800000000000000000000000000000000000000000000000000000000000000200000000000000000000000009ddcb877b4bf4e0674e56fe2b6cedd497fb87ffc",
        "nonce": "0x1a",
        "chainId": "0x66eee"
      },
      "additionalContracts": [],
      "isFixedGasLimit": false
    }
  ],
  "receipts": [
    {
      "status": "0x1",
      "cumulativeGasUsed": "0x1379a2",
      "logs": [
        {
          "address": "0x1facfb24b61346b28905b4d64517130e43236dc8",
          "topics": [
            "0x7d628c9a1796743d365ab521a8b2a4686e419b3269919dc9145ea2ce853b54ea",
            "0x000000000000000000000000000000000000000000000000de41ba4fc9d91ad9"
          ],
          "data": "0x00000000000000000000000000000000000000000000000000000000000000200000000000000000000000000000000000000000000000000000000000000020000000000000000000000000e3f048618be93445341635f7d6371703414797a8",
          "blockHash": "0x6daa773f2de58b3af4eb7e111a17c5458d6c54281c7cbbeecb55aeff97bacc90",
          "blockNumber": "0xc1afb88",
          "transactionHash": "0xf27c616b6c716c6996744d9df7e35dd1f2cd701875fdf83c033cb38d07976d33",
          "transactionIndex": "0x9",
          "logIndex": "0x9",
          "removed": false
        },
        {
          "address": "0x1facfb24b61346b28905b4d64517130e43236dc8",
          "topics": [
            "0x8d340f17e19058004c20453540862a9c62778504476f6756755cb33bcd6c38c2"
          ],
          "data": "0x000000000000000000000000000000000000000000000000de41ba4fc9d91ad9000000000000000000000000000000000000000000000000000000000000010000000000000000000000000000000000000000000000000000000000000000000000000000000000000000000000000000000000000000000000000000000000000000000000000000000000000000000000000000000000000000000000000000000000000000000000000000000000000000000000000000000000000000000000000000000000000000000000000000000000000000000000000000000000000000000000000000000000000000000000000000000000000000000000000000000000000000000000000000000000000000000000000000000000000000200000000000000000000000009ddcb877b4bf4e0674e56fe2b6cedd497fb87ffc",
          "blockHash": "0x6daa773f2de58b3af4eb7e111a17c5458d6c54281c7cbbeecb55aeff97bacc90",
          "blockNumber": "0xc1afb88",
          "transactionHash": "0xf27c616b6c716c6996744d9df7e35dd1f2cd701875fdf83c033cb38d07976d33",
          "transactionIndex": "0x9",
          "logIndex": "0xa",
          "removed": false
        }
      ],
      "logsBloom": "0x00000000000000400000000000000000000000000000000000000000000000000000000000004000000000000000000000000000000000000004000000000004000000000000000000000000000000000000000000000000000000000000000000000000000000000000000000010000000000000000000000000000000000400000000000000001000000000000000000010020000000000000000000000000000000000000000000000000000000000000000000000000000000000000000000000000000000000000000000000000000000000000000000000000000000000000080000000000000000000000000000000000008000000100000000000000",
      "type": "0x2",
      "transactionHash": "0xf27c616b6c716c6996744d9df7e35dd1f2cd701875fdf83c033cb38d07976d33",
      "transactionIndex": "0x9",
      "blockHash": "0x6daa773f2de58b3af4eb7e111a17c5458d6c54281c7cbbeecb55aeff97bacc90",
      "blockNumber": "0xc1afb88",
      "gasUsed": "0x4ceb4",
      "effectiveGasPrice": "0x5f5e100",
      "from": "0xeff3521fb13228c767ad6dc3b934f9efac9c56ad",
      "to": "0x1facfb24b61346b28905b4d64517130e43236dc8",
      "contractAddress": null,
      "gasUsedForL1": "0x0",
      "l1BlockNumber": "0x8f25c3",
      "timeboosted": false
    }
  ],
  "libraries": [],
  "pending": [],
  "returns": {},
  "timestamp": 1760084571,
  "chain": 421614,
  "commit": "8557215"
}