{
  "transactions": [
    {
      "hash": "0x86cd546c8c481bb5c7f84f9cd3a9616b10e482d6bb6a423391db35d0a5116fe1",
      "transactionType": "CALL",
      "contractName": null,
      "contractAddress": "0xeda2fd6af7b3d3255115811572354eeeaecefdf1",
      "function": "applyChainUpdates(uint64[],(uint64,bytes[],bytes,(bool,uint128,uint128),(bool,uint128,uint128))[])",
      "arguments": [
        "[]",
        "[(16015286601757825753, [0x000000000000000000000000d1d65329242e9552392e2cde15558abdc3edba29], 0x0000000000000000000000001f4412e384fd74b78aa912e567787f6b3649e5e0, (false, 0, 0), (false, 0, 0))]"
      ],
      "transaction": {
        "from": "0xeff3521fb13228c767ad6dc3b934f9efac9c56ad",
        "to": "0xeda2fd6af7b3d3255115811572354eeeaecefdf1",
        "gas": "0x6528a",
        "value": "0x0",
        "input": "0xe8a1da1700000000000000000000000000000000000000000000000000000000000000400000000000000000000000000000000000000000000000000000000000000060000000000000000000000000000000000000000000000000000000000000000000000000000000000000000000000000000000000000000000000000000000010000000000000000000000000000000000000000000000000000000000000020000000000000000000000000000000000000000000000000de41ba4fc9d91ad9000000000000000000000000000000000000000000000000000000000000012000000000000000000000000000000000000000000000000000000000000001a0000000000000000000000000000000000000000000000000000000000000000000000000000000000000000000000000000000000000000000000000000000000000000000000000000000000000000000000000000000000000000000000000000000000000000000000000000000000000000000000000000000000000000000000000000000000000000000000000000000000000000000000000000000000000000000000000000000000000000000000000000000000000000000000000000000000000000000000000000000000000000000000000000000000000000100000000000000000000000000000000000000000000000000000000000000200000000000000000000000000000000000000000000000000000000000000020000000000000000000000000d1d65329242e9552392e2cde15558abdc3edba2900000000000000000000000000000000000000000000000000000000000000200000000000000000000000001f4412e384fd74b78aa912e567787f6b3649e5e0",
        "nonce": "0x8",
        "chainId": "0x66eee"
      },
      "additionalContracts": [],
      "isFixedGasLimit": false
    }
  ],
  "receipts": [
    {
      "status": "0x1",
      "cumulativeGasUsed": "0x8157a",
      "logs": [
        {
          "address": "0xeda2fd6af7b3d3255115811572354eeeaecefdf1",
          "topics": [
            "0x7d628c9a1796743d365ab521a8b2a4686e419b3269919dc9145ea2ce853b54ea",
            "0x000000000000000000000000000000000000000000000000de41ba4fc9d91ad9"
          ],
          "data": "0x00000000000000000000000000000000000000000000000000000000000000200000000000000000000000000000000000000000000000000000000000000020000000000000000000000000d1d65329242e9552392e2cde15558abdc3edba29",
          "blockHash": "0x0ef69901f099ac8775b75e3a908fd831e7e0bb2f8b098017a333b218ede5c973",
          "blockNumber": "0xc0a6581",
          "transactionHash": "0x86cd546c8c481bb5c7f84f9cd3a9616b10e482d6bb6a423391db35d0a5116fe1",
          "transactionIndex": "0x4",
          "logIndex": "0x2",
          "removed": false
        },
        {
          "address": "0xeda2fd6af7b3d3255115811572354eeeaecefdf1",
          "topics": [
            "0x8d340f17e19058004c20453540862a9c62778504476f6756755cb33bcd6c38c2"
          ],
          "data": "0x000000000000000000000000000000000000000000000000de41ba4fc9d91ad9000000000000000000000000000000000000000000000000000000000000010000000000000000000000000000000000000000000000000000000000000000000000000000000000000000000000000000000000000000000000000000000000000000000000000000000000000000000000000000000000000000000000000000000000000000000000000000000000000000000000000000000000000000000000000000000000000000000000000000000000000000000000000000000000000000000000000000000000000000000000000000000000000000000000000000000000000000000000000000000000000000000000000000000000000000200000000000000000000000001f4412e384fd74b78aa912e567787f6b3649e5e0",
          "blockHash": "0x0ef69901f099ac8775b75e3a908fd831e7e0bb2f8b098017a333b218ede5c973",
          "blockNumber": "0xc0a6581",
          "transactionHash": "0x86cd546c8c481bb5c7f84f9cd3a9616b10e482d6bb6a423391db35d0a5116fe1",
          "transactionIndex": "0x4",
          "logIndex": "0x3",
          "removed": false
        }
      ],
      "logsBloom": "0x00000000000000400000000000000000000000000000000000800000000000000000000000004000000000000000000000000000000000000004000000000204000000000000000000000000000000000000000000000000000000000000000000000000000000000000000000010000000000000000000000000000000000400000000000000000000000000000000000000020000000000000000000000000000000000000000000000000000100000000000000000000000000000000000000000000000000000000000000000000000000000000000000000000000000000000000000000000000000000000000000000000008000000100000000000000",
      "type": "0x2",
      "transactionHash": "0x86cd546c8c481bb5c7f84f9cd3a9616b10e482d6bb6a423391db35d0a5116fe1",
      "transactionIndex": "0x4",
      "blockHash": "0x0ef69901f099ac8775b75e3a908fd831e7e0bb2f8b098017a333b218ede5c973",
      "blockNumber": "0xc0a6581",
      "gasUsed": "0x4ceb4",
      "effectiveGasPrice": "0x6292600",
      "from": "0xeff3521fb13228c767ad6dc3b934f9efac9c56ad",
      "to": "0xeda2fd6af7b3d3255115811572354eeeaecefdf1",
      "contractAddress": null,
      "gasUsedForL1": "0x0",
      "l1BlockNumber": "0x8ed134",
      "timeboosted": false
    }
  ],
  "libraries": [],
  "pending": [],
  "returns": {},
  "timestamp": 1759812647,
  "chain": 421614,
  "commit": "2ad285e"
}