{
  "transactions": [
    {
      "hash": "0xc18ffafa44d67c564940c606af19ebd6aee49613c11633861af9ba3ba223d563",
      "transactionType": "CALL",
      "contractName": null,
      "contractAddress": "0x1facfb24b61346b28905b4d64517130e43236dc8",
      "function": "applyChainUpdates(uint64[],(uint64,bytes[],bytes,(bool,uint128,uint128),(bool,uint128,uint128))[])",
      "arguments": [
        "[]",
        "[(5224473277236331295, [0x000000000000000000000000eda2fd6af7b3d3255115811572354eeeaecefdf1], 0x0000000000000000000000008e110ce664fdd508b71dfca39b8618482993d8ad, (false, 0, 0), (false, 0, 0))]"
      ],
      "transaction": {
        "from": "0xeff3521fb13228c767ad6dc3b934f9efac9c56ad",
        "to": "0x1facfb24b61346b28905b4d64517130e43236dc8",
        "gas": "0x530da",
        "value": "0x0",
        "input": "0xe8a1da170000000000000000000000000000000000000000000000000000000000000040000000000000000000000000000000000000000000000000000000000000006000000000000000000000000000000000000000000000000000000000000000000000000000000000000000000000000000000000000000000000000000000001000000000000000000000000000000000000000000000000000000000000002000000000000000000000000000000000000000000000000048810ec3e431431f000000000000000000000000000000000000000000000000000000000000012000000000000000000000000000000000000000000000000000000000000001a0000000000000000000000000000000000000000000000000000000000000000000000000000000000000000000000000000000000000000000000000000000000000000000000000000000000000000000000000000000000000000000000000000000000000000000000000000000000000000000000000000000000000000000000000000000000000000000000000000000000000000000000000000000000000000000000000000000000000000000000000000000000000000000000000000000000000000000000000000000000000000000000000000000000000000100000000000000000000000000000000000000000000000000000000000000200000000000000000000000000000000000000000000000000000000000000020000000000000000000000000eda2fd6af7b3d3255115811572354eeeaecefdf100000000000000000000000000000000000000000000000000000000000000200000000000000000000000008e110ce664fdd508b71dfca39b8618482993d8ad",
        "nonce": "0x1c",
        "chainId": "0x66eee"
      },
      "additionalContracts": [],
      "isFixedGasLimit": false
    }
  ],
  "receipts": [
    {
      "status": "0x1",
      "cumulativeGasUsed": "0xac146",
      "logs": [
        {
          "address": "0x1facfb24b61346b28905b4d64517130e43236dc8",
          "topics": [
            "0x7d628c9a1796743d365ab521a8b2a4686e419b3269919dc9145ea2ce853b54ea",
            "0x00000000000000000000000000000000000000000000000048810ec3e431431f"
          ],
          "data": "0x00000000000000000000000000000000000000000000000000000000000000200000000000000000000000000000000000000000000000000000000000000020000000000000000000000000eda2fd6af7b3d3255115811572354eeeaecefdf1",
          "blockHash": "0x31fbe6b7b9b9d279140b00fcb7555fcb482808d5d50d262923646375c9b70485",
          "blockNumber": "0xc1afdc2",
          "transactionHash": "0xc18ffafa44d67c564940c606af19ebd6aee49613c11633861af9ba3ba223d563",
          "transactionIndex": "0x8",
          "logIndex": "0x5",
          "removed": false
        },
        {
          "address": "0x1facfb24b61346b28905b4d64517130e43236dc8",
          "topics": [
            "0x8d340f17e19058004c20453540862a9c62778504476f6756755cb33bcd6c38c2"
          ],
          "data": "0x00000000000000000000000000000000000000000000000048810ec3e431431f000000000000000000000000000000000000000000000000000000000000010000000000000000000000000000000000000000000000000000000000000000000000000000000000000000000000000000000000000000000000000000000000000000000000000000000000000000000000000000000000000000000000000000000000000000000000000000000000000000000000000000000000000000000000000000000000000000000000000000000000000000000000000000000000000000000000000000000000000000000000000000000000000000000000000000000000000000000000000000000000000000000000000000000000000000200000000000000000000000008e110ce664fdd508b71dfca39b8618482993d8ad",
          "blockHash": "0x31fbe6b7b9b9d279140b00fcb7555fcb482808d5d50d262923646375c9b70485",
          "blockNumber": "0xc1afdc2",
          "transactionHash": "0xc18ffafa44d67c564940c606af19ebd6aee49613c11633861af9ba3ba223d563",
          "transactionIndex": "0x8",
          "logIndex": "0x6",
          "removed": false
        }
      ],
      "logsBloom": "0x00000000000000400000000000100000000000000000000000000000000000000000000000000000000000000000000000000000000000000004000000000004000000000000000000000000000000000000000000000000000000000000000000000000000000000000000000000000000000000000000000000000000000400000000000000001000000000000000000010000000000000000000000000000000000000000000000000000000000000000000000000000000000000000000000000000080000000000000000000000000000000000000000000000000000000000080000000000000000000000000000000000008000020100000000000000",
      "type": "0x2",
      "transactionHash": "0xc18ffafa44d67c564940c606af19ebd6aee49613c11633861af9ba3ba223d563",
      "transactionIndex": "0x8",
      "blockHash": "0x31fbe6b7b9b9d279140b00fcb7555fcb482808d5d50d262923646375c9b70485",
      "blockNumber": "0xc1afdc2",
      "gasUsed": "0x3f19f",
      "effectiveGasPrice": "0x5f5e100",
      "from": "0xeff3521fb13228c767ad6dc3b934f9efac9c56ad",
      "to": "0x1facfb24b61346b28905b4d64517130e43236dc8",
      "contractAddress": null,
      "gasUsedForL1": "0x0",
      "l1BlockNumber": "0x8f25cd",
      "timeboosted": false
    }
  ],
  "libraries": [],
  "pending": [],
  "returns": {},
  "timestamp": 1760084713,
  "chain": 421614,
  "commit": "8557215"
}