{
  "transactions": [
    {
      "hash": "0x2e28b36f3586caf50caf7481b41433b1b0fdd88beaf260c02d2bfd3c3be4f205",
      "transactionType": "CALL",
      "contractName": null,
      "contractAddress": "0x779877a7b0d9e8603169ddbd7836e478b4624789",
      "function": "approve(address,uint256)",
      "arguments": [
        "0x0BF3dE8c5D3e8A2B34D2BEeB17ABfCeBaf363A59",
        "10337132635188376"
      ],
      "transaction": {
        "from": "0xeff3521fb13228c767ad6dc3b934f9efac9c56ad",
        "to": "0x779877a7b0d9e8603169ddbd7836e478b4624789",
        "gas": "0x1081f",
        "value": "0x0",
        "input": "0x095ea7b30000000000000000000000000bf3de8c5d3e8a2b34d2beeb17abfcebaf363a590000000000000000000000000000000000000000000000000024b9913eb76c98",
        "nonce": "0x86",
        "chainId": "0xaa36a7"
      },
      "additionalContracts": [],
      "isFixedGasLimit": false
    },
    {
      "hash": "0xd1a409555aa0fbd2624fcaf4532e44ab91fa2b45dccd709852072f0ef5f02445",
      "transactionType": "CALL",
      "contractName": null,
      "contractAddress": "0x9ddcb877b4bf4e0674e56fe2b6cedd497fb87ffc",
      "function": "approve(address,uint256)",
      "arguments": [
        "0x0BF3dE8c5D3e8A2B34D2BEeB17ABfCeBaf363A59",
        "20000000000000"
      ],
      "transaction": {
        "from": "0xeff3521fb13228c767ad6dc3b934f9efac9c56ad",
        "to": "0x9ddcb877b4bf4e0674e56fe2b6cedd497fb87ffc",
        "gas": "0x10c4a",
        "value": "0x0",
        "input": "0x095ea7b30000000000000000000000000bf3de8c5d3e8a2b34d2beeb17abfcebaf363a59000000000000000000000000000000000000000000000000000012309ce54000",
        "nonce": "0x87",
        "chainId": "0xaa36a7"
      },
      "additionalContracts": [],
      "isFixedGasLimit": false
    },
    {
      "hash": "0xfb4e7e864f006be272ea2112fd42c857a6ba7c5eea8ea130678e1e7e12382e34",
      "transactionType": "CALL",
      "contractName": null,
      "contractAddress": "0x0bf3de8c5d3e8a2b34d2beeb17abfcebaf363a59",
      "function": "ccipSend(uint64,(bytes,bytes,(address,uint256)[],address,bytes))",
      "arguments": [
        "10344971235874465080",
        "(0x000000000000000000000000eff3521fb13228c767ad6dc3b934f9efac9c56ad, 0x, [(0x9dDcB877B4bF4e0674E56fe2b6cedd497FB87FFc, 20000000000000)], 0x779877A7B0D9E8603169DdbD7836e478b4624789, 0x97a657c90000000000000000000000000000000000000000000000000000000000000000)"
      ],
      "transaction": {
        "from": "0xeff3521fb13228c767ad6dc3b934f9efac9c56ad",
        "to": "0x0bf3de8c5d3e8a2b34d2beeb17abfcebaf363a59",
        "gas": "0x521a2",
        "value": "0x0",
        "input": "0x96f4e9f90000000000000000000000000000000000000000000000008f90b8876dee6538000000000000000000000000000000000000000000000000000000000000004000000000000000000000000000000000000000000000000000000000000000a000000000000000000000000000000000000000000000000000000000000000e00000000000000000000000000000000000000000000000000000000000000100000000000000000000000000779877a7b0d9e8603169ddbd7836e478b462478900000000000000000000000000000000000000000000000000000000000001600000000000000000000000000000000000000000000000000000000000000020000000000000000000000000eff3521fb13228c767ad6dc3b934f9efac9c56ad000000000000000000000000000000000000000000000000000000000000000000000000000000000000000000000000000000000000000000000000000000010000000000000000000000009ddcb877b4bf4e0674e56fe2b6cedd497fb87ffc000000000000000000000000000000000000000000000000000012309ce54000000000000000000000000000000000000000000000000000000000000000002497a657c9000000000000000000000000000000000000000000000000000000000000000000000000000000000000000000000000000000000000000000000000",
        "nonce": "0x88",
        "chainId": "0xaa36a7"
      },
      "additionalContracts": [],
      "isFixedGasLimit": false
    }
  ],
  "receipts": [
    {
      "status": "0x1",
      "cumulativeGasUsed": "0xf4e36b",
      "logs": [
        {
          "address": "0x779877a7b0d9e8603169ddbd7836e478b4624789",
          "topics": [
            "0x8c5be1e5ebec7d5bd14f71427d1e84f3dd0314c0f7b2291e5b200ac8c7c3b925",
            "0x000000000000000000000000eff3521fb13228c767ad6dc3b934f9efac9c56ad",
            "0x0000000000000000000000000bf3de8c5d3e8a2b34d2beeb17abfcebaf363a59"
          ],
          "data": "0x0000000000000000000000000000000000000000000000000024b9913eb76c98",
          "blockHash": "0xe003dadbdec7281ba017801be1b6f6c8c8c920b5c5ead9d0c42a850eef492656",
          "blockNumber": "0x8f26b4",
          "blockTimestamp": "0x68e8ce28",
          "transactionHash": "0x2e28b36f3586caf50caf7481b41433b1b0fdd88beaf260c02d2bfd3c3be4f205",
          "transactionIndex": "0x6a",
          "logIndex": "0xfc",
          "removed": false
        }
      ],
      "logsBloom": "0x00000004000040000000000000000000000000000000000000000000000000020000000000000000000000000000000000000000000000000000000000200000000000000000000000000000000000000000000000000000002000000000000000000000000100000000000000000000000000000000000000000000000000000000000000000000000000000000800000000000000000000000000000000000020000000000080000000000000000000000100000000000000000000000000000000000000000000000000000000000000000000000000100000000000000000010000000000000000000000000000000000000000000000000000000000000",
      "type": "0x2",
      "transactionHash": "0x2e28b36f3586caf50caf7481b41433b1b0fdd88beaf260c02d2bfd3c3be4f205",
      "transactionIndex": "0x6a",
      "blockHash": "0xe003dadbdec7281ba017801be1b6f6c8c8c920b5c5ead9d0c42a850eef492656",
      "blockNumber": "0x8f26b4",
      "gasUsed": "0xb499",
      "effectiveGasPrice": "0xf42ce",
      "from": "0xeff3521fb13228c767ad6dc3b934f9efac9c56ad",
      "to": "0x779877a7b0d9e8603169ddbd7836e478b4624789",
      "contractAddress": null
    },
    {
      "status": "0x1",
      "cumulativeGasUsed": "0xf59ade",
      "logs": [
        {
          "address": "0x9ddcb877b4bf4e0674e56fe2b6cedd497fb87ffc",
          "topics": [
            "0x8c5be1e5ebec7d5bd14f71427d1e84f3dd0314c0f7b2291e5b200ac8c7c3b925",
            "0x000000000000000000000000eff3521fb13228c767ad6dc3b934f9efac9c56ad",
            "0x0000000000000000000000000bf3de8c5d3e8a2b34d2beeb17abfcebaf363a59"
          ],
          "data": "0x000000000000000000000000000000000000000000000000000012309ce54000",
          "blockHash": "0xe003dadbdec7281ba017801be1b6f6c8c8c920b5c5ead9d0c42a850eef492656",
          "blockNumber": "0x8f26b4",
          "blockTimestamp": "0x68e8ce28",
          "transactionHash": "0xd1a409555aa0fbd2624fcaf4532e44ab91fa2b45dccd709852072f0ef5f02445",
          "transactionIndex": "0x6b",
          "logIndex": "0xfd",
          "removed": false
        }
      ],
      "logsBloom": "0x00000000000040000000000000000000000000000000000000000000000000020000000000000000000000000000000000000000000000000000000000200000000000000002000000000000000000000000000000000000002000000000000000000000000100000000000000000000000000000000000000000000000000000000000000000000000000000000000000000000000000000000000000000000020000000000080000000000000000000000500000000000000000000000000000000000000000000000000000000000000000000000000000000000000000000010000000000000000000000000000000000000000000000000000000000004",
      "type": "0x2",
      "transactionHash": "0xd1a409555aa0fbd2624fcaf4532e44ab91fa2b45dccd709852072f0ef5f02445",
      "transactionIndex": "0x6b",
      "blockHash": "0xe003dadbdec7281ba017801be1b6f6c8c8c920b5c5ead9d0c42a850eef492656",
      "blockNumber": "0x8f26b4",
      "gasUsed": "0xb773",
      "effectiveGasPrice": "0xf42ce",
      "from": "0xeff3521fb13228c767ad6dc3b934f9efac9c56ad",
      "to": "0x9ddcb877b4bf4e0674e56fe2b6cedd497fb87ffc",
      "contractAddress": null
    },
    {
      "status": "0x1",
      "cumulativeGasUsed": "0xf951eb",
      "logs": [
        {
          "address": "0x779877a7b0d9e8603169ddbd7836e478b4624789",
          "topics": [
            "0xddf252ad1be2c89b69c2b068fc378daa952ba7f163c4a11628f55a4df523b3ef",
            "0x000000000000000000000000eff3521fb13228c767ad6dc3b934f9efac9c56ad",
            "0x0000000000000000000000008f35b097022135e0f46831f798a240cc8c4b0b01"
          ],
          "data": "0x0000000000000000000000000000000000000000000000000024b9913eb76c98",
          "blockHash": "0xe003dadbdec7281ba017801be1b6f6c8c8c920b5c5ead9d0c42a850eef492656",
          "blockNumber": "0x8f26b4",
          "blockTimestamp": "0x68e8ce28",
          "transactionHash": "0xfb4e7e864f006be272ea2112fd42c857a6ba7c5eea8ea130678e1e7e12382e34",
          "transactionIndex": "0x6c",
          "logIndex": "0xfe",
          "removed": false
        },
        {
          "address": "0x779877a7b0d9e8603169ddbd7836e478b4624789",
          "topics": [
            "0x8c5be1e5ebec7d5bd14f71427d1e84f3dd0314c0f7b2291e5b200ac8c7c3b925",
            "0x000000000000000000000000eff3521fb13228c767ad6dc3b934f9efac9c56ad",
            "0x0000000000000000000000000bf3de8c5d3e8a2b34d2beeb17abfcebaf363a59"
          ],
          "data": "0x0000000000000000000000000000000000000000000000000000000000000000",
          "blockHash": "0xe003dadbdec7281ba017801be1b6f6c8c8c920b5c5ead9d0c42a850eef492656",
          "blockNumber": "0x8f26b4",
          "blockTimestamp": "0x68e8ce28",
          "transactionHash": "0xfb4e7e864f006be272ea2112fd42c857a6ba7c5eea8ea130678e1e7e12382e34",
          "transactionIndex": "0x6c",
          "logIndex": "0xff",
          "removed": false
        },
        {
          "address": "0x9ddcb877b4bf4e0674e56fe2b6cedd497fb87ffc",
          "topics": [
            "0xddf252ad1be2c89b69c2b068fc378daa952ba7f163c4a11628f55a4df523b3ef",
            "0x0000000000000000000000000000000000000000000000000000000000000000",
            "0x000000000000000000000000eff3521fb13228c767ad6dc3b934f9efac9c56ad"
          ],
          "data": "0x0000000000000000000000000000000000000000000000000000000ea8d77100",
          "blockHash": "0xe003dadbdec7281ba017801be1b6f6c8c8c920b5c5ead9d0c42a850eef492656",
          "blockNumber": "0x8f26b4",
          "blockTimestamp": "0x68e8ce28",
          "transactionHash": "0xfb4e7e864f006be272ea2112fd42c857a6ba7c5eea8ea130678e1e7e12382e34",
          "transactionIndex": "0x6c",
          "logIndex": "0x100",
          "removed": false
        },
        {
          "address": "0x9ddcb877b4bf4e0674e56fe2b6cedd497fb87ffc",
          "topics": [
            "0xddf252ad1be2c89b69c2b068fc378daa952ba7f163c4a11628f55a4df523b3ef",
            "0x0000000000000000000000000000000000000000000000000000000000000000",
            "0x000000000000000000000000e3f048618be93445341635f7d6371703414797a8"
          ],
          "data": "0x0000000000000000000000000000000000000000000000000000000000000000",
          "blockHash": "0xe003dadbdec7281ba017801be1b6f6c8c8c920b5c5ead9d0c42a850eef492656",
          "blockNumber": "0x8f26b4",
          "blockTimestamp": "0x68e8ce28",
          "transactionHash": "0xfb4e7e864f006be272ea2112fd42c857a6ba7c5eea8ea130678e1e7e12382e34",
          "transactionIndex": "0x6c",
          "logIndex": "0x101",
          "removed": false
        },
        {
          "address": "0x9ddcb877b4bf4e0674e56fe2b6cedd497fb87ffc",
          "topics": [
            "0xddf252ad1be2c89b69c2b068fc378daa952ba7f163c4a11628f55a4df523b3ef",
            "0x000000000000000000000000eff3521fb13228c767ad6dc3b934f9efac9c56ad",
            "0x000000000000000000000000e3f048618be93445341635f7d6371703414797a8"
          ],
          "data": "0x000000000000000000000000000000000000000000000000000012309ce54000",
          "blockHash": "0xe003dadbdec7281ba017801be1b6f6c8c8c920b5c5ead9d0c42a850eef492656",
          "blockNumber": "0x8f26b4",
          "blockTimestamp": "0x68e8ce28",
          "transactionHash": "0xfb4e7e864f006be272ea2112fd42c857a6ba7c5eea8ea130678e1e7e12382e34",
          "transactionIndex": "0x6c",
          "logIndex": "0x102",
          "removed": false
        },
        {
          "address": "0x9ddcb877b4bf4e0674e56fe2b6cedd497fb87ffc",
          "topics": [
            "0xddf252ad1be2c89b69c2b068fc378daa952ba7f163c4a11628f55a4df523b3ef",
            "0x0000000000000000000000000000000000000000000000000000000000000000",
            "0x000000000000000000000000e3f048618be93445341635f7d6371703414797a8"
          ],
          "data": "0x0000000000000000000000000000000000000000000000000000000000000000",
          "blockHash": "0xe003dadbdec7281ba017801be1b6f6c8c8c920b5c5ead9d0c42a850eef492656",
          "blockNumber": "0x8f26b4",
          "blockTimestamp": "0x68e8ce28",
          "transactionHash": "0xfb4e7e864f006be272ea2112fd42c857a6ba7c5eea8ea130678e1e7e12382e34",
          "transactionIndex": "0x6c",
          "logIndex": "0x103",
          "removed": false
        },
        {
          "address": "0x9ddcb877b4bf4e0674e56fe2b6cedd497fb87ffc",
          "topics": [
            "0xddf252ad1be2c89b69c2b068fc378daa952ba7f163c4a11628f55a4df523b3ef",
            "0x000000000000000000000000e3f048618be93445341635f7d6371703414797a8",
            "0x0000000000000000000000000000000000000000000000000000000000000000"
          ],
          "data": "0x000000000000000000000000000000000000000000000000000012309ce54000",
          "blockHash": "0xe003dadbdec7281ba017801be1b6f6c8c8c920b5c5ead9d0c42a850eef492656",
          "blockNumber": "0x8f26b4",
          "blockTimestamp": "0x68e8ce28",
          "transactionHash": "0xfb4e7e864f006be272ea2112fd42c857a6ba7c5eea8ea130678e1e7e12382e34",
          "transactionIndex": "0x6c",
          "logIndex": "0x104",
          "removed": false
        },
        {
          "address": "0x8f35b097022135e0f46831f798a240cc8c4b0b01",
          "topics": [
            "0xd0c3c799bf9e2639de44391e7f524d229b2b55f5b1ea94b2bf7da42f7243dddd"
          ],
          "data": "0x0000000000000000000000000000000000000000000000000000000000000020000000000000000000000000000000000000000000000000de41ba4fc9d91ad9000000000000000000000000eff3521fb13228c767ad6dc3b934f9efac9c56ad000000000000000000000000eff3521fb13228c767ad6dc3b934f9efac9c56ad0000000000000000000000000000000000000000000000000000000000005add000000000000000000000000000000000000000000000000000000000000000000000000000000000000000000000000000000000000000000000000000000000000000000000000000000000000000000000000000000000000000000000001000000000000000000000000779877a7b0d9e8603169ddbd7836e478b46247890000000000000000000000000000000000000000000000000024b9913eb76c9800000000000000000000000000000000000000000000000000000000000001a000000000000000000000000000000000000000000000000000000000000001c00000000000000000000000000000000000000000000000000000000000000220599d9dc3b00321a5ac19cd9797dfc6967bd1cd5f8b5992cdd9d274ba796b5500000000000000000000000000000000000000000000000000000000000000000000000000000000000000000000000000000000000000000000000000000000010000000000000000000000009ddcb877b4bf4e0674e56fe2b6cedd497fb87ffc000000000000000000000000000000000000000000000000000012309ce540000000000000000000000000000000000000000000000000000000000000000001000000000000000000000000000000000000000000000000000000000000002000000000000000000000000000000000000000000000000000000000000001600000000000000000000000000000000000000000000000000000000000000020000000000000000000000000000000000000000000000000000000000000008000000000000000000000000000000000000000000000000000000000000000c000000000000000000000000000000000000000000000000000000000000001000000000000000000000000000000000000000000000000000000000000015f900000000000000000000000000000000000000000000000000000000000000020000000000000000000000000e3f048618be93445341635f7d6371703414797a800000000000000000000000000000000000000000000000000000000000000200000000000000000000000008e110ce664fdd508b71dfca39b8618482993d8ad00000000000000000000000000000000000000000000000000000000000000200000000000000000000000000000000000000000000000000000000ba43b7400",
          "blockHash": "0xe003dadbdec7281ba017801be1b6f6c8c8c920b5c5ead9d0c42a850eef492656",
          "blockNumber": "0x8f26b4",
          "blockTimestamp": "0x68e8ce28",
          "transactionHash": "0xfb4e7e864f006be272ea2112fd42c857a6ba7c5eea8ea130678e1e7e12382e34",
          "transactionIndex": "0x6c",
          "logIndex": "0x105",
          "removed": false
        }
      ],
      "logsBloom": "0x00000004000040000000000200000000000000000000000000000000008000020000000000000000000000000000000000000000000040000000000000200000000000000002000000000008000000000000000000000000002000000000000000000000020100000000000010000800000000000800000000000010000000000000000000000000000000000000800000000000000000000000000000000000020000000000080400000000000000000000500000000000002100000000000000000002000000100000000000080000000000000000000100000000000020000010004000000000000000000000000004000000000000000000000000000004",
      "type": "0x2",
      "transactionHash": "0xfb4e7e864f006be272ea2112fd42c857a6ba7c5eea8ea130678e1e7e12382e34",
      "transactionIndex": "0x6c",
      "blockHash": "0xe003dadbdec7281ba017801be1b6f6c8c8c920b5c5ead9d0c42a850eef492656",
      "blockNumber": "0x8f26b4",
      "gasUsed": "0x3b70d",
      "effectiveGasPrice": "0xf42ce",
      "from": "0xeff3521fb13228c767ad6dc3b934f9efac9c56ad",
      "to": "0x0bf3de8c5d3e8a2b34d2beeb17abfcebaf363a59",
      "contractAddress": null
    }
  ],
  "libraries": [],
  "pending": [],
  "returns": {},
  "timestamp": 1760087595,
  "chain": 11155111,
  "commit": "8557215"
}