{
  "transactions": [
    {
      "hash": "0x04db509113897441e137173546638dc5d0d8f51f7f2412cb5972cbbbc6cdc2c9",
      "transactionType": "CALL",
      "contractName": null,
      "contractAddress": "0x779877a7b0d9e8603169ddbd7836e478b4624789",
      "function": "approve(address,uint256)",
      "arguments": [
        "0x0BF3dE8c5D3e8A2B34D2BEeB17ABfCeBaf363A59",
        "62013692274117276"
      ],
      "transaction": {
        "from": "0xeff3521fb13228c767ad6dc3b934f9efac9c56ad",
        "to": "0x779877a7b0d9e8603169ddbd7836e478b4624789",
        "gas": "0x1081f",
        "value": "0x0",
        "input": "0x095ea7b30000000000000000000000000bf3de8c5d3e8a2b34d2beeb17abfcebaf363a5900000000000000000000000000000000000000000000000000dc511fe3358a9c",
        "nonce": "0x89",
        "chainId": "0xaa36a7"
      },
      "additionalContracts": [],
      "isFixedGasLimit": false
    },
    {
      "hash": "0xcae912107de62ae5dd3cdb0225150280013966d4c3f2b6960d6617cfcc96715b",
      "transactionType": "CALL",
      "contractName": null,
      "contractAddress": "0x9ddcb877b4bf4e0674e56fe2b6cedd497fb87ffc",
      "function": "approve(address,uint256)",
      "arguments": [
        "0x0BF3dE8c5D3e8A2B34D2BEeB17ABfCeBaf363A59",
        "30000000000000"
      ],
      "transaction": {
        "from": "0xeff3521fb13228c767ad6dc3b934f9efac9c56ad",
        "to": "0x9ddcb877b4bf4e0674e56fe2b6cedd497fb87ffc",
        "gas": "0x10c4a",
        "value": "0x0",
        "input": "0x095ea7b30000000000000000000000000bf3de8c5d3e8a2b34d2beeb17abfcebaf363a5900000000000000000000000000000000000000000000000000001b48eb57e000",
        "nonce": "0x8a",
        "chainId": "0xaa36a7"
      },
      "additionalContracts": [],
      "isFixedGasLimit": false
    },
    {
      "hash": "0x4e36764e4acc5ab30c61f79fbbbe5b8149ec91652cebccf98bdb992dd9853392",
      "transactionType": "CALL",
      "contractName": null,
      "contractAddress": "0x0bf3de8c5d3e8a2b34d2beeb17abfcebaf363a59",
      "function": "ccipSend(uint64,(bytes,bytes,(address,uint256)[],address,bytes))",
      "arguments": [
        "14135854469784514356",
        "(0x000000000000000000000000eff3521fb13228c767ad6dc3b934f9efac9c56ad, 0x, [(0x9dDcB877B4bF4e0674E56fe2b6cedd497FB87FFc, 30000000000000)], 0x779877A7B0D9E8603169DdbD7836e478b4624789, 0x97a657c90000000000000000000000000000000000000000000000000000000000000000)"
      ],
      "transaction": {
        "from": "0xeff3521fb13228c767ad6dc3b934f9efac9c56ad",
        "to": "0x0bf3de8c5d3e8a2b34d2beeb17abfcebaf363a59",
        "gas": "0x4f786",
        "value": "0x0",
        "input": "0x96f4e9f9000000000000000000000000000000000000000000000000c42ca4becc1faf34000000000000000000000000000000000000000000000000000000000000004000000000000000000000000000000000000000000000000000000000000000a000000000000000000000000000000000000000000000000000000000000000e00000000000000000000000000000000000000000000000000000000000000100000000000000000000000000779877a7b0d9e8603169ddbd7836e478b462478900000000000000000000000000000000000000000000000000000000000001600000000000000000000000000000000000000000000000000000000000000020000000000000000000000000eff3521fb13228c767ad6dc3b934f9efac9c56ad000000000000000000000000000000000000000000000000000000000000000000000000000000000000000000000000000000000000000000000000000000010000000000000000000000009ddcb877b4bf4e0674e56fe2b6cedd497fb87ffc00000000000000000000000000000000000000000000000000001b48eb57e000000000000000000000000000000000000000000000000000000000000000002497a657c9000000000000000000000000000000000000000000000000000000000000000000000000000000000000000000000000000000000000000000000000",
        "nonce": "0x8b",
        "chainId": "0xaa36a7"
      },
      "additionalContracts": [],
      "isFixedGasLimit": false
    }
  ],
  "receipts": [
    {
      "status": "0x1",
      "cumulativeGasUsed": "0x24b94af",
      "logs": [
        {
          "address": "0x779877a7b0d9e8603169ddbd7836e478b4624789",
          "topics": [
            "0x8c5be1e5ebec7d5bd14f71427d1e84f3dd0314c0f7b2291e5b200ac8c7c3b925",
            "0x000000000000000000000000eff3521fb13228c767ad6dc3b934f9efac9c56ad",
            "0x0000000000000000000000000bf3de8c5d3e8a2b34d2beeb17abfcebaf363a59"
          ],
          "data": "0x00000000000000000000000000000000000000000000000000dc511fe3358a9c",
          "blockHash": "0xca58e79da06921689e2fc53ea563bc1adcc3e7962f90673ef35c1bbde5fc25f2",
          "blockNumber": "0x8f26bc",
          "blockTimestamp": "0x68e8ce88",
          "transactionHash": "0x04db509113897441e137173546638dc5d0d8f51f7f2412cb5972cbbbc6cdc2c9",
          "transactionIndex": "0xcf",
          "logIndex": "0xf7",
          "removed": false
        }
      ],
      "logsBloom": "0x00000004000040000000000000000000000000000000000000000000000000020000000000000000000000000000000000000000000000000000000000200000000000000000000000000000000000000000000000000000002000000000000000000000000100000000000000000000000000000000000000000000000000000000000000000000000000000000800000000000000000000000000000000000020000000000080000000000000000000000100000000000000000000000000000000000000000000000000000000000000000000000000100000000000000000010000000000000000000000000000000000000000000000000000000000000",
      "type": "0x2",
      "transactionHash": "0x04db509113897441e137173546638dc5d0d8f51f7f2412cb5972cbbbc6cdc2c9",
      "transactionIndex": "0xcf",
      "blockHash": "0xca58e79da06921689e2fc53ea563bc1adcc3e7962f90673ef35c1bbde5fc25f2",
      "blockNumber": "0x8f26bc",
      "gasUsed": "0xb499",
      "effectiveGasPrice": "0xf42c3",
      "from": "0xeff3521fb13228c767ad6dc3b934f9efac9c56ad",
      "to": "0x779877a7b0d9e8603169ddbd7836e478b4624789",
      "contractAddress": null
    },
    {
      "status": "0x1",
      "cumulativeGasUsed": "0x24c4c22",
      "logs": [
        {
          "address": "0x9ddcb877b4bf4e0674e56fe2b6cedd497fb87ffc",
          "topics": [
            "0x8c5be1e5ebec7d5bd14f71427d1e84f3dd0314c0f7b2291e5b200ac8c7c3b925",
            "0x000000000000000000000000eff3521fb13228c767ad6dc3b934f9efac9c56ad",
            "0x0000000000000000000000000bf3de8c5d3e8a2b34d2beeb17abfcebaf363a59"
          ],
          "data": "0x00000000000000000000000000000000000000000000000000001b48eb57e000",
          "blockHash": "0xca58e79da06921689e2fc53ea563bc1adcc3e7962f90673ef35c1bbde5fc25f2",
          "blockNumber": "0x8f26bc",
          "blockTimestamp": "0x68e8ce88",
          "transactionHash": "0xcae912107de62ae5dd3cdb0225150280013966d4c3f2b6960d6617cfcc96715b",
          "transactionIndex": "0xd0",
          "logIndex": "0xf8",
          "removed": false
        }
      ],
      "logsBloom": "0x00000000000040000000000000000000000000000000000000000000000000020000000000000000000000000000000000000000000000000000000000200000000000000002000000000000000000000000000000000000002000000000000000000000000100000000000000000000000000000000000000000000000000000000000000000000000000000000000000000000000000000000000000000000020000000000080000000000000000000000500000000000000000000000000000000000000000000000000000000000000000000000000000000000000000000010000000000000000000000000000000000000000000000000000000000004",
      "type": "0x2",
      "transactionHash": "0xcae912107de62ae5dd3cdb0225150280013966d4c3f2b6960d6617cfcc96715b",
      "transactionIndex": "0xd0",
      "blockHash": "0xca58e79da06921689e2fc53ea563bc1adcc3e7962f90673ef35c1bbde5fc25f2",
      "blockNumber": "0x8f26bc",
      "gasUsed": "0xb773",
      "effectiveGasPrice": "0xf42c3",
      "from": "0xeff3521fb13228c767ad6dc3b934f9efac9c56ad",
      "to": "0x9ddcb877b4bf4e0674e56fe2b6cedd497fb87ffc",
      "contractAddress": null
    },
    {
      "status": "0x1",
      "cumulativeGasUsed": "0x24fe4b2",
      "logs": [
        {
          "address": "0x779877a7b0d9e8603169ddbd7836e478b4624789",
          "topics": [
            "0xddf252ad1be2c89b69c2b068fc378daa952ba7f163c4a11628f55a4df523b3ef",
            "0x000000000000000000000000eff3521fb13228c767ad6dc3b934f9efac9c56ad",
            "0x000000000000000000000000f9212344e429272bbe653e7a820047638d3267a6"
          ],
          "data": "0x00000000000000000000000000000000000000000000000000dc511fe3358a9c",
          "blockHash": "0xca58e79da06921689e2fc53ea563bc1adcc3e7962f90673ef35c1bbde5fc25f2",
          "blockNumber": "0x8f26bc",
          "blockTimestamp": "0x68e8ce88",
          "transactionHash": "0x4e36764e4acc5ab30c61f79fbbbe5b8149ec91652cebccf98bdb992dd9853392",
          "transactionIndex": "0xd1",
          "logIndex": "0xf9",
          "removed": false
        },
        {
          "address": "0x779877a7b0d9e8603169ddbd7836e478b4624789",
          "topics": [
            "0x8c5be1e5ebec7d5bd14f71427d1e84f3dd0314c0f7b2291e5b200ac8c7c3b925",
            "0x000000000000000000000000eff3521fb13228c767ad6dc3b934f9efac9c56ad",
            "0x0000000000000000000000000bf3de8c5d3e8a2b34d2beeb17abfcebaf363a59"
          ],
          "data": "0x0000000000000000000000000000000000000000000000000000000000000000",
          "blockHash": "0xca58e79da06921689e2fc53ea563bc1adcc3e7962f90673ef35c1bbde5fc25f2",
          "blockNumber": "0x8f26bc",
          "blockTimestamp": "0x68e8ce88",
          "transactionHash": "0x4e36764e4acc5ab30c61f79fbbbe5b8149ec91652cebccf98bdb992dd9853392",
          "transactionIndex": "0xd1",
          "logIndex": "0xfa",
          "removed": false
        },
        {
          "address": "0x9ddcb877b4bf4e0674e56fe2b6cedd497fb87ffc",
          "topics": [
            "0xddf252ad1be2c89b69c2b068fc378daa952ba7f163c4a11628f55a4df523b3ef",
            "0x0000000000000000000000000000000000000000000000000000000000000000",
            "0x000000000000000000000000eff3521fb13228c767ad6dc3b934f9efac9c56ad"
          ],
          "data": "0x00000000000000000000000000000000000000000000000000000010bb41fc8a",
          "blockHash": "0xca58e79da06921689e2fc53ea563bc1adcc3e7962f90673ef35c1bbde5fc25f2",
          "blockNumber": "0x8f26bc",
          "blockTimestamp": "0x68e8ce88",
          "transactionHash": "0x4e36764e4acc5ab30c61f79fbbbe5b8149ec91652cebccf98bdb992dd9853392",
          "transactionIndex": "0xd1",
          "logIndex": "0xfb",
          "removed": false
        },
        {
          "address": "0x9ddcb877b4bf4e0674e56fe2b6cedd497fb87ffc",
          "topics": [
            "0xddf252ad1be2c89b69c2b068fc378daa952ba7f163c4a11628f55a4df523b3ef",
            "0x0000000000000000000000000000000000000000000000000000000000000000",
            "0x000000000000000000000000e3f048618be93445341635f7d6371703414797a8"
          ],
          "data": "0x0000000000000000000000000000000000000000000000000000000000000000",
          "blockHash": "0xca58e79da06921689e2fc53ea563bc1adcc3e7962f90673ef35c1bbde5fc25f2",
          "blockNumber": "0x8f26bc",
          "blockTimestamp": "0x68e8ce88",
          "transactionHash": "0x4e36764e4acc5ab30c61f79fbbbe5b8149ec91652cebccf98bdb992dd9853392",
          "transactionIndex": "0xd1",
          "logIndex": "0xfc",
          "removed": false
        },
        {
          "address": "0x9ddcb877b4bf4e0674e56fe2b6cedd497fb87ffc",
          "topics": [
            "0xddf252ad1be2c89b69c2b068fc378daa952ba7f163c4a11628f55a4df523b3ef",
            "0x000000000000000000000000eff3521fb13228c767ad6dc3b934f9efac9c56ad",
            "0x000000000000000000000000e3f048618be93445341635f7d6371703414797a8"
          ],
          "data": "0x00000000000000000000000000000000000000000000000000001b48eb57e000",
          "blockHash": "0xca58e79da06921689e2fc53ea563bc1adcc3e7962f90673ef35c1bbde5fc25f2",
          "blockNumber": "0x8f26bc",
          "blockTimestamp": "0x68e8ce88",
          "transactionHash": "0x4e36764e4acc5ab30c61f79fbbbe5b8149ec91652cebccf98bdb992dd9853392",
          "transactionIndex": "0xd1",
          "logIndex": "0xfd",
          "removed": false
        },
        {
          "address": "0x9ddcb877b4bf4e0674e56fe2b6cedd497fb87ffc",
          "topics": [
            "0xddf252ad1be2c89b69c2b068fc378daa952ba7f163c4a11628f55a4df523b3ef",
            "0x0000000000000000000000000000000000000000000000000000000000000000",
            "0x000000000000000000000000e3f048618be93445341635f7d6371703414797a8"
          ],
          "data": "0x0000000000000000000000000000000000000000000000000000000000000000",
          "blockHash": "0xca58e79da06921689e2fc53ea563bc1adcc3e7962f90673ef35c1bbde5fc25f2",
          "blockNumber": "0x8f26bc",
          "blockTimestamp": "0x68e8ce88",
          "transactionHash": "0x4e36764e4acc5ab30c61f79fbbbe5b8149ec91652cebccf98bdb992dd9853392",
          "transactionIndex": "0xd1",
          "logIndex": "0xfe",
          "removed": false
        },
        {
          "address": "0x9ddcb877b4bf4e0674e56fe2b6cedd497fb87ffc",
          "topics": [
            "0xddf252ad1be2c89b69c2b068fc378daa952ba7f163c4a11628f55a4df523b3ef",
            "0x000000000000000000000000e3f048618be93445341635f7d6371703414797a8",
            "0x0000000000000000000000000000000000000000000000000000000000000000"
          ],
          "data": "0x00000000000000000000000000000000000000000000000000001b48eb57e000",
          "blockHash": "0xca58e79da06921689e2fc53ea563bc1adcc3e7962f90673ef35c1bbde5fc25f2",
          "blockNumber": "0x8f26bc",
          "blockTimestamp": "0x68e8ce88",
          "transactionHash": "0x4e36764e4acc5ab30c61f79fbbbe5b8149ec91652cebccf98bdb992dd9853392",
          "transactionIndex": "0xd1",
          "logIndex": "0xff",
          "removed": false
        },
        {
          "address": "0xf9212344e429272bbe653e7a820047638d3267a6",
          "topics": [
            "0xd0c3c799bf9e2639de44391e7f524d229b2b55f5b1ea94b2bf7da42f7243dddd"
          ],
          "data": "0x0000000000000000000000000000000000000000000000000000000000000020000000000000000000000000000000000000000000000000de41ba4fc9d91ad9000000000000000000000000eff3521fb13228c767ad6dc3b934f9efac9c56ad000000000000000000000000eff3521fb13228c767ad6dc3b934f9efac9c56ad0000000000000000000000000000000000000000000000000000000000000a69000000000000000000000000000000000000000000000000000000000000000000000000000000000000000000000000000000000000000000000000000000000000000000000000000000000000000000000000000000000000000000000001000000000000000000000000779877a7b0d9e8603169ddbd7836e478b462478900000000000000000000000000000000000000000000000000dc511fe3358a9c00000000000000000000000000000000000000000000000000000000000001a000000000000000000000000000000000000000000000000000000000000001c00000000000000000000000000000000000000000000000000000000000000220c3bff8774b67fdf74e10b77054b0ddaf8a8306c02b412e70320376763ec5ec25000000000000000000000000000000000000000000000000000000000000000000000000000000000000000000000000000000000000000000000000000000010000000000000000000000009ddcb877b4bf4e0674e56fe2b6cedd497fb87ffc00000000000000000000000000000000000000000000000000001b48eb57e0000000000000000000000000000000000000000000000000000000000000000001000000000000000000000000000000000000000000000000000000000000002000000000000000000000000000000000000000000000000000000000000001600000000000000000000000000000000000000000000000000000000000000020000000000000000000000000000000000000000000000000000000000000008000000000000000000000000000000000000000000000000000000000000000c000000000000000000000000000000000000000000000000000000000000001000000000000000000000000000000000000000000000000000000000000015f900000000000000000000000000000000000000000000000000000000000000020000000000000000000000000e3f048618be93445341635f7d6371703414797a800000000000000000000000000000000000000000000000000000000000000200000000000000000000000008e110ce664fdd508b71dfca39b8618482993d8ad00000000000000000000000000000000000000000000000000000000000000200000000000000000000000000000000000000000000000000000000ba43b7400",
          "blockHash": "0xca58e79da06921689e2fc53ea563bc1adcc3e7962f90673ef35c1bbde5fc25f2",
          "blockNumber": "0x8f26bc",
          "blockTimestamp": "0x68e8ce88",
          "transactionHash": "0x4e36764e4acc5ab30c61f79fbbbe5b8149ec91652cebccf98bdb992dd9853392",
          "transactionIndex": "0xd1",
          "logIndex": "0x100",
          "removed": false
        }
      ],
      "logsBloom": "0x00000004000040000000000200000000000000000020000000000000000000020000000000000000000000000000000000000000000000000000000000200000000000000002000000000008000000000000004000000000002000000000000000000000020100004000000000000800000000000000000000000050000000000000000000000000000000000000800000002000000000000000000000000000020000000000080400000000000000000000500000000000002100000000000000000002000000000000000000000000000000000000000100000000000020000010004000000000000000000000000004000000000000000000400000000004",
      "type": "0x2",
      "transactionHash": "0x4e36764e4acc5ab30c61f79fbbbe5b8149ec91652cebccf98bdb992dd9853392",
      "transactionIndex": "0xd1",
      "blockHash": "0xca58e79da06921689e2fc53ea563bc1adcc3e7962f90673ef35c1bbde5fc25f2",
      "blockNumber": "0x8f26bc",
      "gasUsed": "0x39890",
      "effectiveGasPrice": "0xf42c3",
      "from": "0xeff3521fb13228c767ad6dc3b934f9efac9c56ad",
      "to": "0x0bf3de8c5d3e8a2b34d2beeb17abfcebaf363a59",
      "contractAddress": null
    }
  ],
  "libraries": [],
  "pending": [],
  "returns": {},
  "timestamp": 1760087690,
  "chain": 11155111,
  "commit": "8557215"
}