{
  "transactions": [
    {
      "hash": "0xb0f67c6b851082e15dc632ca5c8301728a501c56dd321719d81bdd280d8c6cd4",
      "transactionType": "CALL",
      "contractName": null,
      "contractAddress": "0x779877a7b0d9e8603169ddbd7836e478b4624789",
      "function": "approve(address,uint256)",
      "arguments": [
        "0x0BF3dE8c5D3e8A2B34D2BEeB17ABfCeBaf363A59",
        "21848785955364817"
      ],
      "transaction": {
        "from": "0xeff3521fb13228c767ad6dc3b934f9efac9c56ad",
        "to": "0x779877a7b0d9e8603169ddbd7836e478b4624789",
        "gas": "0x1081f",
        "value": "0x0",
        "input": "0x095ea7b30000000000000000000000000bf3de8c5d3e8a2b34d2beeb17abfcebaf363a59000000000000000000000000000000000000000000000000004d9f5ae5a49fd1",
        "nonce": "0x83",
        "chainId": "0xaa36a7"
      },
      "additionalContracts": [],
      "isFixedGasLimit": false
    },
    {
      "hash": "0x16b5b6588628e7bb9350032a339a3ad566801129f7af46a792d3cdc42d5a550c",
      "transactionType": "CALL",
      "contractName": null,
      "contractAddress": "0x9ddcb877b4bf4e0674e56fe2b6cedd497fb87ffc",
      "function": "approve(address,uint256)",
      "arguments": [
        "0x0BF3dE8c5D3e8A2B34D2BEeB17ABfCeBaf363A59",
        "10000000000000"
      ],
      "transaction": {
        "from": "0xeff3521fb13228c767ad6dc3b934f9efac9c56ad",
        "to": "0x9ddcb877b4bf4e0674e56fe2b6cedd497fb87ffc",
        "gas": "0x10c4a",
        "value": "0x0",
        "input": "0x095ea7b30000000000000000000000000bf3de8c5d3e8a2b34d2beeb17abfcebaf363a59000000000000000000000000000000000000000000000000000009184e72a000",
        "nonce": "0x84",
        "chainId": "0xaa36a7"
      },
      "additionalContracts": [],
      "isFixedGasLimit": false
    },
    {
      "hash": "0xab0c1cb8b7cc2b20f89f5d6db6ccac1ba15c015a3bb241ded50f08c461678f5a",
      "transactionType": "CALL",
      "contractName": null,
      "contractAddress": "0x0bf3de8c5d3e8a2b34d2beeb17abfcebaf363a59",
      "function": "ccipSend(uint64,(bytes,bytes,(address,uint256)[],address,bytes))",
      "arguments": [
        "3478487238524512106",
        "(0x000000000000000000000000eff3521fb13228c767ad6dc3b934f9efac9c56ad, 0x, [(0x9dDcB877B4bF4e0674E56fe2b6cedd497FB87FFc, 10000000000000)], 0x779877A7B0D9E8603169DdbD7836e478b4624789, 0x97a657c90000000000000000000000000000000000000000000000000000000000000000)"
      ],
      "transaction": {
        "from": "0xeff3521fb13228c767ad6dc3b934f9efac9c56ad",
        "to": "0x0bf3de8c5d3e8a2b34d2beeb17abfcebaf363a59",
        "gas": "0x56cb7",
        "value": "0x0",
        "input": "0x96f4e9f9000000000000000000000000000000000000000000000000304611b6affba76a000000000000000000000000000000000000000000000000000000000000004000000000000000000000000000000000000000000000000000000000000000a000000000000000000000000000000000000000000000000000000000000000e00000000000000000000000000000000000000000000000000000000000000100000000000000000000000000779877a7b0d9e8603169ddbd7836e478b462478900000000000000000000000000000000000000000000000000000000000001600000000000000000000000000000000000000000000000000000000000000020000000000000000000000000eff3521fb13228c767ad6dc3b934f9efac9c56ad000000000000000000000000000000000000000000000000000000000000000000000000000000000000000000000000000000000000000000000000000000010000000000000000000000009ddcb877b4bf4e0674e56fe2b6cedd497fb87ffc000000000000000000000000000000000000000000000000000009184e72a000000000000000000000000000000000000000000000000000000000000000002497a657c9000000000000000000000000000000000000000000000000000000000000000000000000000000000000000000000000000000000000000000000000",
        "nonce": "0x85",
        "chainId": "0xaa36a7"
      },
      "additionalContracts": [],
      "isFixedGasLimit": false
    }
  ],
  "receipts": [
    {
      "status": "0x1",
      "cumulativeGasUsed": "0x162bb49",
      "logs": [
        {
          "address": "0x779877a7b0d9e8603169ddbd7836e478b4624789",
          "topics": [
            "0x8c5be1e5ebec7d5bd14f71427d1e84f3dd0314c0f7b2291e5b200ac8c7c3b925",
            "0x000000000000000000000000eff3521fb13228c767ad6dc3b934f9efac9c56ad",
            "0x0000000000000000000000000bf3de8c5d3e8a2b34d2beeb17abfcebaf363a59"
          ],
          "data": "0x000000000000000000000000000000000000000000000000004d9f5ae5a49fd1",
          "blockHash": "0x4da6a9e6e04ec86921935cc7e257f87ae35cb82917f948b597d8cf4be7eaaf93",
          "blockNumber": "0x8f26ae",
          "blockTimestamp": "0x68e8cdd4",
          "transactionHash": "0xb0f67c6b851082e15dc632ca5c8301728a501c56dd321719d81bdd280d8c6cd4",
          "transactionIndex": "0x74",
          "logIndex": "0xa3",
          "removed": false
        }
      ],
      "logsBloom": "0x00000004000040000000000000000000000000000000000000000000000000020000000000000000000000000000000000000000000000000000000000200000000000000000000000000000000000000000000000000000002000000000000000000000000100000000000000000000000000000000000000000000000000000000000000000000000000000000800000000000000000000000000000000000020000000000080000000000000000000000100000000000000000000000000000000000000000000000000000000000000000000000000100000000000000000010000000000000000000000000000000000000000000000000000000000000",
      "type": "0x2",
      "transactionHash": "0xb0f67c6b851082e15dc632ca5c8301728a501c56dd321719d81bdd280d8c6cd4",
      "transactionIndex": "0x74",
      "blockHash": "0x4da6a9e6e04ec86921935cc7e257f87ae35cb82917f948b597d8cf4be7eaaf93",
      "blockNumber": "0x8f26ae",
      "gasUsed": "0xb499",
      "effectiveGasPrice": "0xf42b0",
      "from": "0xeff3521fb13228c767ad6dc3b934f9efac9c56ad",
      "to": "0x779877a7b0d9e8603169ddbd7836e478b4624789",
      "contractAddress": null
    },
    {
      "status": "0x1",
      "cumulativeGasUsed": "0x16372bc",
      "logs": [
        {
          "address": "0x9ddcb877b4bf4e0674e56fe2b6cedd497fb87ffc",
          "topics": [
            "0x8c5be1e5ebec7d5bd14f71427d1e84f3dd0314c0f7b2291e5b200ac8c7c3b925",
            "0x000000000000000000000000eff3521fb13228c767ad6dc3b934f9efac9c56ad",
            "0x0000000000000000000000000bf3de8c5d3e8a2b34d2beeb17abfcebaf363a59"
          ],
          "data": "0x000000000000000000000000000000000000000000000000000009184e72a000",
          "blockHash": "0x4da6a9e6e04ec86921935cc7e257f87ae35cb82917f948b597d8cf4be7eaaf93",
          "blockNumber": "0x8f26ae",
          "blockTimestamp": "0x68e8cdd4",
          "transactionHash": "0x16b5b6588628e7bb9350032a339a3ad566801129f7af46a792d3cdc42d5a550c",
          "transactionIndex": "0x75",
          "logIndex": "0xa4",
          "removed": false
        }
      ],
      "logsBloom": "0x00000000000040000000000000000000000000000000000000000000000000020000000000000000000000000000000000000000000000000000000000200000000000000002000000000000000000000000000000000000002000000000000000000000000100000000000000000000000000000000000000000000000000000000000000000000000000000000000000000000000000000000000000000000020000000000080000000000000000000000500000000000000000000000000000000000000000000000000000000000000000000000000000000000000000000010000000000000000000000000000000000000000000000000000000000004",
      "type": "0x2",
      "transactionHash": "0x16b5b6588628e7bb9350032a339a3ad566801129f7af46a792d3cdc42d5a550c",
      "transactionIndex": "0x75",
      "blockHash": "0x4da6a9e6e04ec86921935cc7e257f87ae35cb82917f948b597d8cf4be7eaaf93",
      "blockNumber": "0x8f26ae",
      "gasUsed": "0xb773",
      "effectiveGasPrice": "0xf42b0",
      "from": "0xeff3521fb13228c767ad6dc3b934f9efac9c56ad",
      "to": "0x9ddcb877b4bf4e0674e56fe2b6cedd497fb87ffc",
      "contractAddress": null
    },
    {
      "status": "0x1",
      "cumulativeGasUsed": "0x1676024",
      "logs": [
        {
          "address": "0x779877a7b0d9e8603169ddbd7836e478b4624789",
          "topics": [
            "0xddf252ad1be2c89b69c2b068fc378daa952ba7f163c4a11628f55a4df523b3ef",
            "0x000000000000000000000000eff3521fb13228c767ad6dc3b934f9efac9c56ad",
            "0x000000000000000000000000bc09627e58989ba8f1eda775e486467d2a00944f"
          ],
          "data": "0x000000000000000000000000000000000000000000000000004d9f5ae5a49fd1",
          "blockHash": "0x4da6a9e6e04ec86921935cc7e257f87ae35cb82917f948b597d8cf4be7eaaf93",
          "blockNumber": "0x8f26ae",
          "blockTimestamp": "0x68e8cdd4",
          "transactionHash": "0xab0c1cb8b7cc2b20f89f5d6db6ccac1ba15c015a3bb241ded50f08c461678f5a",
          "transactionIndex": "0x76",
          "logIndex": "0xa5",
          "removed": false
        },
        {
          "address": "0x779877a7b0d9e8603169ddbd7836e478b4624789",
          "topics": [
            "0x8c5be1e5ebec7d5bd14f71427d1e84f3dd0314c0f7b2291e5b200ac8c7c3b925",
            "0x000000000000000000000000eff3521fb13228c767ad6dc3b934f9efac9c56ad",
            "0x0000000000000000000000000bf3de8c5d3e8a2b34d2beeb17abfcebaf363a59"
          ],
          "data": "0x0000000000000000000000000000000000000000000000000000000000000000",
          "blockHash": "0x4da6a9e6e04ec86921935cc7e257f87ae35cb82917f948b597d8cf4be7eaaf93",
          "blockNumber": "0x8f26ae",
          "blockTimestamp": "0x68e8cdd4",
          "transactionHash": "0xab0c1cb8b7cc2b20f89f5d6db6ccac1ba15c015a3bb241ded50f08c461678f5a",
          "transactionIndex": "0x76",
          "logIndex": "0xa6",
          "removed": false
        },
        {
          "address": "0x9ddcb877b4bf4e0674e56fe2b6cedd497fb87ffc",
          "topics": [
            "0xddf252ad1be2c89b69c2b068fc378daa952ba7f163c4a11628f55a4df523b3ef",
            "0x0000000000000000000000000000000000000000000000000000000000000000",
            "0x000000000000000000000000eff3521fb13228c767ad6dc3b934f9efac9c56ad"
          ],
          "data": "0x000000000000000000000000000000000000000000000000000000eab17b6000",
          "blockHash": "0x4da6a9e6e04ec86921935cc7e257f87ae35cb82917f948b597d8cf4be7eaaf93",
          "blockNumber": "0x8f26ae",
          "blockTimestamp": "0x68e8cdd4",
          "transactionHash": "0xab0c1cb8b7cc2b20f89f5d6db6ccac1ba15c015a3bb241ded50f08c461678f5a",
          "transactionIndex": "0x76",
          "logIndex": "0xa7",
          "removed": false
        },
        {
          "address": "0x9ddcb877b4bf4e0674e56fe2b6cedd497fb87ffc",
          "topics": [
            "0xddf252ad1be2c89b69c2b068fc378daa952ba7f163c4a11628f55a4df523b3ef",
            "0x0000000000000000000000000000000000000000000000000000000000000000",
            "0x000000000000000000000000e3f048618be93445341635f7d6371703414797a8"
          ],
          "data": "0x0000000000000000000000000000000000000000000000000000000000000000",
          "blockHash": "0x4da6a9e6e04ec86921935cc7e257f87ae35cb82917f948b597d8cf4be7eaaf93",
          "blockNumber": "0x8f26ae",
          "blockTimestamp": "0x68e8cdd4",
          "transactionHash": "0xab0c1cb8b7cc2b20f89f5d6db6ccac1ba15c015a3bb241ded50f08c461678f5a",
          "transactionIndex": "0x76",
          "logIndex": "0xa8",
          "removed": false
        },
        {
          "address": "0x9ddcb877b4bf4e0674e56fe2b6cedd497fb87ffc",
          "topics": [
            "0xddf252ad1be2c89b69c2b068fc378daa952ba7f163c4a11628f55a4df523b3ef",
            "0x000000000000000000000000eff3521fb13228c767ad6dc3b934f9efac9c56ad",
            "0x000000000000000000000000e3f048618be93445341635f7d6371703414797a8"
          ],
          "data": "0x000000000000000000000000000000000000000000000000000009184e72a000",
          "blockHash": "0x4da6a9e6e04ec86921935cc7e257f87ae35cb82917f948b597d8cf4be7eaaf93",
          "blockNumber": "0x8f26ae",
          "blockTimestamp": "0x68e8cdd4",
          "transactionHash": "0xab0c1cb8b7cc2b20f89f5d6db6ccac1ba15c015a3bb241ded50f08c461678f5a",
          "transactionIndex": "0x76",
          "logIndex": "0xa9",
          "removed": false
        },
        {
          "address": "0x9ddcb877b4bf4e0674e56fe2b6cedd497fb87ffc",
          "topics": [
            "0xddf252ad1be2c89b69c2b068fc378daa952ba7f163c4a11628f55a4df523b3ef",
            "0x0000000000000000000000000000000000000000000000000000000000000000",
            "0x000000000000000000000000e3f048618be93445341635f7d6371703414797a8"
          ],
          "data": "0x0000000000000000000000000000000000000000000000000000000000000000",
          "blockHash": "0x4da6a9e6e04ec86921935cc7e257f87ae35cb82917f948b597d8cf4be7eaaf93",
          "blockNumber": "0x8f26ae",
          "blockTimestamp": "0x68e8cdd4",
          "transactionHash": "0xab0c1cb8b7cc2b20f89f5d6db6ccac1ba15c015a3bb241ded50f08c461678f5a",
          "transactionIndex": "0x76",
          "logIndex": "0xaa",
          "removed": false
        },
        {
          "address": "0x9ddcb877b4bf4e0674e56fe2b6cedd497fb87ffc",
          "topics": [
            "0xddf252ad1be2c89b69c2b068fc378daa952ba7f163c4a11628f55a4df523b3ef",
            "0x000000000000000000000000e3f048618be93445341635f7d6371703414797a8",
            "0x0000000000000000000000000000000000000000000000000000000000000000"
          ],
          "data": "0x000000000000000000000000000000000000000000000000000009184e72a000",
          "blockHash": "0x4da6a9e6e04ec86921935cc7e257f87ae35cb82917f948b597d8cf4be7eaaf93",
          "blockNumber": "0x8f26ae",
          "blockTimestamp": "0x68e8cdd4",
          "transactionHash": "0xab0c1cb8b7cc2b20f89f5d6db6ccac1ba15c015a3bb241ded50f08c461678f5a",
          "transactionIndex": "0x76",
          "logIndex": "0xab",
          "removed": false
        },
        {
          "address": "0xbc09627e58989ba8f1eda775e486467d2a00944f",
          "topics": [
            "0xd0c3c799bf9e2639de44391e7f524d229b2b55f5b1ea94b2bf7da42f7243dddd"
          ],
          "data": "0x0000000000000000000000000000000000000000000000000000000000000020000000000000000000000000000000000000000000000000de41ba4fc9d91ad9000000000000000000000000eff3521fb13228c767ad6dc3b934f9efac9c56ad000000000000000000000000eff3521fb13228c767ad6dc3b934f9efac9c56ad000000000000000000000000000000000000000000000000000000000000511e000000000000000000000000000000000000000000000000000000000000000000000000000000000000000000000000000000000000000000000000000000000000000000000000000000000000000000000000000000000000000000000003000000000000000000000000779877a7b0d9e8603169ddbd7836e478b4624789000000000000000000000000000000000000000000000000004d9f5ae5a49fd100000000000000000000000000000000000000000000000000000000000001a000000000000000000000000000000000000000000000000000000000000001c000000000000000000000000000000000000000000000000000000000000002202afb9f3a0a5d8fe4fd807cfe51a6298bc595ce1c559c9967ddd0823a646949e8000000000000000000000000000000000000000000000000000000000000000000000000000000000000000000000000000000000000000000000000000000010000000000000000000000009ddcb877b4bf4e0674e56fe2b6cedd497fb87ffc000000000000000000000000000000000000000000000000000009184e72a0000000000000000000000000000000000000000000000000000000000000000001000000000000000000000000000000000000000000000000000000000000002000000000000000000000000000000000000000000000000000000000000001600000000000000000000000000000000000000000000000000000000000000020000000000000000000000000000000000000000000000000000000000000008000000000000000000000000000000000000000000000000000000000000000c000000000000000000000000000000000000000000000000000000000000001000000000000000000000000000000000000000000000000000000000000015f900000000000000000000000000000000000000000000000000000000000000020000000000000000000000000e3f048618be93445341635f7d6371703414797a8000000000000000000000000000000000000000000000000000000000000002000000000000000000000000057c85c30ad2bc719cc34ccaeb8d2bfda1a8b177200000000000000000000000000000000000000000000000000000000000000200000000000000000000000000000000000000000000000000000000ba43b7400",
          "blockHash": "0x4da6a9e6e04ec86921935cc7e257f87ae35cb82917f948b597d8cf4be7eaaf93",
          "blockNumber": "0x8f26ae",
          "blockTimestamp": "0x68e8cdd4",
          "transactionHash": "0xab0c1cb8b7cc2b20f89f5d6db6ccac1ba15c015a3bb241ded50f08c461678f5a",
          "transactionIndex": "0x76",
          "logIndex": "0xac",
          "removed": false
        }
      ],
      "logsBloom": "0x00000004080040000000000200000000000000000000000000000000000000020000000000000000000000000000000000000000000000000000000000200000000100000002000000000008000000000000000000000000002000000000000000020000020100000000000000000800000000000000000000000010000000000000000000000000000000000000800000000000000000000000000000000000020000000000080400400000000000000000500000000000002100000000000000000002000000000000000002000000000000000000000100000000000020000010004000000000000000000000000004000000000000040000000000000004",
      "type": "0x2",
      "transactionHash": "0xab0c1cb8b7cc2b20f89f5d6db6ccac1ba15c015a3bb241ded50f08c461678f5a",
      "transactionIndex": "0x76",
      "blockHash": "0x4da6a9e6e04ec86921935cc7e257f87ae35cb82917f948b597d8cf4be7eaaf93",
      "blockNumber": "0x8f26ae",
      "gasUsed": "0x3ed68",
      "effectiveGasPrice": "0xf42b0",
      "from": "0xeff3521fb13228c767ad6dc3b934f9efac9c56ad",
      "to": "0x0bf3de8c5d3e8a2b34d2beeb17abfcebaf363a59",
      "contractAddress": null
    }
  ],
  "libraries": [],
  "pending": [],
  "returns": {},
  "timestamp": 1760087510,
  "chain": 11155111,
  "commit": "8557215"
}