{
  "transactions": [
    {
      "hash": "0x4f098117947bfc8847e99fbb82b0364b0924fd71847f449a71021dd3333a89cf",
      "transactionType": "CALL",
      "contractName": null,
      "contractAddress": "0x779877a7b0d9e8603169ddbd7836e478b4624789",
      "function": "approve(address,uint256)",
      "arguments": [
        "0x0BF3dE8c5D3e8A2B34D2BEeB17ABfCeBaf363A59",
        "21279879827597188"
      ],
      "transaction": {
        "from": "0xeff3521fb13228c767ad6dc3b934f9efac9c56ad",
        "to": "0x779877a7b0d9e8603169ddbd7836e478b4624789",
        "gas": "0x1081f",
        "value": "0x0",
        "input": "0x095ea7b30000000000000000000000000bf3de8c5d3e8a2b34d2beeb17abfcebaf363a59000000000000000000000000000000000000000000000000004b99f01dfca784",
        "nonce": "0x5d",
        "chainId": "0xaa36a7"
      },
      "additionalContracts": [],
      "isFixedGasLimit": false
    },
    {
      "hash": "0x496cdf0394d2fa1713fb4df0d37ff61cb4e2978a43a26d84c413d5877e2a27ab",
      "transactionType": "CALL",
      "contractName": null,
      "contractAddress": "0x1f4412e384fd74b78aa912e567787f6b3649e5e0",
      "function": "approve(address,uint256)",
      "arguments": [
        "0x0BF3dE8c5D3e8A2B34D2BEeB17ABfCeBaf363A59",
        "100000000000000"
      ],
      "transaction": {
        "from": "0xeff3521fb13228c767ad6dc3b934f9efac9c56ad",
        "to": "0x1f4412e384fd74b78aa912e567787f6b3649e5e0",
        "gas": "0x9204",
        "value": "0x0",
        "input": "0x095ea7b30000000000000000000000000bf3de8c5d3e8a2b34d2beeb17abfcebaf363a5900000000000000000000000000000000000000000000000000005af3107a4000",
        "nonce": "0x5e",
        "chainId": "0xaa36a7"
      },
      "additionalContracts": [],
      "isFixedGasLimit": false
    },
    {
      "hash": "0xde3096f2dae9c7c7880deca4d3503a68d5a436694a418fb586ffb34f885caa64",
      "transactionType": "CALL",
      "contractName": null,
      "contractAddress": "0x0bf3de8c5d3e8a2b34d2beeb17abfcebaf363a59",
      "function": "ccipSend(uint64,(bytes,bytes,(address,uint256)[],address,bytes))",
      "arguments": [
        "3478487238524512106",
        "(0x000000000000000000000000eff3521fb13228c767ad6dc3b934f9efac9c56ad, 0x, [(0x1F4412e384FD74b78aA912e567787f6B3649E5E0, 100000000000000)], 0x779877A7B0D9E8603169DdbD7836e478b4624789, 0x97a657c90000000000000000000000000000000000000000000000000000000000000000)"
      ],
      "transaction": {
        "from": "0xeff3521fb13228c767ad6dc3b934f9efac9c56ad",
        "to": "0x0bf3de8c5d3e8a2b34d2beeb17abfcebaf363a59",
        "gas": "0x5e945",
        "value": "0x0",
        "input": "0x96f4e9f9000000000000000000000000000000000000000000000000304611b6affba76a000000000000000000000000000000000000000000000000000000000000004000000000000000000000000000000000000000000000000000000000000000a000000000000000000000000000000000000000000000000000000000000000e00000000000000000000000000000000000000000000000000000000000000100000000000000000000000000779877a7b0d9e8603169ddbd7836e478b462478900000000000000000000000000000000000000000000000000000000000001600000000000000000000000000000000000000000000000000000000000000020000000000000000000000000eff3521fb13228c767ad6dc3b934f9efac9c56ad000000000000000000000000000000000000000000000000000000000000000000000000000000000000000000000000000000000000000000000000000000010000000000000000000000001f4412e384fd74b78aa912e567787f6b3649e5e000000000000000000000000000000000000000000000000000005af3107a4000000000000000000000000000000000000000000000000000000000000000002497a657c9000000000000000000000000000000000000000000000000000000000000000000000000000000000000000000000000000000000000000000000000",
        "nonce": "0x5f",
        "chainId": "0xaa36a7"
      },
      "additionalContracts": [],
      "isFixedGasLimit": false
    }
  ],
  "receipts": [
    {
      "status": "0x1",
      "cumulativeGasUsed": "0x262fa64",
      "logs": [
        {
          "address": "0x779877a7b0d9e8603169ddbd7836e478b4624789",
          "topics": [
            "0x8c5be1e5ebec7d5bd14f71427d1e84f3dd0314c0f7b2291e5b200ac8c7c3b925",
            "0x000000000000000000000000eff3521fb13228c767ad6dc3b934f9efac9c56ad",
            "0x0000000000000000000000000bf3de8c5d3e8a2b34d2beeb17abfcebaf363a59"
          ],
          "data": "0x000000000000000000000000000000000000000000000000004b99f01dfca784",
          "blockHash": "0xb717feb97bb88c5970df3857e8ce6315987ff7966bdb03c5b010444fc0831dca",
          "blockNumber": "0x8ed35f",
          "blockTimestamp": "0x68e4b7c4",
          "transactionHash": "0x4f098117947bfc8847e99fbb82b0364b0924fd71847f449a71021dd3333a89cf",
          "transactionIndex": "0x79",
          "logIndex": "0xdc",
          "removed": false
        }
      ],
      "logsBloom": "0x00000004000040000000000000000000000000000000000000000000000000020000000000000000000000000000000000000000000000000000000000200000000000000000000000000000000000000000000000000000002000000000000000000000000100000000000000000000000000000000000000000000000000000000000000000000000000000000800000000000000000000000000000000000020000000000080000000000000000000000100000000000000000000000000000000000000000000000000000000000000000000000000100000000000000000010000000000000000000000000000000000000000000000000000000000000",
      "type": "0x2",
      "transactionHash": "0x4f098117947bfc8847e99fbb82b0364b0924fd71847f449a71021dd3333a89cf",
      "transactionIndex": "0x79",
      "blockHash": "0xb717feb97bb88c5970df3857e8ce6315987ff7966bdb03c5b010444fc0831dca",
      "blockNumber": "0x8ed35f",
      "gasUsed": "0xb499",
      "effectiveGasPrice": "0xf427f",
      "from": "0xeff3521fb13228c767ad6dc3b934f9efac9c56ad",
      "to": "0x779877a7b0d9e8603169ddbd7836e478b4624789",
      "contractAddress": null
    },
    {
      "status": "0x1",
      "cumulativeGasUsed": "0x263641b",
      "logs": [
        {
          "address": "0x1f4412e384fd74b78aa912e567787f6b3649e5e0",
          "topics": [
            "0x8c5be1e5ebec7d5bd14f71427d1e84f3dd0314c0f7b2291e5b200ac8c7c3b925",
            "0x000000000000000000000000eff3521fb13228c767ad6dc3b934f9efac9c56ad",
            "0x0000000000000000000000000bf3de8c5d3e8a2b34d2beeb17abfcebaf363a59"
          ],
          "data": "0x00000000000000000000000000000000000000000000000000005af3107a4000",
          "blockHash": "0xb717feb97bb88c5970df3857e8ce6315987ff7966bdb03c5b010444fc0831dca",
          "blockNumber": "0x8ed35f",
          "blockTimestamp": "0x68e4b7c4",
          "transactionHash": "0x496cdf0394d2fa1713fb4df0d37ff61cb4e2978a43a26d84c413d5877e2a27ab",
          "transactionIndex": "0x7a",
          "logIndex": "0xdd",
          "removed": false
        }
      ],
      "logsBloom": "0x00000000000040000000000000000000000000000000000000000000000000020000000000000000000000000000000000000000000000000000000000200000000000000000000000000000000000000000000000000000002000000000000000000000000100000000000000000000000000000000000000000000000000000000000000000000000000000000000000000000000000000000000000000000020000000001080000000000000000000000100000000000000400000000000000000000000000000000000000000000000000000000400000000000000000000010000000000000000000000000000000000000000000000000000000000000",
      "type": "0x2",
      "transactionHash": "0x496cdf0394d2fa1713fb4df0d37ff61cb4e2978a43a26d84c413d5877e2a27ab",
      "transactionIndex": "0x7a",
      "blockHash": "0xb717feb97bb88c5970df3857e8ce6315987ff7966bdb03c5b010444fc0831dca",
      "blockNumber": "0x8ed35f",
      "gasUsed": "0x69b7",
      "effectiveGasPrice": "0xf427f",
      "from": "0xeff3521fb13228c767ad6dc3b934f9efac9c56ad",
      "to": "0x1f4412e384fd74b78aa912e567787f6b3649e5e0",
      "contractAddress": null
    },
    {
      "status": "0x1",
      "cumulativeGasUsed": "0x267abb0",
      "logs": [
        {
          "address": "0x779877a7b0d9e8603169ddbd7836e478b4624789",
          "topics": [
            "0xddf252ad1be2c89b69c2b068fc378daa952ba7f163c4a11628f55a4df523b3ef",
            "0x000000000000000000000000eff3521fb13228c767ad6dc3b934f9efac9c56ad",
            "0x000000000000000000000000bc09627e58989ba8f1eda775e486467d2a00944f"
          ],
          "data": "0x000000000000000000000000000000000000000000000000004b99f01dfca784",
          "blockHash": "0xb717feb97bb88c5970df3857e8ce6315987ff7966bdb03c5b010444fc0831dca",
          "blockNumber": "0x8ed35f",
          "blockTimestamp": "0x68e4b7c4",
          "transactionHash": "0xde3096f2dae9c7c7880deca4d3503a68d5a436694a418fb586ffb34f885caa64",
          "transactionIndex": "0x7b",
          "logIndex": "0xde",
          "removed": false
        },
        {
          "address": "0x779877a7b0d9e8603169ddbd7836e478b4624789",
          "topics": [
            "0x8c5be1e5ebec7d5bd14f71427d1e84f3dd0314c0f7b2291e5b200ac8c7c3b925",
            "0x000000000000000000000000eff3521fb13228c767ad6dc3b934f9efac9c56ad",
            "0x0000000000000000000000000bf3de8c5d3e8a2b34d2beeb17abfcebaf363a59"
          ],
          "data": "0x0000000000000000000000000000000000000000000000000000000000000000",
          "blockHash": "0xb717feb97bb88c5970df3857e8ce6315987ff7966bdb03c5b010444fc0831dca",
          "blockNumber": "0x8ed35f",
          "blockTimestamp": "0x68e4b7c4",
          "transactionHash": "0xde3096f2dae9c7c7880deca4d3503a68d5a436694a418fb586ffb34f885caa64",
          "transactionIndex": "0x7b",
          "logIndex": "0xdf",
          "removed": false
        },
        {
          "address": "0x1f4412e384fd74b78aa912e567787f6b3649e5e0",
          "topics": [
            "0xddf252ad1be2c89b69c2b068fc378daa952ba7f163c4a11628f55a4df523b3ef",
            "0x0000000000000000000000000000000000000000000000000000000000000000",
            "0x000000000000000000000000eff3521fb13228c767ad6dc3b934f9efac9c56ad"
          ],
          "data": "0x000000000000000000000000000000000000000000000000000000000e4e1ed0",
          "blockHash": "0xb717feb97bb88c5970df3857e8ce6315987ff7966bdb03c5b010444fc0831dca",
          "blockNumber": "0x8ed35f",
          "blockTimestamp": "0x68e4b7c4",
          "transactionHash": "0xde3096f2dae9c7c7880deca4d3503a68d5a436694a418fb586ffb34f885caa64",
          "transactionIndex": "0x7b",
          "logIndex": "0xe0",
          "removed": false
        },
        {
          "address": "0x1f4412e384fd74b78aa912e567787f6b3649e5e0",
          "topics": [
            "0xddf252ad1be2c89b69c2b068fc378daa952ba7f163c4a11628f55a4df523b3ef",
            "0x0000000000000000000000000000000000000000000000000000000000000000",
            "0x000000000000000000000000d1d65329242e9552392e2cde15558abdc3edba29"
          ],
          "data": "0x0000000000000000000000000000000000000000000000000000000000000000",
          "blockHash": "0xb717feb97bb88c5970df3857e8ce6315987ff7966bdb03c5b010444fc0831dca",
          "blockNumber": "0x8ed35f",
          "blockTimestamp": "0x68e4b7c4",
          "transactionHash": "0xde3096f2dae9c7c7880deca4d3503a68d5a436694a418fb586ffb34f885caa64",
          "transactionIndex": "0x7b",
          "logIndex": "0xe1",
          "removed": false
        },
        {
          "address": "0x1f4412e384fd74b78aa912e567787f6b3649e5e0",
          "topics": [
            "0xddf252ad1be2c89b69c2b068fc378daa952ba7f163c4a11628f55a4df523b3ef",
            "0x000000000000000000000000eff3521fb13228c767ad6dc3b934f9efac9c56ad",
            "0x000000000000000000000000d1d65329242e9552392e2cde15558abdc3edba29"
          ],
          "data": "0x00000000000000000000000000000000000000000000000000005af3107a4000",
          "blockHash": "0xb717feb97bb88c5970df3857e8ce6315987ff7966bdb03c5b010444fc0831dca",
          "blockNumber": "0x8ed35f",
          "blockTimestamp": "0x68e4b7c4",
          "transactionHash": "0xde3096f2dae9c7c7880deca4d3503a68d5a436694a418fb586ffb34f885caa64",
          "transactionIndex": "0x7b",
          "logIndex": "0xe2",
          "removed": false
        },
        {
          "address": "0x1f4412e384fd74b78aa912e567787f6b3649e5e0",
          "topics": [
            "0xddf252ad1be2c89b69c2b068fc378daa952ba7f163c4a11628f55a4df523b3ef",
            "0x0000000000000000000000000000000000000000000000000000000000000000",
            "0x000000000000000000000000d1d65329242e9552392e2cde15558abdc3edba29"
          ],
          "data": "0x0000000000000000000000000000000000000000000000000000000000000000",
          "blockHash": "0xb717feb97bb88c5970df3857e8ce6315987ff7966bdb03c5b010444fc0831dca",
          "blockNumber": "0x8ed35f",
          "blockTimestamp": "0x68e4b7c4",
          "transactionHash": "0xde3096f2dae9c7c7880deca4d3503a68d5a436694a418fb586ffb34f885caa64",
          "transactionIndex": "0x7b",
          "logIndex": "0xe3",
          "removed": false
        },
        {
          "address": "0x1f4412e384fd74b78aa912e567787f6b3649e5e0",
          "topics": [
            "0xddf252ad1be2c89b69c2b068fc378daa952ba7f163c4a11628f55a4df523b3ef",
            "0x000000000000000000000000d1d65329242e9552392e2cde15558abdc3edba29",
            "0x0000000000000000000000000000000000000000000000000000000000000000"
          ],
          "data": "0x00000000000000000000000000000000000000000000000000005af3107a4000",
          "blockHash": "0xb717feb97bb88c5970df3857e8ce6315987ff7966bdb03c5b010444fc0831dca",
          "blockNumber": "0x8ed35f",
          "blockTimestamp": "0x68e4b7c4",
          "transactionHash": "0xde3096f2dae9c7c7880deca4d3503a68d5a436694a418fb586ffb34f885caa64",
          "transactionIndex": "0x7b",
          "logIndex": "0xe4",
          "removed": false
        },
        {
          "address": "0xbc09627e58989ba8f1eda775e486467d2a00944f",
          "topics": [
            "0xd0c3c799bf9e2639de44391e7f524d229b2b55f5b1ea94b2bf7da42f7243dddd"
          ],
          "data": "0x0000000000000000000000000000000000000000000000000000000000000020000000000000000000000000000000000000000000000000de41ba4fc9d91ad9000000000000000000000000eff3521fb13228c767ad6dc3b934f9efac9c56ad000000000000000000000000eff3521fb13228c767ad6dc3b934f9efac9c56ad00000000000000000000000000000000000000000000000000000000000050a4000000000000000000000000000000000000000000000000000000000000000000000000000000000000000000000000000000000000000000000000000000000000000000000000000000000000000000000000000000000000000000000001000000000000000000000000779877a7b0d9e8603169ddbd7836e478b4624789000000000000000000000000000000000000000000000000004b99f01dfca78400000000000000000000000000000000000000000000000000000000000001a000000000000000000000000000000000000000000000000000000000000001c000000000000000000000000000000000000000000000000000000000000002205a47a9634970d9a6217f5fc71fc63e5426941de1d673f81da1e2c3b354dd5d49000000000000000000000000000000000000000000000000000000000000000000000000000000000000000000000000000000000000000000000000000000010000000000000000000000001f4412e384fd74b78aa912e567787f6b3649e5e000000000000000000000000000000000000000000000000000005af3107a40000000000000000000000000000000000000000000000000000000000000000001000000000000000000000000000000000000000000000000000000000000002000000000000000000000000000000000000000000000000000000000000001600000000000000000000000000000000000000000000000000000000000000020000000000000000000000000000000000000000000000000000000000000008000000000000000000000000000000000000000000000000000000000000000c000000000000000000000000000000000000000000000000000000000000001000000000000000000000000000000000000000000000000000000000000015f900000000000000000000000000000000000000000000000000000000000000020000000000000000000000000d1d65329242e9552392e2cde15558abdc3edba2900000000000000000000000000000000000000000000000000000000000000200000000000000000000000008e110ce664fdd508b71dfca39b8618482993d8ad00000000000000000000000000000000000000000000000000000000000000200000000000000000000000000000000000000000000000000000000ba43b7400",
          "blockHash": "0xb717feb97bb88c5970df3857e8ce6315987ff7966bdb03c5b010444fc0831dca",
          "blockNumber": "0x8ed35f",
          "blockTimestamp": "0x68e4b7c4",
          "transactionHash": "0xde3096f2dae9c7c7880deca4d3503a68d5a436694a418fb586ffb34f885caa64",
          "transactionIndex": "0x7b",
          "logIndex": "0xe5",
          "removed": false
        }
      ],
      "logsBloom": "0x00000004080040000000000000000000000000000000000000000000000000020000000000000000000000000000000000000000000000000000000000200000000100000000000000000008000000000000000000000000006000000000000000020000020100000000000000000800000000000000000000000010000000000000000000000000000000000000800000000000000000000000000000000000020000000001080400400000000000000000100000000000000500000000000000000002000000000000000002000000000000000000400100000000000020000014000000000000010000000000000004000000000000040000000000000000",
      "type": "0x2",
      "transactionHash": "0xde3096f2dae9c7c7880deca4d3503a68d5a436694a418fb586ffb34f885caa64",
      "transactionIndex": "0x7b",
      "blockHash": "0xb717feb97bb88c5970df3857e8ce6315987ff7966bdb03c5b010444fc0831dca",
      "blockNumber": "0x8ed35f",
      "gasUsed": "0x44795",
      "effectiveGasPrice": "0xf427f",
      "from": "0xeff3521fb13228c767ad6dc3b934f9efac9c56ad",
      "to": "0x0bf3de8c5d3e8a2b34d2beeb17abfcebaf363a59",
      "contractAddress": null
    }
  ],
  "libraries": [],
  "pending": [],
  "returns": {},
  "timestamp": 1759819717,
  "chain": 11155111,
  "commit": "2ad285e"
}