{
  "transactions": [
    {
      "hash": "0x51759e5ace6f70680230249b982c52bf25f3c904e37de2e59fd2a3e3d1f7dd36",
      "transactionType": "CALL",
      "contractName": null,
      "contractAddress": "0x779877a7b0d9e8603169ddbd7836e478b4624789",
      "function": "approve(address,uint256)",
      "arguments": [
        "0x0BF3dE8c5D3e8A2B34D2BEeB17ABfCeBaf363A59",
        "87448923544329093"
      ],
      "transaction": {
        "from": "0xeff3521fb13228c767ad6dc3b934f9efac9c56ad",
        "to": "0x779877a7b0d9e8603169ddbd7836e478b4624789",
        "gas": "0xf983",
        "value": "0x0",
        "input": "0x095ea7b30000000000000000000000000bf3de8c5d3e8a2b34d2beeb17abfcebaf363a590000000000000000000000000000000000000000000000000136ae5527d99b85",
        "nonce": "0x8c",
        "chainId": "0xaa36a7"
      },
      "additionalContracts": [],
      "isFixedGasLimit": false
    },
    {
      "hash": "0x4a0837eccf6f3dda119cb2a108cad31430f60a9a836337962bf8edb05f180d98",
      "transactionType": "CALL",
      "contractName": null,
      "contractAddress": "0x9ddcb877b4bf4e0674e56fe2b6cedd497fb87ffc",
      "function": "approve(address,uint256)",
      "arguments": [
        "0x0BF3dE8c5D3e8A2B34D2BEeB17ABfCeBaf363A59",
        "40000000000000"
      ],
      "transaction": {
        "from": "0xeff3521fb13228c767ad6dc3b934f9efac9c56ad",
        "to": "0x9ddcb877b4bf4e0674e56fe2b6cedd497fb87ffc",
        "gas": "0x10c4a",
        "value": "0x0",
        "input": "0x095ea7b30000000000000000000000000bf3de8c5d3e8a2b34d2beeb17abfcebaf363a590000000000000000000000000000000000000000000000000000246139ca8000",
        "nonce": "0x8d",
        "chainId": "0xaa36a7"
      },
      "additionalContracts": [],
      "isFixedGasLimit": false
    },
    {
      "hash": "0xd814609e53faa960fecdd49f9416523382e9cfe37aed65951f82b290fa9128a7",
      "transactionType": "CALL",
      "contractName": null,
      "contractAddress": "0x0bf3de8c5d3e8a2b34d2beeb17abfcebaf363a59",
      "function": "ccipSend(uint64,(bytes,bytes,(address,uint256)[],address,bytes))",
      "arguments": [
        "5224473277236331295",
        "(0x000000000000000000000000eff3521fb13228c767ad6dc3b934f9efac9c56ad, 0x, [(0x9dDcB877B4bF4e0674E56fe2b6cedd497FB87FFc, 40000000000000)], 0x779877A7B0D9E8603169DdbD7836e478b4624789, 0x97a657c90000000000000000000000000000000000000000000000000000000000000000)"
      ],
      "transaction": {
        "from": "0xeff3521fb13228c767ad6dc3b934f9efac9c56ad",
        "to": "0x0bf3de8c5d3e8a2b34d2beeb17abfcebaf363a59",
        "gas": "0x521a2",
        "value": "0x0",
        "input": "0x96f4e9f900000000000000000000000000000000000000000000000048810ec3e431431f000000000000000000000000000000000000000000000000000000000000004000000000000000000000000000000000000000000000000000000000000000a000000000000000000000000000000000000000000000000000000000000000e00000000000000000000000000000000000000000000000000000000000000100000000000000000000000000779877a7b0d9e8603169ddbd7836e478b462478900000000000000000000000000000000000000000000000000000000000001600000000000000000000000000000000000000000000000000000000000000020000000000000000000000000eff3521fb13228c767ad6dc3b934f9efac9c56ad000000000000000000000000000000000000000000000000000000000000000000000000000000000000000000000000000000000000000000000000000000010000000000000000000000009ddcb877b4bf4e0674e56fe2b6cedd497fb87ffc0000000000000000000000000000000000000000000000000000246139ca8000000000000000000000000000000000000000000000000000000000000000002497a657c9000000000000000000000000000000000000000000000000000000000000000000000000000000000000000000000000000000000000000000000000",
        "nonce": "0x8e",
        "chainId": "0xaa36a7"
      },
      "additionalContracts": [],
      "isFixedGasLimit": false
    }
  ],
  "receipts": [
    {
      "status": "0x1",
      "cumulativeGasUsed": "0x2445fa6",
      "logs": [
        {
          "address": "0x779877a7b0d9e8603169ddbd7836e478b4624789",
          "topics": [
            "0x8c5be1e5ebec7d5bd14f71427d1e84f3dd0314c0f7b2291e5b200ac8c7c3b925",
            "0x000000000000000000000000eff3521fb13228c767ad6dc3b934f9efac9c56ad",
            "0x0000000000000000000000000bf3de8c5d3e8a2b34d2beeb17abfcebaf363a59"
          ],
          "data": "0x0000000000000000000000000000000000000000000000000136ae5527d99b85",
          "blockHash": "0xc380e685f71ca143e25e2a3d4aac33f872e84d910a81cc6acc2721dfd7e5adb2",
          "blockNumber": "0x8f26c4",
          "blockTimestamp": "0x68e8cee8",
          "transactionHash": "0x51759e5ace6f70680230249b982c52bf25f3c904e37de2e59fd2a3e3d1f7dd36",
          "transactionIndex": "0xb4",
          "logIndex": "0xc6",
          "removed": false
        }
      ],
      "logsBloom": "0x00000004000040000000000000000000000000000000000000000000000000020000000000000000000000000000000000000000000000000000000000200000000000000000000000000000000000000000000000000000002000000000000000000000000100000000000000000000000000000000000000000000000000000000000000000000000000000000800000000000000000000000000000000000020000000000080000000000000000000000100000000000000000000000000000000000000000000000000000000000000000000000000100000000000000000010000000000000000000000000000000000000000000000000000000000000",
      "type": "0x2",
      "transactionHash": "0x51759e5ace6f70680230249b982c52bf25f3c904e37de2e59fd2a3e3d1f7dd36",
      "transactionIndex": "0xb4",
      "blockHash": "0xc380e685f71ca143e25e2a3d4aac33f872e84d910a81cc6acc2721dfd7e5adb2",
      "blockNumber": "0x8f26c4",
      "gasUsed": "0xb4a5",
      "effectiveGasPrice": "0xf42b9",
      "from": "0xeff3521fb13228c767ad6dc3b934f9efac9c56ad",
      "to": "0x779877a7b0d9e8603169ddbd7836e478b4624789",
      "contractAddress": null
    },
    {
      "status": "0x1",
      "cumulativeGasUsed": "0x2451719",
      "logs": [
        {
          "address": "0x9ddcb877b4bf4e0674e56fe2b6cedd497fb87ffc",
          "topics": [
            "0x8c5be1e5ebec7d5bd14f71427d1e84f3dd0314c0f7b2291e5b200ac8c7c3b925",
            "0x000000000000000000000000eff3521fb13228c767ad6dc3b934f9efac9c56ad",
            "0x0000000000000000000000000bf3de8c5d3e8a2b34d2beeb17abfcebaf363a59"
          ],
          "data": "0x0000000000000000000000000000000000000000000000000000246139ca8000",
          "blockHash": "0xc380e685f71ca143e25e2a3d4aac33f872e84d910a81cc6acc2721dfd7e5adb2",
          "blockNumber": "0x8f26c4",
          "blockTimestamp": "0x68e8cee8",
          "transactionHash": "0x4a0837eccf6f3dda119cb2a108cad31430f60a9a836337962bf8edb05f180d98",
          "transactionIndex": "0xb5",
          "logIndex": "0xc7",
          "removed": false
        }
      ],
      "logsBloom": "0x00000000000040000000000000000000000000000000000000000000000000020000000000000000000000000000000000000000000000000000000000200000000000000002000000000000000000000000000000000000002000000000000000000000000100000000000000000000000000000000000000000000000000000000000000000000000000000000000000000000000000000000000000000000020000000000080000000000000000000000500000000000000000000000000000000000000000000000000000000000000000000000000000000000000000000010000000000000000000000000000000000000000000000000000000000004",
      "type": "0x2",
      "transactionHash": "0x4a0837eccf6f3dda119cb2a108cad31430f60a9a836337962bf8edb05f180d98",
      "transactionIndex": "0xb5",
      "blockHash": "0xc380e685f71ca143e25e2a3d4aac33f872e84d910a81cc6acc2721dfd7e5adb2",
      "blockNumber": "0x8f26c4",
      "gasUsed": "0xb773",
      "effectiveGasPrice": "0xf42b9",
      "from": "0xeff3521fb13228c767ad6dc3b934f9efac9c56ad",
      "to": "0x9ddcb877b4bf4e0674e56fe2b6cedd497fb87ffc",
      "contractAddress": null
    },
    {
      "status": "0x1",
      "cumulativeGasUsed": "0x249202e",
      "logs": [
        {
          "address": "0x779877a7b0d9e8603169ddbd7836e478b4624789",
          "topics": [
            "0xddf252ad1be2c89b69c2b068fc378daa952ba7f163c4a11628f55a4df523b3ef",
            "0x000000000000000000000000eff3521fb13228c767ad6dc3b934f9efac9c56ad",
            "0x000000000000000000000000acdfd7a98d853fa3914047cd46e7f5d53bbc9fbb"
          ],
          "data": "0x0000000000000000000000000000000000000000000000000136ae5527d99b85",
          "blockHash": "0xc380e685f71ca143e25e2a3d4aac33f872e84d910a81cc6acc2721dfd7e5adb2",
          "blockNumber": "0x8f26c4",
          "blockTimestamp": "0x68e8cee8",
          "transactionHash": "0xd814609e53faa960fecdd49f9416523382e9cfe37aed65951f82b290fa9128a7",
          "transactionIndex": "0xb7",
          "logIndex": "0xc8",
          "removed": false
        },
        {
          "address": "0x779877a7b0d9e8603169ddbd7836e478b4624789",
          "topics": [
            "0x8c5be1e5ebec7d5bd14f71427d1e84f3dd0314c0f7b2291e5b200ac8c7c3b925",
            "0x000000000000000000000000eff3521fb13228c767ad6dc3b934f9efac9c56ad",
            "0x0000000000000000000000000bf3de8c5d3e8a2b34d2beeb17abfcebaf363a59"
          ],
          "data": "0x0000000000000000000000000000000000000000000000000000000000000000",
          "blockHash": "0xc380e685f71ca143e25e2a3d4aac33f872e84d910a81cc6acc2721dfd7e5adb2",
          "blockNumber": "0x8f26c4",
          "blockTimestamp": "0x68e8cee8",
          "transactionHash": "0xd814609e53faa960fecdd49f9416523382e9cfe37aed65951f82b290fa9128a7",
          "transactionIndex": "0xb7",
          "logIndex": "0xc9",
          "removed": false
        },
        {
          "address": "0x9ddcb877b4bf4e0674e56fe2b6cedd497fb87ffc",
          "topics": [
            "0xddf252ad1be2c89b69c2b068fc378daa952ba7f163c4a11628f55a4df523b3ef",
            "0x0000000000000000000000000000000000000000000000000000000000000000",
            "0x000000000000000000000000eff3521fb13228c767ad6dc3b934f9efac9c56ad"
          ],
          "data": "0x00000000000000000000000000000000000000000000000000000010b2b1fbf0",
          "blockHash": "0xc380e685f71ca143e25e2a3d4aac33f872e84d910a81cc6acc2721dfd7e5adb2",
          "blockNumber": "0x8f26c4",
          "blockTimestamp": "0x68e8cee8",
          "transactionHash": "0xd814609e53faa960fecdd49f9416523382e9cfe37aed65951f82b290fa9128a7",
          "transactionIndex": "0xb7",
          "logIndex": "0xca",
          "removed": false
        },
        {
          "address": "0x9ddcb877b4bf4e0674e56fe2b6cedd497fb87ffc",
          "topics": [
            "0xddf252ad1be2c89b69c2b068fc378daa952ba7f163c4a11628f55a4df523b3ef",
            "0x0000000000000000000000000000000000000000000000000000000000000000",
            "0x000000000000000000000000e3f048618be93445341635f7d6371703414797a8"
          ],
          "data": "0x0000000000000000000000000000000000000000000000000000000000000000",
          "blockHash": "0xc380e685f71ca143e25e2a3d4aac33f872e84d910a81cc6acc2721dfd7e5adb2",
          "blockNumber": "0x8f26c4",
          "blockTimestamp": "0x68e8cee8",
          "transactionHash": "0xd814609e53faa960fecdd49f9416523382e9cfe37aed65951f82b290fa9128a7",
          "transactionIndex": "0xb7",
          "logIndex": "0xcb",
          "removed": false
        },
        {
          "address": "0x9ddcb877b4bf4e0674e56fe2b6cedd497fb87ffc",
          "topics": [
            "0xddf252ad1be2c89b69c2b068fc378daa952ba7f163c4a11628f55a4df523b3ef",
            "0x000000000000000000000000eff3521fb13228c767ad6dc3b934f9efac9c56ad",
            "0x000000000000000000000000e3f048618be93445341635f7d6371703414797a8"
          ],
          "data": "0x0000000000000000000000000000000000000000000000000000246139ca8000",
          "blockHash": "0xc380e685f71ca143e25e2a3d4aac33f872e84d910a81cc6acc2721dfd7e5adb2",
          "blockNumber": "0x8f26c4",
          "blockTimestamp": "0x68e8cee8",
          "transactionHash": "0xd814609e53faa960fecdd49f9416523382e9cfe37aed65951f82b290fa9128a7",
          "transactionIndex": "0xb7",
          "logIndex": "0xcc",
          "removed": false
        },
        {
          "address": "0x9ddcb877b4bf4e0674e56fe2b6cedd497fb87ffc",
          "topics": [
            "0xddf252ad1be2c89b69c2b068fc378daa952ba7f163c4a11628f55a4df523b3ef",
            "0x0000000000000000000000000000000000000000000000000000000000000000",
            "0x000000000000000000000000e3f048618be93445341635f7d6371703414797a8"
          ],
          "data": "0x0000000000000000000000000000000000000000000000000000000000000000",
          "blockHash": "0xc380e685f71ca143e25e2a3d4aac33f872e84d910a81cc6acc2721dfd7e5adb2",
          "blockNumber": "0x8f26c4",
          "blockTimestamp": "0x68e8cee8",
          "transactionHash": "0xd814609e53faa960fecdd49f9416523382e9cfe37aed65951f82b290fa9128a7",
          "transactionIndex": "0xb7",
          "logIndex": "0xcd",
          "removed": false
        },
        {
          "address": "0x9ddcb877b4bf4e0674e56fe2b6cedd497fb87ffc",
          "topics": [
            "0xddf252ad1be2c89b69c2b068fc378daa952ba7f163c4a11628f55a4df523b3ef",
            "0x000000000000000000000000e3f048618be93445341635f7d6371703414797a8",
            "0x0000000000000000000000000000000000000000000000000000000000000000"
          ],
          "data": "0x0000000000000000000000000000000000000000000000000000246139ca8000",
          "blockHash": "0xc380e685f71ca143e25e2a3d4aac33f872e84d910a81cc6acc2721dfd7e5adb2",
          "blockNumber": "0x8f26c4",
          "blockTimestamp": "0x68e8cee8",
          "transactionHash": "0xd814609e53faa960fecdd49f9416523382e9cfe37aed65951f82b290fa9128a7",
          "transactionIndex": "0xb7",
          "logIndex": "0xce",
          "removed": false
        },
        {
          "address": "0xacdfd7a98d853fa3914047cd46e7f5d53bbc9fbb",
          "topics": [
            "0xd0c3c799bf9e2639de44391e7f524d229b2b55f5b1ea94b2bf7da42f7243dddd"
          ],
          "data": "0x0000000000000000000000000000000000000000000000000000000000000020000000000000000000000000000000000000000000000000de41ba4fc9d91ad9000000000000000000000000eff3521fb13228c767ad6dc3b934f9efac9c56ad000000000000000000000000eff3521fb13228c767ad6dc3b934f9efac9c56ad0000000000000000000000000000000000000000000000000000000000001242000000000000000000000000000000000000000000000000000000000000000000000000000000000000000000000000000000000000000000000000000000000000000000000000000000000000000000000000000000000000000000000001000000000000000000000000779877a7b0d9e8603169ddbd7836e478b46247890000000000000000000000000000000000000000000000000136ae5527d99b8500000000000000000000000000000000000000000000000000000000000001a000000000000000000000000000000000000000000000000000000000000001c000000000000000000000000000000000000000000000000000000000000002206e0df60e92f531e62cc63e21377d6bf19af30b44f8cecae7562f2eabd1cde656000000000000000000000000000000000000000000000000000000000000000000000000000000000000000000000000000000000000000000000000000000010000000000000000000000009ddcb877b4bf4e0674e56fe2b6cedd497fb87ffc0000000000000000000000000000000000000000000000000000246139ca80000000000000000000000000000000000000000000000000000000000000000001000000000000000000000000000000000000000000000000000000000000002000000000000000000000000000000000000000000000000000000000000001600000000000000000000000000000000000000000000000000000000000000020000000000000000000000000000000000000000000000000000000000000008000000000000000000000000000000000000000000000000000000000000000c000000000000000000000000000000000000000000000000000000000000001000000000000000000000000000000000000000000000000000000000000015f900000000000000000000000000000000000000000000000000000000000000020000000000000000000000000e3f048618be93445341635f7d6371703414797a800000000000000000000000000000000000000000000000000000000000000200000000000000000000000008e110ce664fdd508b71dfca39b8618482993d8ad00000000000000000000000000000000000000000000000000000000000000200000000000000000000000000000000000000000000000000000000ba43b7400",
          "blockHash": "0xc380e685f71ca143e25e2a3d4aac33f872e84d910a81cc6acc2721dfd7e5adb2",
          "blockNumber": "0x8f26c4",
          "blockTimestamp": "0x68e8cee8",
          "transactionHash": "0xd814609e53faa960fecdd49f9416523382e9cfe37aed65951f82b290fa9128a7",
          "transactionIndex": "0xb7",
          "logIndex": "0xcf",
          "removed": false
        }
      ],
      "logsBloom": "0x00000004000040001000000200000000002000000000000000000000000000020000000000000000020000000000000000000000000000000000000000200000000000000002000000000008000000000000000000000000002000000000000020000008020100000000000000000800000000000000000000000010800000000000000000000000000000000000800000000000000000000000000000000000020000000000080400000000000000000000500000000000002100000000000000000002000000000000000000000000000000000000000100000000000020000010004000000000000000000000000004000000000000000000000000000004",
      "type": "0x2",
      "transactionHash": "0xd814609e53faa960fecdd49f9416523382e9cfe37aed65951f82b290fa9128a7",
      "transactionIndex": "0xb7",
      "blockHash": "0xc380e685f71ca143e25e2a3d4aac33f872e84d910a81cc6acc2721dfd7e5adb2",
      "blockNumber": "0x8f26c4",
      "gasUsed": "0x3b70d",
      "effectiveGasPrice": "0xf42b9",
      "from": "0xeff3521fb13228c767ad6dc3b934f9efac9c56ad",
      "to": "0x0bf3de8c5d3e8a2b34d2beeb17abfcebaf363a59",
      "contractAddress": null
    }
  ],
  "libraries": [],
  "pending": [],
  "returns": {},
  "timestamp": 1760087786,
  "chain": 11155111,
  "commit": "8557215"
}