{
  "transactions": [
    {
      "hash": "0x29e86fc7cdc7050f8b521941f7b214f3e62cce8bd0e7ed6abbf4842ab66739e7",
      "transactionType": "CALL",
      "contractName": null,
      "contractAddress": "0x779877a7b0d9e8603169ddbd7836e478b4624789",
      "function": "approve(address,uint256)",
      "arguments": [
        "0x0BF3dE8c5D3e8A2B34D2BEeB17ABfCeBaf363A59",
        "10337047070208203"
      ],
      "transaction": {
        "from": "0xeff3521fb13228c767ad6dc3b934f9efac9c56ad",
        "to": "0x779877a7b0d9e8603169ddbd7836e478b4624789",
        "gas": "0x1081f",
        "value": "0x0",
        "input": "0x095ea7b30000000000000000000000000bf3de8c5d3e8a2b34d2beeb17abfcebaf363a590000000000000000000000000000000000000000000000000024b97d52a570cb",
        "nonce": "0x8f",
        "chainId": "0xaa36a7"
      },
      "additionalContracts": [],
      "isFixedGasLimit": false
    },
    {
      "hash": "0x444d32815e2ceb307a3cc71534ad3bff98bc958c84d564d735263bd1ca0c4a3a",
      "transactionType": "CALL",
      "contractName": null,
      "contractAddress": "0x9ddcb877b4bf4e0674e56fe2b6cedd497fb87ffc",
      "function": "approve(address,uint256)",
      "arguments": [
        "0x0BF3dE8c5D3e8A2B34D2BEeB17ABfCeBaf363A59",
        "50000000000000"
      ],
      "transaction": {
        "from": "0xeff3521fb13228c767ad6dc3b934f9efac9c56ad",
        "to": "0x9ddcb877b4bf4e0674e56fe2b6cedd497fb87ffc",
        "gas": "0x10c4a",
        "value": "0x0",
        "input": "0x095ea7b30000000000000000000000000bf3de8c5d3e8a2b34d2beeb17abfcebaf363a5900000000000000000000000000000000000000000000000000002d79883d2000",
        "nonce": "0x90",
        "chainId": "0xaa36a7"
      },
      "additionalContracts": [],
      "isFixedGasLimit": false
    },
    {
      "hash": "0x847f95d807e2221c8b863f8aed7eef15d0392f0c395c79d4d15d493e2473932b",
      "transactionType": "CALL",
      "contractName": null,
      "contractAddress": "0x0bf3de8c5d3e8a2b34d2beeb17abfcebaf363a59",
      "function": "ccipSend(uint64,(bytes,bytes,(address,uint256)[],address,bytes))",
      "arguments": [
        "686603546605904534",
        "(0x000000000000000000000000eff3521fb13228c767ad6dc3b934f9efac9c56ad, 0x, [(0x9dDcB877B4bF4e0674E56fe2b6cedd497FB87FFc, 50000000000000)], 0x779877A7B0D9E8603169DdbD7836e478b4624789, 0x97a657c90000000000000000000000000000000000000000000000000000000000000000)"
      ],
      "transaction": {
        "from": "0xeff3521fb13228c767ad6dc3b934f9efac9c56ad",
        "to": "0x0bf3de8c5d3e8a2b34d2beeb17abfcebaf363a59",
        "gas": "0x4f786",
        "value": "0x0",
        "input": "0x96f4e9f900000000000000000000000000000000000000000000000009874e49b0f7e296000000000000000000000000000000000000000000000000000000000000004000000000000000000000000000000000000000000000000000000000000000a000000000000000000000000000000000000000000000000000000000000000e00000000000000000000000000000000000000000000000000000000000000100000000000000000000000000779877a7b0d9e8603169ddbd7836e478b462478900000000000000000000000000000000000000000000000000000000000001600000000000000000000000000000000000000000000000000000000000000020000000000000000000000000eff3521fb13228c767ad6dc3b934f9efac9c56ad000000000000000000000000000000000000000000000000000000000000000000000000000000000000000000000000000000000000000000000000000000010000000000000000000000009ddcb877b4bf4e0674e56fe2b6cedd497fb87ffc00000000000000000000000000000000000000000000000000002d79883d2000000000000000000000000000000000000000000000000000000000000000002497a657c9000000000000000000000000000000000000000000000000000000000000000000000000000000000000000000000000000000000000000000000000",
        "nonce": "0x91",
        "chainId": "0xaa36a7"
      },
      "additionalContracts": [],
      "isFixedGasLimit": false
    }
  ],
  "receipts": [
    {
      "status": "0x1",
      "cumulativeGasUsed": "0x11da34b",
      "logs": [
        {
          "address": "0x779877a7b0d9e8603169ddbd7836e478b4624789",
          "topics": [
            "0x8c5be1e5ebec7d5bd14f71427d1e84f3dd0314c0f7b2291e5b200ac8c7c3b925",
            "0x000000000000000000000000eff3521fb13228c767ad6dc3b934f9efac9c56ad",
            "0x0000000000000000000000000bf3de8c5d3e8a2b34d2beeb17abfcebaf363a59"
          ],
          "data": "0x0000000000000000000000000000000000000000000000000024b97d52a570cb",
          "blockHash": "0x6cc621710ccd3a0f5433d6347a2639f499c9174d2332463eff18c11d3a965cd8",
          "blockNumber": "0x8f26cb",
          "blockTimestamp": "0x68e8cf3c",
          "transactionHash": "0x29e86fc7cdc7050f8b521941f7b214f3e62cce8bd0e7ed6abbf4842ab66739e7",
          "transactionIndex": "0x77",
          "logIndex": "0xc2",
          "removed": false
        }
      ],
      "logsBloom": "0x00000004000040000000000000000000000000000000000000000000000000020000000000000000000000000000000000000000000000000000000000200000000000000000000000000000000000000000000000000000002000000000000000000000000100000000000000000000000000000000000000000000000000000000000000000000000000000000800000000000000000000000000000000000020000000000080000000000000000000000100000000000000000000000000000000000000000000000000000000000000000000000000100000000000000000010000000000000000000000000000000000000000000000000000000000000",
      "type": "0x2",
      "transactionHash": "0x29e86fc7cdc7050f8b521941f7b214f3e62cce8bd0e7ed6abbf4842ab66739e7",
      "transactionIndex": "0x77",
      "blockHash": "0x6cc621710ccd3a0f5433d6347a2639f499c9174d2332463eff18c11d3a965cd8",
      "blockNumber": "0x8f26cb",
      "gasUsed": "0xb499",
      "effectiveGasPrice": "0xf42cc",
      "from": "0xeff3521fb13228c767ad6dc3b934f9efac9c56ad",
      "to": "0x779877a7b0d9e8603169ddbd7836e478b4624789",
      "contractAddress": null
    },
    {
      "status": "0x1",
      "cumulativeGasUsed": "0x11e5abe",
      "logs": [
        {
          "address": "0x9ddcb877b4bf4e0674e56fe2b6cedd497fb87ffc",
          "topics": [
            "0x8c5be1e5ebec7d5bd14f71427d1e84f3dd0314c0f7b2291e5b200ac8c7c3b925",
            "0x000000000000000000000000eff3521fb13228c767ad6dc3b934f9efac9c56ad",
            "0x0000000000000000000000000bf3de8c5d3e8a2b34d2beeb17abfcebaf363a59"
          ],
          "data": "0x00000000000000000000000000000000000000000000000000002d79883d2000",
          "blockHash": "0x6cc621710ccd3a0f5433d6347a2639f499c9174d2332463eff18c11d3a965cd8",
          "blockNumber": "0x8f26cb",
          "blockTimestamp": "0x68e8cf3c",
          "transactionHash": "0x444d32815e2ceb307a3cc71534ad3bff98bc958c84d564d735263bd1ca0c4a3a",
          "transactionIndex": "0x78",
          "logIndex": "0xc3",
          "removed": false
        }
      ],
      "logsBloom": "0x00000000000040000000000000000000000000000000000000000000000000020000000000000000000000000000000000000000000000000000000000200000000000000002000000000000000000000000000000000000002000000000000000000000000100000000000000000000000000000000000000000000000000000000000000000000000000000000000000000000000000000000000000000000020000000000080000000000000000000000500000000000000000000000000000000000000000000000000000000000000000000000000000000000000000000010000000000000000000000000000000000000000000000000000000000004",
      "type": "0x2",
      "transactionHash": "0x444d32815e2ceb307a3cc71534ad3bff98bc958c84d564d735263bd1ca0c4a3a",
      "transactionIndex": "0x78",
      "blockHash": "0x6cc621710ccd3a0f5433d6347a2639f499c9174d2332463eff18c11d3a965cd8",
      "blockNumber": "0x8f26cb",
      "gasUsed": "0xb773",
      "effectiveGasPrice": "0xf42cc",
      "from": "0xeff3521fb13228c767ad6dc3b934f9efac9c56ad",
      "to": "0x9ddcb877b4bf4e0674e56fe2b6cedd497fb87ffc",
      "contractAddress": null
    },
    {
      "status": "0x1",
      "cumulativeGasUsed": "0x121f34e",
      "logs": [
        {
          "address": "0x779877a7b0d9e8603169ddbd7836e478b4624789",
          "topics": [
            "0xddf252ad1be2c89b69c2b068fc378daa952ba7f163c4a11628f55a4df523b3ef",
            "0x000000000000000000000000eff3521fb13228c767ad6dc3b934f9efac9c56ad",
            "0x000000000000000000000000b60d22a482a01482a8e3afe35c99e99286b2f830"
          ],
          "data": "0x0000000000000000000000000000000000000000000000000024b97d52a570cb",
          "blockHash": "0x6cc621710ccd3a0f5433d6347a2639f499c9174d2332463eff18c11d3a965cd8",
          "blockNumber": "0x8f26cb",
          "blockTimestamp": "0x68e8cf3c",
          "transactionHash": "0x847f95d807e2221c8b863f8aed7eef15d0392f0c395c79d4d15d493e2473932b",
          "transactionIndex": "0x79",
          "logIndex": "0xc4",
          "removed": false
        },
        {
          "address": "0x779877a7b0d9e8603169ddbd7836e478b4624789",
          "topics": [
            "0x8c5be1e5ebec7d5bd14f71427d1e84f3dd0314c0f7b2291e5b200ac8c7c3b925",
            "0x000000000000000000000000eff3521fb13228c767ad6dc3b934f9efac9c56ad",
            "0x0000000000000000000000000bf3de8c5d3e8a2b34d2beeb17abfcebaf363a59"
          ],
          "data": "0x0000000000000000000000000000000000000000000000000000000000000000",
          "blockHash": "0x6cc621710ccd3a0f5433d6347a2639f499c9174d2332463eff18c11d3a965cd8",
          "blockNumber": "0x8f26cb",
          "blockTimestamp": "0x68e8cf3c",
          "transactionHash": "0x847f95d807e2221c8b863f8aed7eef15d0392f0c395c79d4d15d493e2473932b",
          "transactionIndex": "0x79",
          "logIndex": "0xc5",
          "removed": false
        },
        {
          "address": "0x9ddcb877b4bf4e0674e56fe2b6cedd497fb87ffc",
          "topics": [
            "0xddf252ad1be2c89b69c2b068fc378daa952ba7f163c4a11628f55a4df523b3ef",
            "0x0000000000000000000000000000000000000000000000000000000000000000",
            "0x000000000000000000000000eff3521fb13228c767ad6dc3b934f9efac9c56ad"
          ],
          "data": "0x0000000000000000000000000000000000000000000000000000000e925cdb0f",
          "blockHash": "0x6cc621710ccd3a0f5433d6347a2639f499c9174d2332463eff18c11d3a965cd8",
          "blockNumber": "0x8f26cb",
          "blockTimestamp": "0x68e8cf3c",
          "transactionHash": "0x847f95d807e2221c8b863f8aed7eef15d0392f0c395c79d4d15d493e2473932b",
          "transactionIndex": "0x79",
          "logIndex": "0xc6",
          "removed": false
        },
        {
          "address": "0x9ddcb877b4bf4e0674e56fe2b6cedd497fb87ffc",
          "topics": [
            "0xddf252ad1be2c89b69c2b068fc378daa952ba7f163c4a11628f55a4df523b3ef",
            "0x0000000000000000000000000000000000000000000000000000000000000000",
            "0x000000000000000000000000e3f048618be93445341635f7d6371703414797a8"
          ],
          "data": "0x0000000000000000000000000000000000000000000000000000000000000000",
          "blockHash": "0x6cc621710ccd3a0f5433d6347a2639f499c9174d2332463eff18c11d3a965cd8",
          "blockNumber": "0x8f26cb",
          "blockTimestamp": "0x68e8cf3c",
          "transactionHash": "0x847f95d807e2221c8b863f8aed7eef15d0392f0c395c79d4d15d493e2473932b",
          "transactionIndex": "0x79",
          "logIndex": "0xc7",
          "removed": false
        },
        {
          "address": "0x9ddcb877b4bf4e0674e56fe2b6cedd497fb87ffc",
          "topics": [
            "0xddf252ad1be2c89b69c2b068fc378daa952ba7f163c4a11628f55a4df523b3ef",
            "0x000000000000000000000000eff3521fb13228c767ad6dc3b934f9efac9c56ad",
            "0x000000000000000000000000e3f048618be93445341635f7d6371703414797a8"
          ],
          "data": "0x00000000000000000000000000000000000000000000000000002d79883d2000",
          "blockHash": "0x6cc621710ccd3a0f5433d6347a2639f499c9174d2332463eff18c11d3a965cd8",
          "blockNumber": "0x8f26cb",
          "blockTimestamp": "0x68e8cf3c",
          "transactionHash": "0x847f95d807e2221c8b863f8aed7eef15d0392f0c395c79d4d15d493e2473932b",
          "transactionIndex": "0x79",
          "logIndex": "0xc8",
          "removed": false
        },
        {
          "address": "0x9ddcb877b4bf4e0674e56fe2b6cedd497fb87ffc",
          "topics": [
            "0xddf252ad1be2c89b69c2b068fc378daa952ba7f163c4a11628f55a4df523b3ef",
            "0x0000000000000000000000000000000000000000000000000000000000000000",
            "0x000000000000000000000000e3f048618be93445341635f7d6371703414797a8"
          ],
          "data": "0x0000000000000000000000000000000000000000000000000000000000000000",
          "blockHash": "0x6cc621710ccd3a0f5433d6347a2639f499c9174d2332463eff18c11d3a965cd8",
          "blockNumber": "0x8f26cb",
          "blockTimestamp": "0x68e8cf3c",
          "transactionHash": "0x847f95d807e2221c8b863f8aed7eef15d0392f0c395c79d4d15d493e2473932b",
          "transactionIndex": "0x79",
          "logIndex": "0xc9",
          "removed": false
        },
        {
          "address": "0x9ddcb877b4bf4e0674e56fe2b6cedd497fb87ffc",
          "topics": [
            "0xddf252ad1be2c89b69c2b068fc378daa952ba7f163c4a11628f55a4df523b3ef",
            "0x000000000000000000000000e3f048618be93445341635f7d6371703414797a8",
            "0x0000000000000000000000000000000000000000000000000000000000000000"
          ],
          "data": "0x00000000000000000000000000000000000000000000000000002d79883d2000",
          "blockHash": "0x6cc621710ccd3a0f5433d6347a2639f499c9174d2332463eff18c11d3a965cd8",
          "blockNumber": "0x8f26cb",
          "blockTimestamp": "0x68e8cf3c",
          "transactionHash": "0x847f95d807e2221c8b863f8aed7eef15d0392f0c395c79d4d15d493e2473932b",
          "transactionIndex": "0x79",
          "logIndex": "0xca",
          "removed": false
        },
        {
          "address": "0xb60d22a482a01482a8e3afe35c99e99286b2f830",
          "topics": [
            "0xd0c3c799bf9e2639de44391e7f524d229b2b55f5b1ea94b2bf7da42f7243dddd"
          ],
          "data": "0x0000000000000000000000000000000000000000000000000000000000000020000000000000000000000000000000000000000000000000de41ba4fc9d91ad9000000000000000000000000eff3521fb13228c767ad6dc3b934f9efac9c56ad000000000000000000000000eff3521fb13228c767ad6dc3b934f9efac9c56ad00000000000000000000000000000000000000000000000000000000000013c0000000000000000000000000000000000000000000000000000000000000000000000000000000000000000000000000000000000000000000000000000000000000000000000000000000000000000000000000000000000000000000000001000000000000000000000000779877a7b0d9e8603169ddbd7836e478b46247890000000000000000000000000000000000000000000000000024b97d52a570cb00000000000000000000000000000000000000000000000000000000000001a000000000000000000000000000000000000000000000000000000000000001c00000000000000000000000000000000000000000000000000000000000000220add709901e77795239330c4e59e6f5a4e94d8e6cabea52a0bc5c03345529ec81000000000000000000000000000000000000000000000000000000000000000000000000000000000000000000000000000000000000000000000000000000010000000000000000000000009ddcb877b4bf4e0674e56fe2b6cedd497fb87ffc00000000000000000000000000000000000000000000000000002d79883d20000000000000000000000000000000000000000000000000000000000000000001000000000000000000000000000000000000000000000000000000000000002000000000000000000000000000000000000000000000000000000000000001600000000000000000000000000000000000000000000000000000000000000020000000000000000000000000000000000000000000000000000000000000008000000000000000000000000000000000000000000000000000000000000000c000000000000000000000000000000000000000000000000000000000000001000000000000000000000000000000000000000000000000000000000000015f900000000000000000000000000000000000000000000000000000000000000020000000000000000000000000e3f048618be93445341635f7d6371703414797a800000000000000000000000000000000000000000000000000000000000000200000000000000000000000008e110ce664fdd508b71dfca39b8618482993d8ad00000000000000000000000000000000000000000000000000000000000000200000000000000000000000000000000000000000000000000000000ba43b7400",
          "blockHash": "0x6cc621710ccd3a0f5433d6347a2639f499c9174d2332463eff18c11d3a965cd8",
          "blockNumber": "0x8f26cb",
          "blockTimestamp": "0x68e8cf3c",
          "transactionHash": "0x847f95d807e2221c8b863f8aed7eef15d0392f0c395c79d4d15d493e2473932b",
          "transactionIndex": "0x79",
          "logIndex": "0xcb",
          "removed": false
        }
      ],
      "logsBloom": "0x00000004000040000000000200000000000000000000000000000000000000020000000000000000000000000000000000000000000000800000000800200000000000000002000000000008000000000000000000000000002000000000000000000000020100000000000000000800000000000000000000000010000000000000000000000000000000000000800000000000000000000000000000000000020000000000080400000000000000000000500000000000002100000000000000000002000000000000000000000000000000000000000100000000000020000010004000000000000000002000000004000000000000000000000008200004",
      "type": "0x2",
      "transactionHash": "0x847f95d807e2221c8b863f8aed7eef15d0392f0c395c79d4d15d493e2473932b",
      "transactionIndex": "0x79",
      "blockHash": "0x6cc621710ccd3a0f5433d6347a2639f499c9174d2332463eff18c11d3a965cd8",
      "blockNumber": "0x8f26cb",
      "gasUsed": "0x39890",
      "effectiveGasPrice": "0xf42cc",
      "from": "0xeff3521fb13228c767ad6dc3b934f9efac9c56ad",
      "to": "0x0bf3de8c5d3e8a2b34d2beeb17abfcebaf363a59",
      "contractAddress": null
    }
  ],
  "libraries": [],
  "pending": [],
  "returns": {},
  "timestamp": 1760087870,
  "chain": 11155111,
  "commit": "8557215"
}