{
  "transactions": [
    {
      "hash": "0x02900f134543edaf0ea52741b4270aeb613db58377c60b0f91c39d4cb9541e2e",
      "transactionType": "CALL",
      "contractName": null,
      "contractAddress": "0x779877a7b0d9e8603169ddbd7836e478b4624789",
      "function": "approve(address,uint256)",
      "arguments": [
        "0x0BF3dE8c5D3e8A2B34D2BEeB17ABfCeBaf363A59",
        "21165951596308201"
      ],
      "transaction": {
        "from": "0xeff3521fb13228c767ad6dc3b934f9efac9c56ad",
        "to": "0x779877a7b0d9e8603169ddbd7836e478b4624789",
        "gas": "0x1081f",
        "value": "0x0",
        "input": "0x095ea7b30000000000000000000000000bf3de8c5d3e8a2b34d2beeb17abfcebaf363a59000000000000000000000000000000000000000000000000004b3252223b26e9",
        "nonce": "0x62",
        "chainId": "0xaa36a7"
      },
      "additionalContracts": [],
      "isFixedGasLimit": false
    },
    {
      "hash": "0x7dd56b1d2057f9a6d6c285a368a075366f13186947c064deb5f698304693825c",
      "transactionType": "CALL",
      "contractName": null,
      "contractAddress": "0x1f4412e384fd74b78aa912e567787f6b3649e5e0",
      "function": "approve(address,uint256)",
      "arguments": [
        "0x0BF3dE8c5D3e8A2B34D2BEeB17ABfCeBaf363A59",
        "150000000000000"
      ],
      "transaction": {
        "from": "0xeff3521fb13228c767ad6dc3b934f9efac9c56ad",
        "to": "0x1f4412e384fd74b78aa912e567787f6b3649e5e0",
        "gas": "0x9204",
        "value": "0x0",
        "input": "0x095ea7b30000000000000000000000000bf3de8c5d3e8a2b34d2beeb17abfcebaf363a590000000000000000000000000000000000000000000000000000886c98b76000",
        "nonce": "0x63",
        "chainId": "0xaa36a7"
      },
      "additionalContracts": [],
      "isFixedGasLimit": false
    },
    {
      "hash": "0x549861836839f933296decb9a702779d61c3ad63c1f7b8ed42d3b6df255671a1",
      "transactionType": "CALL",
      "contractName": null,
      "contractAddress": "0x0bf3de8c5d3e8a2b34d2beeb17abfcebaf363a59",
      "function": "ccipSend(uint64,(bytes,bytes,(address,uint256)[],address,bytes))",
      "arguments": [
        "3478487238524512106",
        "(0x000000000000000000000000eff3521fb13228c767ad6dc3b934f9efac9c56ad, 0x, [(0x1F4412e384FD74b78aA912e567787f6B3649E5E0, 150000000000000)], 0x779877A7B0D9E8603169DdbD7836e478b4624789, 0x97a657c90000000000000000000000000000000000000000000000000000000000000000)"
      ],
      "transaction": {
        "from": "0xeff3521fb13228c767ad6dc3b934f9efac9c56ad",
        "to": "0x0bf3de8c5d3e8a2b34d2beeb17abfcebaf363a59",
        "gas": "0x4a515",
        "value": "0x0",
        "input": "0x96f4e9f9000000000000000000000000000000000000000000000000304611b6affba76a000000000000000000000000000000000000000000000000000000000000004000000000000000000000000000000000000000000000000000000000000000a000000000000000000000000000000000000000000000000000000000000000e00000000000000000000000000000000000000000000000000000000000000100000000000000000000000000779877a7b0d9e8603169ddbd7836e478b462478900000000000000000000000000000000000000000000000000000000000001600000000000000000000000000000000000000000000000000000000000000020000000000000000000000000eff3521fb13228c767ad6dc3b934f9efac9c56ad000000000000000000000000000000000000000000000000000000000000000000000000000000000000000000000000000000000000000000000000000000010000000000000000000000001f4412e384fd74b78aa912e567787f6b3649e5e00000000000000000000000000000000000000000000000000000886c98b76000000000000000000000000000000000000000000000000000000000000000002497a657c9000000000000000000000000000000000000000000000000000000000000000000000000000000000000000000000000000000000000000000000000",
        "nonce": "0x64",
        "chainId": "0xaa36a7"
      },
      "additionalContracts": [],
      "isFixedGasLimit": false
    }
  ],
  "receipts": [
    {
      "status": "0x1",
      "cumulativeGasUsed": "0xa6281e",
      "logs": [
        {
          "address": "0x779877a7b0d9e8603169ddbd7836e478b4624789",
          "topics": [
            "0x8c5be1e5ebec7d5bd14f71427d1e84f3dd0314c0f7b2291e5b200ac8c7c3b925",
            "0x000000000000000000000000eff3521fb13228c767ad6dc3b934f9efac9c56ad",
            "0x0000000000000000000000000bf3de8c5d3e8a2b34d2beeb17abfcebaf363a59"
          ],
          "data": "0x000000000000000000000000000000000000000000000000004b3252223b26e9",
          "blockHash": "0x669247e2e4615b41483476a88be96ddfe4e1f95e7546de13dd7201ec6339ddb2",
          "blockNumber": "0x8ed52a",
          "blockTimestamp": "0x68e4ceb0",
          "transactionHash": "0x02900f134543edaf0ea52741b4270aeb613db58377c60b0f91c39d4cb9541e2e",
          "transactionIndex": "0x54",
          "logIndex": "0x78",
          "removed": false
        }
      ],
      "logsBloom": "0x00000004000040000000000000000000000000000000000000000000000000020000000000000000000000000000000000000000000000000000000000200000000000000000000000000000000000000000000000000000002000000000000000000000000100000000000000000000000000000000000000000000000000000000000000000000000000000000800000000000000000000000000000000000020000000000080000000000000000000000100000000000000000000000000000000000000000000000000000000000000000000000000100000000000000000010000000000000000000000000000000000000000000000000000000000000",
      "type": "0x2",
      "transactionHash": "0x02900f134543edaf0ea52741b4270aeb613db58377c60b0f91c39d4cb9541e2e",
      "transactionIndex": "0x54",
      "blockHash": "0x669247e2e4615b41483476a88be96ddfe4e1f95e7546de13dd7201ec6339ddb2",
      "blockNumber": "0x8ed52a",
      "gasUsed": "0xb499",
      "effectiveGasPrice": "0xf426d",
      "from": "0xeff3521fb13228c767ad6dc3b934f9efac9c56ad",
      "to": "0x779877a7b0d9e8603169ddbd7836e478b4624789",
      "contractAddress": null
    },
    {
      "status": "0x1",
      "cumulativeGasUsed": "0xa691d5",
      "logs": [
        {
          "address": "0x1f4412e384fd74b78aa912e567787f6b3649e5e0",
          "topics": [
            "0x8c5be1e5ebec7d5bd14f71427d1e84f3dd0314c0f7b2291e5b200ac8c7c3b925",
            "0x000000000000000000000000eff3521fb13228c767ad6dc3b934f9efac9c56ad",
            "0x0000000000000000000000000bf3de8c5d3e8a2b34d2beeb17abfcebaf363a59"
          ],
          "data": "0x0000000000000000000000000000000000000000000000000000886c98b76000",
          "blockHash": "0x669247e2e4615b41483476a88be96ddfe4e1f95e7546de13dd7201ec6339ddb2",
          "blockNumber": "0x8ed52a",
          "blockTimestamp": "0x68e4ceb0",
          "transactionHash": "0x7dd56b1d2057f9a6d6c285a368a075366f13186947c064deb5f698304693825c",
          "transactionIndex": "0x55",
          "logIndex": "0x79",
          "removed": false
        }
      ],
      "logsBloom": "0x00000000000040000000000000000000000000000000000000000000000000020000000000000000000000000000000000000000000000000000000000200000000000000000000000000000000000000000000000000000002000000000000000000000000100000000000000000000000000000000000000000000000000000000000000000000000000000000000000000000000000000000000000000000020000000001080000000000000000000000100000000000000400000000000000000000000000000000000000000000000000000000400000000000000000000010000000000000000000000000000000000000000000000000000000000000",
      "type": "0x2",
      "transactionHash": "0x7dd56b1d2057f9a6d6c285a368a075366f13186947c064deb5f698304693825c",
      "transactionIndex": "0x55",
      "blockHash": "0x669247e2e4615b41483476a88be96ddfe4e1f95e7546de13dd7201ec6339ddb2",
      "blockNumber": "0x8ed52a",
      "gasUsed": "0x69b7",
      "effectiveGasPrice": "0xf426d",
      "from": "0xeff3521fb13228c767ad6dc3b934f9efac9c56ad",
      "to": "0x1f4412e384fd74b78aa912e567787f6b3649e5e0",
      "contractAddress": null
    },
    {
      "status": "0x1",
      "cumulativeGasUsed": "0xa9eeb5",
      "logs": [
        {
          "address": "0x779877a7b0d9e8603169ddbd7836e478b4624789",
          "topics": [
            "0xddf252ad1be2c89b69c2b068fc378daa952ba7f163c4a11628f55a4df523b3ef",
            "0x000000000000000000000000eff3521fb13228c767ad6dc3b934f9efac9c56ad",
            "0x000000000000000000000000bc09627e58989ba8f1eda775e486467d2a00944f"
          ],
          "data": "0x000000000000000000000000000000000000000000000000004b3252223b26e9",
          "blockHash": "0x669247e2e4615b41483476a88be96ddfe4e1f95e7546de13dd7201ec6339ddb2",
          "blockNumber": "0x8ed52a",
          "blockTimestamp": "0x68e4ceb0",
          "transactionHash": "0x549861836839f933296decb9a702779d61c3ad63c1f7b8ed42d3b6df255671a1",
          "transactionIndex": "0x56",
          "logIndex": "0x7a",
          "removed": false
        },
        {
          "address": "0x779877a7b0d9e8603169ddbd7836e478b4624789",
          "topics": [
            "0x8c5be1e5ebec7d5bd14f71427d1e84f3dd0314c0f7b2291e5b200ac8c7c3b925",
            "0x000000000000000000000000eff3521fb13228c767ad6dc3b934f9efac9c56ad",
            "0x0000000000000000000000000bf3de8c5d3e8a2b34d2beeb17abfcebaf363a59"
          ],
          "data": "0x0000000000000000000000000000000000000000000000000000000000000000",
          "blockHash": "0x669247e2e4615b41483476a88be96ddfe4e1f95e7546de13dd7201ec6339ddb2",
          "blockNumber": "0x8ed52a",
          "blockTimestamp": "0x68e4ceb0",
          "transactionHash": "0x549861836839f933296decb9a702779d61c3ad63c1f7b8ed42d3b6df255671a1",
          "transactionIndex": "0x56",
          "logIndex": "0x7b",
          "removed": false
        },
        {
          "address": "0x1f4412e384fd74b78aa912e567787f6b3649e5e0",
          "topics": [
            "0xddf252ad1be2c89b69c2b068fc378daa952ba7f163c4a11628f55a4df523b3ef",
            "0x0000000000000000000000000000000000000000000000000000000000000000",
            "0x000000000000000000000000eff3521fb13228c767ad6dc3b934f9efac9c56ad"
          ],
          "data": "0x00000000000000000000000000000000000000000000000000000000a0f1899a",
          "blockHash": "0x669247e2e4615b41483476a88be96ddfe4e1f95e7546de13dd7201ec6339ddb2",
          "blockNumber": "0x8ed52a",
          "blockTimestamp": "0x68e4ceb0",
          "transactionHash": "0x549861836839f933296decb9a702779d61c3ad63c1f7b8ed42d3b6df255671a1",
          "transactionIndex": "0x56",
          "logIndex": "0x7c",
          "removed": false
        },
        {
          "address": "0x1f4412e384fd74b78aa912e567787f6b3649e5e0",
          "topics": [
            "0xddf252ad1be2c89b69c2b068fc378daa952ba7f163c4a11628f55a4df523b3ef",
            "0x0000000000000000000000000000000000000000000000000000000000000000",
            "0x000000000000000000000000d1d65329242e9552392e2cde15558abdc3edba29"
          ],
          "data": "0x0000000000000000000000000000000000000000000000000000000000000000",
          "blockHash": "0x669247e2e4615b41483476a88be96ddfe4e1f95e7546de13dd7201ec6339ddb2",
          "blockNumber": "0x8ed52a",
          "blockTimestamp": "0x68e4ceb0",
          "transactionHash": "0x549861836839f933296decb9a702779d61c3ad63c1f7b8ed42d3b6df255671a1",
          "transactionIndex": "0x56",
          "logIndex": "0x7d",
          "removed": false
        },
        {
          "address": "0x1f4412e384fd74b78aa912e567787f6b3649e5e0",
          "topics": [
            "0xddf252ad1be2c89b69c2b068fc378daa952ba7f163c4a11628f55a4df523b3ef",
            "0x000000000000000000000000eff3521fb13228c767ad6dc3b934f9efac9c56ad",
            "0x000000000000000000000000d1d65329242e9552392e2cde15558abdc3edba29"
          ],
          "data": "0x0000000000000000000000000000000000000000000000000000886c98b76000",
          "blockHash": "0x669247e2e4615b41483476a88be96ddfe4e1f95e7546de13dd7201ec6339ddb2",
          "blockNumber": "0x8ed52a",
          "blockTimestamp": "0x68e4ceb0",
          "transactionHash": "0x549861836839f933296decb9a702779d61c3ad63c1f7b8ed42d3b6df255671a1",
          "transactionIndex": "0x56",
          "logIndex": "0x7e",
          "removed": false
        },
        {
          "address": "0x1f4412e384fd74b78aa912e567787f6b3649e5e0",
          "topics": [
            "0xddf252ad1be2c89b69c2b068fc378daa952ba7f163c4a11628f55a4df523b3ef",
            "0x0000000000000000000000000000000000000000000000000000000000000000",
            "0x000000000000000000000000d1d65329242e9552392e2cde15558abdc3edba29"
          ],
          "data": "0x0000000000000000000000000000000000000000000000000000000000000000",
          "blockHash": "0x669247e2e4615b41483476a88be96ddfe4e1f95e7546de13dd7201ec6339ddb2",
          "blockNumber": "0x8ed52a",
          "blockTimestamp": "0x68e4ceb0",
          "transactionHash": "0x549861836839f933296decb9a702779d61c3ad63c1f7b8ed42d3b6df255671a1",
          "transactionIndex": "0x56",
          "logIndex": "0x7f",
          "removed": false
        },
        {
          "address": "0x1f4412e384fd74b78aa912e567787f6b3649e5e0",
          "topics": [
            "0xddf252ad1be2c89b69c2b068fc378daa952ba7f163c4a11628f55a4df523b3ef",
            "0x000000000000000000000000d1d65329242e9552392e2cde15558abdc3edba29",
            "0x0000000000000000000000000000000000000000000000000000000000000000"
          ],
          "data": "0x0000000000000000000000000000000000000000000000000000886c98b76000",
          "blockHash": "0x669247e2e4615b41483476a88be96ddfe4e1f95e7546de13dd7201ec6339ddb2",
          "blockNumber": "0x8ed52a",
          "blockTimestamp": "0x68e4ceb0",
          "transactionHash": "0x549861836839f933296decb9a702779d61c3ad63c1f7b8ed42d3b6df255671a1",
          "transactionIndex": "0x56",
          "logIndex": "0x80",
          "removed": false
        },
        {
          "address": "0xbc09627e58989ba8f1eda775e486467d2a00944f",
          "topics": [
            "0xd0c3c799bf9e2639de44391e7f524d229b2b55f5b1ea94b2bf7da42f7243dddd"
          ],
          "data": "0x0000000000000000000000000000000000000000000000000000000000000020000000000000000000000000000000000000000000000000de41ba4fc9d91ad9000000000000000000000000eff3521fb13228c767ad6dc3b934f9efac9c56ad000000000000000000000000eff3521fb13228c767ad6dc3b934f9efac9c56ad00000000000000000000000000000000000000000000000000000000000050a5000000000000000000000000000000000000000000000000000000000000000000000000000000000000000000000000000000000000000000000000000000000000000000000000000000000000000000000000000000000000000000000002000000000000000000000000779877a7b0d9e8603169ddbd7836e478b4624789000000000000000000000000000000000000000000000000004b3252223b26e900000000000000000000000000000000000000000000000000000000000001a000000000000000000000000000000000000000000000000000000000000001c0000000000000000000000000000000000000000000000000000000000000022048f4b79acd78f2523e09812174a5a09cde22b62effc5297b8c83838f5831d31b000000000000000000000000000000000000000000000000000000000000000000000000000000000000000000000000000000000000000000000000000000010000000000000000000000001f4412e384fd74b78aa912e567787f6b3649e5e00000000000000000000000000000000000000000000000000000886c98b760000000000000000000000000000000000000000000000000000000000000000001000000000000000000000000000000000000000000000000000000000000002000000000000000000000000000000000000000000000000000000000000001600000000000000000000000000000000000000000000000000000000000000020000000000000000000000000000000000000000000000000000000000000008000000000000000000000000000000000000000000000000000000000000000c000000000000000000000000000000000000000000000000000000000000001000000000000000000000000000000000000000000000000000000000000015f900000000000000000000000000000000000000000000000000000000000000020000000000000000000000000d1d65329242e9552392e2cde15558abdc3edba2900000000000000000000000000000000000000000000000000000000000000200000000000000000000000008e110ce664fdd508b71dfca39b8618482993d8ad00000000000000000000000000000000000000000000000000000000000000200000000000000000000000000000000000000000000000000000000ba43b7400",
          "blockHash": "0x669247e2e4615b41483476a88be96ddfe4e1f95e7546de13dd7201ec6339ddb2",
          "blockNumber": "0x8ed52a",
          "blockTimestamp": "0x68e4ceb0",
          "transactionHash": "0x549861836839f933296decb9a702779d61c3ad63c1f7b8ed42d3b6df255671a1",
          "transactionIndex": "0x56",
          "logIndex": "0x81",
          "removed": false
        }
      ],
      "logsBloom": "0x00000004080040000000000000000000000000000000000000000000000000020000000000000000000000000000000000000000000000000000000000200000000100000000000000000008000000000000000000000000006000000000000000020000020100000000000000000800000000000000000000000010000000000000000000000000000000000000800000000000000000000000000000000000020000000001080400400000000000000000100000000000000500000000000000000002000000000000000002000000000000000000400100000000000020000014000000000000010000000000000004000000000000040000000000000000",
      "type": "0x2",
      "transactionHash": "0x549861836839f933296decb9a702779d61c3ad63c1f7b8ed42d3b6df255671a1",
      "transactionIndex": "0x56",
      "blockHash": "0x669247e2e4615b41483476a88be96ddfe4e1f95e7546de13dd7201ec6339ddb2",
      "blockNumber": "0x8ed52a",
      "gasUsed": "0x35ce0",
      "effectiveGasPrice": "0xf426d",
      "from": "0xeff3521fb13228c767ad6dc3b934f9efac9c56ad",
      "to": "0x0bf3de8c5d3e8a2b34d2beeb17abfcebaf363a59",
      "contractAddress": null
    }
  ],
  "libraries": [],
  "pending": [],
  "returns": {},
  "timestamp": 1759825585,
  "chain": 11155111,
  "commit": "2ad285e"
}